{
	"0502handleError.sol": {
		"remoteCall": {
			"abi": [
				{
					"inputs": [
						{
							"internalType": "address",
							"name": "remoteAddr",
							"type": "address"
						}
					],
					"stateMutability": "payable",
					"type": "constructor"
				},
				{
					"anonymous": false,
					"inputs": [
						{
							"indexed": false,
							"internalType": "string",
							"name": "_info",
							"type": "string"
						}
					],
					"name": "errorInfo",
					"type": "event"
				},
				{
					"inputs": [],
					"name": "remoteContract",
					"outputs": [
						{
							"internalType": "contract IhandleError",
							"name": "",
							"type": "address"
						}
					],
					"stateMutability": "view",
					"type": "function"
				},
				{
					"inputs": [
						{
							"internalType": "uint256",
							"name": "amount",
							"type": "uint256"
						}
					],
					"name": "remoteWithdraw",
					"outputs": [
						{
							"internalType": "bool",
							"name": "succeed",
							"type": "bool"
						},
						{
							"internalType": "string",
							"name": "runInfo",
							"type": "string"
						}
					],
					"stateMutability": "payable",
					"type": "function"
				},
				{
					"inputs": [],
					"name": "showBalance",
					"outputs": [
						{
							"internalType": "uint256",
							"name": "",
							"type": "uint256"
						}
					],
					"stateMutability": "view",
					"type": "function"
				},
				{
					"inputs": [],
					"name": "showRemoteBalance",
					"outputs": [
						{
							"internalType": "uint256",
							"name": "",
							"type": "uint256"
						}
					],
					"stateMutability": "view",
					"type": "function"
				},
				{
					"inputs": [],
					"name": "withdrawBalance",
					"outputs": [
						{
							"internalType": "uint256",
							"name": "",
							"type": "uint256"
						}
					],
					"stateMutability": "view",
					"type": "function"
				},
				{
					"stateMutability": "payable",
					"type": "receive"
				}
			],
			"devdoc": {
				"kind": "dev",
				"methods": {},
				"version": 1
			},
			"evm": {
				"assembly": "    /* \"0502handleError.sol\":731:1790  contract remoteCall {... */\n  mstore(0x40, 0x80)\n    /* \"0502handleError.sol\":787:788  0 */\n  0x00\n    /* \"0502handleError.sol\":757:788  uint public withdrawBalance = 0 */\n  0x00\n  sstore\n    /* \"0502handleError.sol\":891:989  constructor(address remoteAddr) payable {... */\n  mload(0x40)\n  sub(codesize, bytecodeSize)\n  dup1\n  bytecodeSize\n  dup4\n  codecopy\n  dup2\n  dup2\n  add\n  0x40\n  mstore\n  dup2\n  add\n  swap1\n  tag_1\n  swap2\n  swap1\n  tag_2\n  jump\t// in\ntag_1:\n    /* \"0502handleError.sol\":971:981  remoteAddr */\n  dup1\n    /* \"0502handleError.sol\":941:955  remoteContract */\n  0x01\n  0x00\n    /* \"0502handleError.sol\":941:982  remoteContract = IhandleError(remoteAddr) */\n  0x0100\n  exp\n  dup2\n  sload\n  dup2\n  0xffffffffffffffffffffffffffffffffffffffff\n  mul\n  not\n  and\n  swap1\n  dup4\n  0xffffffffffffffffffffffffffffffffffffffff\n  and\n  mul\n  or\n  swap1\n  sstore\n  pop\n    /* \"0502handleError.sol\":891:989  constructor(address remoteAddr) payable {... */\n  pop\n    /* \"0502handleError.sol\":731:1790  contract remoteCall {... */\n  jump(tag_5)\n    /* \"#utility.yul\":88:205   */\ntag_7:\n    /* \"#utility.yul\":197:198   */\n  0x00\n    /* \"#utility.yul\":194:195   */\n  0x00\n    /* \"#utility.yul\":187:199   */\n  revert\n    /* \"#utility.yul\":334:460   */\ntag_9:\n    /* \"#utility.yul\":371:378   */\n  0x00\n    /* \"#utility.yul\":411:453   */\n  0xffffffffffffffffffffffffffffffffffffffff\n    /* \"#utility.yul\":404:409   */\n  dup3\n    /* \"#utility.yul\":400:454   */\n  and\n    /* \"#utility.yul\":389:454   */\n  swap1\n  pop\n    /* \"#utility.yul\":334:460   */\n  swap2\n  swap1\n  pop\n  jump\t// out\n    /* \"#utility.yul\":466:562   */\ntag_10:\n    /* \"#utility.yul\":503:510   */\n  0x00\n    /* \"#utility.yul\":532:556   */\n  tag_19\n    /* \"#utility.yul\":550:555   */\n  dup3\n    /* \"#utility.yul\":532:556   */\n  tag_9\n  jump\t// in\ntag_19:\n    /* \"#utility.yul\":521:556   */\n  swap1\n  pop\n    /* \"#utility.yul\":466:562   */\n  swap2\n  swap1\n  pop\n  jump\t// out\n    /* \"#utility.yul\":568:690   */\ntag_11:\n    /* \"#utility.yul\":641:665   */\n  tag_21\n    /* \"#utility.yul\":659:664   */\n  dup2\n    /* \"#utility.yul\":641:665   */\n  tag_10\n  jump\t// in\ntag_21:\n    /* \"#utility.yul\":634:639   */\n  dup2\n    /* \"#utility.yul\":631:666   */\n  eq\n    /* \"#utility.yul\":621:684   */\n  tag_22\n  jumpi\n    /* \"#utility.yul\":680:681   */\n  0x00\n    /* \"#utility.yul\":677:678   */\n  0x00\n    /* \"#utility.yul\":670:682   */\n  revert\n    /* \"#utility.yul\":621:684   */\ntag_22:\n    /* \"#utility.yul\":568:690   */\n  pop\n  jump\t// out\n    /* \"#utility.yul\":696:839   */\ntag_12:\n    /* \"#utility.yul\":753:758   */\n  0x00\n    /* \"#utility.yul\":784:790   */\n  dup2\n    /* \"#utility.yul\":778:791   */\n  mload\n    /* \"#utility.yul\":769:791   */\n  swap1\n  pop\n    /* \"#utility.yul\":800:833   */\n  tag_24\n    /* \"#utility.yul\":827:832   */\n  dup2\n    /* \"#utility.yul\":800:833   */\n  tag_11\n  jump\t// in\ntag_24:\n    /* \"#utility.yul\":696:839   */\n  swap3\n  swap2\n  pop\n  pop\n  jump\t// out\n    /* \"#utility.yul\":845:1196   */\ntag_2:\n    /* \"#utility.yul\":915:921   */\n  0x00\n    /* \"#utility.yul\":964:966   */\n  0x20\n    /* \"#utility.yul\":952:961   */\n  dup3\n    /* \"#utility.yul\":943:950   */\n  dup5\n    /* \"#utility.yul\":939:962   */\n  sub\n    /* \"#utility.yul\":935:967   */\n  slt\n    /* \"#utility.yul\":932:1051   */\n  iszero\n  tag_26\n  jumpi\n    /* \"#utility.yul\":970:1049   */\n  tag_27\n  tag_7\n  jump\t// in\ntag_27:\n    /* \"#utility.yul\":932:1051   */\ntag_26:\n    /* \"#utility.yul\":1090:1091   */\n  0x00\n    /* \"#utility.yul\":1115:1179   */\n  tag_28\n    /* \"#utility.yul\":1171:1178   */\n  dup5\n    /* \"#utility.yul\":1162:1168   */\n  dup3\n    /* \"#utility.yul\":1151:1160   */\n  dup6\n    /* \"#utility.yul\":1147:1169   */\n  add\n    /* \"#utility.yul\":1115:1179   */\n  tag_12\n  jump\t// in\ntag_28:\n    /* \"#utility.yul\":1105:1179   */\n  swap2\n  pop\n    /* \"#utility.yul\":1061:1189   */\n  pop\n    /* \"#utility.yul\":845:1196   */\n  swap3\n  swap2\n  pop\n  pop\n  jump\t// out\n    /* \"0502handleError.sol\":731:1790  contract remoteCall {... */\ntag_5:\n  dataSize(sub_0)\n  dup1\n  dataOffset(sub_0)\n  0x00\n  codecopy\n  0x00\n  return\nstop\n\nsub_0: assembly {\n        /* \"0502handleError.sol\":731:1790  contract remoteCall {... */\n      mstore(0x40, 0x80)\n      jumpi(tag_1, lt(calldatasize, 0x04))\n      shr(0xe0, calldataload(0x00))\n      dup1\n      0x0663b2d1\n      eq\n      tag_3\n      jumpi\n      dup1\n      0x30660fc0\n      eq\n      tag_4\n      jumpi\n      dup1\n      0x5fd8c710\n      eq\n      tag_5\n      jumpi\n      dup1\n      0x81b2d07b\n      eq\n      tag_6\n      jumpi\n      dup1\n      0xb10fc68e\n      eq\n      tag_7\n      jumpi\n      jump(tag_2)\n    tag_1:\n      jumpi(tag_2, calldatasize)\n      stop\n    tag_2:\n      revert(0x00, 0x00)\n        /* \"0502handleError.sol\":794:828  IhandleError public remoteContract */\n    tag_3:\n      callvalue\n      dup1\n      iszero\n      tag_10\n      jumpi\n      revert(0x00, 0x00)\n    tag_10:\n      pop\n      tag_11\n      tag_12\n      jump\t// in\n    tag_11:\n      mload(0x40)\n      tag_13\n      swap2\n      swap1\n      tag_14\n      jump\t// in\n    tag_13:\n      mload(0x40)\n      dup1\n      swap2\n      sub\n      swap1\n      return\n        /* \"0502handleError.sol\":995:1102  function showRemoteBalance() public view returns(uint) {... */\n    tag_4:\n      callvalue\n      dup1\n      iszero\n      tag_15\n      jumpi\n      revert(0x00, 0x00)\n    tag_15:\n      pop\n      tag_16\n      tag_17\n      jump\t// in\n    tag_16:\n      mload(0x40)\n      tag_18\n      swap2\n      swap1\n      tag_19\n      jump\t// in\n    tag_18:\n      mload(0x40)\n      dup1\n      swap2\n      sub\n      swap1\n      return\n        /* \"0502handleError.sol\":757:788  uint public withdrawBalance = 0 */\n    tag_5:\n      callvalue\n      dup1\n      iszero\n      tag_20\n      jumpi\n      revert(0x00, 0x00)\n    tag_20:\n      pop\n      tag_21\n      tag_22\n      jump\t// in\n    tag_21:\n      mload(0x40)\n      tag_23\n      swap2\n      swap1\n      tag_19\n      jump\t// in\n    tag_23:\n      mload(0x40)\n      dup1\n      swap2\n      sub\n      swap1\n      return\n        /* \"0502handleError.sol\":1695:1788  function showBalance() public view returns(uint){... */\n    tag_6:\n      callvalue\n      dup1\n      iszero\n      tag_24\n      jumpi\n      revert(0x00, 0x00)\n    tag_24:\n      pop\n      tag_25\n      tag_26\n      jump\t// in\n    tag_25:\n      mload(0x40)\n      tag_27\n      swap2\n      swap1\n      tag_19\n      jump\t// in\n    tag_27:\n      mload(0x40)\n      dup1\n      swap2\n      sub\n      swap1\n      return\n        /* \"0502handleError.sol\":1179:1689  function remoteWithdraw(uint amount) public payable ... */\n    tag_7:\n      tag_28\n      0x04\n      dup1\n      calldatasize\n      sub\n      dup2\n      add\n      swap1\n      tag_29\n      swap2\n      swap1\n      tag_30\n      jump\t// in\n    tag_29:\n      tag_31\n      jump\t// in\n    tag_28:\n      mload(0x40)\n      tag_32\n      swap3\n      swap2\n      swap1\n      tag_33\n      jump\t// in\n    tag_32:\n      mload(0x40)\n      dup1\n      swap2\n      sub\n      swap1\n      return\n        /* \"0502handleError.sol\":794:828  IhandleError public remoteContract */\n    tag_12:\n      0x01\n      0x00\n      swap1\n      sload\n      swap1\n      0x0100\n      exp\n      swap1\n      div\n      0xffffffffffffffffffffffffffffffffffffffff\n      and\n      dup2\n      jump\t// out\n        /* \"0502handleError.sol\":995:1102  function showRemoteBalance() public view returns(uint) {... */\n    tag_17:\n        /* \"0502handleError.sol\":1044:1048  uint */\n      0x00\n        /* \"0502handleError.sol\":1067:1081  remoteContract */\n      0x01\n      0x00\n      swap1\n      sload\n      swap1\n      0x0100\n      exp\n      swap1\n      div\n      0xffffffffffffffffffffffffffffffffffffffff\n      and\n        /* \"0502handleError.sol\":1067:1093  remoteContract.showBalance */\n      0xffffffffffffffffffffffffffffffffffffffff\n      and\n      0x81b2d07b\n        /* \"0502handleError.sol\":1067:1095  remoteContract.showBalance() */\n      mload(0x40)\n      dup2\n      0xffffffff\n      and\n      0xe0\n      shl\n      dup2\n      mstore\n      0x04\n      add\n      0x20\n      mload(0x40)\n      dup1\n      dup4\n      sub\n      dup2\n      dup7\n      gas\n      staticcall\n      iszero\n      dup1\n      iszero\n      tag_36\n      jumpi\n      returndatacopy(0x00, 0x00, returndatasize)\n      revert(0x00, returndatasize)\n    tag_36:\n      pop\n      pop\n      pop\n      pop\n      mload(0x40)\n      returndatasize\n      not(0x1f)\n      0x1f\n      dup3\n      add\n      and\n      dup3\n      add\n      dup1\n      0x40\n      mstore\n      pop\n      dup2\n      add\n      swap1\n      tag_37\n      swap2\n      swap1\n      tag_38\n      jump\t// in\n    tag_37:\n        /* \"0502handleError.sol\":1060:1095  return remoteContract.showBalance() */\n      swap1\n      pop\n        /* \"0502handleError.sol\":995:1102  function showRemoteBalance() public view returns(uint) {... */\n      swap1\n      jump\t// out\n        /* \"0502handleError.sol\":757:788  uint public withdrawBalance = 0 */\n    tag_22:\n      sload(0x00)\n      dup2\n      jump\t// out\n        /* \"0502handleError.sol\":1695:1788  function showBalance() public view returns(uint){... */\n    tag_26:\n        /* \"0502handleError.sol\":1738:1742  uint */\n      0x00\n        /* \"0502handleError.sol\":1760:1781  address(this).balance */\n      selfbalance\n        /* \"0502handleError.sol\":1753:1781  return address(this).balance */\n      swap1\n      pop\n        /* \"0502handleError.sol\":1695:1788  function showBalance() public view returns(uint){... */\n      swap1\n      jump\t// out\n        /* \"0502handleError.sol\":1179:1689  function remoteWithdraw(uint amount) public payable ... */\n    tag_31:\n        /* \"0502handleError.sol\":1249:1261  bool succeed */\n      0x00\n        /* \"0502handleError.sol\":1263:1284  string memory runInfo */\n      0x60\n        /* \"0502handleError.sol\":1300:1314  remoteContract */\n      0x01\n      0x00\n      swap1\n      sload\n      swap1\n      0x0100\n      exp\n      swap1\n      div\n      0xffffffffffffffffffffffffffffffffffffffff\n      and\n        /* \"0502handleError.sol\":1300:1323  remoteContract.withdraw */\n      0xffffffffffffffffffffffffffffffffffffffff\n      and\n      0x2e1a7d4d\n        /* \"0502handleError.sol\":1324:1330  amount */\n      dup5\n        /* \"0502handleError.sol\":1300:1331  remoteContract.withdraw(amount) */\n      mload(0x40)\n      dup3\n      0xffffffff\n      and\n      0xe0\n      shl\n      dup2\n      mstore\n      0x04\n      add\n      tag_41\n      swap2\n      swap1\n      tag_19\n      jump\t// in\n    tag_41:\n      0x00\n      mload(0x40)\n      dup1\n      dup4\n      sub\n      dup2\n      0x00\n      dup8\n      dup1\n      extcodesize\n      iszero\n      dup1\n      iszero\n      tag_42\n      jumpi\n      revert(0x00, 0x00)\n    tag_42:\n      pop\n      gas\n      call\n      swap3\n      pop\n      pop\n      pop\n      dup1\n      iszero\n      tag_43\n      jumpi\n      pop\n      0x01\n    tag_43:\n        /* \"0502handleError.sol\":1296:1683  try remoteContract.withdraw(amount) {... */\n      tag_44\n      jumpi\n      tag_48\n      tag_49\n      jump\t// in\n    tag_48:\n      dup1\n      0x08c379a0\n      sub\n      tag_47\n      jumpi\n      pop\n      tag_50\n      tag_51\n      jump\t// in\n    tag_50:\n      dup1\n      tag_52\n      jumpi\n      pop\n      jump(tag_46)\n    tag_52:\n        /* \"0502handleError.sol\":1488:1503  errorInfo(info) */\n      0x56e4919dcbb21a595881073f42fa61e3ef75ae03a53cb1dc9064a89bb34f0e31\n        /* \"0502handleError.sol\":1498:1502  info */\n      dup2\n        /* \"0502handleError.sol\":1488:1503  errorInfo(info) */\n      mload(0x40)\n      tag_53\n      swap2\n      swap1\n      tag_54\n      jump\t// in\n    tag_53:\n      mload(0x40)\n      dup1\n      swap2\n      sub\n      swap1\n      log1\n        /* \"0502handleError.sol\":1525:1530  false */\n      0x00\n        /* \"0502handleError.sol\":1532:1536  info */\n      dup2\n        /* \"0502handleError.sol\":1517:1537  return (false, info) */\n      swap3\n      pop\n      swap3\n      pop\n      pop\n      jump(tag_40)\n        /* \"0502handleError.sol\":1296:1683  try remoteContract.withdraw(amount) {... */\n    tag_47:\n      pop\n    tag_46:\n      returndatasize\n      dup1\n      0x00\n      dup2\n      eq\n      tag_56\n      jumpi\n      mload(0x40)\n      swap2\n      pop\n      and(add(returndatasize, 0x3f), not(0x1f))\n      dup3\n      add\n      0x40\n      mstore\n      returndatasize\n      dup3\n      mstore\n      returndatasize\n      0x00\n      0x20\n      dup5\n      add\n      returndatacopy\n      jump(tag_55)\n    tag_56:\n      0x60\n      swap2\n      pop\n    tag_55:\n      pop\n        /* \"0502handleError.sol\":1599:1626  errorInfo(string(rawError)) */\n      0x56e4919dcbb21a595881073f42fa61e3ef75ae03a53cb1dc9064a89bb34f0e31\n        /* \"0502handleError.sol\":1616:1624  rawError */\n      dup2\n        /* \"0502handleError.sol\":1599:1626  errorInfo(string(rawError)) */\n      mload(0x40)\n      tag_57\n      swap2\n      swap1\n      tag_54\n      jump\t// in\n    tag_57:\n      mload(0x40)\n      dup1\n      swap2\n      sub\n      swap1\n      log1\n        /* \"0502handleError.sol\":1648:1653  false */\n      0x00\n        /* \"0502handleError.sol\":1662:1670  rawError */\n      dup2\n        /* \"0502handleError.sol\":1640:1672  return (false, string(rawError)) */\n      swap3\n      pop\n      swap3\n      pop\n      pop\n      jump(tag_40)\n        /* \"0502handleError.sol\":1296:1683  try remoteContract.withdraw(amount) {... */\n    tag_44:\n        /* \"0502handleError.sol\":1365:1371  amount */\n      dup3\n        /* \"0502handleError.sol\":1346:1361  withdrawBalance */\n      0x00\n      0x00\n        /* \"0502handleError.sol\":1346:1371  withdrawBalance += amount */\n      dup3\n      dup3\n      sload\n      tag_59\n      swap2\n      swap1\n      tag_60\n      jump\t// in\n    tag_59:\n      swap3\n      pop\n      pop\n      dup2\n      swap1\n      sstore\n      pop\n        /* \"0502handleError.sol\":1393:1397  true */\n      0x01\n        /* \"0502handleError.sol\":1385:1425  return (true, 'remote withdraw success') */\n      mload(0x40)\n      dup1\n      0x40\n      add\n      0x40\n      mstore\n      dup1\n      0x17\n      dup2\n      mstore\n      0x20\n      add\n      0x72656d6f74652077697468647261772073756363657373000000000000000000\n      dup2\n      mstore\n      pop\n      swap2\n      pop\n      swap2\n      pop\n        /* \"0502handleError.sol\":1179:1689  function remoteWithdraw(uint amount) public payable ... */\n    tag_40:\n      swap2\n      pop\n      swap2\n      jump\t// out\n        /* \"#utility.yul\":7:133   */\n    tag_61:\n        /* \"#utility.yul\":44:51   */\n      0x00\n        /* \"#utility.yul\":84:126   */\n      0xffffffffffffffffffffffffffffffffffffffff\n        /* \"#utility.yul\":77:82   */\n      dup3\n        /* \"#utility.yul\":73:127   */\n      and\n        /* \"#utility.yul\":62:127   */\n      swap1\n      pop\n        /* \"#utility.yul\":7:133   */\n      swap2\n      swap1\n      pop\n      jump\t// out\n        /* \"#utility.yul\":139:199   */\n    tag_62:\n        /* \"#utility.yul\":167:170   */\n      0x00\n        /* \"#utility.yul\":188:193   */\n      dup2\n        /* \"#utility.yul\":181:193   */\n      swap1\n      pop\n        /* \"#utility.yul\":139:199   */\n      swap2\n      swap1\n      pop\n      jump\t// out\n        /* \"#utility.yul\":205:347   */\n    tag_63:\n        /* \"#utility.yul\":255:264   */\n      0x00\n        /* \"#utility.yul\":288:341   */\n      tag_90\n        /* \"#utility.yul\":306:340   */\n      tag_91\n        /* \"#utility.yul\":315:339   */\n      tag_92\n        /* \"#utility.yul\":333:338   */\n      dup5\n        /* \"#utility.yul\":315:339   */\n      tag_61\n      jump\t// in\n    tag_92:\n        /* \"#utility.yul\":306:340   */\n      tag_62\n      jump\t// in\n    tag_91:\n        /* \"#utility.yul\":288:341   */\n      tag_61\n      jump\t// in\n    tag_90:\n        /* \"#utility.yul\":275:341   */\n      swap1\n      pop\n        /* \"#utility.yul\":205:347   */\n      swap2\n      swap1\n      pop\n      jump\t// out\n        /* \"#utility.yul\":353:479   */\n    tag_64:\n        /* \"#utility.yul\":403:412   */\n      0x00\n        /* \"#utility.yul\":436:473   */\n      tag_94\n        /* \"#utility.yul\":467:472   */\n      dup3\n        /* \"#utility.yul\":436:473   */\n      tag_63\n      jump\t// in\n    tag_94:\n        /* \"#utility.yul\":423:473   */\n      swap1\n      pop\n        /* \"#utility.yul\":353:479   */\n      swap2\n      swap1\n      pop\n      jump\t// out\n        /* \"#utility.yul\":485:630   */\n    tag_65:\n        /* \"#utility.yul\":554:563   */\n      0x00\n        /* \"#utility.yul\":587:624   */\n      tag_96\n        /* \"#utility.yul\":618:623   */\n      dup3\n        /* \"#utility.yul\":587:624   */\n      tag_64\n      jump\t// in\n    tag_96:\n        /* \"#utility.yul\":574:624   */\n      swap1\n      pop\n        /* \"#utility.yul\":485:630   */\n      swap2\n      swap1\n      pop\n      jump\t// out\n        /* \"#utility.yul\":636:805   */\n    tag_66:\n        /* \"#utility.yul\":742:798   */\n      tag_98\n        /* \"#utility.yul\":792:797   */\n      dup2\n        /* \"#utility.yul\":742:798   */\n      tag_65\n      jump\t// in\n    tag_98:\n        /* \"#utility.yul\":737:740   */\n      dup3\n        /* \"#utility.yul\":730:799   */\n      mstore\n        /* \"#utility.yul\":636:805   */\n      pop\n      pop\n      jump\t// out\n        /* \"#utility.yul\":811:1071   */\n    tag_14:\n        /* \"#utility.yul\":923:927   */\n      0x00\n        /* \"#utility.yul\":961:963   */\n      0x20\n        /* \"#utility.yul\":950:959   */\n      dup3\n        /* \"#utility.yul\":946:964   */\n      add\n        /* \"#utility.yul\":938:964   */\n      swap1\n      pop\n        /* \"#utility.yul\":974:1064   */\n      tag_100\n        /* \"#utility.yul\":1061:1062   */\n      0x00\n        /* \"#utility.yul\":1050:1059   */\n      dup4\n        /* \"#utility.yul\":1046:1063   */\n      add\n        /* \"#utility.yul\":1037:1043   */\n      dup5\n        /* \"#utility.yul\":974:1064   */\n      tag_66\n      jump\t// in\n    tag_100:\n        /* \"#utility.yul\":811:1071   */\n      swap3\n      swap2\n      pop\n      pop\n      jump\t// out\n        /* \"#utility.yul\":1077:1154   */\n    tag_67:\n        /* \"#utility.yul\":1114:1121   */\n      0x00\n        /* \"#utility.yul\":1143:1148   */\n      dup2\n        /* \"#utility.yul\":1132:1148   */\n      swap1\n      pop\n        /* \"#utility.yul\":1077:1154   */\n      swap2\n      swap1\n      pop\n      jump\t// out\n        /* \"#utility.yul\":1160:1278   */\n    tag_68:\n        /* \"#utility.yul\":1247:1271   */\n      tag_103\n        /* \"#utility.yul\":1265:1270   */\n      dup2\n        /* \"#utility.yul\":1247:1271   */\n      tag_67\n      jump\t// in\n    tag_103:\n        /* \"#utility.yul\":1242:1245   */\n      dup3\n        /* \"#utility.yul\":1235:1272   */\n      mstore\n        /* \"#utility.yul\":1160:1278   */\n      pop\n      pop\n      jump\t// out\n        /* \"#utility.yul\":1284:1506   */\n    tag_19:\n        /* \"#utility.yul\":1377:1381   */\n      0x00\n        /* \"#utility.yul\":1415:1417   */\n      0x20\n        /* \"#utility.yul\":1404:1413   */\n      dup3\n        /* \"#utility.yul\":1400:1418   */\n      add\n        /* \"#utility.yul\":1392:1418   */\n      swap1\n      pop\n        /* \"#utility.yul\":1428:1499   */\n      tag_105\n        /* \"#utility.yul\":1496:1497   */\n      0x00\n        /* \"#utility.yul\":1485:1494   */\n      dup4\n        /* \"#utility.yul\":1481:1498   */\n      add\n        /* \"#utility.yul\":1472:1478   */\n      dup5\n        /* \"#utility.yul\":1428:1499   */\n      tag_68\n      jump\t// in\n    tag_105:\n        /* \"#utility.yul\":1284:1506   */\n      swap3\n      swap2\n      pop\n      pop\n      jump\t// out\n        /* \"#utility.yul\":1512:1587   */\n    tag_69:\n        /* \"#utility.yul\":1545:1551   */\n      0x00\n        /* \"#utility.yul\":1578:1580   */\n      0x40\n        /* \"#utility.yul\":1572:1581   */\n      mload\n        /* \"#utility.yul\":1562:1581   */\n      swap1\n      pop\n        /* \"#utility.yul\":1512:1587   */\n      swap1\n      jump\t// out\n        /* \"#utility.yul\":1593:1710   */\n    tag_70:\n        /* \"#utility.yul\":1702:1703   */\n      0x00\n        /* \"#utility.yul\":1699:1700   */\n      0x00\n        /* \"#utility.yul\":1692:1704   */\n      revert\n        /* \"#utility.yul\":1839:1961   */\n    tag_72:\n        /* \"#utility.yul\":1912:1936   */\n      tag_110\n        /* \"#utility.yul\":1930:1935   */\n      dup2\n        /* \"#utility.yul\":1912:1936   */\n      tag_67\n      jump\t// in\n    tag_110:\n        /* \"#utility.yul\":1905:1910   */\n      dup2\n        /* \"#utility.yul\":1902:1937   */\n      eq\n        /* \"#utility.yul\":1892:1955   */\n      tag_111\n      jumpi\n        /* \"#utility.yul\":1951:1952   */\n      0x00\n        /* \"#utility.yul\":1948:1949   */\n      0x00\n        /* \"#utility.yul\":1941:1953   */\n      revert\n        /* \"#utility.yul\":1892:1955   */\n    tag_111:\n        /* \"#utility.yul\":1839:1961   */\n      pop\n      jump\t// out\n        /* \"#utility.yul\":1967:2106   */\n    tag_73:\n        /* \"#utility.yul\":2013:2018   */\n      0x00\n        /* \"#utility.yul\":2051:2057   */\n      dup2\n        /* \"#utility.yul\":2038:2058   */\n      calldataload\n        /* \"#utility.yul\":2029:2058   */\n      swap1\n      pop\n        /* \"#utility.yul\":2067:2100   */\n      tag_113\n        /* \"#utility.yul\":2094:2099   */\n      dup2\n        /* \"#utility.yul\":2067:2100   */\n      tag_72\n      jump\t// in\n    tag_113:\n        /* \"#utility.yul\":1967:2106   */\n      swap3\n      swap2\n      pop\n      pop\n      jump\t// out\n        /* \"#utility.yul\":2112:2441   */\n    tag_30:\n        /* \"#utility.yul\":2171:2177   */\n      0x00\n        /* \"#utility.yul\":2220:2222   */\n      0x20\n        /* \"#utility.yul\":2208:2217   */\n      dup3\n        /* \"#utility.yul\":2199:2206   */\n      dup5\n        /* \"#utility.yul\":2195:2218   */\n      sub\n        /* \"#utility.yul\":2191:2223   */\n      slt\n        /* \"#utility.yul\":2188:2307   */\n      iszero\n      tag_115\n      jumpi\n        /* \"#utility.yul\":2226:2305   */\n      tag_116\n      tag_70\n      jump\t// in\n    tag_116:\n        /* \"#utility.yul\":2188:2307   */\n    tag_115:\n        /* \"#utility.yul\":2346:2347   */\n      0x00\n        /* \"#utility.yul\":2371:2424   */\n      tag_117\n        /* \"#utility.yul\":2416:2423   */\n      dup5\n        /* \"#utility.yul\":2407:2413   */\n      dup3\n        /* \"#utility.yul\":2396:2405   */\n      dup6\n        /* \"#utility.yul\":2392:2414   */\n      add\n        /* \"#utility.yul\":2371:2424   */\n      tag_73\n      jump\t// in\n    tag_117:\n        /* \"#utility.yul\":2361:2424   */\n      swap2\n      pop\n        /* \"#utility.yul\":2317:2434   */\n      pop\n        /* \"#utility.yul\":2112:2441   */\n      swap3\n      swap2\n      pop\n      pop\n      jump\t// out\n        /* \"#utility.yul\":2447:2537   */\n    tag_74:\n        /* \"#utility.yul\":2481:2488   */\n      0x00\n        /* \"#utility.yul\":2524:2529   */\n      dup2\n        /* \"#utility.yul\":2517:2530   */\n      iszero\n        /* \"#utility.yul\":2510:2531   */\n      iszero\n        /* \"#utility.yul\":2499:2531   */\n      swap1\n      pop\n        /* \"#utility.yul\":2447:2537   */\n      swap2\n      swap1\n      pop\n      jump\t// out\n        /* \"#utility.yul\":2543:2652   */\n    tag_75:\n        /* \"#utility.yul\":2624:2645   */\n      tag_120\n        /* \"#utility.yul\":2639:2644   */\n      dup2\n        /* \"#utility.yul\":2624:2645   */\n      tag_74\n      jump\t// in\n    tag_120:\n        /* \"#utility.yul\":2619:2622   */\n      dup3\n        /* \"#utility.yul\":2612:2646   */\n      mstore\n        /* \"#utility.yul\":2543:2652   */\n      pop\n      pop\n      jump\t// out\n        /* \"#utility.yul\":2658:2757   */\n    tag_76:\n        /* \"#utility.yul\":2710:2716   */\n      0x00\n        /* \"#utility.yul\":2744:2749   */\n      dup2\n        /* \"#utility.yul\":2738:2750   */\n      mload\n        /* \"#utility.yul\":2728:2750   */\n      swap1\n      pop\n        /* \"#utility.yul\":2658:2757   */\n      swap2\n      swap1\n      pop\n      jump\t// out\n        /* \"#utility.yul\":2763:2932   */\n    tag_77:\n        /* \"#utility.yul\":2847:2858   */\n      0x00\n        /* \"#utility.yul\":2881:2887   */\n      dup3\n        /* \"#utility.yul\":2876:2879   */\n      dup3\n        /* \"#utility.yul\":2869:2888   */\n      mstore\n        /* \"#utility.yul\":2921:2925   */\n      0x20\n        /* \"#utility.yul\":2916:2919   */\n      dup3\n        /* \"#utility.yul\":2912:2926   */\n      add\n        /* \"#utility.yul\":2897:2926   */\n      swap1\n      pop\n        /* \"#utility.yul\":2763:2932   */\n      swap3\n      swap2\n      pop\n      pop\n      jump\t// out\n        /* \"#utility.yul\":2938:3077   */\n    tag_78:\n        /* \"#utility.yul\":3027:3033   */\n      dup3\n        /* \"#utility.yul\":3022:3025   */\n      dup2\n        /* \"#utility.yul\":3017:3020   */\n      dup4\n        /* \"#utility.yul\":3011:3034   */\n      mcopy\n        /* \"#utility.yul\":3068:3069   */\n      0x00\n        /* \"#utility.yul\":3059:3065   */\n      dup4\n        /* \"#utility.yul\":3054:3057   */\n      dup4\n        /* \"#utility.yul\":3050:3066   */\n      add\n        /* \"#utility.yul\":3043:3070   */\n      mstore\n        /* \"#utility.yul\":2938:3077   */\n      pop\n      pop\n      pop\n      jump\t// out\n        /* \"#utility.yul\":3083:3185   */\n    tag_79:\n        /* \"#utility.yul\":3124:3130   */\n      0x00\n        /* \"#utility.yul\":3175:3177   */\n      0x1f\n        /* \"#utility.yul\":3171:3178   */\n      not\n        /* \"#utility.yul\":3166:3168   */\n      0x1f\n        /* \"#utility.yul\":3159:3164   */\n      dup4\n        /* \"#utility.yul\":3155:3169   */\n      add\n        /* \"#utility.yul\":3151:3179   */\n      and\n        /* \"#utility.yul\":3141:3179   */\n      swap1\n      pop\n        /* \"#utility.yul\":3083:3185   */\n      swap2\n      swap1\n      pop\n      jump\t// out\n        /* \"#utility.yul\":3191:3568   */\n    tag_80:\n        /* \"#utility.yul\":3279:3282   */\n      0x00\n        /* \"#utility.yul\":3307:3346   */\n      tag_126\n        /* \"#utility.yul\":3340:3345   */\n      dup3\n        /* \"#utility.yul\":3307:3346   */\n      tag_76\n      jump\t// in\n    tag_126:\n        /* \"#utility.yul\":3362:3433   */\n      tag_127\n        /* \"#utility.yul\":3426:3432   */\n      dup2\n        /* \"#utility.yul\":3421:3424   */\n      dup6\n        /* \"#utility.yul\":3362:3433   */\n      tag_77\n      jump\t// in\n    tag_127:\n        /* \"#utility.yul\":3355:3433   */\n      swap4\n      pop\n        /* \"#utility.yul\":3442:3507   */\n      tag_128\n        /* \"#utility.yul\":3500:3506   */\n      dup2\n        /* \"#utility.yul\":3495:3498   */\n      dup6\n        /* \"#utility.yul\":3488:3492   */\n      0x20\n        /* \"#utility.yul\":3481:3486   */\n      dup7\n        /* \"#utility.yul\":3477:3493   */\n      add\n        /* \"#utility.yul\":3442:3507   */\n      tag_78\n      jump\t// in\n    tag_128:\n        /* \"#utility.yul\":3532:3561   */\n      tag_129\n        /* \"#utility.yul\":3554:3560   */\n      dup2\n        /* \"#utility.yul\":3532:3561   */\n      tag_79\n      jump\t// in\n    tag_129:\n        /* \"#utility.yul\":3527:3530   */\n      dup5\n        /* \"#utility.yul\":3523:3562   */\n      add\n        /* \"#utility.yul\":3516:3562   */\n      swap2\n      pop\n        /* \"#utility.yul\":3283:3568   */\n      pop\n        /* \"#utility.yul\":3191:3568   */\n      swap3\n      swap2\n      pop\n      pop\n      jump\t// out\n        /* \"#utility.yul\":3574:3985   */\n    tag_33:\n        /* \"#utility.yul\":3709:3713   */\n      0x00\n        /* \"#utility.yul\":3747:3749   */\n      0x40\n        /* \"#utility.yul\":3736:3745   */\n      dup3\n        /* \"#utility.yul\":3732:3750   */\n      add\n        /* \"#utility.yul\":3724:3750   */\n      swap1\n      pop\n        /* \"#utility.yul\":3760:3825   */\n      tag_131\n        /* \"#utility.yul\":3822:3823   */\n      0x00\n        /* \"#utility.yul\":3811:3820   */\n      dup4\n        /* \"#utility.yul\":3807:3824   */\n      add\n        /* \"#utility.yul\":3798:3804   */\n      dup6\n        /* \"#utility.yul\":3760:3825   */\n      tag_75\n      jump\t// in\n    tag_131:\n        /* \"#utility.yul\":3872:3881   */\n      dup2\n        /* \"#utility.yul\":3866:3870   */\n      dup2\n        /* \"#utility.yul\":3862:3882   */\n      sub\n        /* \"#utility.yul\":3857:3859   */\n      0x20\n        /* \"#utility.yul\":3846:3855   */\n      dup4\n        /* \"#utility.yul\":3842:3860   */\n      add\n        /* \"#utility.yul\":3835:3883   */\n      mstore\n        /* \"#utility.yul\":3900:3978   */\n      tag_132\n        /* \"#utility.yul\":3973:3977   */\n      dup2\n        /* \"#utility.yul\":3964:3970   */\n      dup5\n        /* \"#utility.yul\":3900:3978   */\n      tag_80\n      jump\t// in\n    tag_132:\n        /* \"#utility.yul\":3892:3978   */\n      swap1\n      pop\n        /* \"#utility.yul\":3574:3985   */\n      swap4\n      swap3\n      pop\n      pop\n      pop\n      jump\t// out\n        /* \"#utility.yul\":3991:4134   */\n    tag_81:\n        /* \"#utility.yul\":4048:4053   */\n      0x00\n        /* \"#utility.yul\":4079:4085   */\n      dup2\n        /* \"#utility.yul\":4073:4086   */\n      mload\n        /* \"#utility.yul\":4064:4086   */\n      swap1\n      pop\n        /* \"#utility.yul\":4095:4128   */\n      tag_134\n        /* \"#utility.yul\":4122:4127   */\n      dup2\n        /* \"#utility.yul\":4095:4128   */\n      tag_72\n      jump\t// in\n    tag_134:\n        /* \"#utility.yul\":3991:4134   */\n      swap3\n      swap2\n      pop\n      pop\n      jump\t// out\n        /* \"#utility.yul\":4140:4491   */\n    tag_38:\n        /* \"#utility.yul\":4210:4216   */\n      0x00\n        /* \"#utility.yul\":4259:4261   */\n      0x20\n        /* \"#utility.yul\":4247:4256   */\n      dup3\n        /* \"#utility.yul\":4238:4245   */\n      dup5\n        /* \"#utility.yul\":4234:4257   */\n      sub\n        /* \"#utility.yul\":4230:4262   */\n      slt\n        /* \"#utility.yul\":4227:4346   */\n      iszero\n      tag_136\n      jumpi\n        /* \"#utility.yul\":4265:4344   */\n      tag_137\n      tag_70\n      jump\t// in\n    tag_137:\n        /* \"#utility.yul\":4227:4346   */\n    tag_136:\n        /* \"#utility.yul\":4385:4386   */\n      0x00\n        /* \"#utility.yul\":4410:4474   */\n      tag_138\n        /* \"#utility.yul\":4466:4473   */\n      dup5\n        /* \"#utility.yul\":4457:4463   */\n      dup3\n        /* \"#utility.yul\":4446:4455   */\n      dup6\n        /* \"#utility.yul\":4442:4464   */\n      add\n        /* \"#utility.yul\":4410:4474   */\n      tag_81\n      jump\t// in\n    tag_138:\n        /* \"#utility.yul\":4400:4474   */\n      swap2\n      pop\n        /* \"#utility.yul\":4356:4484   */\n      pop\n        /* \"#utility.yul\":4140:4491   */\n      swap3\n      swap2\n      pop\n      pop\n      jump\t// out\n        /* \"#utility.yul\":4497:4603   */\n    tag_82:\n        /* \"#utility.yul\":4541:4549   */\n      0x00\n        /* \"#utility.yul\":4590:4595   */\n      dup2\n        /* \"#utility.yul\":4585:4588   */\n      0xe0\n        /* \"#utility.yul\":4581:4596   */\n      shr\n        /* \"#utility.yul\":4560:4596   */\n      swap1\n      pop\n        /* \"#utility.yul\":4497:4603   */\n      swap2\n      swap1\n      pop\n      jump\t// out\n        /* \"#utility.yul\":4609:4792   */\n    tag_49:\n        /* \"#utility.yul\":4644:4647   */\n      0x00\n        /* \"#utility.yul\":4682:4683   */\n      0x03\n        /* \"#utility.yul\":4664:4680   */\n      returndatasize\n        /* \"#utility.yul\":4661:4684   */\n      gt\n        /* \"#utility.yul\":4658:4786   */\n      iszero\n      tag_141\n      jumpi\n        /* \"#utility.yul\":4720:4721   */\n      0x04\n        /* \"#utility.yul\":4717:4718   */\n      0x00\n        /* \"#utility.yul\":4714:4715   */\n      0x00\n        /* \"#utility.yul\":4699:4722   */\n      returndatacopy\n        /* \"#utility.yul\":4742:4776   */\n      tag_142\n        /* \"#utility.yul\":4773:4774   */\n      0x00\n        /* \"#utility.yul\":4767:4775   */\n      mload\n        /* \"#utility.yul\":4742:4776   */\n      tag_82\n      jump\t// in\n    tag_142:\n        /* \"#utility.yul\":4735:4776   */\n      swap1\n      pop\n        /* \"#utility.yul\":4658:4786   */\n    tag_141:\n        /* \"#utility.yul\":4609:4792   */\n      swap1\n      jump\t// out\n        /* \"#utility.yul\":4798:4978   */\n    tag_83:\n        /* \"#utility.yul\":4846:4923   */\n      0x4e487b7100000000000000000000000000000000000000000000000000000000\n        /* \"#utility.yul\":4843:4844   */\n      0x00\n        /* \"#utility.yul\":4836:4924   */\n      mstore\n        /* \"#utility.yul\":4943:4947   */\n      0x41\n        /* \"#utility.yul\":4940:4941   */\n      0x04\n        /* \"#utility.yul\":4933:4948   */\n      mstore\n        /* \"#utility.yul\":4967:4971   */\n      0x24\n        /* \"#utility.yul\":4964:4965   */\n      0x00\n        /* \"#utility.yul\":4957:4972   */\n      revert\n        /* \"#utility.yul\":4984:5265   */\n    tag_84:\n        /* \"#utility.yul\":5067:5094   */\n      tag_145\n        /* \"#utility.yul\":5089:5093   */\n      dup3\n        /* \"#utility.yul\":5067:5094   */\n      tag_79\n      jump\t// in\n    tag_145:\n        /* \"#utility.yul\":5059:5065   */\n      dup2\n        /* \"#utility.yul\":5055:5095   */\n      add\n        /* \"#utility.yul\":5197:5203   */\n      dup2\n        /* \"#utility.yul\":5185:5195   */\n      dup2\n        /* \"#utility.yul\":5182:5204   */\n      lt\n        /* \"#utility.yul\":5161:5179   */\n      0xffffffffffffffff\n        /* \"#utility.yul\":5149:5159   */\n      dup3\n        /* \"#utility.yul\":5146:5180   */\n      gt\n        /* \"#utility.yul\":5143:5205   */\n      or\n        /* \"#utility.yul\":5140:5228   */\n      iszero\n      tag_146\n      jumpi\n        /* \"#utility.yul\":5208:5226   */\n      tag_147\n      tag_83\n      jump\t// in\n    tag_147:\n        /* \"#utility.yul\":5140:5228   */\n    tag_146:\n        /* \"#utility.yul\":5248:5258   */\n      dup1\n        /* \"#utility.yul\":5244:5246   */\n      0x40\n        /* \"#utility.yul\":5237:5259   */\n      mstore\n        /* \"#utility.yul\":5027:5265   */\n      pop\n        /* \"#utility.yul\":4984:5265   */\n      pop\n      pop\n      jump\t// out\n        /* \"#utility.yul\":5271:5982   */\n    tag_51:\n        /* \"#utility.yul\":5310:5313   */\n      0x00\n        /* \"#utility.yul\":5348:5352   */\n      0x44\n        /* \"#utility.yul\":5330:5346   */\n      returndatasize\n        /* \"#utility.yul\":5327:5353   */\n      lt\n        /* \"#utility.yul\":5356:5361   */\n      tag_148\n        /* \"#utility.yul\":5324:5363   */\n      jumpi\n        /* \"#utility.yul\":5385:5405   */\n      tag_150\n      tag_69\n      jump\t// in\n    tag_150:\n        /* \"#utility.yul\":5460:5461   */\n      0x04\n        /* \"#utility.yul\":5442:5458   */\n      returndatasize\n        /* \"#utility.yul\":5438:5462   */\n      sub\n        /* \"#utility.yul\":5435:5436   */\n      0x04\n        /* \"#utility.yul\":5429:5433   */\n      dup3\n        /* \"#utility.yul\":5414:5463   */\n      returndatacopy\n        /* \"#utility.yul\":5493:5497   */\n      dup1\n        /* \"#utility.yul\":5487:5498   */\n      mload\n        /* \"#utility.yul\":5592:5608   */\n      returndatasize\n        /* \"#utility.yul\":5585:5589   */\n      0x24\n        /* \"#utility.yul\":5577:5583   */\n      dup3\n        /* \"#utility.yul\":5573:5590   */\n      add\n        /* \"#utility.yul\":5570:5609   */\n      gt\n        /* \"#utility.yul\":5537:5555   */\n      0xffffffffffffffff\n        /* \"#utility.yul\":5529:5535   */\n      dup3\n        /* \"#utility.yul\":5526:5556   */\n      gt\n        /* \"#utility.yul\":5510:5623   */\n      or\n        /* \"#utility.yul\":5507:5653   */\n      iszero\n      tag_151\n      jumpi\n        /* \"#utility.yul\":5638:5643   */\n      pop\n      pop\n      jump(tag_148)\n        /* \"#utility.yul\":5507:5653   */\n    tag_151:\n        /* \"#utility.yul\":5684:5690   */\n      dup1\n        /* \"#utility.yul\":5678:5682   */\n      dup3\n        /* \"#utility.yul\":5674:5691   */\n      add\n        /* \"#utility.yul\":5720:5723   */\n      dup1\n        /* \"#utility.yul\":5714:5724   */\n      mload\n        /* \"#utility.yul\":5747:5765   */\n      0xffffffffffffffff\n        /* \"#utility.yul\":5739:5745   */\n      dup2\n        /* \"#utility.yul\":5736:5766   */\n      gt\n        /* \"#utility.yul\":5733:5776   */\n      iszero\n      tag_152\n      jumpi\n        /* \"#utility.yul\":5769:5774   */\n      pop\n      pop\n      pop\n      pop\n      jump(tag_148)\n        /* \"#utility.yul\":5733:5776   */\n    tag_152:\n        /* \"#utility.yul\":5817:5823   */\n      dup1\n        /* \"#utility.yul\":5810:5814   */\n      0x20\n        /* \"#utility.yul\":5805:5808   */\n      dup4\n        /* \"#utility.yul\":5801:5815   */\n      add\n        /* \"#utility.yul\":5797:5824   */\n      add\n        /* \"#utility.yul\":5876:5877   */\n      0x04\n        /* \"#utility.yul\":5858:5874   */\n      returndatasize\n        /* \"#utility.yul\":5854:5878   */\n      sub\n        /* \"#utility.yul\":5848:5852   */\n      dup6\n        /* \"#utility.yul\":5844:5879   */\n      add\n        /* \"#utility.yul\":5839:5842   */\n      dup2\n        /* \"#utility.yul\":5836:5880   */\n      gt\n        /* \"#utility.yul\":5833:5890   */\n      iszero\n      tag_153\n      jumpi\n        /* \"#utility.yul\":5883:5888   */\n      pop\n      pop\n      pop\n      pop\n      pop\n      jump(tag_148)\n        /* \"#utility.yul\":5833:5890   */\n    tag_153:\n        /* \"#utility.yul\":5900:5957   */\n      tag_154\n        /* \"#utility.yul\":5948:5954   */\n      dup3\n        /* \"#utility.yul\":5942:5946   */\n      0x20\n        /* \"#utility.yul\":5938:5955   */\n      add\n        /* \"#utility.yul\":5930:5936   */\n      dup6\n        /* \"#utility.yul\":5926:5956   */\n      add\n        /* \"#utility.yul\":5920:5924   */\n      dup7\n        /* \"#utility.yul\":5900:5957   */\n      tag_84\n      jump\t// in\n    tag_154:\n        /* \"#utility.yul\":5973:5976   */\n      dup3\n        /* \"#utility.yul\":5966:5976   */\n      swap6\n      pop\n        /* \"#utility.yul\":5314:5982   */\n      pop\n      pop\n      pop\n      pop\n      pop\n        /* \"#utility.yul\":5271:5982   */\n    tag_148:\n      swap1\n      jump\t// out\n        /* \"#utility.yul\":5988:6301   */\n    tag_54:\n        /* \"#utility.yul\":6101:6105   */\n      0x00\n        /* \"#utility.yul\":6139:6141   */\n      0x20\n        /* \"#utility.yul\":6128:6137   */\n      dup3\n        /* \"#utility.yul\":6124:6142   */\n      add\n        /* \"#utility.yul\":6116:6142   */\n      swap1\n      pop\n        /* \"#utility.yul\":6188:6197   */\n      dup2\n        /* \"#utility.yul\":6182:6186   */\n      dup2\n        /* \"#utility.yul\":6178:6198   */\n      sub\n        /* \"#utility.yul\":6174:6175   */\n      0x00\n        /* \"#utility.yul\":6163:6172   */\n      dup4\n        /* \"#utility.yul\":6159:6176   */\n      add\n        /* \"#utility.yul\":6152:6199   */\n      mstore\n        /* \"#utility.yul\":6216:6294   */\n      tag_156\n        /* \"#utility.yul\":6289:6293   */\n      dup2\n        /* \"#utility.yul\":6280:6286   */\n      dup5\n        /* \"#utility.yul\":6216:6294   */\n      tag_80\n      jump\t// in\n    tag_156:\n        /* \"#utility.yul\":6208:6294   */\n      swap1\n      pop\n        /* \"#utility.yul\":5988:6301   */\n      swap3\n      swap2\n      pop\n      pop\n      jump\t// out\n        /* \"#utility.yul\":6307:6487   */\n    tag_85:\n        /* \"#utility.yul\":6355:6432   */\n      0x4e487b7100000000000000000000000000000000000000000000000000000000\n        /* \"#utility.yul\":6352:6353   */\n      0x00\n        /* \"#utility.yul\":6345:6433   */\n      mstore\n        /* \"#utility.yul\":6452:6456   */\n      0x11\n        /* \"#utility.yul\":6449:6450   */\n      0x04\n        /* \"#utility.yul\":6442:6457   */\n      mstore\n        /* \"#utility.yul\":6476:6480   */\n      0x24\n        /* \"#utility.yul\":6473:6474   */\n      0x00\n        /* \"#utility.yul\":6466:6481   */\n      revert\n        /* \"#utility.yul\":6493:6684   */\n    tag_60:\n        /* \"#utility.yul\":6533:6536   */\n      0x00\n        /* \"#utility.yul\":6552:6572   */\n      tag_159\n        /* \"#utility.yul\":6570:6571   */\n      dup3\n        /* \"#utility.yul\":6552:6572   */\n      tag_67\n      jump\t// in\n    tag_159:\n        /* \"#utility.yul\":6547:6572   */\n      swap2\n      pop\n        /* \"#utility.yul\":6586:6606   */\n      tag_160\n        /* \"#utility.yul\":6604:6605   */\n      dup4\n        /* \"#utility.yul\":6586:6606   */\n      tag_67\n      jump\t// in\n    tag_160:\n        /* \"#utility.yul\":6581:6606   */\n      swap3\n      pop\n        /* \"#utility.yul\":6629:6630   */\n      dup3\n        /* \"#utility.yul\":6626:6627   */\n      dup3\n        /* \"#utility.yul\":6622:6631   */\n      add\n        /* \"#utility.yul\":6615:6631   */\n      swap1\n      pop\n        /* \"#utility.yul\":6650:6653   */\n      dup1\n        /* \"#utility.yul\":6647:6648   */\n      dup3\n        /* \"#utility.yul\":6644:6654   */\n      gt\n        /* \"#utility.yul\":6641:6677   */\n      iszero\n      tag_161\n      jumpi\n        /* \"#utility.yul\":6657:6675   */\n      tag_162\n      tag_85\n      jump\t// in\n    tag_162:\n        /* \"#utility.yul\":6641:6677   */\n    tag_161:\n        /* \"#utility.yul\":6493:6684   */\n      swap3\n      swap2\n      pop\n      pop\n      jump\t// out\n\n    auxdata: 0xa2646970667358221220ef85183c84b76f129f7bbec9fc31c134992a4d911aa4d5229546bebd8f1e55eb64736f6c634300081d0033\n}\n",
				"bytecode": {
					"linkReferences": {},
					"object": "60806040525f5f556040516108a63803806108a6833981810160405281019061002891906100cc565b8060015f6101000a81548173ffffffffffffffffffffffffffffffffffffffff021916908373ffffffffffffffffffffffffffffffffffffffff160217905550506100f7565b5f5ffd5b5f73ffffffffffffffffffffffffffffffffffffffff82169050919050565b5f61009b82610072565b9050919050565b6100ab81610091565b81146100b5575f5ffd5b50565b5f815190506100c6816100a2565b92915050565b5f602082840312156100e1576100e061006e565b5b5f6100ee848285016100b8565b91505092915050565b6107a2806101045f395ff3fe60806040526004361061004d575f3560e01c80630663b2d11461005857806330660fc0146100825780635fd8c710146100ac57806381b2d07b146100d6578063b10fc68e1461010057610054565b3661005457005b5f5ffd5b348015610063575f5ffd5b5061006c610131565b6040516100799190610431565b60405180910390f35b34801561008d575f5ffd5b50610096610156565b6040516100a39190610462565b60405180910390f35b3480156100b7575f5ffd5b506100c06101ea565b6040516100cd9190610462565b60405180910390f35b3480156100e1575f5ffd5b506100ea6101ef565b6040516100f79190610462565b60405180910390f35b61011a600480360381019061011591906104b2565b6101f6565b604051610128929190610567565b60405180910390f35b60015f9054906101000a900473ffffffffffffffffffffffffffffffffffffffff1681565b5f60015f9054906101000a900473ffffffffffffffffffffffffffffffffffffffff1673ffffffffffffffffffffffffffffffffffffffff166381b2d07b6040518163ffffffff1660e01b8152600401602060405180830381865afa1580156101c1573d5f5f3e3d5ffd5b505050506040513d601f19601f820116820180604052508101906101e591906105a9565b905090565b5f5481565b5f47905090565b5f606060015f9054906101000a900473ffffffffffffffffffffffffffffffffffffffff1673ffffffffffffffffffffffffffffffffffffffff16632e1a7d4d846040518263ffffffff1660e01b81526004016102539190610462565b5f604051808303815f87803b15801561026a575f5ffd5b505af192505050801561027b575060015b61035e576102876105e0565b806308c379a0036102e9575061029b61065d565b806102a657506102eb565b7f56e4919dcbb21a595881073f42fa61e3ef75ae03a53cb1dc9064a89bb34f0e31816040516102d591906106ec565b60405180910390a15f8192509250506103b2565b505b3d805f8114610315576040519150601f19603f3d011682016040523d82523d5f602084013e61031a565b606091505b507f56e4919dcbb21a595881073f42fa61e3ef75ae03a53cb1dc9064a89bb34f0e318160405161034a91906106ec565b60405180910390a15f8192509250506103b2565b825f5f82825461036e9190610739565b9250508190555060016040518060400160405280601781526020017f72656d6f74652077697468647261772073756363657373000000000000000000815250915091505b915091565b5f73ffffffffffffffffffffffffffffffffffffffff82169050919050565b5f819050919050565b5f6103f96103f46103ef846103b7565b6103d6565b6103b7565b9050919050565b5f61040a826103df565b9050919050565b5f61041b82610400565b9050919050565b61042b81610411565b82525050565b5f6020820190506104445f830184610422565b92915050565b5f819050919050565b61045c8161044a565b82525050565b5f6020820190506104755f830184610453565b92915050565b5f604051905090565b5f5ffd5b6104918161044a565b811461049b575f5ffd5b50565b5f813590506104ac81610488565b92915050565b5f602082840312156104c7576104c6610484565b5b5f6104d48482850161049e565b91505092915050565b5f8115159050919050565b6104f1816104dd565b82525050565b5f81519050919050565b5f82825260208201905092915050565b8281835e5f83830152505050565b5f601f19601f8301169050919050565b5f610539826104f7565b6105438185610501565b9350610553818560208601610511565b61055c8161051f565b840191505092915050565b5f60408201905061057a5f8301856104e8565b818103602083015261058c818461052f565b90509392505050565b5f815190506105a381610488565b92915050565b5f602082840312156105be576105bd610484565b5b5f6105cb84828501610595565b91505092915050565b5f8160e01c9050919050565b5f60033d11156105fc5760045f5f3e6105f95f516105d4565b90505b90565b7f4e487b71000000000000000000000000000000000000000000000000000000005f52604160045260245ffd5b6106358261051f565b810181811067ffffffffffffffff82111715610654576106536105ff565b5b80604052505050565b5f60443d106106e95761066e61047b565b60043d036004823e80513d602482011167ffffffffffffffff821117156106965750506106e9565b808201805167ffffffffffffffff8111156106b457505050506106e9565b80602083010160043d0385018111156106d15750505050506106e9565b6106e08260200185018661062c565b82955050505050505b90565b5f6020820190508181035f830152610704818461052f565b905092915050565b7f4e487b71000000000000000000000000000000000000000000000000000000005f52601160045260245ffd5b5f6107438261044a565b915061074e8361044a565b92508282019050808211156107665761076561070c565b5b9291505056fea2646970667358221220ef85183c84b76f129f7bbec9fc31c134992a4d911aa4d5229546bebd8f1e55eb64736f6c634300081d0033",
					"opcodes": "PUSH1 0x80 PUSH1 0x40 MSTORE PUSH0 PUSH0 SSTORE PUSH1 0x40 MLOAD PUSH2 0x8A6 CODESIZE SUB DUP1 PUSH2 0x8A6 DUP4 CODECOPY DUP2 DUP2 ADD PUSH1 0x40 MSTORE DUP2 ADD SWAP1 PUSH2 0x28 SWAP2 SWAP1 PUSH2 0xCC JUMP JUMPDEST DUP1 PUSH1 0x1 PUSH0 PUSH2 0x100 EXP DUP2 SLOAD DUP2 PUSH20 0xFFFFFFFFFFFFFFFFFFFFFFFFFFFFFFFFFFFFFFFF MUL NOT AND SWAP1 DUP4 PUSH20 0xFFFFFFFFFFFFFFFFFFFFFFFFFFFFFFFFFFFFFFFF AND MUL OR SWAP1 SSTORE POP POP PUSH2 0xF7 JUMP JUMPDEST PUSH0 PUSH0 REVERT JUMPDEST PUSH0 PUSH20 0xFFFFFFFFFFFFFFFFFFFFFFFFFFFFFFFFFFFFFFFF DUP3 AND SWAP1 POP SWAP2 SWAP1 POP JUMP JUMPDEST PUSH0 PUSH2 0x9B DUP3 PUSH2 0x72 JUMP JUMPDEST SWAP1 POP SWAP2 SWAP1 POP JUMP JUMPDEST PUSH2 0xAB DUP2 PUSH2 0x91 JUMP JUMPDEST DUP2 EQ PUSH2 0xB5 JUMPI PUSH0 PUSH0 REVERT JUMPDEST POP JUMP JUMPDEST PUSH0 DUP2 MLOAD SWAP1 POP PUSH2 0xC6 DUP2 PUSH2 0xA2 JUMP JUMPDEST SWAP3 SWAP2 POP POP JUMP JUMPDEST PUSH0 PUSH1 0x20 DUP3 DUP5 SUB SLT ISZERO PUSH2 0xE1 JUMPI PUSH2 0xE0 PUSH2 0x6E JUMP JUMPDEST JUMPDEST PUSH0 PUSH2 0xEE DUP5 DUP3 DUP6 ADD PUSH2 0xB8 JUMP JUMPDEST SWAP2 POP POP SWAP3 SWAP2 POP POP JUMP JUMPDEST PUSH2 0x7A2 DUP1 PUSH2 0x104 PUSH0 CODECOPY PUSH0 RETURN INVALID PUSH1 0x80 PUSH1 0x40 MSTORE PUSH1 0x4 CALLDATASIZE LT PUSH2 0x4D JUMPI PUSH0 CALLDATALOAD PUSH1 0xE0 SHR DUP1 PUSH4 0x663B2D1 EQ PUSH2 0x58 JUMPI DUP1 PUSH4 0x30660FC0 EQ PUSH2 0x82 JUMPI DUP1 PUSH4 0x5FD8C710 EQ PUSH2 0xAC JUMPI DUP1 PUSH4 0x81B2D07B EQ PUSH2 0xD6 JUMPI DUP1 PUSH4 0xB10FC68E EQ PUSH2 0x100 JUMPI PUSH2 0x54 JUMP JUMPDEST CALLDATASIZE PUSH2 0x54 JUMPI STOP JUMPDEST PUSH0 PUSH0 REVERT JUMPDEST CALLVALUE DUP1 ISZERO PUSH2 0x63 JUMPI PUSH0 PUSH0 REVERT JUMPDEST POP PUSH2 0x6C PUSH2 0x131 JUMP JUMPDEST PUSH1 0x40 MLOAD PUSH2 0x79 SWAP2 SWAP1 PUSH2 0x431 JUMP JUMPDEST PUSH1 0x40 MLOAD DUP1 SWAP2 SUB SWAP1 RETURN JUMPDEST CALLVALUE DUP1 ISZERO PUSH2 0x8D JUMPI PUSH0 PUSH0 REVERT JUMPDEST POP PUSH2 0x96 PUSH2 0x156 JUMP JUMPDEST PUSH1 0x40 MLOAD PUSH2 0xA3 SWAP2 SWAP1 PUSH2 0x462 JUMP JUMPDEST PUSH1 0x40 MLOAD DUP1 SWAP2 SUB SWAP1 RETURN JUMPDEST CALLVALUE DUP1 ISZERO PUSH2 0xB7 JUMPI PUSH0 PUSH0 REVERT JUMPDEST POP PUSH2 0xC0 PUSH2 0x1EA JUMP JUMPDEST PUSH1 0x40 MLOAD PUSH2 0xCD SWAP2 SWAP1 PUSH2 0x462 JUMP JUMPDEST PUSH1 0x40 MLOAD DUP1 SWAP2 SUB SWAP1 RETURN JUMPDEST CALLVALUE DUP1 ISZERO PUSH2 0xE1 JUMPI PUSH0 PUSH0 REVERT JUMPDEST POP PUSH2 0xEA PUSH2 0x1EF JUMP JUMPDEST PUSH1 0x40 MLOAD PUSH2 0xF7 SWAP2 SWAP1 PUSH2 0x462 JUMP JUMPDEST PUSH1 0x40 MLOAD DUP1 SWAP2 SUB SWAP1 RETURN JUMPDEST PUSH2 0x11A PUSH1 0x4 DUP1 CALLDATASIZE SUB DUP2 ADD SWAP1 PUSH2 0x115 SWAP2 SWAP1 PUSH2 0x4B2 JUMP JUMPDEST PUSH2 0x1F6 JUMP JUMPDEST PUSH1 0x40 MLOAD PUSH2 0x128 SWAP3 SWAP2 SWAP1 PUSH2 0x567 JUMP JUMPDEST PUSH1 0x40 MLOAD DUP1 SWAP2 SUB SWAP1 RETURN JUMPDEST PUSH1 0x1 PUSH0 SWAP1 SLOAD SWAP1 PUSH2 0x100 EXP SWAP1 DIV PUSH20 0xFFFFFFFFFFFFFFFFFFFFFFFFFFFFFFFFFFFFFFFF AND DUP2 JUMP JUMPDEST PUSH0 PUSH1 0x1 PUSH0 SWAP1 SLOAD SWAP1 PUSH2 0x100 EXP SWAP1 DIV PUSH20 0xFFFFFFFFFFFFFFFFFFFFFFFFFFFFFFFFFFFFFFFF AND PUSH20 0xFFFFFFFFFFFFFFFFFFFFFFFFFFFFFFFFFFFFFFFF AND PUSH4 0x81B2D07B PUSH1 0x40 MLOAD DUP2 PUSH4 0xFFFFFFFF AND PUSH1 0xE0 SHL DUP2 MSTORE PUSH1 0x4 ADD PUSH1 0x20 PUSH1 0x40 MLOAD DUP1 DUP4 SUB DUP2 DUP7 GAS STATICCALL ISZERO DUP1 ISZERO PUSH2 0x1C1 JUMPI RETURNDATASIZE PUSH0 PUSH0 RETURNDATACOPY RETURNDATASIZE PUSH0 REVERT JUMPDEST POP POP POP POP PUSH1 0x40 MLOAD RETURNDATASIZE PUSH1 0x1F NOT PUSH1 0x1F DUP3 ADD AND DUP3 ADD DUP1 PUSH1 0x40 MSTORE POP DUP2 ADD SWAP1 PUSH2 0x1E5 SWAP2 SWAP1 PUSH2 0x5A9 JUMP JUMPDEST SWAP1 POP SWAP1 JUMP JUMPDEST PUSH0 SLOAD DUP2 JUMP JUMPDEST PUSH0 SELFBALANCE SWAP1 POP SWAP1 JUMP JUMPDEST PUSH0 PUSH1 0x60 PUSH1 0x1 PUSH0 SWAP1 SLOAD SWAP1 PUSH2 0x100 EXP SWAP1 DIV PUSH20 0xFFFFFFFFFFFFFFFFFFFFFFFFFFFFFFFFFFFFFFFF AND PUSH20 0xFFFFFFFFFFFFFFFFFFFFFFFFFFFFFFFFFFFFFFFF AND PUSH4 0x2E1A7D4D DUP5 PUSH1 0x40 MLOAD DUP3 PUSH4 0xFFFFFFFF AND PUSH1 0xE0 SHL DUP2 MSTORE PUSH1 0x4 ADD PUSH2 0x253 SWAP2 SWAP1 PUSH2 0x462 JUMP JUMPDEST PUSH0 PUSH1 0x40 MLOAD DUP1 DUP4 SUB DUP2 PUSH0 DUP8 DUP1 EXTCODESIZE ISZERO DUP1 ISZERO PUSH2 0x26A JUMPI PUSH0 PUSH0 REVERT JUMPDEST POP GAS CALL SWAP3 POP POP POP DUP1 ISZERO PUSH2 0x27B JUMPI POP PUSH1 0x1 JUMPDEST PUSH2 0x35E JUMPI PUSH2 0x287 PUSH2 0x5E0 JUMP JUMPDEST DUP1 PUSH4 0x8C379A0 SUB PUSH2 0x2E9 JUMPI POP PUSH2 0x29B PUSH2 0x65D JUMP JUMPDEST DUP1 PUSH2 0x2A6 JUMPI POP PUSH2 0x2EB JUMP JUMPDEST PUSH32 0x56E4919DCBB21A595881073F42FA61E3EF75AE03A53CB1DC9064A89BB34F0E31 DUP2 PUSH1 0x40 MLOAD PUSH2 0x2D5 SWAP2 SWAP1 PUSH2 0x6EC JUMP JUMPDEST PUSH1 0x40 MLOAD DUP1 SWAP2 SUB SWAP1 LOG1 PUSH0 DUP2 SWAP3 POP SWAP3 POP POP PUSH2 0x3B2 JUMP JUMPDEST POP JUMPDEST RETURNDATASIZE DUP1 PUSH0 DUP2 EQ PUSH2 0x315 JUMPI PUSH1 0x40 MLOAD SWAP2 POP PUSH1 0x1F NOT PUSH1 0x3F RETURNDATASIZE ADD AND DUP3 ADD PUSH1 0x40 MSTORE RETURNDATASIZE DUP3 MSTORE RETURNDATASIZE PUSH0 PUSH1 0x20 DUP5 ADD RETURNDATACOPY PUSH2 0x31A JUMP JUMPDEST PUSH1 0x60 SWAP2 POP JUMPDEST POP PUSH32 0x56E4919DCBB21A595881073F42FA61E3EF75AE03A53CB1DC9064A89BB34F0E31 DUP2 PUSH1 0x40 MLOAD PUSH2 0x34A SWAP2 SWAP1 PUSH2 0x6EC JUMP JUMPDEST PUSH1 0x40 MLOAD DUP1 SWAP2 SUB SWAP1 LOG1 PUSH0 DUP2 SWAP3 POP SWAP3 POP POP PUSH2 0x3B2 JUMP JUMPDEST DUP3 PUSH0 PUSH0 DUP3 DUP3 SLOAD PUSH2 0x36E SWAP2 SWAP1 PUSH2 0x739 JUMP JUMPDEST SWAP3 POP POP DUP2 SWAP1 SSTORE POP PUSH1 0x1 PUSH1 0x40 MLOAD DUP1 PUSH1 0x40 ADD PUSH1 0x40 MSTORE DUP1 PUSH1 0x17 DUP2 MSTORE PUSH1 0x20 ADD PUSH32 0x72656D6F74652077697468647261772073756363657373000000000000000000 DUP2 MSTORE POP SWAP2 POP SWAP2 POP JUMPDEST SWAP2 POP SWAP2 JUMP JUMPDEST PUSH0 PUSH20 0xFFFFFFFFFFFFFFFFFFFFFFFFFFFFFFFFFFFFFFFF DUP3 AND SWAP1 POP SWAP2 SWAP1 POP JUMP JUMPDEST PUSH0 DUP2 SWAP1 POP SWAP2 SWAP1 POP JUMP JUMPDEST PUSH0 PUSH2 0x3F9 PUSH2 0x3F4 PUSH2 0x3EF DUP5 PUSH2 0x3B7 JUMP JUMPDEST PUSH2 0x3D6 JUMP JUMPDEST PUSH2 0x3B7 JUMP JUMPDEST SWAP1 POP SWAP2 SWAP1 POP JUMP JUMPDEST PUSH0 PUSH2 0x40A DUP3 PUSH2 0x3DF JUMP JUMPDEST SWAP1 POP SWAP2 SWAP1 POP JUMP JUMPDEST PUSH0 PUSH2 0x41B DUP3 PUSH2 0x400 JUMP JUMPDEST SWAP1 POP SWAP2 SWAP1 POP JUMP JUMPDEST PUSH2 0x42B DUP2 PUSH2 0x411 JUMP JUMPDEST DUP3 MSTORE POP POP JUMP JUMPDEST PUSH0 PUSH1 0x20 DUP3 ADD SWAP1 POP PUSH2 0x444 PUSH0 DUP4 ADD DUP5 PUSH2 0x422 JUMP JUMPDEST SWAP3 SWAP2 POP POP JUMP JUMPDEST PUSH0 DUP2 SWAP1 POP SWAP2 SWAP1 POP JUMP JUMPDEST PUSH2 0x45C DUP2 PUSH2 0x44A JUMP JUMPDEST DUP3 MSTORE POP POP JUMP JUMPDEST PUSH0 PUSH1 0x20 DUP3 ADD SWAP1 POP PUSH2 0x475 PUSH0 DUP4 ADD DUP5 PUSH2 0x453 JUMP JUMPDEST SWAP3 SWAP2 POP POP JUMP JUMPDEST PUSH0 PUSH1 0x40 MLOAD SWAP1 POP SWAP1 JUMP JUMPDEST PUSH0 PUSH0 REVERT JUMPDEST PUSH2 0x491 DUP2 PUSH2 0x44A JUMP JUMPDEST DUP2 EQ PUSH2 0x49B JUMPI PUSH0 PUSH0 REVERT JUMPDEST POP JUMP JUMPDEST PUSH0 DUP2 CALLDATALOAD SWAP1 POP PUSH2 0x4AC DUP2 PUSH2 0x488 JUMP JUMPDEST SWAP3 SWAP2 POP POP JUMP JUMPDEST PUSH0 PUSH1 0x20 DUP3 DUP5 SUB SLT ISZERO PUSH2 0x4C7 JUMPI PUSH2 0x4C6 PUSH2 0x484 JUMP JUMPDEST JUMPDEST PUSH0 PUSH2 0x4D4 DUP5 DUP3 DUP6 ADD PUSH2 0x49E JUMP JUMPDEST SWAP2 POP POP SWAP3 SWAP2 POP POP JUMP JUMPDEST PUSH0 DUP2 ISZERO ISZERO SWAP1 POP SWAP2 SWAP1 POP JUMP JUMPDEST PUSH2 0x4F1 DUP2 PUSH2 0x4DD JUMP JUMPDEST DUP3 MSTORE POP POP JUMP JUMPDEST PUSH0 DUP2 MLOAD SWAP1 POP SWAP2 SWAP1 POP JUMP JUMPDEST PUSH0 DUP3 DUP3 MSTORE PUSH1 0x20 DUP3 ADD SWAP1 POP SWAP3 SWAP2 POP POP JUMP JUMPDEST DUP3 DUP2 DUP4 MCOPY PUSH0 DUP4 DUP4 ADD MSTORE POP POP POP JUMP JUMPDEST PUSH0 PUSH1 0x1F NOT PUSH1 0x1F DUP4 ADD AND SWAP1 POP SWAP2 SWAP1 POP JUMP JUMPDEST PUSH0 PUSH2 0x539 DUP3 PUSH2 0x4F7 JUMP JUMPDEST PUSH2 0x543 DUP2 DUP6 PUSH2 0x501 JUMP JUMPDEST SWAP4 POP PUSH2 0x553 DUP2 DUP6 PUSH1 0x20 DUP7 ADD PUSH2 0x511 JUMP JUMPDEST PUSH2 0x55C DUP2 PUSH2 0x51F JUMP JUMPDEST DUP5 ADD SWAP2 POP POP SWAP3 SWAP2 POP POP JUMP JUMPDEST PUSH0 PUSH1 0x40 DUP3 ADD SWAP1 POP PUSH2 0x57A PUSH0 DUP4 ADD DUP6 PUSH2 0x4E8 JUMP JUMPDEST DUP2 DUP2 SUB PUSH1 0x20 DUP4 ADD MSTORE PUSH2 0x58C DUP2 DUP5 PUSH2 0x52F JUMP JUMPDEST SWAP1 POP SWAP4 SWAP3 POP POP POP JUMP JUMPDEST PUSH0 DUP2 MLOAD SWAP1 POP PUSH2 0x5A3 DUP2 PUSH2 0x488 JUMP JUMPDEST SWAP3 SWAP2 POP POP JUMP JUMPDEST PUSH0 PUSH1 0x20 DUP3 DUP5 SUB SLT ISZERO PUSH2 0x5BE JUMPI PUSH2 0x5BD PUSH2 0x484 JUMP JUMPDEST JUMPDEST PUSH0 PUSH2 0x5CB DUP5 DUP3 DUP6 ADD PUSH2 0x595 JUMP JUMPDEST SWAP2 POP POP SWAP3 SWAP2 POP POP JUMP JUMPDEST PUSH0 DUP2 PUSH1 0xE0 SHR SWAP1 POP SWAP2 SWAP1 POP JUMP JUMPDEST PUSH0 PUSH1 0x3 RETURNDATASIZE GT ISZERO PUSH2 0x5FC JUMPI PUSH1 0x4 PUSH0 PUSH0 RETURNDATACOPY PUSH2 0x5F9 PUSH0 MLOAD PUSH2 0x5D4 JUMP JUMPDEST SWAP1 POP JUMPDEST SWAP1 JUMP JUMPDEST PUSH32 0x4E487B7100000000000000000000000000000000000000000000000000000000 PUSH0 MSTORE PUSH1 0x41 PUSH1 0x4 MSTORE PUSH1 0x24 PUSH0 REVERT JUMPDEST PUSH2 0x635 DUP3 PUSH2 0x51F JUMP JUMPDEST DUP2 ADD DUP2 DUP2 LT PUSH8 0xFFFFFFFFFFFFFFFF DUP3 GT OR ISZERO PUSH2 0x654 JUMPI PUSH2 0x653 PUSH2 0x5FF JUMP JUMPDEST JUMPDEST DUP1 PUSH1 0x40 MSTORE POP POP POP JUMP JUMPDEST PUSH0 PUSH1 0x44 RETURNDATASIZE LT PUSH2 0x6E9 JUMPI PUSH2 0x66E PUSH2 0x47B JUMP JUMPDEST PUSH1 0x4 RETURNDATASIZE SUB PUSH1 0x4 DUP3 RETURNDATACOPY DUP1 MLOAD RETURNDATASIZE PUSH1 0x24 DUP3 ADD GT PUSH8 0xFFFFFFFFFFFFFFFF DUP3 GT OR ISZERO PUSH2 0x696 JUMPI POP POP PUSH2 0x6E9 JUMP JUMPDEST DUP1 DUP3 ADD DUP1 MLOAD PUSH8 0xFFFFFFFFFFFFFFFF DUP2 GT ISZERO PUSH2 0x6B4 JUMPI POP POP POP POP PUSH2 0x6E9 JUMP JUMPDEST DUP1 PUSH1 0x20 DUP4 ADD ADD PUSH1 0x4 RETURNDATASIZE SUB DUP6 ADD DUP2 GT ISZERO PUSH2 0x6D1 JUMPI POP POP POP POP POP PUSH2 0x6E9 JUMP JUMPDEST PUSH2 0x6E0 DUP3 PUSH1 0x20 ADD DUP6 ADD DUP7 PUSH2 0x62C JUMP JUMPDEST DUP3 SWAP6 POP POP POP POP POP POP JUMPDEST SWAP1 JUMP JUMPDEST PUSH0 PUSH1 0x20 DUP3 ADD SWAP1 POP DUP2 DUP2 SUB PUSH0 DUP4 ADD MSTORE PUSH2 0x704 DUP2 DUP5 PUSH2 0x52F JUMP JUMPDEST SWAP1 POP SWAP3 SWAP2 POP POP JUMP JUMPDEST PUSH32 0x4E487B7100000000000000000000000000000000000000000000000000000000 PUSH0 MSTORE PUSH1 0x11 PUSH1 0x4 MSTORE PUSH1 0x24 PUSH0 REVERT JUMPDEST PUSH0 PUSH2 0x743 DUP3 PUSH2 0x44A JUMP JUMPDEST SWAP2 POP PUSH2 0x74E DUP4 PUSH2 0x44A JUMP JUMPDEST SWAP3 POP DUP3 DUP3 ADD SWAP1 POP DUP1 DUP3 GT ISZERO PUSH2 0x766 JUMPI PUSH2 0x765 PUSH2 0x70C JUMP JUMPDEST JUMPDEST SWAP3 SWAP2 POP POP JUMP INVALID LOG2 PUSH5 0x6970667358 0x22 SLT KECCAK256 0xEF DUP6 XOR EXTCODECOPY DUP5 0xB7 PUSH16 0x129F7BBEC9FC31C134992A4D911AA4D5 0x22 SWAP6 CHAINID 0xBE 0xBD DUP16 0x1E SSTORE 0xEB PUSH5 0x736F6C6343 STOP ADDMOD SAR STOP CALLER "
				},
				"gasEstimates": {
					"creation": {
						"codeDepositCost": "390800",
						"executionCost": "infinite",
						"totalCost": "infinite"
					},
					"external": {
						"remoteContract()": "infinite",
						"remoteWithdraw(uint256)": "infinite",
						"showBalance()": "378",
						"showRemoteBalance()": "infinite",
						"withdrawBalance()": "2446"
					}
				},
				"methodIdentifiers": {
					"remoteContract()": "0663b2d1",
					"remoteWithdraw(uint256)": "b10fc68e",
					"showBalance()": "81b2d07b",
					"showRemoteBalance()": "30660fc0",
					"withdrawBalance()": "5fd8c710"
				}
			},
			"storageLayout": {
				"storage": [
					{
						"astId": 78,
						"contract": "0502handleError.sol:remoteCall",
						"label": "withdrawBalance",
						"offset": 0,
						"slot": "0",
						"type": "t_uint256"
					},
					{
						"astId": 81,
						"contract": "0502handleError.sol:remoteCall",
						"label": "remoteContract",
						"offset": 0,
						"slot": "1",
						"type": "t_contract(IhandleError)75"
					}
				],
				"types": {
					"t_contract(IhandleError)75": {
						"encoding": "inplace",
						"label": "contract IhandleError",
						"numberOfBytes": "20"
					},
					"t_uint256": {
						"encoding": "inplace",
						"label": "uint256",
						"numberOfBytes": "32"
					}
				}
			},
			"userdoc": {
				"kind": "user",
				"methods": {},
				"version": 1
			}
		}
	}
}