{
	"0502handleError.sol": {
		"handleError": {
			"abi": [
				{
					"inputs": [],
					"stateMutability": "payable",
					"type": "constructor"
				},
				{
					"inputs": [
						{
							"internalType": "uint256",
							"name": "",
							"type": "uint256"
						}
					],
					"name": "MustEven",
					"type": "error"
				},
				{
					"inputs": [],
					"name": "showBalance",
					"outputs": [
						{
							"internalType": "uint256",
							"name": "",
							"type": "uint256"
						}
					],
					"stateMutability": "view",
					"type": "function"
				},
				{
					"inputs": [
						{
							"internalType": "uint256",
							"name": "amount",
							"type": "uint256"
						}
					],
					"name": "withdraw",
					"outputs": [],
					"stateMutability": "nonpayable",
					"type": "function"
				}
			],
			"devdoc": {
				"kind": "dev",
				"methods": {},
				"version": 1
			},
			"evm": {
				"assembly": "    /* \"0502handleError.sol\":85:599  contract handleError {... */\n  mstore(0x40, 0x80)\n  dataSize(sub_0)\n  dup1\n  dataOffset(sub_0)\n  0x00\n  codecopy\n  0x00\n  return\nstop\n\nsub_0: assembly {\n        /* \"0502handleError.sol\":85:599  contract handleError {... */\n      mstore(0x40, 0x80)\n      callvalue\n      dup1\n      iszero\n      tag_1\n      jumpi\n      revert(0x00, 0x00)\n    tag_1:\n      pop\n      jumpi(tag_2, lt(calldatasize, 0x04))\n      shr(0xe0, calldataload(0x00))\n      dup1\n      0x2e1a7d4d\n      eq\n      tag_3\n      jumpi\n      dup1\n      0x81b2d07b\n      eq\n      tag_4\n      jumpi\n    tag_2:\n      revert(0x00, 0x00)\n        /* \"0502handleError.sol\":169:498  function withdraw(uint amount) public {... */\n    tag_3:\n      tag_5\n      0x04\n      dup1\n      calldatasize\n      sub\n      dup2\n      add\n      swap1\n      tag_6\n      swap2\n      swap1\n      tag_7\n      jump\t// in\n    tag_6:\n      tag_8\n      jump\t// in\n    tag_5:\n      stop\n        /* \"0502handleError.sol\":504:597  function showBalance() public view returns(uint){... */\n    tag_4:\n      tag_9\n      tag_10\n      jump\t// in\n    tag_9:\n      mload(0x40)\n      tag_11\n      swap2\n      swap1\n      tag_12\n      jump\t// in\n    tag_11:\n      mload(0x40)\n      dup1\n      swap2\n      sub\n      swap1\n      return\n        /* \"0502handleError.sol\":169:498  function withdraw(uint amount) public {... */\n    tag_8:\n        /* \"0502handleError.sol\":235:236  0 */\n      0x00\n        /* \"0502handleError.sol\":230:231  2 */\n      0x02\n        /* \"0502handleError.sol\":221:227  amount */\n      dup3\n        /* \"0502handleError.sol\":221:231  amount % 2 */\n      tag_14\n      swap2\n      swap1\n      tag_15\n      jump\t// in\n    tag_14:\n        /* \"0502handleError.sol\":221:236  amount % 2 != 0 */\n      eq\n        /* \"0502handleError.sol\":217:261  if (amount % 2 != 0) revert MustEven(amount) */\n      tag_16\n      jumpi\n        /* \"0502handleError.sol\":254:260  amount */\n      dup1\n        /* \"0502handleError.sol\":245:261  MustEven(amount) */\n      mload(0x40)\n      0x4a73902800000000000000000000000000000000000000000000000000000000\n      dup2\n      mstore\n      0x04\n      add\n      tag_17\n      swap2\n      swap1\n      tag_12\n      jump\t// in\n    tag_17:\n      mload(0x40)\n      dup1\n      swap2\n      sub\n      swap1\n      revert\n        /* \"0502handleError.sol\":217:261  if (amount % 2 != 0) revert MustEven(amount) */\n    tag_16:\n        /* \"0502handleError.sol\":285:288  100 */\n      0x64\n        /* \"0502handleError.sol\":275:281  amount */\n      dup2\n        /* \"0502handleError.sol\":275:288  amount <= 100 */\n      gt\n        /* \"0502handleError.sol\":271:320  if (amount <= 100) revert('must more than 100!!') */\n      tag_18\n      jumpi\n        /* \"0502handleError.sol\":290:320  revert('must more than 100!!') */\n      mload(0x40)\n      0x08c379a000000000000000000000000000000000000000000000000000000000\n      dup2\n      mstore\n      0x04\n      add\n      tag_19\n      swap1\n      tag_20\n      jump\t// in\n    tag_19:\n      mload(0x40)\n      dup1\n      swap2\n      sub\n      swap1\n      revert\n        /* \"0502handleError.sol\":271:320  if (amount <= 100) revert('must more than 100!!') */\n    tag_18:\n        /* \"0502handleError.sol\":380:392  bool success */\n      0x00\n        /* \"0502handleError.sol\":406:416  msg.sender */\n      caller\n        /* \"0502handleError.sol\":398:422  payable(msg.sender).call */\n      0xffffffffffffffffffffffffffffffffffffffff\n      and\n        /* \"0502handleError.sol\":430:436  amount */\n      dup3\n        /* \"0502handleError.sol\":398:441  payable(msg.sender).call{value: amount}(\"\") */\n      mload(0x40)\n      tag_21\n      swap1\n      tag_22\n      jump\t// in\n    tag_21:\n      0x00\n      mload(0x40)\n      dup1\n      dup4\n      sub\n      dup2\n      dup6\n      dup8\n      gas\n      call\n      swap3\n      pop\n      pop\n      pop\n      returndatasize\n      dup1\n      0x00\n      dup2\n      eq\n      tag_25\n      jumpi\n      mload(0x40)\n      swap2\n      pop\n      and(add(returndatasize, 0x3f), not(0x1f))\n      dup3\n      add\n      0x40\n      mstore\n      returndatasize\n      dup3\n      mstore\n      returndatasize\n      0x00\n      0x20\n      dup5\n      add\n      returndatacopy\n      jump(tag_24)\n    tag_25:\n      0x60\n      swap2\n      pop\n    tag_24:\n      pop\n        /* \"0502handleError.sol\":379:441  (bool success, ) = payable(msg.sender).call{value: amount}(\"\") */\n      pop\n      swap1\n      pop\n        /* \"0502handleError.sol\":459:466  success */\n      dup1\n        /* \"0502handleError.sol\":451:491  require(success, \"Failed to send Ether\") */\n      tag_26\n      jumpi\n      mload(0x40)\n      0x08c379a000000000000000000000000000000000000000000000000000000000\n      dup2\n      mstore\n      0x04\n      add\n      tag_27\n      swap1\n      tag_28\n      jump\t// in\n    tag_27:\n      mload(0x40)\n      dup1\n      swap2\n      sub\n      swap1\n      revert\n    tag_26:\n        /* \"0502handleError.sol\":207:498  {... */\n      pop\n        /* \"0502handleError.sol\":169:498  function withdraw(uint amount) public {... */\n      pop\n      jump\t// out\n        /* \"0502handleError.sol\":504:597  function showBalance() public view returns(uint){... */\n    tag_10:\n        /* \"0502handleError.sol\":547:551  uint */\n      0x00\n        /* \"0502handleError.sol\":569:590  address(this).balance */\n      selfbalance\n        /* \"0502handleError.sol\":562:590  return address(this).balance */\n      swap1\n      pop\n        /* \"0502handleError.sol\":504:597  function showBalance() public view returns(uint){... */\n      swap1\n      jump\t// out\n        /* \"#utility.yul\":88:205   */\n    tag_31:\n        /* \"#utility.yul\":197:198   */\n      0x00\n        /* \"#utility.yul\":194:195   */\n      0x00\n        /* \"#utility.yul\":187:199   */\n      revert\n        /* \"#utility.yul\":334:411   */\n    tag_33:\n        /* \"#utility.yul\":371:378   */\n      0x00\n        /* \"#utility.yul\":400:405   */\n      dup2\n        /* \"#utility.yul\":389:405   */\n      swap1\n      pop\n        /* \"#utility.yul\":334:411   */\n      swap2\n      swap1\n      pop\n      jump\t// out\n        /* \"#utility.yul\":417:539   */\n    tag_34:\n        /* \"#utility.yul\":490:514   */\n      tag_52\n        /* \"#utility.yul\":508:513   */\n      dup2\n        /* \"#utility.yul\":490:514   */\n      tag_33\n      jump\t// in\n    tag_52:\n        /* \"#utility.yul\":483:488   */\n      dup2\n        /* \"#utility.yul\":480:515   */\n      eq\n        /* \"#utility.yul\":470:533   */\n      tag_53\n      jumpi\n        /* \"#utility.yul\":529:530   */\n      0x00\n        /* \"#utility.yul\":526:527   */\n      0x00\n        /* \"#utility.yul\":519:531   */\n      revert\n        /* \"#utility.yul\":470:533   */\n    tag_53:\n        /* \"#utility.yul\":417:539   */\n      pop\n      jump\t// out\n        /* \"#utility.yul\":545:684   */\n    tag_35:\n        /* \"#utility.yul\":591:596   */\n      0x00\n        /* \"#utility.yul\":629:635   */\n      dup2\n        /* \"#utility.yul\":616:636   */\n      calldataload\n        /* \"#utility.yul\":607:636   */\n      swap1\n      pop\n        /* \"#utility.yul\":645:678   */\n      tag_55\n        /* \"#utility.yul\":672:677   */\n      dup2\n        /* \"#utility.yul\":645:678   */\n      tag_34\n      jump\t// in\n    tag_55:\n        /* \"#utility.yul\":545:684   */\n      swap3\n      swap2\n      pop\n      pop\n      jump\t// out\n        /* \"#utility.yul\":690:1019   */\n    tag_7:\n        /* \"#utility.yul\":749:755   */\n      0x00\n        /* \"#utility.yul\":798:800   */\n      0x20\n        /* \"#utility.yul\":786:795   */\n      dup3\n        /* \"#utility.yul\":777:784   */\n      dup5\n        /* \"#utility.yul\":773:796   */\n      sub\n        /* \"#utility.yul\":769:801   */\n      slt\n        /* \"#utility.yul\":766:885   */\n      iszero\n      tag_57\n      jumpi\n        /* \"#utility.yul\":804:883   */\n      tag_58\n      tag_31\n      jump\t// in\n    tag_58:\n        /* \"#utility.yul\":766:885   */\n    tag_57:\n        /* \"#utility.yul\":924:925   */\n      0x00\n        /* \"#utility.yul\":949:1002   */\n      tag_59\n        /* \"#utility.yul\":994:1001   */\n      dup5\n        /* \"#utility.yul\":985:991   */\n      dup3\n        /* \"#utility.yul\":974:983   */\n      dup6\n        /* \"#utility.yul\":970:992   */\n      add\n        /* \"#utility.yul\":949:1002   */\n      tag_35\n      jump\t// in\n    tag_59:\n        /* \"#utility.yul\":939:1002   */\n      swap2\n      pop\n        /* \"#utility.yul\":895:1012   */\n      pop\n        /* \"#utility.yul\":690:1019   */\n      swap3\n      swap2\n      pop\n      pop\n      jump\t// out\n        /* \"#utility.yul\":1025:1143   */\n    tag_36:\n        /* \"#utility.yul\":1112:1136   */\n      tag_61\n        /* \"#utility.yul\":1130:1135   */\n      dup2\n        /* \"#utility.yul\":1112:1136   */\n      tag_33\n      jump\t// in\n    tag_61:\n        /* \"#utility.yul\":1107:1110   */\n      dup3\n        /* \"#utility.yul\":1100:1137   */\n      mstore\n        /* \"#utility.yul\":1025:1143   */\n      pop\n      pop\n      jump\t// out\n        /* \"#utility.yul\":1149:1371   */\n    tag_12:\n        /* \"#utility.yul\":1242:1246   */\n      0x00\n        /* \"#utility.yul\":1280:1282   */\n      0x20\n        /* \"#utility.yul\":1269:1278   */\n      dup3\n        /* \"#utility.yul\":1265:1283   */\n      add\n        /* \"#utility.yul\":1257:1283   */\n      swap1\n      pop\n        /* \"#utility.yul\":1293:1364   */\n      tag_63\n        /* \"#utility.yul\":1361:1362   */\n      0x00\n        /* \"#utility.yul\":1350:1359   */\n      dup4\n        /* \"#utility.yul\":1346:1363   */\n      add\n        /* \"#utility.yul\":1337:1343   */\n      dup5\n        /* \"#utility.yul\":1293:1364   */\n      tag_36\n      jump\t// in\n    tag_63:\n        /* \"#utility.yul\":1149:1371   */\n      swap3\n      swap2\n      pop\n      pop\n      jump\t// out\n        /* \"#utility.yul\":1377:1557   */\n    tag_37:\n        /* \"#utility.yul\":1425:1502   */\n      0x4e487b7100000000000000000000000000000000000000000000000000000000\n        /* \"#utility.yul\":1422:1423   */\n      0x00\n        /* \"#utility.yul\":1415:1503   */\n      mstore\n        /* \"#utility.yul\":1522:1526   */\n      0x12\n        /* \"#utility.yul\":1519:1520   */\n      0x04\n        /* \"#utility.yul\":1512:1527   */\n      mstore\n        /* \"#utility.yul\":1546:1550   */\n      0x24\n        /* \"#utility.yul\":1543:1544   */\n      0x00\n        /* \"#utility.yul\":1536:1551   */\n      revert\n        /* \"#utility.yul\":1563:1739   */\n    tag_15:\n        /* \"#utility.yul\":1595:1596   */\n      0x00\n        /* \"#utility.yul\":1612:1632   */\n      tag_66\n        /* \"#utility.yul\":1630:1631   */\n      dup3\n        /* \"#utility.yul\":1612:1632   */\n      tag_33\n      jump\t// in\n    tag_66:\n        /* \"#utility.yul\":1607:1632   */\n      swap2\n      pop\n        /* \"#utility.yul\":1646:1666   */\n      tag_67\n        /* \"#utility.yul\":1664:1665   */\n      dup4\n        /* \"#utility.yul\":1646:1666   */\n      tag_33\n      jump\t// in\n    tag_67:\n        /* \"#utility.yul\":1641:1666   */\n      swap3\n      pop\n        /* \"#utility.yul\":1685:1686   */\n      dup3\n        /* \"#utility.yul\":1675:1710   */\n      tag_68\n      jumpi\n        /* \"#utility.yul\":1690:1708   */\n      tag_69\n      tag_37\n      jump\t// in\n    tag_69:\n        /* \"#utility.yul\":1675:1710   */\n    tag_68:\n        /* \"#utility.yul\":1731:1732   */\n      dup3\n        /* \"#utility.yul\":1728:1729   */\n      dup3\n        /* \"#utility.yul\":1724:1733   */\n      mod\n        /* \"#utility.yul\":1719:1733   */\n      swap1\n      pop\n        /* \"#utility.yul\":1563:1739   */\n      swap3\n      swap2\n      pop\n      pop\n      jump\t// out\n        /* \"#utility.yul\":1745:1914   */\n    tag_38:\n        /* \"#utility.yul\":1829:1840   */\n      0x00\n        /* \"#utility.yul\":1863:1869   */\n      dup3\n        /* \"#utility.yul\":1858:1861   */\n      dup3\n        /* \"#utility.yul\":1851:1870   */\n      mstore\n        /* \"#utility.yul\":1903:1907   */\n      0x20\n        /* \"#utility.yul\":1898:1901   */\n      dup3\n        /* \"#utility.yul\":1894:1908   */\n      add\n        /* \"#utility.yul\":1879:1908   */\n      swap1\n      pop\n        /* \"#utility.yul\":1745:1914   */\n      swap3\n      swap2\n      pop\n      pop\n      jump\t// out\n        /* \"#utility.yul\":1920:2090   */\n    tag_39:\n        /* \"#utility.yul\":2060:2082   */\n      0x6d757374206d6f7265207468616e203130302121000000000000000000000000\n        /* \"#utility.yul\":2056:2057   */\n      0x00\n        /* \"#utility.yul\":2048:2054   */\n      dup3\n        /* \"#utility.yul\":2044:2058   */\n      add\n        /* \"#utility.yul\":2037:2083   */\n      mstore\n        /* \"#utility.yul\":1920:2090   */\n      pop\n      jump\t// out\n        /* \"#utility.yul\":2096:2462   */\n    tag_40:\n        /* \"#utility.yul\":2238:2241   */\n      0x00\n        /* \"#utility.yul\":2259:2326   */\n      tag_73\n        /* \"#utility.yul\":2323:2325   */\n      0x14\n        /* \"#utility.yul\":2318:2321   */\n      dup4\n        /* \"#utility.yul\":2259:2326   */\n      tag_38\n      jump\t// in\n    tag_73:\n        /* \"#utility.yul\":2252:2326   */\n      swap2\n      pop\n        /* \"#utility.yul\":2335:2428   */\n      tag_74\n        /* \"#utility.yul\":2424:2427   */\n      dup3\n        /* \"#utility.yul\":2335:2428   */\n      tag_39\n      jump\t// in\n    tag_74:\n        /* \"#utility.yul\":2453:2455   */\n      0x20\n        /* \"#utility.yul\":2448:2451   */\n      dup3\n        /* \"#utility.yul\":2444:2456   */\n      add\n        /* \"#utility.yul\":2437:2456   */\n      swap1\n      pop\n        /* \"#utility.yul\":2096:2462   */\n      swap2\n      swap1\n      pop\n      jump\t// out\n        /* \"#utility.yul\":2468:2887   */\n    tag_20:\n        /* \"#utility.yul\":2634:2638   */\n      0x00\n        /* \"#utility.yul\":2672:2674   */\n      0x20\n        /* \"#utility.yul\":2661:2670   */\n      dup3\n        /* \"#utility.yul\":2657:2675   */\n      add\n        /* \"#utility.yul\":2649:2675   */\n      swap1\n      pop\n        /* \"#utility.yul\":2721:2730   */\n      dup2\n        /* \"#utility.yul\":2715:2719   */\n      dup2\n        /* \"#utility.yul\":2711:2731   */\n      sub\n        /* \"#utility.yul\":2707:2708   */\n      0x00\n        /* \"#utility.yul\":2696:2705   */\n      dup4\n        /* \"#utility.yul\":2692:2709   */\n      add\n        /* \"#utility.yul\":2685:2732   */\n      mstore\n        /* \"#utility.yul\":2749:2880   */\n      tag_76\n        /* \"#utility.yul\":2875:2879   */\n      dup2\n        /* \"#utility.yul\":2749:2880   */\n      tag_40\n      jump\t// in\n    tag_76:\n        /* \"#utility.yul\":2741:2880   */\n      swap1\n      pop\n        /* \"#utility.yul\":2468:2887   */\n      swap2\n      swap1\n      pop\n      jump\t// out\n        /* \"#utility.yul\":2893:3040   */\n    tag_41:\n        /* \"#utility.yul\":2994:3005   */\n      0x00\n        /* \"#utility.yul\":3031:3034   */\n      dup2\n        /* \"#utility.yul\":3016:3034   */\n      swap1\n      pop\n        /* \"#utility.yul\":2893:3040   */\n      swap3\n      swap2\n      pop\n      pop\n      jump\t// out\n        /* \"#utility.yul\":3046:3160   */\n    tag_42:\n      pop\n      jump\t// out\n        /* \"#utility.yul\":3166:3564   */\n    tag_43:\n        /* \"#utility.yul\":3325:3328   */\n      0x00\n        /* \"#utility.yul\":3346:3429   */\n      tag_80\n        /* \"#utility.yul\":3427:3428   */\n      0x00\n        /* \"#utility.yul\":3422:3425   */\n      dup4\n        /* \"#utility.yul\":3346:3429   */\n      tag_41\n      jump\t// in\n    tag_80:\n        /* \"#utility.yul\":3339:3429   */\n      swap2\n      pop\n        /* \"#utility.yul\":3438:3531   */\n      tag_81\n        /* \"#utility.yul\":3527:3530   */\n      dup3\n        /* \"#utility.yul\":3438:3531   */\n      tag_42\n      jump\t// in\n    tag_81:\n        /* \"#utility.yul\":3556:3557   */\n      0x00\n        /* \"#utility.yul\":3551:3554   */\n      dup3\n        /* \"#utility.yul\":3547:3558   */\n      add\n        /* \"#utility.yul\":3540:3558   */\n      swap1\n      pop\n        /* \"#utility.yul\":3166:3564   */\n      swap2\n      swap1\n      pop\n      jump\t// out\n        /* \"#utility.yul\":3570:3949   */\n    tag_22:\n        /* \"#utility.yul\":3754:3757   */\n      0x00\n        /* \"#utility.yul\":3776:3923   */\n      tag_83\n        /* \"#utility.yul\":3919:3922   */\n      dup3\n        /* \"#utility.yul\":3776:3923   */\n      tag_43\n      jump\t// in\n    tag_83:\n        /* \"#utility.yul\":3769:3923   */\n      swap2\n      pop\n        /* \"#utility.yul\":3940:3943   */\n      dup2\n        /* \"#utility.yul\":3933:3943   */\n      swap1\n      pop\n        /* \"#utility.yul\":3570:3949   */\n      swap2\n      swap1\n      pop\n      jump\t// out\n        /* \"#utility.yul\":3955:4125   */\n    tag_44:\n        /* \"#utility.yul\":4095:4117   */\n      0x4661696c656420746f2073656e64204574686572000000000000000000000000\n        /* \"#utility.yul\":4091:4092   */\n      0x00\n        /* \"#utility.yul\":4083:4089   */\n      dup3\n        /* \"#utility.yul\":4079:4093   */\n      add\n        /* \"#utility.yul\":4072:4118   */\n      mstore\n        /* \"#utility.yul\":3955:4125   */\n      pop\n      jump\t// out\n        /* \"#utility.yul\":4131:4497   */\n    tag_45:\n        /* \"#utility.yul\":4273:4276   */\n      0x00\n        /* \"#utility.yul\":4294:4361   */\n      tag_86\n        /* \"#utility.yul\":4358:4360   */\n      0x14\n        /* \"#utility.yul\":4353:4356   */\n      dup4\n        /* \"#utility.yul\":4294:4361   */\n      tag_38\n      jump\t// in\n    tag_86:\n        /* \"#utility.yul\":4287:4361   */\n      swap2\n      pop\n        /* \"#utility.yul\":4370:4463   */\n      tag_87\n        /* \"#utility.yul\":4459:4462   */\n      dup3\n        /* \"#utility.yul\":4370:4463   */\n      tag_44\n      jump\t// in\n    tag_87:\n        /* \"#utility.yul\":4488:4490   */\n      0x20\n        /* \"#utility.yul\":4483:4486   */\n      dup3\n        /* \"#utility.yul\":4479:4491   */\n      add\n        /* \"#utility.yul\":4472:4491   */\n      swap1\n      pop\n        /* \"#utility.yul\":4131:4497   */\n      swap2\n      swap1\n      pop\n      jump\t// out\n        /* \"#utility.yul\":4503:4922   */\n    tag_28:\n        /* \"#utility.yul\":4669:4673   */\n      0x00\n        /* \"#utility.yul\":4707:4709   */\n      0x20\n        /* \"#utility.yul\":4696:4705   */\n      dup3\n        /* \"#utility.yul\":4692:4710   */\n      add\n        /* \"#utility.yul\":4684:4710   */\n      swap1\n      pop\n        /* \"#utility.yul\":4756:4765   */\n      dup2\n        /* \"#utility.yul\":4750:4754   */\n      dup2\n        /* \"#utility.yul\":4746:4766   */\n      sub\n        /* \"#utility.yul\":4742:4743   */\n      0x00\n        /* \"#utility.yul\":4731:4740   */\n      dup4\n        /* \"#utility.yul\":4727:4744   */\n      add\n        /* \"#utility.yul\":4720:4767   */\n      mstore\n        /* \"#utility.yul\":4784:4915   */\n      tag_89\n        /* \"#utility.yul\":4910:4914   */\n      dup2\n        /* \"#utility.yul\":4784:4915   */\n      tag_45\n      jump\t// in\n    tag_89:\n        /* \"#utility.yul\":4776:4915   */\n      swap1\n      pop\n        /* \"#utility.yul\":4503:4922   */\n      swap2\n      swap1\n      pop\n      jump\t// out\n\n    auxdata: 0xa264697066735822122007223eb0e1e28689438fd001e0612dd149b19dcc423003a2d56a0f5714212fa164736f6c634300081d0033\n}\n",
				"bytecode": {
					"linkReferences": {},
					"object": "60806040526103f6806100115f395ff3fe608060405234801561000f575f5ffd5b5060043610610034575f3560e01c80632e1a7d4d1461003857806381b2d07b14610054575b5f5ffd5b610052600480360381019061004d91906101ef565b610072565b005b61005c6101b1565b6040516100699190610229565b60405180910390f35b5f600282610080919061026f565b146100c257806040517f4a7390280000000000000000000000000000000000000000000000000000000081526004016100b99190610229565b60405180910390fd5b60648111610105576040517f08c379a00000000000000000000000000000000000000000000000000000000081526004016100fc906102f9565b60405180910390fd5b5f3373ffffffffffffffffffffffffffffffffffffffff168260405161012a90610344565b5f6040518083038185875af1925050503d805f8114610164576040519150601f19603f3d011682016040523d82523d5f602084013e610169565b606091505b50509050806101ad576040517f08c379a00000000000000000000000000000000000000000000000000000000081526004016101a4906103a2565b60405180910390fd5b5050565b5f47905090565b5f5ffd5b5f819050919050565b6101ce816101bc565b81146101d8575f5ffd5b50565b5f813590506101e9816101c5565b92915050565b5f60208284031215610204576102036101b8565b5b5f610211848285016101db565b91505092915050565b610223816101bc565b82525050565b5f60208201905061023c5f83018461021a565b92915050565b7f4e487b71000000000000000000000000000000000000000000000000000000005f52601260045260245ffd5b5f610279826101bc565b9150610284836101bc565b92508261029457610293610242565b5b828206905092915050565b5f82825260208201905092915050565b7f6d757374206d6f7265207468616e2031303021210000000000000000000000005f82015250565b5f6102e360148361029f565b91506102ee826102af565b602082019050919050565b5f6020820190508181035f830152610310816102d7565b9050919050565b5f81905092915050565b50565b5f61032f5f83610317565b915061033a82610321565b5f82019050919050565b5f61034e82610324565b9150819050919050565b7f4661696c656420746f2073656e642045746865720000000000000000000000005f82015250565b5f61038c60148361029f565b915061039782610358565b602082019050919050565b5f6020820190508181035f8301526103b981610380565b905091905056fea264697066735822122007223eb0e1e28689438fd001e0612dd149b19dcc423003a2d56a0f5714212fa164736f6c634300081d0033",
					"opcodes": "PUSH1 0x80 PUSH1 0x40 MSTORE PUSH2 0x3F6 DUP1 PUSH2 0x11 PUSH0 CODECOPY PUSH0 RETURN INVALID PUSH1 0x80 PUSH1 0x40 MSTORE CALLVALUE DUP1 ISZERO PUSH2 0xF JUMPI PUSH0 PUSH0 REVERT JUMPDEST POP PUSH1 0x4 CALLDATASIZE LT PUSH2 0x34 JUMPI PUSH0 CALLDATALOAD PUSH1 0xE0 SHR DUP1 PUSH4 0x2E1A7D4D EQ PUSH2 0x38 JUMPI DUP1 PUSH4 0x81B2D07B EQ PUSH2 0x54 JUMPI JUMPDEST PUSH0 PUSH0 REVERT JUMPDEST PUSH2 0x52 PUSH1 0x4 DUP1 CALLDATASIZE SUB DUP2 ADD SWAP1 PUSH2 0x4D SWAP2 SWAP1 PUSH2 0x1EF JUMP JUMPDEST PUSH2 0x72 JUMP JUMPDEST STOP JUMPDEST PUSH2 0x5C PUSH2 0x1B1 JUMP JUMPDEST PUSH1 0x40 MLOAD PUSH2 0x69 SWAP2 SWAP1 PUSH2 0x229 JUMP JUMPDEST PUSH1 0x40 MLOAD DUP1 SWAP2 SUB SWAP1 RETURN JUMPDEST PUSH0 PUSH1 0x2 DUP3 PUSH2 0x80 SWAP2 SWAP1 PUSH2 0x26F JUMP JUMPDEST EQ PUSH2 0xC2 JUMPI DUP1 PUSH1 0x40 MLOAD PUSH32 0x4A73902800000000000000000000000000000000000000000000000000000000 DUP2 MSTORE PUSH1 0x4 ADD PUSH2 0xB9 SWAP2 SWAP1 PUSH2 0x229 JUMP JUMPDEST PUSH1 0x40 MLOAD DUP1 SWAP2 SUB SWAP1 REVERT JUMPDEST PUSH1 0x64 DUP2 GT PUSH2 0x105 JUMPI PUSH1 0x40 MLOAD PUSH32 0x8C379A000000000000000000000000000000000000000000000000000000000 DUP2 MSTORE PUSH1 0x4 ADD PUSH2 0xFC SWAP1 PUSH2 0x2F9 JUMP JUMPDEST PUSH1 0x40 MLOAD DUP1 SWAP2 SUB SWAP1 REVERT JUMPDEST PUSH0 CALLER PUSH20 0xFFFFFFFFFFFFFFFFFFFFFFFFFFFFFFFFFFFFFFFF AND DUP3 PUSH1 0x40 MLOAD PUSH2 0x12A SWAP1 PUSH2 0x344 JUMP JUMPDEST PUSH0 PUSH1 0x40 MLOAD DUP1 DUP4 SUB DUP2 DUP6 DUP8 GAS CALL SWAP3 POP POP POP RETURNDATASIZE DUP1 PUSH0 DUP2 EQ PUSH2 0x164 JUMPI PUSH1 0x40 MLOAD SWAP2 POP PUSH1 0x1F NOT PUSH1 0x3F RETURNDATASIZE ADD AND DUP3 ADD PUSH1 0x40 MSTORE RETURNDATASIZE DUP3 MSTORE RETURNDATASIZE PUSH0 PUSH1 0x20 DUP5 ADD RETURNDATACOPY PUSH2 0x169 JUMP JUMPDEST PUSH1 0x60 SWAP2 POP JUMPDEST POP POP SWAP1 POP DUP1 PUSH2 0x1AD JUMPI PUSH1 0x40 MLOAD PUSH32 0x8C379A000000000000000000000000000000000000000000000000000000000 DUP2 MSTORE PUSH1 0x4 ADD PUSH2 0x1A4 SWAP1 PUSH2 0x3A2 JUMP JUMPDEST PUSH1 0x40 MLOAD DUP1 SWAP2 SUB SWAP1 REVERT JUMPDEST POP POP JUMP JUMPDEST PUSH0 SELFBALANCE SWAP1 POP SWAP1 JUMP JUMPDEST PUSH0 PUSH0 REVERT JUMPDEST PUSH0 DUP2 SWAP1 POP SWAP2 SWAP1 POP JUMP JUMPDEST PUSH2 0x1CE DUP2 PUSH2 0x1BC JUMP JUMPDEST DUP2 EQ PUSH2 0x1D8 JUMPI PUSH0 PUSH0 REVERT JUMPDEST POP JUMP JUMPDEST PUSH0 DUP2 CALLDATALOAD SWAP1 POP PUSH2 0x1E9 DUP2 PUSH2 0x1C5 JUMP JUMPDEST SWAP3 SWAP2 POP POP JUMP JUMPDEST PUSH0 PUSH1 0x20 DUP3 DUP5 SUB SLT ISZERO PUSH2 0x204 JUMPI PUSH2 0x203 PUSH2 0x1B8 JUMP JUMPDEST JUMPDEST PUSH0 PUSH2 0x211 DUP5 DUP3 DUP6 ADD PUSH2 0x1DB JUMP JUMPDEST SWAP2 POP POP SWAP3 SWAP2 POP POP JUMP JUMPDEST PUSH2 0x223 DUP2 PUSH2 0x1BC JUMP JUMPDEST DUP3 MSTORE POP POP JUMP JUMPDEST PUSH0 PUSH1 0x20 DUP3 ADD SWAP1 POP PUSH2 0x23C PUSH0 DUP4 ADD DUP5 PUSH2 0x21A JUMP JUMPDEST SWAP3 SWAP2 POP POP JUMP JUMPDEST PUSH32 0x4E487B7100000000000000000000000000000000000000000000000000000000 PUSH0 MSTORE PUSH1 0x12 PUSH1 0x4 MSTORE PUSH1 0x24 PUSH0 REVERT JUMPDEST PUSH0 PUSH2 0x279 DUP3 PUSH2 0x1BC JUMP JUMPDEST SWAP2 POP PUSH2 0x284 DUP4 PUSH2 0x1BC JUMP JUMPDEST SWAP3 POP DUP3 PUSH2 0x294 JUMPI PUSH2 0x293 PUSH2 0x242 JUMP JUMPDEST JUMPDEST DUP3 DUP3 MOD SWAP1 POP SWAP3 SWAP2 POP POP JUMP JUMPDEST PUSH0 DUP3 DUP3 MSTORE PUSH1 0x20 DUP3 ADD SWAP1 POP SWAP3 SWAP2 POP POP JUMP JUMPDEST PUSH32 0x6D757374206D6F7265207468616E203130302121000000000000000000000000 PUSH0 DUP3 ADD MSTORE POP JUMP JUMPDEST PUSH0 PUSH2 0x2E3 PUSH1 0x14 DUP4 PUSH2 0x29F JUMP JUMPDEST SWAP2 POP PUSH2 0x2EE DUP3 PUSH2 0x2AF JUMP JUMPDEST PUSH1 0x20 DUP3 ADD SWAP1 POP SWAP2 SWAP1 POP JUMP JUMPDEST PUSH0 PUSH1 0x20 DUP3 ADD SWAP1 POP DUP2 DUP2 SUB PUSH0 DUP4 ADD MSTORE PUSH2 0x310 DUP2 PUSH2 0x2D7 JUMP JUMPDEST SWAP1 POP SWAP2 SWAP1 POP JUMP JUMPDEST PUSH0 DUP2 SWAP1 POP SWAP3 SWAP2 POP POP JUMP JUMPDEST POP JUMP JUMPDEST PUSH0 PUSH2 0x32F PUSH0 DUP4 PUSH2 0x317 JUMP JUMPDEST SWAP2 POP PUSH2 0x33A DUP3 PUSH2 0x321 JUMP JUMPDEST PUSH0 DUP3 ADD SWAP1 POP SWAP2 SWAP1 POP JUMP JUMPDEST PUSH0 PUSH2 0x34E DUP3 PUSH2 0x324 JUMP JUMPDEST SWAP2 POP DUP2 SWAP1 POP SWAP2 SWAP1 POP JUMP JUMPDEST PUSH32 0x4661696C656420746F2073656E64204574686572000000000000000000000000 PUSH0 DUP3 ADD MSTORE POP JUMP JUMPDEST PUSH0 PUSH2 0x38C PUSH1 0x14 DUP4 PUSH2 0x29F JUMP JUMPDEST SWAP2 POP PUSH2 0x397 DUP3 PUSH2 0x358 JUMP JUMPDEST PUSH1 0x20 DUP3 ADD SWAP1 POP SWAP2 SWAP1 POP JUMP JUMPDEST PUSH0 PUSH1 0x20 DUP3 ADD SWAP1 POP DUP2 DUP2 SUB PUSH0 DUP4 ADD MSTORE PUSH2 0x3B9 DUP2 PUSH2 0x380 JUMP JUMPDEST SWAP1 POP SWAP2 SWAP1 POP JUMP INVALID LOG2 PUSH5 0x6970667358 0x22 SLT KECCAK256 SMOD 0x22 RETURNDATACOPY 0xB0 RJUMPI 0xE286 DUP10 NUMBER DUP16 0xD0 ADD RJUMP 0x612D DATALOADN 0x49B1 SWAP14 0xCC TIMESTAMP ADDRESS SUB LOG2 0xD5 PUSH11 0xF5714212FA164736F6C63 NUMBER STOP ADDMOD SAR STOP CALLER "
				},
				"gasEstimates": {
					"creation": {
						"codeDepositCost": "202800",
						"executionCost": "219",
						"totalCost": "203019"
					},
					"external": {
						"showBalance()": "334",
						"withdraw(uint256)": "infinite"
					}
				},
				"methodIdentifiers": {
					"showBalance()": "81b2d07b",
					"withdraw(uint256)": "2e1a7d4d"
				}
			},
			"storageLayout": {
				"storage": [],
				"types": null
			},
			"userdoc": {
				"kind": "user",
				"methods": {},
				"version": 1
			}
		}
	}
}