{
	"0505learnERC20.sol": {
		"TokenBank": {
			"abi": [
				{
					"inputs": [
						{
							"internalType": "address",
							"name": "tokenAddr",
							"type": "address"
						}
					],
					"stateMutability": "nonpayable",
					"type": "constructor"
				},
				{
					"inputs": [
						{
							"internalType": "address",
							"name": "",
							"type": "address"
						}
					],
					"name": "balances",
					"outputs": [
						{
							"internalType": "uint256",
							"name": "",
							"type": "uint256"
						}
					],
					"stateMutability": "view",
					"type": "function"
				},
				{
					"inputs": [
						{
							"internalType": "uint256",
							"name": "_amount",
							"type": "uint256"
						}
					],
					"name": "deposit",
					"outputs": [],
					"stateMutability": "nonpayable",
					"type": "function"
				},
				{
					"inputs": [],
					"name": "token",
					"outputs": [
						{
							"internalType": "contract BaseERC20",
							"name": "",
							"type": "address"
						}
					],
					"stateMutability": "view",
					"type": "function"
				},
				{
					"inputs": [],
					"name": "withdraw",
					"outputs": [],
					"stateMutability": "nonpayable",
					"type": "function"
				}
			],
			"devdoc": {
				"kind": "dev",
				"methods": {},
				"version": 1
			},
			"evm": {
				"assembly": "    /* \"0505learnERC20.sol\":2557:3846  contract TokenBank {... */\n  mstore(0x40, 0x80)\n    /* \"0505learnERC20.sol\":2657:2733  constructor(address tokenAddr) {... */\n  callvalue\n  dup1\n  iszero\n  tag_1\n  jumpi\n  0x00\n  dup1\n  revert\ntag_1:\n  pop\n  mload(0x40)\n  sub(codesize, bytecodeSize)\n  dup1\n  bytecodeSize\n  dup4\n  codecopy\n  dup2\n  dup2\n  add\n  0x40\n  mstore\n  dup2\n  add\n  swap1\n  tag_2\n  swap2\n  swap1\n  tag_3\n  jump\t// in\ntag_2:\n    /* \"0505learnERC20.sol\":2716:2725  tokenAddr */\n  dup1\n    /* \"0505learnERC20.sol\":2698:2703  token */\n  0x00\n  dup1\n    /* \"0505learnERC20.sol\":2698:2726  token = BaseERC20(tokenAddr) */\n  0x0100\n  exp\n  dup2\n  sload\n  dup2\n  0xffffffffffffffffffffffffffffffffffffffff\n  mul\n  not\n  and\n  swap1\n  dup4\n  0xffffffffffffffffffffffffffffffffffffffff\n  and\n  mul\n  or\n  swap1\n  sstore\n  pop\n    /* \"0505learnERC20.sol\":2657:2733  constructor(address tokenAddr) {... */\n  pop\n    /* \"0505learnERC20.sol\":2557:3846  contract TokenBank {... */\n  jump(tag_6)\n    /* \"#utility.yul\":88:205   */\ntag_8:\n    /* \"#utility.yul\":197:198   */\n  0x00\n    /* \"#utility.yul\":194:195   */\n  dup1\n    /* \"#utility.yul\":187:199   */\n  revert\n    /* \"#utility.yul\":334:460   */\ntag_10:\n    /* \"#utility.yul\":371:378   */\n  0x00\n    /* \"#utility.yul\":411:453   */\n  0xffffffffffffffffffffffffffffffffffffffff\n    /* \"#utility.yul\":404:409   */\n  dup3\n    /* \"#utility.yul\":400:454   */\n  and\n    /* \"#utility.yul\":389:454   */\n  swap1\n  pop\n    /* \"#utility.yul\":334:460   */\n  swap2\n  swap1\n  pop\n  jump\t// out\n    /* \"#utility.yul\":466:562   */\ntag_11:\n    /* \"#utility.yul\":503:510   */\n  0x00\n    /* \"#utility.yul\":532:556   */\n  tag_20\n    /* \"#utility.yul\":550:555   */\n  dup3\n    /* \"#utility.yul\":532:556   */\n  tag_10\n  jump\t// in\ntag_20:\n    /* \"#utility.yul\":521:556   */\n  swap1\n  pop\n    /* \"#utility.yul\":466:562   */\n  swap2\n  swap1\n  pop\n  jump\t// out\n    /* \"#utility.yul\":568:690   */\ntag_12:\n    /* \"#utility.yul\":641:665   */\n  tag_22\n    /* \"#utility.yul\":659:664   */\n  dup2\n    /* \"#utility.yul\":641:665   */\n  tag_11\n  jump\t// in\ntag_22:\n    /* \"#utility.yul\":634:639   */\n  dup2\n    /* \"#utility.yul\":631:666   */\n  eq\n    /* \"#utility.yul\":621:684   */\n  tag_23\n  jumpi\n    /* \"#utility.yul\":680:681   */\n  0x00\n    /* \"#utility.yul\":677:678   */\n  dup1\n    /* \"#utility.yul\":670:682   */\n  revert\n    /* \"#utility.yul\":621:684   */\ntag_23:\n    /* \"#utility.yul\":568:690   */\n  pop\n  jump\t// out\n    /* \"#utility.yul\":696:839   */\ntag_13:\n    /* \"#utility.yul\":753:758   */\n  0x00\n    /* \"#utility.yul\":784:790   */\n  dup2\n    /* \"#utility.yul\":778:791   */\n  mload\n    /* \"#utility.yul\":769:791   */\n  swap1\n  pop\n    /* \"#utility.yul\":800:833   */\n  tag_25\n    /* \"#utility.yul\":827:832   */\n  dup2\n    /* \"#utility.yul\":800:833   */\n  tag_12\n  jump\t// in\ntag_25:\n    /* \"#utility.yul\":696:839   */\n  swap3\n  swap2\n  pop\n  pop\n  jump\t// out\n    /* \"#utility.yul\":845:1196   */\ntag_3:\n    /* \"#utility.yul\":915:921   */\n  0x00\n    /* \"#utility.yul\":964:966   */\n  0x20\n    /* \"#utility.yul\":952:961   */\n  dup3\n    /* \"#utility.yul\":943:950   */\n  dup5\n    /* \"#utility.yul\":939:962   */\n  sub\n    /* \"#utility.yul\":935:967   */\n  slt\n    /* \"#utility.yul\":932:1051   */\n  iszero\n  tag_27\n  jumpi\n    /* \"#utility.yul\":970:1049   */\n  tag_28\n  tag_8\n  jump\t// in\ntag_28:\n    /* \"#utility.yul\":932:1051   */\ntag_27:\n    /* \"#utility.yul\":1090:1091   */\n  0x00\n    /* \"#utility.yul\":1115:1179   */\n  tag_29\n    /* \"#utility.yul\":1171:1178   */\n  dup5\n    /* \"#utility.yul\":1162:1168   */\n  dup3\n    /* \"#utility.yul\":1151:1160   */\n  dup6\n    /* \"#utility.yul\":1147:1169   */\n  add\n    /* \"#utility.yul\":1115:1179   */\n  tag_13\n  jump\t// in\ntag_29:\n    /* \"#utility.yul\":1105:1179   */\n  swap2\n  pop\n    /* \"#utility.yul\":1061:1189   */\n  pop\n    /* \"#utility.yul\":845:1196   */\n  swap3\n  swap2\n  pop\n  pop\n  jump\t// out\n    /* \"0505learnERC20.sol\":2557:3846  contract TokenBank {... */\ntag_6:\n  dataSize(sub_0)\n  dup1\n  dataOffset(sub_0)\n  0x00\n  codecopy\n  0x00\n  return\nstop\n\nsub_0: assembly {\n        /* \"0505learnERC20.sol\":2557:3846  contract TokenBank {... */\n      mstore(0x40, 0x80)\n      callvalue\n      dup1\n      iszero\n      tag_1\n      jumpi\n      0x00\n      dup1\n      revert\n    tag_1:\n      pop\n      jumpi(tag_2, lt(calldatasize, 0x04))\n      shr(0xe0, calldataload(0x00))\n      dup1\n      0x27e235e3\n      eq\n      tag_3\n      jumpi\n      dup1\n      0x3ccfd60b\n      eq\n      tag_4\n      jumpi\n      dup1\n      0xb6b55f25\n      eq\n      tag_5\n      jumpi\n      dup1\n      0xfc0c546a\n      eq\n      tag_6\n      jumpi\n    tag_2:\n      0x00\n      dup1\n      revert\n        /* \"0505learnERC20.sol\":2610:2650  mapping(address => uint) public balances */\n    tag_3:\n      tag_7\n      0x04\n      dup1\n      calldatasize\n      sub\n      dup2\n      add\n      swap1\n      tag_8\n      swap2\n      swap1\n      tag_9\n      jump\t// in\n    tag_8:\n      tag_10\n      jump\t// in\n    tag_7:\n      mload(0x40)\n      tag_11\n      swap2\n      swap1\n      tag_12\n      jump\t// in\n    tag_11:\n      mload(0x40)\n      dup1\n      swap2\n      sub\n      swap1\n      return\n        /* \"0505learnERC20.sol\":3395:3844  function withdraw() public {... */\n    tag_4:\n      tag_13\n      tag_14\n      jump\t// in\n    tag_13:\n      stop\n        /* \"0505learnERC20.sol\":2739:3389  function deposit(uint _amount) public {... */\n    tag_5:\n      tag_15\n      0x04\n      dup1\n      calldatasize\n      sub\n      dup2\n      add\n      swap1\n      tag_16\n      swap2\n      swap1\n      tag_17\n      jump\t// in\n    tag_16:\n      tag_18\n      jump\t// in\n    tag_15:\n      stop\n        /* \"0505learnERC20.sol\":2582:2604  BaseERC20 public token */\n    tag_6:\n      tag_19\n      tag_20\n      jump\t// in\n    tag_19:\n      mload(0x40)\n      tag_21\n      swap2\n      swap1\n      tag_22\n      jump\t// in\n    tag_21:\n      mload(0x40)\n      dup1\n      swap2\n      sub\n      swap1\n      return\n        /* \"0505learnERC20.sol\":2610:2650  mapping(address => uint) public balances */\n    tag_10:\n      mstore(0x20, 0x01)\n      dup1\n      0x00\n      mstore\n      keccak256(0x00, 0x40)\n      0x00\n      swap2\n      pop\n      swap1\n      pop\n      sload\n      dup2\n      jump\t// out\n        /* \"0505learnERC20.sol\":3395:3844  function withdraw() public {... */\n    tag_14:\n        /* \"0505learnERC20.sol\":3463:3464  0 */\n      0x00\n        /* \"0505learnERC20.sol\":3440:3448  balances */\n      0x01\n        /* \"0505learnERC20.sol\":3440:3460  balances[msg.sender] */\n      0x00\n        /* \"0505learnERC20.sol\":3449:3459  msg.sender */\n      caller\n        /* \"0505learnERC20.sol\":3440:3460  balances[msg.sender] */\n      0xffffffffffffffffffffffffffffffffffffffff\n      and\n      0xffffffffffffffffffffffffffffffffffffffff\n      and\n      dup2\n      mstore\n      0x20\n      add\n      swap1\n      dup2\n      mstore\n      0x20\n      add\n      0x00\n      keccak256\n      sload\n        /* \"0505learnERC20.sol\":3440:3464  balances[msg.sender] > 0 */\n      gt\n        /* \"0505learnERC20.sol\":3432:3485  require(balances[msg.sender] > 0, \"balance is empty\") */\n      tag_24\n      jumpi\n      mload(0x40)\n      0x08c379a000000000000000000000000000000000000000000000000000000000\n      dup2\n      mstore\n      0x04\n      add\n      tag_25\n      swap1\n      tag_26\n      jump\t// in\n    tag_25:\n      mload(0x40)\n      dup1\n      swap2\n      sub\n      swap1\n      revert\n    tag_24:\n        /* \"0505learnERC20.sol\":3695:3707  bool success */\n      0x00\n        /* \"0505learnERC20.sol\":3710:3715  token */\n      dup1\n      0x00\n      swap1\n      sload\n      swap1\n      0x0100\n      exp\n      swap1\n      div\n      0xffffffffffffffffffffffffffffffffffffffff\n      and\n        /* \"0505learnERC20.sol\":3710:3724  token.transfer */\n      0xffffffffffffffffffffffffffffffffffffffff\n      and\n      0xa9059cbb\n        /* \"0505learnERC20.sol\":3725:3735  msg.sender */\n      caller\n        /* \"0505learnERC20.sol\":3737:3745  balances */\n      0x01\n        /* \"0505learnERC20.sol\":3737:3757  balances[msg.sender] */\n      0x00\n        /* \"0505learnERC20.sol\":3746:3756  msg.sender */\n      caller\n        /* \"0505learnERC20.sol\":3737:3757  balances[msg.sender] */\n      0xffffffffffffffffffffffffffffffffffffffff\n      and\n      0xffffffffffffffffffffffffffffffffffffffff\n      and\n      dup2\n      mstore\n      0x20\n      add\n      swap1\n      dup2\n      mstore\n      0x20\n      add\n      0x00\n      keccak256\n      sload\n        /* \"0505learnERC20.sol\":3710:3758  token.transfer(msg.sender, balances[msg.sender]) */\n      mload(0x40)\n      dup4\n      0xffffffff\n      and\n      0xe0\n      shl\n      dup2\n      mstore\n      0x04\n      add\n      tag_27\n      swap3\n      swap2\n      swap1\n      tag_28\n      jump\t// in\n    tag_27:\n      0x20\n      mload(0x40)\n      dup1\n      dup4\n      sub\n      dup2\n      0x00\n      dup8\n      gas\n      call\n      iszero\n      dup1\n      iszero\n      tag_30\n      jumpi\n      returndatasize\n      0x00\n      dup1\n      returndatacopy\n      revert(0x00, returndatasize)\n    tag_30:\n      pop\n      pop\n      pop\n      pop\n      mload(0x40)\n      returndatasize\n      not(0x1f)\n      0x1f\n      dup3\n      add\n      and\n      dup3\n      add\n      dup1\n      0x40\n      mstore\n      pop\n      dup2\n      add\n      swap1\n      tag_31\n      swap2\n      swap1\n      tag_32\n      jump\t// in\n    tag_31:\n        /* \"0505learnERC20.sol\":3695:3758  bool success = token.transfer(msg.sender, balances[msg.sender]) */\n      swap1\n      pop\n        /* \"0505learnERC20.sol\":3776:3783  success */\n      dup1\n        /* \"0505learnERC20.sol\":3768:3803  require(success, \"withdraw failed\") */\n      tag_33\n      jumpi\n      mload(0x40)\n      0x08c379a000000000000000000000000000000000000000000000000000000000\n      dup2\n      mstore\n      0x04\n      add\n      tag_34\n      swap1\n      tag_35\n      jump\t// in\n    tag_34:\n      mload(0x40)\n      dup1\n      swap2\n      sub\n      swap1\n      revert\n    tag_33:\n        /* \"0505learnERC20.sol\":3836:3837  0 */\n      0x00\n        /* \"0505learnERC20.sol\":3813:3821  balances */\n      0x01\n        /* \"0505learnERC20.sol\":3813:3833  balances[msg.sender] */\n      0x00\n        /* \"0505learnERC20.sol\":3822:3832  msg.sender */\n      caller\n        /* \"0505learnERC20.sol\":3813:3833  balances[msg.sender] */\n      0xffffffffffffffffffffffffffffffffffffffff\n      and\n      0xffffffffffffffffffffffffffffffffffffffff\n      and\n      dup2\n      mstore\n      0x20\n      add\n      swap1\n      dup2\n      mstore\n      0x20\n      add\n      0x00\n      keccak256\n        /* \"0505learnERC20.sol\":3813:3837  balances[msg.sender] = 0 */\n      dup2\n      swap1\n      sstore\n      pop\n        /* \"0505learnERC20.sol\":3422:3844  {... */\n      pop\n        /* \"0505learnERC20.sol\":3395:3844  function withdraw() public {... */\n      jump\t// out\n        /* \"0505learnERC20.sol\":2739:3389  function deposit(uint _amount) public {... */\n    tag_18:\n        /* \"0505learnERC20.sol\":2868:2875  _amount */\n      dup1\n        /* \"0505learnERC20.sol\":2822:2827  token */\n      0x00\n      dup1\n      sload\n      swap1\n      0x0100\n      exp\n      swap1\n      div\n      0xffffffffffffffffffffffffffffffffffffffff\n      and\n        /* \"0505learnERC20.sol\":2822:2837  token.allowance */\n      0xffffffffffffffffffffffffffffffffffffffff\n      and\n      0xdd62ed3e\n        /* \"0505learnERC20.sol\":2838:2848  msg.sender */\n      caller\n        /* \"0505learnERC20.sol\":2858:2862  this */\n      address\n        /* \"0505learnERC20.sol\":2822:2864  token.allowance(msg.sender, address(this)) */\n      mload(0x40)\n      dup4\n      0xffffffff\n      and\n      0xe0\n      shl\n      dup2\n      mstore\n      0x04\n      add\n      tag_37\n      swap3\n      swap2\n      swap1\n      tag_38\n      jump\t// in\n    tag_37:\n      0x20\n      mload(0x40)\n      dup1\n      dup4\n      sub\n      dup2\n      dup7\n      gas\n      staticcall\n      iszero\n      dup1\n      iszero\n      tag_40\n      jumpi\n      returndatasize\n      0x00\n      dup1\n      returndatacopy\n      revert(0x00, returndatasize)\n    tag_40:\n      pop\n      pop\n      pop\n      pop\n      mload(0x40)\n      returndatasize\n      not(0x1f)\n      0x1f\n      dup3\n      add\n      and\n      dup3\n      add\n      dup1\n      0x40\n      mstore\n      pop\n      dup2\n      add\n      swap1\n      tag_41\n      swap2\n      swap1\n      tag_42\n      jump\t// in\n    tag_41:\n        /* \"0505learnERC20.sol\":2822:2875  token.allowance(msg.sender, address(this)) >= _amount */\n      lt\n      iszero\n        /* \"0505learnERC20.sol\":2814:2897  require(token.allowance(msg.sender, address(this)) >= _amount, \"bank unauthorized\") */\n      tag_43\n      jumpi\n      mload(0x40)\n      0x08c379a000000000000000000000000000000000000000000000000000000000\n      dup2\n      mstore\n      0x04\n      add\n      tag_44\n      swap1\n      tag_45\n      jump\t// in\n    tag_44:\n      mload(0x40)\n      dup1\n      swap2\n      sub\n      swap1\n      revert\n    tag_43:\n        /* \"0505learnERC20.sol\":2973:2980  _amount */\n      dup1\n        /* \"0505learnERC20.sol\":2942:2947  token */\n      0x00\n      dup1\n      sload\n      swap1\n      0x0100\n      exp\n      swap1\n      div\n      0xffffffffffffffffffffffffffffffffffffffff\n      and\n        /* \"0505learnERC20.sol\":2942:2957  token.balanceOf */\n      0xffffffffffffffffffffffffffffffffffffffff\n      and\n      0x70a08231\n        /* \"0505learnERC20.sol\":2958:2968  msg.sender */\n      caller\n        /* \"0505learnERC20.sol\":2942:2969  token.balanceOf(msg.sender) */\n      mload(0x40)\n      dup3\n      0xffffffff\n      and\n      0xe0\n      shl\n      dup2\n      mstore\n      0x04\n      add\n      tag_46\n      swap2\n      swap1\n      tag_47\n      jump\t// in\n    tag_46:\n      0x20\n      mload(0x40)\n      dup1\n      dup4\n      sub\n      dup2\n      dup7\n      gas\n      staticcall\n      iszero\n      dup1\n      iszero\n      tag_49\n      jumpi\n      returndatasize\n      0x00\n      dup1\n      returndatacopy\n      revert(0x00, returndatasize)\n    tag_49:\n      pop\n      pop\n      pop\n      pop\n      mload(0x40)\n      returndatasize\n      not(0x1f)\n      0x1f\n      dup3\n      add\n      and\n      dup3\n      add\n      dup1\n      0x40\n      mstore\n      pop\n      dup2\n      add\n      swap1\n      tag_50\n      swap2\n      swap1\n      tag_42\n      jump\t// in\n    tag_50:\n        /* \"0505learnERC20.sol\":2942:2980  token.balanceOf(msg.sender) >= _amount */\n      lt\n      iszero\n        /* \"0505learnERC20.sol\":2934:2999  require(token.balanceOf(msg.sender) >= _amount, \"balance exceed\") */\n      tag_51\n      jumpi\n      mload(0x40)\n      0x08c379a000000000000000000000000000000000000000000000000000000000\n      dup2\n      mstore\n      0x04\n      add\n      tag_52\n      swap1\n      tag_53\n      jump\t// in\n    tag_52:\n      mload(0x40)\n      dup1\n      swap2\n      sub\n      swap1\n      revert\n    tag_51:\n        /* \"0505learnERC20.sol\":3181:3193  bool success */\n      0x00\n        /* \"0505learnERC20.sol\":3196:3201  token */\n      dup1\n      0x00\n      swap1\n      sload\n      swap1\n      0x0100\n      exp\n      swap1\n      div\n      0xffffffffffffffffffffffffffffffffffffffff\n      and\n        /* \"0505learnERC20.sol\":3196:3214  token.transferFrom */\n      0xffffffffffffffffffffffffffffffffffffffff\n      and\n      0x23b872dd\n        /* \"0505learnERC20.sol\":3215:3225  msg.sender */\n      caller\n        /* \"0505learnERC20.sol\":3235:3239  this */\n      address\n        /* \"0505learnERC20.sol\":3242:3249  _amount */\n      dup6\n        /* \"0505learnERC20.sol\":3196:3250  token.transferFrom(msg.sender, address(this), _amount) */\n      mload(0x40)\n      dup5\n      0xffffffff\n      and\n      0xe0\n      shl\n      dup2\n      mstore\n      0x04\n      add\n      tag_54\n      swap4\n      swap3\n      swap2\n      swap1\n      tag_55\n      jump\t// in\n    tag_54:\n      0x20\n      mload(0x40)\n      dup1\n      dup4\n      sub\n      dup2\n      0x00\n      dup8\n      gas\n      call\n      iszero\n      dup1\n      iszero\n      tag_57\n      jumpi\n      returndatasize\n      0x00\n      dup1\n      returndatacopy\n      revert(0x00, returndatasize)\n    tag_57:\n      pop\n      pop\n      pop\n      pop\n      mload(0x40)\n      returndatasize\n      not(0x1f)\n      0x1f\n      dup3\n      add\n      and\n      dup3\n      add\n      dup1\n      0x40\n      mstore\n      pop\n      dup2\n      add\n      swap1\n      tag_58\n      swap2\n      swap1\n      tag_32\n      jump\t// in\n    tag_58:\n        /* \"0505learnERC20.sol\":3181:3250  bool success = token.transferFrom(msg.sender, address(this), _amount) */\n      swap1\n      pop\n        /* \"0505learnERC20.sol\":3268:3275  success */\n      dup1\n        /* \"0505learnERC20.sol\":3260:3295  require(success, \"transfer failed\") */\n      tag_59\n      jumpi\n      mload(0x40)\n      0x08c379a000000000000000000000000000000000000000000000000000000000\n      dup2\n      mstore\n      0x04\n      add\n      tag_60\n      swap1\n      tag_61\n      jump\t// in\n    tag_60:\n      mload(0x40)\n      dup1\n      swap2\n      sub\n      swap1\n      revert\n    tag_59:\n        /* \"0505learnERC20.sol\":3375:3382  _amount */\n      dup2\n        /* \"0505learnERC20.sol\":3351:3359  balances */\n      0x01\n        /* \"0505learnERC20.sol\":3351:3371  balances[msg.sender] */\n      0x00\n        /* \"0505learnERC20.sol\":3360:3370  msg.sender */\n      caller\n        /* \"0505learnERC20.sol\":3351:3371  balances[msg.sender] */\n      0xffffffffffffffffffffffffffffffffffffffff\n      and\n      0xffffffffffffffffffffffffffffffffffffffff\n      and\n      dup2\n      mstore\n      0x20\n      add\n      swap1\n      dup2\n      mstore\n      0x20\n      add\n      0x00\n      keccak256\n      0x00\n        /* \"0505learnERC20.sol\":3351:3382  balances[msg.sender] += _amount */\n      dup3\n      dup3\n      sload\n      tag_62\n      swap2\n      swap1\n      tag_63\n      jump\t// in\n    tag_62:\n      swap3\n      pop\n      pop\n      dup2\n      swap1\n      sstore\n      pop\n        /* \"0505learnERC20.sol\":2777:3389  {... */\n      pop\n        /* \"0505learnERC20.sol\":2739:3389  function deposit(uint _amount) public {... */\n      pop\n      jump\t// out\n        /* \"0505learnERC20.sol\":2582:2604  BaseERC20 public token */\n    tag_20:\n      0x00\n      dup1\n      sload\n      swap1\n      0x0100\n      exp\n      swap1\n      div\n      0xffffffffffffffffffffffffffffffffffffffff\n      and\n      dup2\n      jump\t// out\n        /* \"#utility.yul\":88:205   */\n    tag_65:\n        /* \"#utility.yul\":197:198   */\n      0x00\n        /* \"#utility.yul\":194:195   */\n      dup1\n        /* \"#utility.yul\":187:199   */\n      revert\n        /* \"#utility.yul\":334:460   */\n    tag_67:\n        /* \"#utility.yul\":371:378   */\n      0x00\n        /* \"#utility.yul\":411:453   */\n      0xffffffffffffffffffffffffffffffffffffffff\n        /* \"#utility.yul\":404:409   */\n      dup3\n        /* \"#utility.yul\":400:454   */\n      and\n        /* \"#utility.yul\":389:454   */\n      swap1\n      pop\n        /* \"#utility.yul\":334:460   */\n      swap2\n      swap1\n      pop\n      jump\t// out\n        /* \"#utility.yul\":466:562   */\n    tag_68:\n        /* \"#utility.yul\":503:510   */\n      0x00\n        /* \"#utility.yul\":532:556   */\n      tag_103\n        /* \"#utility.yul\":550:555   */\n      dup3\n        /* \"#utility.yul\":532:556   */\n      tag_67\n      jump\t// in\n    tag_103:\n        /* \"#utility.yul\":521:556   */\n      swap1\n      pop\n        /* \"#utility.yul\":466:562   */\n      swap2\n      swap1\n      pop\n      jump\t// out\n        /* \"#utility.yul\":568:690   */\n    tag_69:\n        /* \"#utility.yul\":641:665   */\n      tag_105\n        /* \"#utility.yul\":659:664   */\n      dup2\n        /* \"#utility.yul\":641:665   */\n      tag_68\n      jump\t// in\n    tag_105:\n        /* \"#utility.yul\":634:639   */\n      dup2\n        /* \"#utility.yul\":631:666   */\n      eq\n        /* \"#utility.yul\":621:684   */\n      tag_106\n      jumpi\n        /* \"#utility.yul\":680:681   */\n      0x00\n        /* \"#utility.yul\":677:678   */\n      dup1\n        /* \"#utility.yul\":670:682   */\n      revert\n        /* \"#utility.yul\":621:684   */\n    tag_106:\n        /* \"#utility.yul\":568:690   */\n      pop\n      jump\t// out\n        /* \"#utility.yul\":696:835   */\n    tag_70:\n        /* \"#utility.yul\":742:747   */\n      0x00\n        /* \"#utility.yul\":780:786   */\n      dup2\n        /* \"#utility.yul\":767:787   */\n      calldataload\n        /* \"#utility.yul\":758:787   */\n      swap1\n      pop\n        /* \"#utility.yul\":796:829   */\n      tag_108\n        /* \"#utility.yul\":823:828   */\n      dup2\n        /* \"#utility.yul\":796:829   */\n      tag_69\n      jump\t// in\n    tag_108:\n        /* \"#utility.yul\":696:835   */\n      swap3\n      swap2\n      pop\n      pop\n      jump\t// out\n        /* \"#utility.yul\":841:1170   */\n    tag_9:\n        /* \"#utility.yul\":900:906   */\n      0x00\n        /* \"#utility.yul\":949:951   */\n      0x20\n        /* \"#utility.yul\":937:946   */\n      dup3\n        /* \"#utility.yul\":928:935   */\n      dup5\n        /* \"#utility.yul\":924:947   */\n      sub\n        /* \"#utility.yul\":920:952   */\n      slt\n        /* \"#utility.yul\":917:1036   */\n      iszero\n      tag_110\n      jumpi\n        /* \"#utility.yul\":955:1034   */\n      tag_111\n      tag_65\n      jump\t// in\n    tag_111:\n        /* \"#utility.yul\":917:1036   */\n    tag_110:\n        /* \"#utility.yul\":1075:1076   */\n      0x00\n        /* \"#utility.yul\":1100:1153   */\n      tag_112\n        /* \"#utility.yul\":1145:1152   */\n      dup5\n        /* \"#utility.yul\":1136:1142   */\n      dup3\n        /* \"#utility.yul\":1125:1134   */\n      dup6\n        /* \"#utility.yul\":1121:1143   */\n      add\n        /* \"#utility.yul\":1100:1153   */\n      tag_70\n      jump\t// in\n    tag_112:\n        /* \"#utility.yul\":1090:1153   */\n      swap2\n      pop\n        /* \"#utility.yul\":1046:1163   */\n      pop\n        /* \"#utility.yul\":841:1170   */\n      swap3\n      swap2\n      pop\n      pop\n      jump\t// out\n        /* \"#utility.yul\":1176:1253   */\n    tag_71:\n        /* \"#utility.yul\":1213:1220   */\n      0x00\n        /* \"#utility.yul\":1242:1247   */\n      dup2\n        /* \"#utility.yul\":1231:1247   */\n      swap1\n      pop\n        /* \"#utility.yul\":1176:1253   */\n      swap2\n      swap1\n      pop\n      jump\t// out\n        /* \"#utility.yul\":1259:1377   */\n    tag_72:\n        /* \"#utility.yul\":1346:1370   */\n      tag_115\n        /* \"#utility.yul\":1364:1369   */\n      dup2\n        /* \"#utility.yul\":1346:1370   */\n      tag_71\n      jump\t// in\n    tag_115:\n        /* \"#utility.yul\":1341:1344   */\n      dup3\n        /* \"#utility.yul\":1334:1371   */\n      mstore\n        /* \"#utility.yul\":1259:1377   */\n      pop\n      pop\n      jump\t// out\n        /* \"#utility.yul\":1383:1605   */\n    tag_12:\n        /* \"#utility.yul\":1476:1480   */\n      0x00\n        /* \"#utility.yul\":1514:1516   */\n      0x20\n        /* \"#utility.yul\":1503:1512   */\n      dup3\n        /* \"#utility.yul\":1499:1517   */\n      add\n        /* \"#utility.yul\":1491:1517   */\n      swap1\n      pop\n        /* \"#utility.yul\":1527:1598   */\n      tag_117\n        /* \"#utility.yul\":1595:1596   */\n      0x00\n        /* \"#utility.yul\":1584:1593   */\n      dup4\n        /* \"#utility.yul\":1580:1597   */\n      add\n        /* \"#utility.yul\":1571:1577   */\n      dup5\n        /* \"#utility.yul\":1527:1598   */\n      tag_72\n      jump\t// in\n    tag_117:\n        /* \"#utility.yul\":1383:1605   */\n      swap3\n      swap2\n      pop\n      pop\n      jump\t// out\n        /* \"#utility.yul\":1611:1733   */\n    tag_73:\n        /* \"#utility.yul\":1684:1708   */\n      tag_119\n        /* \"#utility.yul\":1702:1707   */\n      dup2\n        /* \"#utility.yul\":1684:1708   */\n      tag_71\n      jump\t// in\n    tag_119:\n        /* \"#utility.yul\":1677:1682   */\n      dup2\n        /* \"#utility.yul\":1674:1709   */\n      eq\n        /* \"#utility.yul\":1664:1727   */\n      tag_120\n      jumpi\n        /* \"#utility.yul\":1723:1724   */\n      0x00\n        /* \"#utility.yul\":1720:1721   */\n      dup1\n        /* \"#utility.yul\":1713:1725   */\n      revert\n        /* \"#utility.yul\":1664:1727   */\n    tag_120:\n        /* \"#utility.yul\":1611:1733   */\n      pop\n      jump\t// out\n        /* \"#utility.yul\":1739:1878   */\n    tag_74:\n        /* \"#utility.yul\":1785:1790   */\n      0x00\n        /* \"#utility.yul\":1823:1829   */\n      dup2\n        /* \"#utility.yul\":1810:1830   */\n      calldataload\n        /* \"#utility.yul\":1801:1830   */\n      swap1\n      pop\n        /* \"#utility.yul\":1839:1872   */\n      tag_122\n        /* \"#utility.yul\":1866:1871   */\n      dup2\n        /* \"#utility.yul\":1839:1872   */\n      tag_73\n      jump\t// in\n    tag_122:\n        /* \"#utility.yul\":1739:1878   */\n      swap3\n      swap2\n      pop\n      pop\n      jump\t// out\n        /* \"#utility.yul\":1884:2213   */\n    tag_17:\n        /* \"#utility.yul\":1943:1949   */\n      0x00\n        /* \"#utility.yul\":1992:1994   */\n      0x20\n        /* \"#utility.yul\":1980:1989   */\n      dup3\n        /* \"#utility.yul\":1971:1978   */\n      dup5\n        /* \"#utility.yul\":1967:1990   */\n      sub\n        /* \"#utility.yul\":1963:1995   */\n      slt\n        /* \"#utility.yul\":1960:2079   */\n      iszero\n      tag_124\n      jumpi\n        /* \"#utility.yul\":1998:2077   */\n      tag_125\n      tag_65\n      jump\t// in\n    tag_125:\n        /* \"#utility.yul\":1960:2079   */\n    tag_124:\n        /* \"#utility.yul\":2118:2119   */\n      0x00\n        /* \"#utility.yul\":2143:2196   */\n      tag_126\n        /* \"#utility.yul\":2188:2195   */\n      dup5\n        /* \"#utility.yul\":2179:2185   */\n      dup3\n        /* \"#utility.yul\":2168:2177   */\n      dup6\n        /* \"#utility.yul\":2164:2186   */\n      add\n        /* \"#utility.yul\":2143:2196   */\n      tag_74\n      jump\t// in\n    tag_126:\n        /* \"#utility.yul\":2133:2196   */\n      swap2\n      pop\n        /* \"#utility.yul\":2089:2206   */\n      pop\n        /* \"#utility.yul\":1884:2213   */\n      swap3\n      swap2\n      pop\n      pop\n      jump\t// out\n        /* \"#utility.yul\":2219:2279   */\n    tag_75:\n        /* \"#utility.yul\":2247:2250   */\n      0x00\n        /* \"#utility.yul\":2268:2273   */\n      dup2\n        /* \"#utility.yul\":2261:2273   */\n      swap1\n      pop\n        /* \"#utility.yul\":2219:2279   */\n      swap2\n      swap1\n      pop\n      jump\t// out\n        /* \"#utility.yul\":2285:2427   */\n    tag_76:\n        /* \"#utility.yul\":2335:2344   */\n      0x00\n        /* \"#utility.yul\":2368:2421   */\n      tag_129\n        /* \"#utility.yul\":2386:2420   */\n      tag_130\n        /* \"#utility.yul\":2395:2419   */\n      tag_131\n        /* \"#utility.yul\":2413:2418   */\n      dup5\n        /* \"#utility.yul\":2395:2419   */\n      tag_67\n      jump\t// in\n    tag_131:\n        /* \"#utility.yul\":2386:2420   */\n      tag_75\n      jump\t// in\n    tag_130:\n        /* \"#utility.yul\":2368:2421   */\n      tag_67\n      jump\t// in\n    tag_129:\n        /* \"#utility.yul\":2355:2421   */\n      swap1\n      pop\n        /* \"#utility.yul\":2285:2427   */\n      swap2\n      swap1\n      pop\n      jump\t// out\n        /* \"#utility.yul\":2433:2559   */\n    tag_77:\n        /* \"#utility.yul\":2483:2492   */\n      0x00\n        /* \"#utility.yul\":2516:2553   */\n      tag_133\n        /* \"#utility.yul\":2547:2552   */\n      dup3\n        /* \"#utility.yul\":2516:2553   */\n      tag_76\n      jump\t// in\n    tag_133:\n        /* \"#utility.yul\":2503:2553   */\n      swap1\n      pop\n        /* \"#utility.yul\":2433:2559   */\n      swap2\n      swap1\n      pop\n      jump\t// out\n        /* \"#utility.yul\":2565:2708   */\n    tag_78:\n        /* \"#utility.yul\":2632:2641   */\n      0x00\n        /* \"#utility.yul\":2665:2702   */\n      tag_135\n        /* \"#utility.yul\":2696:2701   */\n      dup3\n        /* \"#utility.yul\":2665:2702   */\n      tag_77\n      jump\t// in\n    tag_135:\n        /* \"#utility.yul\":2652:2702   */\n      swap1\n      pop\n        /* \"#utility.yul\":2565:2708   */\n      swap2\n      swap1\n      pop\n      jump\t// out\n        /* \"#utility.yul\":2714:2879   */\n    tag_79:\n        /* \"#utility.yul\":2818:2872   */\n      tag_137\n        /* \"#utility.yul\":2866:2871   */\n      dup2\n        /* \"#utility.yul\":2818:2872   */\n      tag_78\n      jump\t// in\n    tag_137:\n        /* \"#utility.yul\":2813:2816   */\n      dup3\n        /* \"#utility.yul\":2806:2873   */\n      mstore\n        /* \"#utility.yul\":2714:2879   */\n      pop\n      pop\n      jump\t// out\n        /* \"#utility.yul\":2885:3141   */\n    tag_22:\n        /* \"#utility.yul\":2995:2999   */\n      0x00\n        /* \"#utility.yul\":3033:3035   */\n      0x20\n        /* \"#utility.yul\":3022:3031   */\n      dup3\n        /* \"#utility.yul\":3018:3036   */\n      add\n        /* \"#utility.yul\":3010:3036   */\n      swap1\n      pop\n        /* \"#utility.yul\":3046:3134   */\n      tag_139\n        /* \"#utility.yul\":3131:3132   */\n      0x00\n        /* \"#utility.yul\":3120:3129   */\n      dup4\n        /* \"#utility.yul\":3116:3133   */\n      add\n        /* \"#utility.yul\":3107:3113   */\n      dup5\n        /* \"#utility.yul\":3046:3134   */\n      tag_79\n      jump\t// in\n    tag_139:\n        /* \"#utility.yul\":2885:3141   */\n      swap3\n      swap2\n      pop\n      pop\n      jump\t// out\n        /* \"#utility.yul\":3147:3316   */\n    tag_80:\n        /* \"#utility.yul\":3231:3242   */\n      0x00\n        /* \"#utility.yul\":3265:3271   */\n      dup3\n        /* \"#utility.yul\":3260:3263   */\n      dup3\n        /* \"#utility.yul\":3253:3272   */\n      mstore\n        /* \"#utility.yul\":3305:3309   */\n      0x20\n        /* \"#utility.yul\":3300:3303   */\n      dup3\n        /* \"#utility.yul\":3296:3310   */\n      add\n        /* \"#utility.yul\":3281:3310   */\n      swap1\n      pop\n        /* \"#utility.yul\":3147:3316   */\n      swap3\n      swap2\n      pop\n      pop\n      jump\t// out\n        /* \"#utility.yul\":3322:3488   */\n    tag_81:\n        /* \"#utility.yul\":3462:3480   */\n      0x62616c616e636520697320656d70747900000000000000000000000000000000\n        /* \"#utility.yul\":3458:3459   */\n      0x00\n        /* \"#utility.yul\":3450:3456   */\n      dup3\n        /* \"#utility.yul\":3446:3460   */\n      add\n        /* \"#utility.yul\":3439:3481   */\n      mstore\n        /* \"#utility.yul\":3322:3488   */\n      pop\n      jump\t// out\n        /* \"#utility.yul\":3494:3860   */\n    tag_82:\n        /* \"#utility.yul\":3636:3639   */\n      0x00\n        /* \"#utility.yul\":3657:3724   */\n      tag_143\n        /* \"#utility.yul\":3721:3723   */\n      0x10\n        /* \"#utility.yul\":3716:3719   */\n      dup4\n        /* \"#utility.yul\":3657:3724   */\n      tag_80\n      jump\t// in\n    tag_143:\n        /* \"#utility.yul\":3650:3724   */\n      swap2\n      pop\n        /* \"#utility.yul\":3733:3826   */\n      tag_144\n        /* \"#utility.yul\":3822:3825   */\n      dup3\n        /* \"#utility.yul\":3733:3826   */\n      tag_81\n      jump\t// in\n    tag_144:\n        /* \"#utility.yul\":3851:3853   */\n      0x20\n        /* \"#utility.yul\":3846:3849   */\n      dup3\n        /* \"#utility.yul\":3842:3854   */\n      add\n        /* \"#utility.yul\":3835:3854   */\n      swap1\n      pop\n        /* \"#utility.yul\":3494:3860   */\n      swap2\n      swap1\n      pop\n      jump\t// out\n        /* \"#utility.yul\":3866:4285   */\n    tag_26:\n        /* \"#utility.yul\":4032:4036   */\n      0x00\n        /* \"#utility.yul\":4070:4072   */\n      0x20\n        /* \"#utility.yul\":4059:4068   */\n      dup3\n        /* \"#utility.yul\":4055:4073   */\n      add\n        /* \"#utility.yul\":4047:4073   */\n      swap1\n      pop\n        /* \"#utility.yul\":4119:4128   */\n      dup2\n        /* \"#utility.yul\":4113:4117   */\n      dup2\n        /* \"#utility.yul\":4109:4129   */\n      sub\n        /* \"#utility.yul\":4105:4106   */\n      0x00\n        /* \"#utility.yul\":4094:4103   */\n      dup4\n        /* \"#utility.yul\":4090:4107   */\n      add\n        /* \"#utility.yul\":4083:4130   */\n      mstore\n        /* \"#utility.yul\":4147:4278   */\n      tag_146\n        /* \"#utility.yul\":4273:4277   */\n      dup2\n        /* \"#utility.yul\":4147:4278   */\n      tag_82\n      jump\t// in\n    tag_146:\n        /* \"#utility.yul\":4139:4278   */\n      swap1\n      pop\n        /* \"#utility.yul\":3866:4285   */\n      swap2\n      swap1\n      pop\n      jump\t// out\n        /* \"#utility.yul\":4291:4409   */\n    tag_83:\n        /* \"#utility.yul\":4378:4402   */\n      tag_148\n        /* \"#utility.yul\":4396:4401   */\n      dup2\n        /* \"#utility.yul\":4378:4402   */\n      tag_68\n      jump\t// in\n    tag_148:\n        /* \"#utility.yul\":4373:4376   */\n      dup3\n        /* \"#utility.yul\":4366:4403   */\n      mstore\n        /* \"#utility.yul\":4291:4409   */\n      pop\n      pop\n      jump\t// out\n        /* \"#utility.yul\":4415:4747   */\n    tag_28:\n        /* \"#utility.yul\":4536:4540   */\n      0x00\n        /* \"#utility.yul\":4574:4576   */\n      0x40\n        /* \"#utility.yul\":4563:4572   */\n      dup3\n        /* \"#utility.yul\":4559:4577   */\n      add\n        /* \"#utility.yul\":4551:4577   */\n      swap1\n      pop\n        /* \"#utility.yul\":4587:4658   */\n      tag_150\n        /* \"#utility.yul\":4655:4656   */\n      0x00\n        /* \"#utility.yul\":4644:4653   */\n      dup4\n        /* \"#utility.yul\":4640:4657   */\n      add\n        /* \"#utility.yul\":4631:4637   */\n      dup6\n        /* \"#utility.yul\":4587:4658   */\n      tag_83\n      jump\t// in\n    tag_150:\n        /* \"#utility.yul\":4668:4740   */\n      tag_151\n        /* \"#utility.yul\":4736:4738   */\n      0x20\n        /* \"#utility.yul\":4725:4734   */\n      dup4\n        /* \"#utility.yul\":4721:4739   */\n      add\n        /* \"#utility.yul\":4712:4718   */\n      dup5\n        /* \"#utility.yul\":4668:4740   */\n      tag_72\n      jump\t// in\n    tag_151:\n        /* \"#utility.yul\":4415:4747   */\n      swap4\n      swap3\n      pop\n      pop\n      pop\n      jump\t// out\n        /* \"#utility.yul\":4753:4843   */\n    tag_84:\n        /* \"#utility.yul\":4787:4794   */\n      0x00\n        /* \"#utility.yul\":4830:4835   */\n      dup2\n        /* \"#utility.yul\":4823:4836   */\n      iszero\n        /* \"#utility.yul\":4816:4837   */\n      iszero\n        /* \"#utility.yul\":4805:4837   */\n      swap1\n      pop\n        /* \"#utility.yul\":4753:4843   */\n      swap2\n      swap1\n      pop\n      jump\t// out\n        /* \"#utility.yul\":4849:4965   */\n    tag_85:\n        /* \"#utility.yul\":4919:4940   */\n      tag_154\n        /* \"#utility.yul\":4934:4939   */\n      dup2\n        /* \"#utility.yul\":4919:4940   */\n      tag_84\n      jump\t// in\n    tag_154:\n        /* \"#utility.yul\":4912:4917   */\n      dup2\n        /* \"#utility.yul\":4909:4941   */\n      eq\n        /* \"#utility.yul\":4899:4959   */\n      tag_155\n      jumpi\n        /* \"#utility.yul\":4955:4956   */\n      0x00\n        /* \"#utility.yul\":4952:4953   */\n      dup1\n        /* \"#utility.yul\":4945:4957   */\n      revert\n        /* \"#utility.yul\":4899:4959   */\n    tag_155:\n        /* \"#utility.yul\":4849:4965   */\n      pop\n      jump\t// out\n        /* \"#utility.yul\":4971:5108   */\n    tag_86:\n        /* \"#utility.yul\":5025:5030   */\n      0x00\n        /* \"#utility.yul\":5056:5062   */\n      dup2\n        /* \"#utility.yul\":5050:5063   */\n      mload\n        /* \"#utility.yul\":5041:5063   */\n      swap1\n      pop\n        /* \"#utility.yul\":5072:5102   */\n      tag_157\n        /* \"#utility.yul\":5096:5101   */\n      dup2\n        /* \"#utility.yul\":5072:5102   */\n      tag_85\n      jump\t// in\n    tag_157:\n        /* \"#utility.yul\":4971:5108   */\n      swap3\n      swap2\n      pop\n      pop\n      jump\t// out\n        /* \"#utility.yul\":5114:5459   */\n    tag_32:\n        /* \"#utility.yul\":5181:5187   */\n      0x00\n        /* \"#utility.yul\":5230:5232   */\n      0x20\n        /* \"#utility.yul\":5218:5227   */\n      dup3\n        /* \"#utility.yul\":5209:5216   */\n      dup5\n        /* \"#utility.yul\":5205:5228   */\n      sub\n        /* \"#utility.yul\":5201:5233   */\n      slt\n        /* \"#utility.yul\":5198:5317   */\n      iszero\n      tag_159\n      jumpi\n        /* \"#utility.yul\":5236:5315   */\n      tag_160\n      tag_65\n      jump\t// in\n    tag_160:\n        /* \"#utility.yul\":5198:5317   */\n    tag_159:\n        /* \"#utility.yul\":5356:5357   */\n      0x00\n        /* \"#utility.yul\":5381:5442   */\n      tag_161\n        /* \"#utility.yul\":5434:5441   */\n      dup5\n        /* \"#utility.yul\":5425:5431   */\n      dup3\n        /* \"#utility.yul\":5414:5423   */\n      dup6\n        /* \"#utility.yul\":5410:5432   */\n      add\n        /* \"#utility.yul\":5381:5442   */\n      tag_86\n      jump\t// in\n    tag_161:\n        /* \"#utility.yul\":5371:5442   */\n      swap2\n      pop\n        /* \"#utility.yul\":5327:5452   */\n      pop\n        /* \"#utility.yul\":5114:5459   */\n      swap3\n      swap2\n      pop\n      pop\n      jump\t// out\n        /* \"#utility.yul\":5465:5630   */\n    tag_87:\n        /* \"#utility.yul\":5605:5622   */\n      0x7769746864726177206661696c65640000000000000000000000000000000000\n        /* \"#utility.yul\":5601:5602   */\n      0x00\n        /* \"#utility.yul\":5593:5599   */\n      dup3\n        /* \"#utility.yul\":5589:5603   */\n      add\n        /* \"#utility.yul\":5582:5623   */\n      mstore\n        /* \"#utility.yul\":5465:5630   */\n      pop\n      jump\t// out\n        /* \"#utility.yul\":5636:6002   */\n    tag_88:\n        /* \"#utility.yul\":5778:5781   */\n      0x00\n        /* \"#utility.yul\":5799:5866   */\n      tag_164\n        /* \"#utility.yul\":5863:5865   */\n      0x0f\n        /* \"#utility.yul\":5858:5861   */\n      dup4\n        /* \"#utility.yul\":5799:5866   */\n      tag_80\n      jump\t// in\n    tag_164:\n        /* \"#utility.yul\":5792:5866   */\n      swap2\n      pop\n        /* \"#utility.yul\":5875:5968   */\n      tag_165\n        /* \"#utility.yul\":5964:5967   */\n      dup3\n        /* \"#utility.yul\":5875:5968   */\n      tag_87\n      jump\t// in\n    tag_165:\n        /* \"#utility.yul\":5993:5995   */\n      0x20\n        /* \"#utility.yul\":5988:5991   */\n      dup3\n        /* \"#utility.yul\":5984:5996   */\n      add\n        /* \"#utility.yul\":5977:5996   */\n      swap1\n      pop\n        /* \"#utility.yul\":5636:6002   */\n      swap2\n      swap1\n      pop\n      jump\t// out\n        /* \"#utility.yul\":6008:6427   */\n    tag_35:\n        /* \"#utility.yul\":6174:6178   */\n      0x00\n        /* \"#utility.yul\":6212:6214   */\n      0x20\n        /* \"#utility.yul\":6201:6210   */\n      dup3\n        /* \"#utility.yul\":6197:6215   */\n      add\n        /* \"#utility.yul\":6189:6215   */\n      swap1\n      pop\n        /* \"#utility.yul\":6261:6270   */\n      dup2\n        /* \"#utility.yul\":6255:6259   */\n      dup2\n        /* \"#utility.yul\":6251:6271   */\n      sub\n        /* \"#utility.yul\":6247:6248   */\n      0x00\n        /* \"#utility.yul\":6236:6245   */\n      dup4\n        /* \"#utility.yul\":6232:6249   */\n      add\n        /* \"#utility.yul\":6225:6272   */\n      mstore\n        /* \"#utility.yul\":6289:6420   */\n      tag_167\n        /* \"#utility.yul\":6415:6419   */\n      dup2\n        /* \"#utility.yul\":6289:6420   */\n      tag_88\n      jump\t// in\n    tag_167:\n        /* \"#utility.yul\":6281:6420   */\n      swap1\n      pop\n        /* \"#utility.yul\":6008:6427   */\n      swap2\n      swap1\n      pop\n      jump\t// out\n        /* \"#utility.yul\":6433:6765   */\n    tag_38:\n        /* \"#utility.yul\":6554:6558   */\n      0x00\n        /* \"#utility.yul\":6592:6594   */\n      0x40\n        /* \"#utility.yul\":6581:6590   */\n      dup3\n        /* \"#utility.yul\":6577:6595   */\n      add\n        /* \"#utility.yul\":6569:6595   */\n      swap1\n      pop\n        /* \"#utility.yul\":6605:6676   */\n      tag_169\n        /* \"#utility.yul\":6673:6674   */\n      0x00\n        /* \"#utility.yul\":6662:6671   */\n      dup4\n        /* \"#utility.yul\":6658:6675   */\n      add\n        /* \"#utility.yul\":6649:6655   */\n      dup6\n        /* \"#utility.yul\":6605:6676   */\n      tag_83\n      jump\t// in\n    tag_169:\n        /* \"#utility.yul\":6686:6758   */\n      tag_170\n        /* \"#utility.yul\":6754:6756   */\n      0x20\n        /* \"#utility.yul\":6743:6752   */\n      dup4\n        /* \"#utility.yul\":6739:6757   */\n      add\n        /* \"#utility.yul\":6730:6736   */\n      dup5\n        /* \"#utility.yul\":6686:6758   */\n      tag_83\n      jump\t// in\n    tag_170:\n        /* \"#utility.yul\":6433:6765   */\n      swap4\n      swap3\n      pop\n      pop\n      pop\n      jump\t// out\n        /* \"#utility.yul\":6771:6914   */\n    tag_89:\n        /* \"#utility.yul\":6828:6833   */\n      0x00\n        /* \"#utility.yul\":6859:6865   */\n      dup2\n        /* \"#utility.yul\":6853:6866   */\n      mload\n        /* \"#utility.yul\":6844:6866   */\n      swap1\n      pop\n        /* \"#utility.yul\":6875:6908   */\n      tag_172\n        /* \"#utility.yul\":6902:6907   */\n      dup2\n        /* \"#utility.yul\":6875:6908   */\n      tag_73\n      jump\t// in\n    tag_172:\n        /* \"#utility.yul\":6771:6914   */\n      swap3\n      swap2\n      pop\n      pop\n      jump\t// out\n        /* \"#utility.yul\":6920:7271   */\n    tag_42:\n        /* \"#utility.yul\":6990:6996   */\n      0x00\n        /* \"#utility.yul\":7039:7041   */\n      0x20\n        /* \"#utility.yul\":7027:7036   */\n      dup3\n        /* \"#utility.yul\":7018:7025   */\n      dup5\n        /* \"#utility.yul\":7014:7037   */\n      sub\n        /* \"#utility.yul\":7010:7042   */\n      slt\n        /* \"#utility.yul\":7007:7126   */\n      iszero\n      tag_174\n      jumpi\n        /* \"#utility.yul\":7045:7124   */\n      tag_175\n      tag_65\n      jump\t// in\n    tag_175:\n        /* \"#utility.yul\":7007:7126   */\n    tag_174:\n        /* \"#utility.yul\":7165:7166   */\n      0x00\n        /* \"#utility.yul\":7190:7254   */\n      tag_176\n        /* \"#utility.yul\":7246:7253   */\n      dup5\n        /* \"#utility.yul\":7237:7243   */\n      dup3\n        /* \"#utility.yul\":7226:7235   */\n      dup6\n        /* \"#utility.yul\":7222:7244   */\n      add\n        /* \"#utility.yul\":7190:7254   */\n      tag_89\n      jump\t// in\n    tag_176:\n        /* \"#utility.yul\":7180:7254   */\n      swap2\n      pop\n        /* \"#utility.yul\":7136:7264   */\n      pop\n        /* \"#utility.yul\":6920:7271   */\n      swap3\n      swap2\n      pop\n      pop\n      jump\t// out\n        /* \"#utility.yul\":7277:7444   */\n    tag_90:\n        /* \"#utility.yul\":7417:7436   */\n      0x62616e6b20756e617574686f72697a6564000000000000000000000000000000\n        /* \"#utility.yul\":7413:7414   */\n      0x00\n        /* \"#utility.yul\":7405:7411   */\n      dup3\n        /* \"#utility.yul\":7401:7415   */\n      add\n        /* \"#utility.yul\":7394:7437   */\n      mstore\n        /* \"#utility.yul\":7277:7444   */\n      pop\n      jump\t// out\n        /* \"#utility.yul\":7450:7816   */\n    tag_91:\n        /* \"#utility.yul\":7592:7595   */\n      0x00\n        /* \"#utility.yul\":7613:7680   */\n      tag_179\n        /* \"#utility.yul\":7677:7679   */\n      0x11\n        /* \"#utility.yul\":7672:7675   */\n      dup4\n        /* \"#utility.yul\":7613:7680   */\n      tag_80\n      jump\t// in\n    tag_179:\n        /* \"#utility.yul\":7606:7680   */\n      swap2\n      pop\n        /* \"#utility.yul\":7689:7782   */\n      tag_180\n        /* \"#utility.yul\":7778:7781   */\n      dup3\n        /* \"#utility.yul\":7689:7782   */\n      tag_90\n      jump\t// in\n    tag_180:\n        /* \"#utility.yul\":7807:7809   */\n      0x20\n        /* \"#utility.yul\":7802:7805   */\n      dup3\n        /* \"#utility.yul\":7798:7810   */\n      add\n        /* \"#utility.yul\":7791:7810   */\n      swap1\n      pop\n        /* \"#utility.yul\":7450:7816   */\n      swap2\n      swap1\n      pop\n      jump\t// out\n        /* \"#utility.yul\":7822:8241   */\n    tag_45:\n        /* \"#utility.yul\":7988:7992   */\n      0x00\n        /* \"#utility.yul\":8026:8028   */\n      0x20\n        /* \"#utility.yul\":8015:8024   */\n      dup3\n        /* \"#utility.yul\":8011:8029   */\n      add\n        /* \"#utility.yul\":8003:8029   */\n      swap1\n      pop\n        /* \"#utility.yul\":8075:8084   */\n      dup2\n        /* \"#utility.yul\":8069:8073   */\n      dup2\n        /* \"#utility.yul\":8065:8085   */\n      sub\n        /* \"#utility.yul\":8061:8062   */\n      0x00\n        /* \"#utility.yul\":8050:8059   */\n      dup4\n        /* \"#utility.yul\":8046:8063   */\n      add\n        /* \"#utility.yul\":8039:8086   */\n      mstore\n        /* \"#utility.yul\":8103:8234   */\n      tag_182\n        /* \"#utility.yul\":8229:8233   */\n      dup2\n        /* \"#utility.yul\":8103:8234   */\n      tag_91\n      jump\t// in\n    tag_182:\n        /* \"#utility.yul\":8095:8234   */\n      swap1\n      pop\n        /* \"#utility.yul\":7822:8241   */\n      swap2\n      swap1\n      pop\n      jump\t// out\n        /* \"#utility.yul\":8247:8469   */\n    tag_47:\n        /* \"#utility.yul\":8340:8344   */\n      0x00\n        /* \"#utility.yul\":8378:8380   */\n      0x20\n        /* \"#utility.yul\":8367:8376   */\n      dup3\n        /* \"#utility.yul\":8363:8381   */\n      add\n        /* \"#utility.yul\":8355:8381   */\n      swap1\n      pop\n        /* \"#utility.yul\":8391:8462   */\n      tag_184\n        /* \"#utility.yul\":8459:8460   */\n      0x00\n        /* \"#utility.yul\":8448:8457   */\n      dup4\n        /* \"#utility.yul\":8444:8461   */\n      add\n        /* \"#utility.yul\":8435:8441   */\n      dup5\n        /* \"#utility.yul\":8391:8462   */\n      tag_83\n      jump\t// in\n    tag_184:\n        /* \"#utility.yul\":8247:8469   */\n      swap3\n      swap2\n      pop\n      pop\n      jump\t// out\n        /* \"#utility.yul\":8475:8639   */\n    tag_92:\n        /* \"#utility.yul\":8615:8631   */\n      0x62616c616e636520657863656564000000000000000000000000000000000000\n        /* \"#utility.yul\":8611:8612   */\n      0x00\n        /* \"#utility.yul\":8603:8609   */\n      dup3\n        /* \"#utility.yul\":8599:8613   */\n      add\n        /* \"#utility.yul\":8592:8632   */\n      mstore\n        /* \"#utility.yul\":8475:8639   */\n      pop\n      jump\t// out\n        /* \"#utility.yul\":8645:9011   */\n    tag_93:\n        /* \"#utility.yul\":8787:8790   */\n      0x00\n        /* \"#utility.yul\":8808:8875   */\n      tag_187\n        /* \"#utility.yul\":8872:8874   */\n      0x0e\n        /* \"#utility.yul\":8867:8870   */\n      dup4\n        /* \"#utility.yul\":8808:8875   */\n      tag_80\n      jump\t// in\n    tag_187:\n        /* \"#utility.yul\":8801:8875   */\n      swap2\n      pop\n        /* \"#utility.yul\":8884:8977   */\n      tag_188\n        /* \"#utility.yul\":8973:8976   */\n      dup3\n        /* \"#utility.yul\":8884:8977   */\n      tag_92\n      jump\t// in\n    tag_188:\n        /* \"#utility.yul\":9002:9004   */\n      0x20\n        /* \"#utility.yul\":8997:9000   */\n      dup3\n        /* \"#utility.yul\":8993:9005   */\n      add\n        /* \"#utility.yul\":8986:9005   */\n      swap1\n      pop\n        /* \"#utility.yul\":8645:9011   */\n      swap2\n      swap1\n      pop\n      jump\t// out\n        /* \"#utility.yul\":9017:9436   */\n    tag_53:\n        /* \"#utility.yul\":9183:9187   */\n      0x00\n        /* \"#utility.yul\":9221:9223   */\n      0x20\n        /* \"#utility.yul\":9210:9219   */\n      dup3\n        /* \"#utility.yul\":9206:9224   */\n      add\n        /* \"#utility.yul\":9198:9224   */\n      swap1\n      pop\n        /* \"#utility.yul\":9270:9279   */\n      dup2\n        /* \"#utility.yul\":9264:9268   */\n      dup2\n        /* \"#utility.yul\":9260:9280   */\n      sub\n        /* \"#utility.yul\":9256:9257   */\n      0x00\n        /* \"#utility.yul\":9245:9254   */\n      dup4\n        /* \"#utility.yul\":9241:9258   */\n      add\n        /* \"#utility.yul\":9234:9281   */\n      mstore\n        /* \"#utility.yul\":9298:9429   */\n      tag_190\n        /* \"#utility.yul\":9424:9428   */\n      dup2\n        /* \"#utility.yul\":9298:9429   */\n      tag_93\n      jump\t// in\n    tag_190:\n        /* \"#utility.yul\":9290:9429   */\n      swap1\n      pop\n        /* \"#utility.yul\":9017:9436   */\n      swap2\n      swap1\n      pop\n      jump\t// out\n        /* \"#utility.yul\":9442:9884   */\n    tag_55:\n        /* \"#utility.yul\":9591:9595   */\n      0x00\n        /* \"#utility.yul\":9629:9631   */\n      0x60\n        /* \"#utility.yul\":9618:9627   */\n      dup3\n        /* \"#utility.yul\":9614:9632   */\n      add\n        /* \"#utility.yul\":9606:9632   */\n      swap1\n      pop\n        /* \"#utility.yul\":9642:9713   */\n      tag_192\n        /* \"#utility.yul\":9710:9711   */\n      0x00\n        /* \"#utility.yul\":9699:9708   */\n      dup4\n        /* \"#utility.yul\":9695:9712   */\n      add\n        /* \"#utility.yul\":9686:9692   */\n      dup7\n        /* \"#utility.yul\":9642:9713   */\n      tag_83\n      jump\t// in\n    tag_192:\n        /* \"#utility.yul\":9723:9795   */\n      tag_193\n        /* \"#utility.yul\":9791:9793   */\n      0x20\n        /* \"#utility.yul\":9780:9789   */\n      dup4\n        /* \"#utility.yul\":9776:9794   */\n      add\n        /* \"#utility.yul\":9767:9773   */\n      dup6\n        /* \"#utility.yul\":9723:9795   */\n      tag_83\n      jump\t// in\n    tag_193:\n        /* \"#utility.yul\":9805:9877   */\n      tag_194\n        /* \"#utility.yul\":9873:9875   */\n      0x40\n        /* \"#utility.yul\":9862:9871   */\n      dup4\n        /* \"#utility.yul\":9858:9876   */\n      add\n        /* \"#utility.yul\":9849:9855   */\n      dup5\n        /* \"#utility.yul\":9805:9877   */\n      tag_72\n      jump\t// in\n    tag_194:\n        /* \"#utility.yul\":9442:9884   */\n      swap5\n      swap4\n      pop\n      pop\n      pop\n      pop\n      jump\t// out\n        /* \"#utility.yul\":9890:10055   */\n    tag_94:\n        /* \"#utility.yul\":10030:10047   */\n      0x7472616e73666572206661696c65640000000000000000000000000000000000\n        /* \"#utility.yul\":10026:10027   */\n      0x00\n        /* \"#utility.yul\":10018:10024   */\n      dup3\n        /* \"#utility.yul\":10014:10028   */\n      add\n        /* \"#utility.yul\":10007:10048   */\n      mstore\n        /* \"#utility.yul\":9890:10055   */\n      pop\n      jump\t// out\n        /* \"#utility.yul\":10061:10427   */\n    tag_95:\n        /* \"#utility.yul\":10203:10206   */\n      0x00\n        /* \"#utility.yul\":10224:10291   */\n      tag_197\n        /* \"#utility.yul\":10288:10290   */\n      0x0f\n        /* \"#utility.yul\":10283:10286   */\n      dup4\n        /* \"#utility.yul\":10224:10291   */\n      tag_80\n      jump\t// in\n    tag_197:\n        /* \"#utility.yul\":10217:10291   */\n      swap2\n      pop\n        /* \"#utility.yul\":10300:10393   */\n      tag_198\n        /* \"#utility.yul\":10389:10392   */\n      dup3\n        /* \"#utility.yul\":10300:10393   */\n      tag_94\n      jump\t// in\n    tag_198:\n        /* \"#utility.yul\":10418:10420   */\n      0x20\n        /* \"#utility.yul\":10413:10416   */\n      dup3\n        /* \"#utility.yul\":10409:10421   */\n      add\n        /* \"#utility.yul\":10402:10421   */\n      swap1\n      pop\n        /* \"#utility.yul\":10061:10427   */\n      swap2\n      swap1\n      pop\n      jump\t// out\n        /* \"#utility.yul\":10433:10852   */\n    tag_61:\n        /* \"#utility.yul\":10599:10603   */\n      0x00\n        /* \"#utility.yul\":10637:10639   */\n      0x20\n        /* \"#utility.yul\":10626:10635   */\n      dup3\n        /* \"#utility.yul\":10622:10640   */\n      add\n        /* \"#utility.yul\":10614:10640   */\n      swap1\n      pop\n        /* \"#utility.yul\":10686:10695   */\n      dup2\n        /* \"#utility.yul\":10680:10684   */\n      dup2\n        /* \"#utility.yul\":10676:10696   */\n      sub\n        /* \"#utility.yul\":10672:10673   */\n      0x00\n        /* \"#utility.yul\":10661:10670   */\n      dup4\n        /* \"#utility.yul\":10657:10674   */\n      add\n        /* \"#utility.yul\":10650:10697   */\n      mstore\n        /* \"#utility.yul\":10714:10845   */\n      tag_200\n        /* \"#utility.yul\":10840:10844   */\n      dup2\n        /* \"#utility.yul\":10714:10845   */\n      tag_95\n      jump\t// in\n    tag_200:\n        /* \"#utility.yul\":10706:10845   */\n      swap1\n      pop\n        /* \"#utility.yul\":10433:10852   */\n      swap2\n      swap1\n      pop\n      jump\t// out\n        /* \"#utility.yul\":10858:11038   */\n    tag_96:\n        /* \"#utility.yul\":10906:10983   */\n      0x4e487b7100000000000000000000000000000000000000000000000000000000\n        /* \"#utility.yul\":10903:10904   */\n      0x00\n        /* \"#utility.yul\":10896:10984   */\n      mstore\n        /* \"#utility.yul\":11003:11007   */\n      0x11\n        /* \"#utility.yul\":11000:11001   */\n      0x04\n        /* \"#utility.yul\":10993:11008   */\n      mstore\n        /* \"#utility.yul\":11027:11031   */\n      0x24\n        /* \"#utility.yul\":11024:11025   */\n      0x00\n        /* \"#utility.yul\":11017:11032   */\n      revert\n        /* \"#utility.yul\":11044:11235   */\n    tag_63:\n        /* \"#utility.yul\":11084:11087   */\n      0x00\n        /* \"#utility.yul\":11103:11123   */\n      tag_203\n        /* \"#utility.yul\":11121:11122   */\n      dup3\n        /* \"#utility.yul\":11103:11123   */\n      tag_71\n      jump\t// in\n    tag_203:\n        /* \"#utility.yul\":11098:11123   */\n      swap2\n      pop\n        /* \"#utility.yul\":11137:11157   */\n      tag_204\n        /* \"#utility.yul\":11155:11156   */\n      dup4\n        /* \"#utility.yul\":11137:11157   */\n      tag_71\n      jump\t// in\n    tag_204:\n        /* \"#utility.yul\":11132:11157   */\n      swap3\n      pop\n        /* \"#utility.yul\":11180:11181   */\n      dup3\n        /* \"#utility.yul\":11177:11178   */\n      dup3\n        /* \"#utility.yul\":11173:11182   */\n      add\n        /* \"#utility.yul\":11166:11182   */\n      swap1\n      pop\n        /* \"#utility.yul\":11201:11204   */\n      dup1\n        /* \"#utility.yul\":11198:11199   */\n      dup3\n        /* \"#utility.yul\":11195:11205   */\n      gt\n        /* \"#utility.yul\":11192:11228   */\n      iszero\n      tag_205\n      jumpi\n        /* \"#utility.yul\":11208:11226   */\n      tag_206\n      tag_96\n      jump\t// in\n    tag_206:\n        /* \"#utility.yul\":11192:11228   */\n    tag_205:\n        /* \"#utility.yul\":11044:11235   */\n      swap3\n      swap2\n      pop\n      pop\n      jump\t// out\n\n    auxdata: 0xa2646970667358221220a2b05c3ca265cc74762bcc621623d2aba144b96631e22cc10a2dbda18284cdca64736f6c63430008140033\n}\n",
				"bytecode": {
					"linkReferences": {},
					"object": "608060405234801561000f575f80fd5b50604051610c4b380380610c4b833981810160405281019061003191906100d4565b805f806101000a81548173ffffffffffffffffffffffffffffffffffffffff021916908373ffffffffffffffffffffffffffffffffffffffff160217905550506100ff565b5f80fd5b5f73ffffffffffffffffffffffffffffffffffffffff82169050919050565b5f6100a38261007a565b9050919050565b6100b381610099565b81146100bd575f80fd5b50565b5f815190506100ce816100aa565b92915050565b5f602082840312156100e9576100e8610076565b5b5f6100f6848285016100c0565b91505092915050565b610b3f8061010c5f395ff3fe608060405234801561000f575f80fd5b506004361061004a575f3560e01c806327e235e31461004e5780633ccfd60b1461007e578063b6b55f2514610088578063fc0c546a146100a4575b5f80fd5b61006860048036038101906100639190610622565b6100c2565b6040516100759190610665565b60405180910390f35b6100866100d7565b005b6100a2600480360381019061009d91906106a8565b6102b6565b005b6100ac6105a1565b6040516100b9919061072e565b60405180910390f35b6001602052805f5260405f205f915090505481565b5f60015f3373ffffffffffffffffffffffffffffffffffffffff1673ffffffffffffffffffffffffffffffffffffffff1681526020019081526020015f205411610156576040517f08c379a000000000000000000000000000000000000000000000000000000000815260040161014d906107a1565b60405180910390fd5b5f805f9054906101000a900473ffffffffffffffffffffffffffffffffffffffff1673ffffffffffffffffffffffffffffffffffffffff1663a9059cbb3360015f3373ffffffffffffffffffffffffffffffffffffffff1673ffffffffffffffffffffffffffffffffffffffff1681526020019081526020015f20546040518363ffffffff1660e01b81526004016101ef9291906107ce565b6020604051808303815f875af115801561020b573d5f803e3d5ffd5b505050506040513d601f19601f8201168201806040525081019061022f919061082a565b905080610271576040517f08c379a00000000000000000000000000000000000000000000000000000000081526004016102689061089f565b60405180910390fd5b5f60015f3373ffffffffffffffffffffffffffffffffffffffff1673ffffffffffffffffffffffffffffffffffffffff1681526020019081526020015f208190555050565b805f8054906101000a900473ffffffffffffffffffffffffffffffffffffffff1673ffffffffffffffffffffffffffffffffffffffff1663dd62ed3e33306040518363ffffffff1660e01b81526004016103119291906108bd565b602060405180830381865afa15801561032c573d5f803e3d5ffd5b505050506040513d601f19601f8201168201806040525081019061035091906108f8565b1015610391576040517f08c379a00000000000000000000000000000000000000000000000000000000081526004016103889061096d565b60405180910390fd5b805f8054906101000a900473ffffffffffffffffffffffffffffffffffffffff1673ffffffffffffffffffffffffffffffffffffffff166370a08231336040518263ffffffff1660e01b81526004016103ea919061098b565b602060405180830381865afa158015610405573d5f803e3d5ffd5b505050506040513d601f19601f8201168201806040525081019061042991906108f8565b101561046a576040517f08c379a0000000000000000000000000000000000000000000000000000000008152600401610461906109ee565b60405180910390fd5b5f805f9054906101000a900473ffffffffffffffffffffffffffffffffffffffff1673ffffffffffffffffffffffffffffffffffffffff166323b872dd3330856040518463ffffffff1660e01b81526004016104c893929190610a0c565b6020604051808303815f875af11580156104e4573d5f803e3d5ffd5b505050506040513d601f19601f82011682018060405250810190610508919061082a565b90508061054a576040517f08c379a000000000000000000000000000000000000000000000000000000000815260040161054190610a8b565b60405180910390fd5b8160015f3373ffffffffffffffffffffffffffffffffffffffff1673ffffffffffffffffffffffffffffffffffffffff1681526020019081526020015f205f8282546105969190610ad6565b925050819055505050565b5f8054906101000a900473ffffffffffffffffffffffffffffffffffffffff1681565b5f80fd5b5f73ffffffffffffffffffffffffffffffffffffffff82169050919050565b5f6105f1826105c8565b9050919050565b610601816105e7565b811461060b575f80fd5b50565b5f8135905061061c816105f8565b92915050565b5f60208284031215610637576106366105c4565b5b5f6106448482850161060e565b91505092915050565b5f819050919050565b61065f8161064d565b82525050565b5f6020820190506106785f830184610656565b92915050565b6106878161064d565b8114610691575f80fd5b50565b5f813590506106a28161067e565b92915050565b5f602082840312156106bd576106bc6105c4565b5b5f6106ca84828501610694565b91505092915050565b5f819050919050565b5f6106f66106f16106ec846105c8565b6106d3565b6105c8565b9050919050565b5f610707826106dc565b9050919050565b5f610718826106fd565b9050919050565b6107288161070e565b82525050565b5f6020820190506107415f83018461071f565b92915050565b5f82825260208201905092915050565b7f62616c616e636520697320656d707479000000000000000000000000000000005f82015250565b5f61078b601083610747565b915061079682610757565b602082019050919050565b5f6020820190508181035f8301526107b88161077f565b9050919050565b6107c8816105e7565b82525050565b5f6040820190506107e15f8301856107bf565b6107ee6020830184610656565b9392505050565b5f8115159050919050565b610809816107f5565b8114610813575f80fd5b50565b5f8151905061082481610800565b92915050565b5f6020828403121561083f5761083e6105c4565b5b5f61084c84828501610816565b91505092915050565b7f7769746864726177206661696c656400000000000000000000000000000000005f82015250565b5f610889600f83610747565b915061089482610855565b602082019050919050565b5f6020820190508181035f8301526108b68161087d565b9050919050565b5f6040820190506108d05f8301856107bf565b6108dd60208301846107bf565b9392505050565b5f815190506108f28161067e565b92915050565b5f6020828403121561090d5761090c6105c4565b5b5f61091a848285016108e4565b91505092915050565b7f62616e6b20756e617574686f72697a65640000000000000000000000000000005f82015250565b5f610957601183610747565b915061096282610923565b602082019050919050565b5f6020820190508181035f8301526109848161094b565b9050919050565b5f60208201905061099e5f8301846107bf565b92915050565b7f62616c616e6365206578636565640000000000000000000000000000000000005f82015250565b5f6109d8600e83610747565b91506109e3826109a4565b602082019050919050565b5f6020820190508181035f830152610a05816109cc565b9050919050565b5f606082019050610a1f5f8301866107bf565b610a2c60208301856107bf565b610a396040830184610656565b949350505050565b7f7472616e73666572206661696c656400000000000000000000000000000000005f82015250565b5f610a75600f83610747565b9150610a8082610a41565b602082019050919050565b5f6020820190508181035f830152610aa281610a69565b9050919050565b7f4e487b71000000000000000000000000000000000000000000000000000000005f52601160045260245ffd5b5f610ae08261064d565b9150610aeb8361064d565b9250828201905080821115610b0357610b02610aa9565b5b9291505056fea2646970667358221220a2b05c3ca265cc74762bcc621623d2aba144b96631e22cc10a2dbda18284cdca64736f6c63430008140033",
					"opcodes": "PUSH1 0x80 PUSH1 0x40 MSTORE CALLVALUE DUP1 ISZERO PUSH2 0xF JUMPI PUSH0 DUP1 REVERT JUMPDEST POP PUSH1 0x40 MLOAD PUSH2 0xC4B CODESIZE SUB DUP1 PUSH2 0xC4B DUP4 CODECOPY DUP2 DUP2 ADD PUSH1 0x40 MSTORE DUP2 ADD SWAP1 PUSH2 0x31 SWAP2 SWAP1 PUSH2 0xD4 JUMP JUMPDEST DUP1 PUSH0 DUP1 PUSH2 0x100 EXP DUP2 SLOAD DUP2 PUSH20 0xFFFFFFFFFFFFFFFFFFFFFFFFFFFFFFFFFFFFFFFF MUL NOT AND SWAP1 DUP4 PUSH20 0xFFFFFFFFFFFFFFFFFFFFFFFFFFFFFFFFFFFFFFFF AND MUL OR SWAP1 SSTORE POP POP PUSH2 0xFF JUMP JUMPDEST PUSH0 DUP1 REVERT JUMPDEST PUSH0 PUSH20 0xFFFFFFFFFFFFFFFFFFFFFFFFFFFFFFFFFFFFFFFF DUP3 AND SWAP1 POP SWAP2 SWAP1 POP JUMP JUMPDEST PUSH0 PUSH2 0xA3 DUP3 PUSH2 0x7A JUMP JUMPDEST SWAP1 POP SWAP2 SWAP1 POP JUMP JUMPDEST PUSH2 0xB3 DUP2 PUSH2 0x99 JUMP JUMPDEST DUP2 EQ PUSH2 0xBD JUMPI PUSH0 DUP1 REVERT JUMPDEST POP JUMP JUMPDEST PUSH0 DUP2 MLOAD SWAP1 POP PUSH2 0xCE DUP2 PUSH2 0xAA JUMP JUMPDEST SWAP3 SWAP2 POP POP JUMP JUMPDEST PUSH0 PUSH1 0x20 DUP3 DUP5 SUB SLT ISZERO PUSH2 0xE9 JUMPI PUSH2 0xE8 PUSH2 0x76 JUMP JUMPDEST JUMPDEST PUSH0 PUSH2 0xF6 DUP5 DUP3 DUP6 ADD PUSH2 0xC0 JUMP JUMPDEST SWAP2 POP POP SWAP3 SWAP2 POP POP JUMP JUMPDEST PUSH2 0xB3F DUP1 PUSH2 0x10C PUSH0 CODECOPY PUSH0 RETURN INVALID PUSH1 0x80 PUSH1 0x40 MSTORE CALLVALUE DUP1 ISZERO PUSH2 0xF JUMPI PUSH0 DUP1 REVERT JUMPDEST POP PUSH1 0x4 CALLDATASIZE LT PUSH2 0x4A JUMPI PUSH0 CALLDATALOAD PUSH1 0xE0 SHR DUP1 PUSH4 0x27E235E3 EQ PUSH2 0x4E JUMPI DUP1 PUSH4 0x3CCFD60B EQ PUSH2 0x7E JUMPI DUP1 PUSH4 0xB6B55F25 EQ PUSH2 0x88 JUMPI DUP1 PUSH4 0xFC0C546A EQ PUSH2 0xA4 JUMPI JUMPDEST PUSH0 DUP1 REVERT JUMPDEST PUSH2 0x68 PUSH1 0x4 DUP1 CALLDATASIZE SUB DUP2 ADD SWAP1 PUSH2 0x63 SWAP2 SWAP1 PUSH2 0x622 JUMP JUMPDEST PUSH2 0xC2 JUMP JUMPDEST PUSH1 0x40 MLOAD PUSH2 0x75 SWAP2 SWAP1 PUSH2 0x665 JUMP JUMPDEST PUSH1 0x40 MLOAD DUP1 SWAP2 SUB SWAP1 RETURN JUMPDEST PUSH2 0x86 PUSH2 0xD7 JUMP JUMPDEST STOP JUMPDEST PUSH2 0xA2 PUSH1 0x4 DUP1 CALLDATASIZE SUB DUP2 ADD SWAP1 PUSH2 0x9D SWAP2 SWAP1 PUSH2 0x6A8 JUMP JUMPDEST PUSH2 0x2B6 JUMP JUMPDEST STOP JUMPDEST PUSH2 0xAC PUSH2 0x5A1 JUMP JUMPDEST PUSH1 0x40 MLOAD PUSH2 0xB9 SWAP2 SWAP1 PUSH2 0x72E JUMP JUMPDEST PUSH1 0x40 MLOAD DUP1 SWAP2 SUB SWAP1 RETURN JUMPDEST PUSH1 0x1 PUSH1 0x20 MSTORE DUP1 PUSH0 MSTORE PUSH1 0x40 PUSH0 KECCAK256 PUSH0 SWAP2 POP SWAP1 POP SLOAD DUP2 JUMP JUMPDEST PUSH0 PUSH1 0x1 PUSH0 CALLER PUSH20 0xFFFFFFFFFFFFFFFFFFFFFFFFFFFFFFFFFFFFFFFF AND PUSH20 0xFFFFFFFFFFFFFFFFFFFFFFFFFFFFFFFFFFFFFFFF AND DUP2 MSTORE PUSH1 0x20 ADD SWAP1 DUP2 MSTORE PUSH1 0x20 ADD PUSH0 KECCAK256 SLOAD GT PUSH2 0x156 JUMPI PUSH1 0x40 MLOAD PUSH32 0x8C379A000000000000000000000000000000000000000000000000000000000 DUP2 MSTORE PUSH1 0x4 ADD PUSH2 0x14D SWAP1 PUSH2 0x7A1 JUMP JUMPDEST PUSH1 0x40 MLOAD DUP1 SWAP2 SUB SWAP1 REVERT JUMPDEST PUSH0 DUP1 PUSH0 SWAP1 SLOAD SWAP1 PUSH2 0x100 EXP SWAP1 DIV PUSH20 0xFFFFFFFFFFFFFFFFFFFFFFFFFFFFFFFFFFFFFFFF AND PUSH20 0xFFFFFFFFFFFFFFFFFFFFFFFFFFFFFFFFFFFFFFFF AND PUSH4 0xA9059CBB CALLER PUSH1 0x1 PUSH0 CALLER PUSH20 0xFFFFFFFFFFFFFFFFFFFFFFFFFFFFFFFFFFFFFFFF AND PUSH20 0xFFFFFFFFFFFFFFFFFFFFFFFFFFFFFFFFFFFFFFFF AND DUP2 MSTORE PUSH1 0x20 ADD SWAP1 DUP2 MSTORE PUSH1 0x20 ADD PUSH0 KECCAK256 SLOAD PUSH1 0x40 MLOAD DUP4 PUSH4 0xFFFFFFFF AND PUSH1 0xE0 SHL DUP2 MSTORE PUSH1 0x4 ADD PUSH2 0x1EF SWAP3 SWAP2 SWAP1 PUSH2 0x7CE JUMP JUMPDEST PUSH1 0x20 PUSH1 0x40 MLOAD DUP1 DUP4 SUB DUP2 PUSH0 DUP8 GAS CALL ISZERO DUP1 ISZERO PUSH2 0x20B JUMPI RETURNDATASIZE PUSH0 DUP1 RETURNDATACOPY RETURNDATASIZE PUSH0 REVERT JUMPDEST POP POP POP POP PUSH1 0x40 MLOAD RETURNDATASIZE PUSH1 0x1F NOT PUSH1 0x1F DUP3 ADD AND DUP3 ADD DUP1 PUSH1 0x40 MSTORE POP DUP2 ADD SWAP1 PUSH2 0x22F SWAP2 SWAP1 PUSH2 0x82A JUMP JUMPDEST SWAP1 POP DUP1 PUSH2 0x271 JUMPI PUSH1 0x40 MLOAD PUSH32 0x8C379A000000000000000000000000000000000000000000000000000000000 DUP2 MSTORE PUSH1 0x4 ADD PUSH2 0x268 SWAP1 PUSH2 0x89F JUMP JUMPDEST PUSH1 0x40 MLOAD DUP1 SWAP2 SUB SWAP1 REVERT JUMPDEST PUSH0 PUSH1 0x1 PUSH0 CALLER PUSH20 0xFFFFFFFFFFFFFFFFFFFFFFFFFFFFFFFFFFFFFFFF AND PUSH20 0xFFFFFFFFFFFFFFFFFFFFFFFFFFFFFFFFFFFFFFFF AND DUP2 MSTORE PUSH1 0x20 ADD SWAP1 DUP2 MSTORE PUSH1 0x20 ADD PUSH0 KECCAK256 DUP2 SWAP1 SSTORE POP POP JUMP JUMPDEST DUP1 PUSH0 DUP1 SLOAD SWAP1 PUSH2 0x100 EXP SWAP1 DIV PUSH20 0xFFFFFFFFFFFFFFFFFFFFFFFFFFFFFFFFFFFFFFFF AND PUSH20 0xFFFFFFFFFFFFFFFFFFFFFFFFFFFFFFFFFFFFFFFF AND PUSH4 0xDD62ED3E CALLER ADDRESS PUSH1 0x40 MLOAD DUP4 PUSH4 0xFFFFFFFF AND PUSH1 0xE0 SHL DUP2 MSTORE PUSH1 0x4 ADD PUSH2 0x311 SWAP3 SWAP2 SWAP1 PUSH2 0x8BD JUMP JUMPDEST PUSH1 0x20 PUSH1 0x40 MLOAD DUP1 DUP4 SUB DUP2 DUP7 GAS STATICCALL ISZERO DUP1 ISZERO PUSH2 0x32C JUMPI RETURNDATASIZE PUSH0 DUP1 RETURNDATACOPY RETURNDATASIZE PUSH0 REVERT JUMPDEST POP POP POP POP PUSH1 0x40 MLOAD RETURNDATASIZE PUSH1 0x1F NOT PUSH1 0x1F DUP3 ADD AND DUP3 ADD DUP1 PUSH1 0x40 MSTORE POP DUP2 ADD SWAP1 PUSH2 0x350 SWAP2 SWAP1 PUSH2 0x8F8 JUMP JUMPDEST LT ISZERO PUSH2 0x391 JUMPI PUSH1 0x40 MLOAD PUSH32 0x8C379A000000000000000000000000000000000000000000000000000000000 DUP2 MSTORE PUSH1 0x4 ADD PUSH2 0x388 SWAP1 PUSH2 0x96D JUMP JUMPDEST PUSH1 0x40 MLOAD DUP1 SWAP2 SUB SWAP1 REVERT JUMPDEST DUP1 PUSH0 DUP1 SLOAD SWAP1 PUSH2 0x100 EXP SWAP1 DIV PUSH20 0xFFFFFFFFFFFFFFFFFFFFFFFFFFFFFFFFFFFFFFFF AND PUSH20 0xFFFFFFFFFFFFFFFFFFFFFFFFFFFFFFFFFFFFFFFF AND PUSH4 0x70A08231 CALLER PUSH1 0x40 MLOAD DUP3 PUSH4 0xFFFFFFFF AND PUSH1 0xE0 SHL DUP2 MSTORE PUSH1 0x4 ADD PUSH2 0x3EA SWAP2 SWAP1 PUSH2 0x98B JUMP JUMPDEST PUSH1 0x20 PUSH1 0x40 MLOAD DUP1 DUP4 SUB DUP2 DUP7 GAS STATICCALL ISZERO DUP1 ISZERO PUSH2 0x405 JUMPI RETURNDATASIZE PUSH0 DUP1 RETURNDATACOPY RETURNDATASIZE PUSH0 REVERT JUMPDEST POP POP POP POP PUSH1 0x40 MLOAD RETURNDATASIZE PUSH1 0x1F NOT PUSH1 0x1F DUP3 ADD AND DUP3 ADD DUP1 PUSH1 0x40 MSTORE POP DUP2 ADD SWAP1 PUSH2 0x429 SWAP2 SWAP1 PUSH2 0x8F8 JUMP JUMPDEST LT ISZERO PUSH2 0x46A JUMPI PUSH1 0x40 MLOAD PUSH32 0x8C379A000000000000000000000000000000000000000000000000000000000 DUP2 MSTORE PUSH1 0x4 ADD PUSH2 0x461 SWAP1 PUSH2 0x9EE JUMP JUMPDEST PUSH1 0x40 MLOAD DUP1 SWAP2 SUB SWAP1 REVERT JUMPDEST PUSH0 DUP1 PUSH0 SWAP1 SLOAD SWAP1 PUSH2 0x100 EXP SWAP1 DIV PUSH20 0xFFFFFFFFFFFFFFFFFFFFFFFFFFFFFFFFFFFFFFFF AND PUSH20 0xFFFFFFFFFFFFFFFFFFFFFFFFFFFFFFFFFFFFFFFF AND PUSH4 0x23B872DD CALLER ADDRESS DUP6 PUSH1 0x40 MLOAD DUP5 PUSH4 0xFFFFFFFF AND PUSH1 0xE0 SHL DUP2 MSTORE PUSH1 0x4 ADD PUSH2 0x4C8 SWAP4 SWAP3 SWAP2 SWAP1 PUSH2 0xA0C JUMP JUMPDEST PUSH1 0x20 PUSH1 0x40 MLOAD DUP1 DUP4 SUB DUP2 PUSH0 DUP8 GAS CALL ISZERO DUP1 ISZERO PUSH2 0x4E4 JUMPI RETURNDATASIZE PUSH0 DUP1 RETURNDATACOPY RETURNDATASIZE PUSH0 REVERT JUMPDEST POP POP POP POP PUSH1 0x40 MLOAD RETURNDATASIZE PUSH1 0x1F NOT PUSH1 0x1F DUP3 ADD AND DUP3 ADD DUP1 PUSH1 0x40 MSTORE POP DUP2 ADD SWAP1 PUSH2 0x508 SWAP2 SWAP1 PUSH2 0x82A JUMP JUMPDEST SWAP1 POP DUP1 PUSH2 0x54A JUMPI PUSH1 0x40 MLOAD PUSH32 0x8C379A000000000000000000000000000000000000000000000000000000000 DUP2 MSTORE PUSH1 0x4 ADD PUSH2 0x541 SWAP1 PUSH2 0xA8B JUMP JUMPDEST PUSH1 0x40 MLOAD DUP1 SWAP2 SUB SWAP1 REVERT JUMPDEST DUP2 PUSH1 0x1 PUSH0 CALLER PUSH20 0xFFFFFFFFFFFFFFFFFFFFFFFFFFFFFFFFFFFFFFFF AND PUSH20 0xFFFFFFFFFFFFFFFFFFFFFFFFFFFFFFFFFFFFFFFF AND DUP2 MSTORE PUSH1 0x20 ADD SWAP1 DUP2 MSTORE PUSH1 0x20 ADD PUSH0 KECCAK256 PUSH0 DUP3 DUP3 SLOAD PUSH2 0x596 SWAP2 SWAP1 PUSH2 0xAD6 JUMP JUMPDEST SWAP3 POP POP DUP2 SWAP1 SSTORE POP POP POP JUMP JUMPDEST PUSH0 DUP1 SLOAD SWAP1 PUSH2 0x100 EXP SWAP1 DIV PUSH20 0xFFFFFFFFFFFFFFFFFFFFFFFFFFFFFFFFFFFFFFFF AND DUP2 JUMP JUMPDEST PUSH0 DUP1 REVERT JUMPDEST PUSH0 PUSH20 0xFFFFFFFFFFFFFFFFFFFFFFFFFFFFFFFFFFFFFFFF DUP3 AND SWAP1 POP SWAP2 SWAP1 POP JUMP JUMPDEST PUSH0 PUSH2 0x5F1 DUP3 PUSH2 0x5C8 JUMP JUMPDEST SWAP1 POP SWAP2 SWAP1 POP JUMP JUMPDEST PUSH2 0x601 DUP2 PUSH2 0x5E7 JUMP JUMPDEST DUP2 EQ PUSH2 0x60B JUMPI PUSH0 DUP1 REVERT JUMPDEST POP JUMP JUMPDEST PUSH0 DUP2 CALLDATALOAD SWAP1 POP PUSH2 0x61C DUP2 PUSH2 0x5F8 JUMP JUMPDEST SWAP3 SWAP2 POP POP JUMP JUMPDEST PUSH0 PUSH1 0x20 DUP3 DUP5 SUB SLT ISZERO PUSH2 0x637 JUMPI PUSH2 0x636 PUSH2 0x5C4 JUMP JUMPDEST JUMPDEST PUSH0 PUSH2 0x644 DUP5 DUP3 DUP6 ADD PUSH2 0x60E JUMP JUMPDEST SWAP2 POP POP SWAP3 SWAP2 POP POP JUMP JUMPDEST PUSH0 DUP2 SWAP1 POP SWAP2 SWAP1 POP JUMP JUMPDEST PUSH2 0x65F DUP2 PUSH2 0x64D JUMP JUMPDEST DUP3 MSTORE POP POP JUMP JUMPDEST PUSH0 PUSH1 0x20 DUP3 ADD SWAP1 POP PUSH2 0x678 PUSH0 DUP4 ADD DUP5 PUSH2 0x656 JUMP JUMPDEST SWAP3 SWAP2 POP POP JUMP JUMPDEST PUSH2 0x687 DUP2 PUSH2 0x64D JUMP JUMPDEST DUP2 EQ PUSH2 0x691 JUMPI PUSH0 DUP1 REVERT JUMPDEST POP JUMP JUMPDEST PUSH0 DUP2 CALLDATALOAD SWAP1 POP PUSH2 0x6A2 DUP2 PUSH2 0x67E JUMP JUMPDEST SWAP3 SWAP2 POP POP JUMP JUMPDEST PUSH0 PUSH1 0x20 DUP3 DUP5 SUB SLT ISZERO PUSH2 0x6BD JUMPI PUSH2 0x6BC PUSH2 0x5C4 JUMP JUMPDEST JUMPDEST PUSH0 PUSH2 0x6CA DUP5 DUP3 DUP6 ADD PUSH2 0x694 JUMP JUMPDEST SWAP2 POP POP SWAP3 SWAP2 POP POP JUMP JUMPDEST PUSH0 DUP2 SWAP1 POP SWAP2 SWAP1 POP JUMP JUMPDEST PUSH0 PUSH2 0x6F6 PUSH2 0x6F1 PUSH2 0x6EC DUP5 PUSH2 0x5C8 JUMP JUMPDEST PUSH2 0x6D3 JUMP JUMPDEST PUSH2 0x5C8 JUMP JUMPDEST SWAP1 POP SWAP2 SWAP1 POP JUMP JUMPDEST PUSH0 PUSH2 0x707 DUP3 PUSH2 0x6DC JUMP JUMPDEST SWAP1 POP SWAP2 SWAP1 POP JUMP JUMPDEST PUSH0 PUSH2 0x718 DUP3 PUSH2 0x6FD JUMP JUMPDEST SWAP1 POP SWAP2 SWAP1 POP JUMP JUMPDEST PUSH2 0x728 DUP2 PUSH2 0x70E JUMP JUMPDEST DUP3 MSTORE POP POP JUMP JUMPDEST PUSH0 PUSH1 0x20 DUP3 ADD SWAP1 POP PUSH2 0x741 PUSH0 DUP4 ADD DUP5 PUSH2 0x71F JUMP JUMPDEST SWAP3 SWAP2 POP POP JUMP JUMPDEST PUSH0 DUP3 DUP3 MSTORE PUSH1 0x20 DUP3 ADD SWAP1 POP SWAP3 SWAP2 POP POP JUMP JUMPDEST PUSH32 0x62616C616E636520697320656D70747900000000000000000000000000000000 PUSH0 DUP3 ADD MSTORE POP JUMP JUMPDEST PUSH0 PUSH2 0x78B PUSH1 0x10 DUP4 PUSH2 0x747 JUMP JUMPDEST SWAP2 POP PUSH2 0x796 DUP3 PUSH2 0x757 JUMP JUMPDEST PUSH1 0x20 DUP3 ADD SWAP1 POP SWAP2 SWAP1 POP JUMP JUMPDEST PUSH0 PUSH1 0x20 DUP3 ADD SWAP1 POP DUP2 DUP2 SUB PUSH0 DUP4 ADD MSTORE PUSH2 0x7B8 DUP2 PUSH2 0x77F JUMP JUMPDEST SWAP1 POP SWAP2 SWAP1 POP JUMP JUMPDEST PUSH2 0x7C8 DUP2 PUSH2 0x5E7 JUMP JUMPDEST DUP3 MSTORE POP POP JUMP JUMPDEST PUSH0 PUSH1 0x40 DUP3 ADD SWAP1 POP PUSH2 0x7E1 PUSH0 DUP4 ADD DUP6 PUSH2 0x7BF JUMP JUMPDEST PUSH2 0x7EE PUSH1 0x20 DUP4 ADD DUP5 PUSH2 0x656 JUMP JUMPDEST SWAP4 SWAP3 POP POP POP JUMP JUMPDEST PUSH0 DUP2 ISZERO ISZERO SWAP1 POP SWAP2 SWAP1 POP JUMP JUMPDEST PUSH2 0x809 DUP2 PUSH2 0x7F5 JUMP JUMPDEST DUP2 EQ PUSH2 0x813 JUMPI PUSH0 DUP1 REVERT JUMPDEST POP JUMP JUMPDEST PUSH0 DUP2 MLOAD SWAP1 POP PUSH2 0x824 DUP2 PUSH2 0x800 JUMP JUMPDEST SWAP3 SWAP2 POP POP JUMP JUMPDEST PUSH0 PUSH1 0x20 DUP3 DUP5 SUB SLT ISZERO PUSH2 0x83F JUMPI PUSH2 0x83E PUSH2 0x5C4 JUMP JUMPDEST JUMPDEST PUSH0 PUSH2 0x84C DUP5 DUP3 DUP6 ADD PUSH2 0x816 JUMP JUMPDEST SWAP2 POP POP SWAP3 SWAP2 POP POP JUMP JUMPDEST PUSH32 0x7769746864726177206661696C65640000000000000000000000000000000000 PUSH0 DUP3 ADD MSTORE POP JUMP JUMPDEST PUSH0 PUSH2 0x889 PUSH1 0xF DUP4 PUSH2 0x747 JUMP JUMPDEST SWAP2 POP PUSH2 0x894 DUP3 PUSH2 0x855 JUMP JUMPDEST PUSH1 0x20 DUP3 ADD SWAP1 POP SWAP2 SWAP1 POP JUMP JUMPDEST PUSH0 PUSH1 0x20 DUP3 ADD SWAP1 POP DUP2 DUP2 SUB PUSH0 DUP4 ADD MSTORE PUSH2 0x8B6 DUP2 PUSH2 0x87D JUMP JUMPDEST SWAP1 POP SWAP2 SWAP1 POP JUMP JUMPDEST PUSH0 PUSH1 0x40 DUP3 ADD SWAP1 POP PUSH2 0x8D0 PUSH0 DUP4 ADD DUP6 PUSH2 0x7BF JUMP JUMPDEST PUSH2 0x8DD PUSH1 0x20 DUP4 ADD DUP5 PUSH2 0x7BF JUMP JUMPDEST SWAP4 SWAP3 POP POP POP JUMP JUMPDEST PUSH0 DUP2 MLOAD SWAP1 POP PUSH2 0x8F2 DUP2 PUSH2 0x67E JUMP JUMPDEST SWAP3 SWAP2 POP POP JUMP JUMPDEST PUSH0 PUSH1 0x20 DUP3 DUP5 SUB SLT ISZERO PUSH2 0x90D JUMPI PUSH2 0x90C PUSH2 0x5C4 JUMP JUMPDEST JUMPDEST PUSH0 PUSH2 0x91A DUP5 DUP3 DUP6 ADD PUSH2 0x8E4 JUMP JUMPDEST SWAP2 POP POP SWAP3 SWAP2 POP POP JUMP JUMPDEST PUSH32 0x62616E6B20756E617574686F72697A6564000000000000000000000000000000 PUSH0 DUP3 ADD MSTORE POP JUMP JUMPDEST PUSH0 PUSH2 0x957 PUSH1 0x11 DUP4 PUSH2 0x747 JUMP JUMPDEST SWAP2 POP PUSH2 0x962 DUP3 PUSH2 0x923 JUMP JUMPDEST PUSH1 0x20 DUP3 ADD SWAP1 POP SWAP2 SWAP1 POP JUMP JUMPDEST PUSH0 PUSH1 0x20 DUP3 ADD SWAP1 POP DUP2 DUP2 SUB PUSH0 DUP4 ADD MSTORE PUSH2 0x984 DUP2 PUSH2 0x94B JUMP JUMPDEST SWAP1 POP SWAP2 SWAP1 POP JUMP JUMPDEST PUSH0 PUSH1 0x20 DUP3 ADD SWAP1 POP PUSH2 0x99E PUSH0 DUP4 ADD DUP5 PUSH2 0x7BF JUMP JUMPDEST SWAP3 SWAP2 POP POP JUMP JUMPDEST PUSH32 0x62616C616E636520657863656564000000000000000000000000000000000000 PUSH0 DUP3 ADD MSTORE POP JUMP JUMPDEST PUSH0 PUSH2 0x9D8 PUSH1 0xE DUP4 PUSH2 0x747 JUMP JUMPDEST SWAP2 POP PUSH2 0x9E3 DUP3 PUSH2 0x9A4 JUMP JUMPDEST PUSH1 0x20 DUP3 ADD SWAP1 POP SWAP2 SWAP1 POP JUMP JUMPDEST PUSH0 PUSH1 0x20 DUP3 ADD SWAP1 POP DUP2 DUP2 SUB PUSH0 DUP4 ADD MSTORE PUSH2 0xA05 DUP2 PUSH2 0x9CC JUMP JUMPDEST SWAP1 POP SWAP2 SWAP1 POP JUMP JUMPDEST PUSH0 PUSH1 0x60 DUP3 ADD SWAP1 POP PUSH2 0xA1F PUSH0 DUP4 ADD DUP7 PUSH2 0x7BF JUMP JUMPDEST PUSH2 0xA2C PUSH1 0x20 DUP4 ADD DUP6 PUSH2 0x7BF JUMP JUMPDEST PUSH2 0xA39 PUSH1 0x40 DUP4 ADD DUP5 PUSH2 0x656 JUMP JUMPDEST SWAP5 SWAP4 POP POP POP POP JUMP JUMPDEST PUSH32 0x7472616E73666572206661696C65640000000000000000000000000000000000 PUSH0 DUP3 ADD MSTORE POP JUMP JUMPDEST PUSH0 PUSH2 0xA75 PUSH1 0xF DUP4 PUSH2 0x747 JUMP JUMPDEST SWAP2 POP PUSH2 0xA80 DUP3 PUSH2 0xA41 JUMP JUMPDEST PUSH1 0x20 DUP3 ADD SWAP1 POP SWAP2 SWAP1 POP JUMP JUMPDEST PUSH0 PUSH1 0x20 DUP3 ADD SWAP1 POP DUP2 DUP2 SUB PUSH0 DUP4 ADD MSTORE PUSH2 0xAA2 DUP2 PUSH2 0xA69 JUMP JUMPDEST SWAP1 POP SWAP2 SWAP1 POP JUMP JUMPDEST PUSH32 0x4E487B7100000000000000000000000000000000000000000000000000000000 PUSH0 MSTORE PUSH1 0x11 PUSH1 0x4 MSTORE PUSH1 0x24 PUSH0 REVERT JUMPDEST PUSH0 PUSH2 0xAE0 DUP3 PUSH2 0x64D JUMP JUMPDEST SWAP2 POP PUSH2 0xAEB DUP4 PUSH2 0x64D JUMP JUMPDEST SWAP3 POP DUP3 DUP3 ADD SWAP1 POP DUP1 DUP3 GT ISZERO PUSH2 0xB03 JUMPI PUSH2 0xB02 PUSH2 0xAA9 JUMP JUMPDEST JUMPDEST SWAP3 SWAP2 POP POP JUMP INVALID LOG2 PUSH5 0x6970667358 0x22 SLT KECCAK256 LOG2 0xB0 0x5C EXTCODECOPY LOG2 PUSH6 0xCC74762BCC62 AND 0x23 0xD2 0xAB LOG1 PREVRANDAO 0xB9 PUSH7 0x31E22CC10A2DBD LOG1 DUP3 DUP5 0xCD 0xCA PUSH5 0x736F6C6343 STOP ADDMOD EQ STOP CALLER "
				},
				"gasEstimates": {
					"creation": {
						"codeDepositCost": "575800",
						"executionCost": "infinite",
						"totalCost": "infinite"
					},
					"external": {
						"balances(address)": "2780",
						"deposit(uint256)": "infinite",
						"token()": "infinite",
						"withdraw()": "infinite"
					}
				},
				"methodIdentifiers": {
					"balances(address)": "27e235e3",
					"deposit(uint256)": "b6b55f25",
					"token()": "fc0c546a",
					"withdraw()": "3ccfd60b"
				}
			},
			"storageLayout": {
				"storage": [
					{
						"astId": 236,
						"contract": "0505learnERC20.sol:TokenBank",
						"label": "token",
						"offset": 0,
						"slot": "0",
						"type": "t_contract(BaseERC20)233"
					},
					{
						"astId": 240,
						"contract": "0505learnERC20.sol:TokenBank",
						"label": "balances",
						"offset": 0,
						"slot": "1",
						"type": "t_mapping(t_address,t_uint256)"
					}
				],
				"types": {
					"t_address": {
						"encoding": "inplace",
						"label": "address",
						"numberOfBytes": "20"
					},
					"t_contract(BaseERC20)233": {
						"encoding": "inplace",
						"label": "contract BaseERC20",
						"numberOfBytes": "20"
					},
					"t_mapping(t_address,t_uint256)": {
						"encoding": "mapping",
						"key": "t_address",
						"label": "mapping(address => uint256)",
						"numberOfBytes": "32",
						"value": "t_uint256"
					},
					"t_uint256": {
						"encoding": "inplace",
						"label": "uint256",
						"numberOfBytes": "32"
					}
				}
			},
			"userdoc": {
				"kind": "user",
				"methods": {},
				"version": 1
			}
		}
	}
}