{
	"0506learnCallTransfer.sol": {
		"Caller_": {
			"abi": [
				{
					"inputs": [
						{
							"internalType": "address",
							"name": "to",
							"type": "address"
						},
						{
							"internalType": "uint256",
							"name": "value",
							"type": "uint256"
						}
					],
					"name": "sendEther",
					"outputs": [
						{
							"internalType": "bool",
							"name": "",
							"type": "bool"
						}
					],
					"stateMutability": "nonpayable",
					"type": "function"
				},
				{
					"stateMutability": "payable",
					"type": "receive"
				}
			],
			"devdoc": {
				"kind": "dev",
				"methods": {},
				"version": 1
			},
			"evm": {
				"assembly": "    /* \"0506learnCallTransfer.sol\":25:397  contract Caller_ {... */\n  mstore(0x40, 0x80)\n  callvalue\n  dup1\n  iszero\n  tag_1\n  jumpi\n  0x00\n  dup1\n  revert\ntag_1:\n  pop\n  dataSize(sub_0)\n  dup1\n  dataOffset(sub_0)\n  0x00\n  codecopy\n  0x00\n  return\nstop\n\nsub_0: assembly {\n        /* \"0506learnCallTransfer.sol\":25:397  contract Caller_ {... */\n      mstore(0x40, 0x80)\n      jumpi(tag_1, lt(calldatasize, 0x04))\n      shr(0xe0, calldataload(0x00))\n      dup1\n      0xc1756a2c\n      eq\n      tag_3\n      jumpi\n      jump(tag_2)\n    tag_1:\n      jumpi(tag_2, calldatasize)\n      stop\n    tag_2:\n      0x00\n      dup1\n      revert\n        /* \"0506learnCallTransfer.sol\":48:360  function sendEther(address to, uint256 value) public returns (bool) {... */\n    tag_3:\n      callvalue\n      dup1\n      iszero\n      tag_6\n      jumpi\n      0x00\n      dup1\n      revert\n    tag_6:\n      pop\n      tag_7\n      0x04\n      dup1\n      calldatasize\n      sub\n      dup2\n      add\n      swap1\n      tag_8\n      swap2\n      swap1\n      tag_9\n      jump\t// in\n    tag_8:\n      tag_10\n      jump\t// in\n    tag_7:\n      mload(0x40)\n      tag_11\n      swap2\n      swap1\n      tag_12\n      jump\t// in\n    tag_11:\n      mload(0x40)\n      dup1\n      swap2\n      sub\n      swap1\n      return\n    tag_10:\n        /* \"0506learnCallTransfer.sol\":110:114  bool */\n      0x00\n        /* \"0506learnCallTransfer.sol\":162:183  bytes memory playload */\n      dup1\n        /* \"0506learnCallTransfer.sol\":186:224  abi.encodeWithSignature(\"sendEther()\") */\n      add(0x24, mload(0x40))\n      mload(0x40)\n      0x20\n      dup2\n      dup4\n      sub\n      sub\n      dup2\n      mstore\n      swap1\n      0x40\n      mstore\n      and(not(0xffffffffffffffffffffffffffffffffffffffffffffffffffffffff), 0x0e29df2200000000000000000000000000000000000000000000000000000000)\n      0x20\n      dup3\n      add\n      dup1\n      mload\n      0xffffffffffffffffffffffffffffffffffffffffffffffffffffffff\n      dup4\n      dup2\n      dup4\n      and\n      or\n      dup4\n      mstore\n      pop\n      pop\n      pop\n      pop\n        /* \"0506learnCallTransfer.sol\":162:224  bytes memory playload = abi.encodeWithSignature(\"sendEther()\") */\n      swap1\n      pop\n        /* \"0506learnCallTransfer.sol\":235:247  bool success */\n      0x00\n        /* \"0506learnCallTransfer.sol\":252:254  to */\n      dup5\n        /* \"0506learnCallTransfer.sol\":252:259  to.call */\n      0xffffffffffffffffffffffffffffffffffffffff\n      and\n        /* \"0506learnCallTransfer.sol\":267:272  value */\n      dup5\n        /* \"0506learnCallTransfer.sol\":274:282  playload */\n      dup4\n        /* \"0506learnCallTransfer.sol\":252:283  to.call{value: value}(playload) */\n      mload(0x40)\n      tag_14\n      swap2\n      swap1\n      tag_15\n      jump\t// in\n    tag_14:\n      0x00\n      mload(0x40)\n      dup1\n      dup4\n      sub\n      dup2\n      dup6\n      dup8\n      gas\n      call\n      swap3\n      pop\n      pop\n      pop\n      returndatasize\n      dup1\n      0x00\n      dup2\n      eq\n      tag_18\n      jumpi\n      mload(0x40)\n      swap2\n      pop\n      and(add(returndatasize, 0x3f), not(0x1f))\n      dup3\n      add\n      0x40\n      mstore\n      returndatasize\n      dup3\n      mstore\n      returndatasize\n      0x00\n      0x20\n      dup5\n      add\n      returndatacopy\n      jump(tag_17)\n    tag_18:\n      0x60\n      swap2\n      pop\n    tag_17:\n      pop\n        /* \"0506learnCallTransfer.sol\":234:283  (bool success,) = to.call{value: value}(playload) */\n      pop\n      swap1\n      pop\n        /* \"0506learnCallTransfer.sol\":301:308  success */\n      dup1\n        /* \"0506learnCallTransfer.sol\":293:329  require(success, \"sendEther failed\") */\n      tag_19\n      jumpi\n      mload(0x40)\n      0x08c379a000000000000000000000000000000000000000000000000000000000\n      dup2\n      mstore\n      0x04\n      add\n      tag_20\n      swap1\n      tag_21\n      jump\t// in\n    tag_20:\n      mload(0x40)\n      dup1\n      swap2\n      sub\n      swap1\n      revert\n    tag_19:\n        /* \"0506learnCallTransfer.sol\":346:353  success */\n      dup1\n        /* \"0506learnCallTransfer.sol\":339:353  return success */\n      swap3\n      pop\n      pop\n      pop\n        /* \"0506learnCallTransfer.sol\":48:360  function sendEther(address to, uint256 value) public returns (bool) {... */\n      swap3\n      swap2\n      pop\n      pop\n      jump\t// out\n        /* \"#utility.yul\":88:205   */\n    tag_23:\n        /* \"#utility.yul\":197:198   */\n      0x00\n        /* \"#utility.yul\":194:195   */\n      dup1\n        /* \"#utility.yul\":187:199   */\n      revert\n        /* \"#utility.yul\":334:460   */\n    tag_25:\n        /* \"#utility.yul\":371:378   */\n      0x00\n        /* \"#utility.yul\":411:453   */\n      0xffffffffffffffffffffffffffffffffffffffff\n        /* \"#utility.yul\":404:409   */\n      dup3\n        /* \"#utility.yul\":400:454   */\n      and\n        /* \"#utility.yul\":389:454   */\n      swap1\n      pop\n        /* \"#utility.yul\":334:460   */\n      swap2\n      swap1\n      pop\n      jump\t// out\n        /* \"#utility.yul\":466:562   */\n    tag_26:\n        /* \"#utility.yul\":503:510   */\n      0x00\n        /* \"#utility.yul\":532:556   */\n      tag_47\n        /* \"#utility.yul\":550:555   */\n      dup3\n        /* \"#utility.yul\":532:556   */\n      tag_25\n      jump\t// in\n    tag_47:\n        /* \"#utility.yul\":521:556   */\n      swap1\n      pop\n        /* \"#utility.yul\":466:562   */\n      swap2\n      swap1\n      pop\n      jump\t// out\n        /* \"#utility.yul\":568:690   */\n    tag_27:\n        /* \"#utility.yul\":641:665   */\n      tag_49\n        /* \"#utility.yul\":659:664   */\n      dup2\n        /* \"#utility.yul\":641:665   */\n      tag_26\n      jump\t// in\n    tag_49:\n        /* \"#utility.yul\":634:639   */\n      dup2\n        /* \"#utility.yul\":631:666   */\n      eq\n        /* \"#utility.yul\":621:684   */\n      tag_50\n      jumpi\n        /* \"#utility.yul\":680:681   */\n      0x00\n        /* \"#utility.yul\":677:678   */\n      dup1\n        /* \"#utility.yul\":670:682   */\n      revert\n        /* \"#utility.yul\":621:684   */\n    tag_50:\n        /* \"#utility.yul\":568:690   */\n      pop\n      jump\t// out\n        /* \"#utility.yul\":696:835   */\n    tag_28:\n        /* \"#utility.yul\":742:747   */\n      0x00\n        /* \"#utility.yul\":780:786   */\n      dup2\n        /* \"#utility.yul\":767:787   */\n      calldataload\n        /* \"#utility.yul\":758:787   */\n      swap1\n      pop\n        /* \"#utility.yul\":796:829   */\n      tag_52\n        /* \"#utility.yul\":823:828   */\n      dup2\n        /* \"#utility.yul\":796:829   */\n      tag_27\n      jump\t// in\n    tag_52:\n        /* \"#utility.yul\":696:835   */\n      swap3\n      swap2\n      pop\n      pop\n      jump\t// out\n        /* \"#utility.yul\":841:918   */\n    tag_29:\n        /* \"#utility.yul\":878:885   */\n      0x00\n        /* \"#utility.yul\":907:912   */\n      dup2\n        /* \"#utility.yul\":896:912   */\n      swap1\n      pop\n        /* \"#utility.yul\":841:918   */\n      swap2\n      swap1\n      pop\n      jump\t// out\n        /* \"#utility.yul\":924:1046   */\n    tag_30:\n        /* \"#utility.yul\":997:1021   */\n      tag_55\n        /* \"#utility.yul\":1015:1020   */\n      dup2\n        /* \"#utility.yul\":997:1021   */\n      tag_29\n      jump\t// in\n    tag_55:\n        /* \"#utility.yul\":990:995   */\n      dup2\n        /* \"#utility.yul\":987:1022   */\n      eq\n        /* \"#utility.yul\":977:1040   */\n      tag_56\n      jumpi\n        /* \"#utility.yul\":1036:1037   */\n      0x00\n        /* \"#utility.yul\":1033:1034   */\n      dup1\n        /* \"#utility.yul\":1026:1038   */\n      revert\n        /* \"#utility.yul\":977:1040   */\n    tag_56:\n        /* \"#utility.yul\":924:1046   */\n      pop\n      jump\t// out\n        /* \"#utility.yul\":1052:1191   */\n    tag_31:\n        /* \"#utility.yul\":1098:1103   */\n      0x00\n        /* \"#utility.yul\":1136:1142   */\n      dup2\n        /* \"#utility.yul\":1123:1143   */\n      calldataload\n        /* \"#utility.yul\":1114:1143   */\n      swap1\n      pop\n        /* \"#utility.yul\":1152:1185   */\n      tag_58\n        /* \"#utility.yul\":1179:1184   */\n      dup2\n        /* \"#utility.yul\":1152:1185   */\n      tag_30\n      jump\t// in\n    tag_58:\n        /* \"#utility.yul\":1052:1191   */\n      swap3\n      swap2\n      pop\n      pop\n      jump\t// out\n        /* \"#utility.yul\":1197:1671   */\n    tag_9:\n        /* \"#utility.yul\":1265:1271   */\n      0x00\n        /* \"#utility.yul\":1273:1279   */\n      dup1\n        /* \"#utility.yul\":1322:1324   */\n      0x40\n        /* \"#utility.yul\":1310:1319   */\n      dup4\n        /* \"#utility.yul\":1301:1308   */\n      dup6\n        /* \"#utility.yul\":1297:1320   */\n      sub\n        /* \"#utility.yul\":1293:1325   */\n      slt\n        /* \"#utility.yul\":1290:1409   */\n      iszero\n      tag_60\n      jumpi\n        /* \"#utility.yul\":1328:1407   */\n      tag_61\n      tag_23\n      jump\t// in\n    tag_61:\n        /* \"#utility.yul\":1290:1409   */\n    tag_60:\n        /* \"#utility.yul\":1448:1449   */\n      0x00\n        /* \"#utility.yul\":1473:1526   */\n      tag_62\n        /* \"#utility.yul\":1518:1525   */\n      dup6\n        /* \"#utility.yul\":1509:1515   */\n      dup3\n        /* \"#utility.yul\":1498:1507   */\n      dup7\n        /* \"#utility.yul\":1494:1516   */\n      add\n        /* \"#utility.yul\":1473:1526   */\n      tag_28\n      jump\t// in\n    tag_62:\n        /* \"#utility.yul\":1463:1526   */\n      swap3\n      pop\n        /* \"#utility.yul\":1419:1536   */\n      pop\n        /* \"#utility.yul\":1575:1577   */\n      0x20\n        /* \"#utility.yul\":1601:1654   */\n      tag_63\n        /* \"#utility.yul\":1646:1653   */\n      dup6\n        /* \"#utility.yul\":1637:1643   */\n      dup3\n        /* \"#utility.yul\":1626:1635   */\n      dup7\n        /* \"#utility.yul\":1622:1644   */\n      add\n        /* \"#utility.yul\":1601:1654   */\n      tag_31\n      jump\t// in\n    tag_63:\n        /* \"#utility.yul\":1591:1654   */\n      swap2\n      pop\n        /* \"#utility.yul\":1546:1664   */\n      pop\n        /* \"#utility.yul\":1197:1671   */\n      swap3\n      pop\n      swap3\n      swap1\n      pop\n      jump\t// out\n        /* \"#utility.yul\":1677:1767   */\n    tag_32:\n        /* \"#utility.yul\":1711:1718   */\n      0x00\n        /* \"#utility.yul\":1754:1759   */\n      dup2\n        /* \"#utility.yul\":1747:1760   */\n      iszero\n        /* \"#utility.yul\":1740:1761   */\n      iszero\n        /* \"#utility.yul\":1729:1761   */\n      swap1\n      pop\n        /* \"#utility.yul\":1677:1767   */\n      swap2\n      swap1\n      pop\n      jump\t// out\n        /* \"#utility.yul\":1773:1882   */\n    tag_33:\n        /* \"#utility.yul\":1854:1875   */\n      tag_66\n        /* \"#utility.yul\":1869:1874   */\n      dup2\n        /* \"#utility.yul\":1854:1875   */\n      tag_32\n      jump\t// in\n    tag_66:\n        /* \"#utility.yul\":1849:1852   */\n      dup3\n        /* \"#utility.yul\":1842:1876   */\n      mstore\n        /* \"#utility.yul\":1773:1882   */\n      pop\n      pop\n      jump\t// out\n        /* \"#utility.yul\":1888:2098   */\n    tag_12:\n        /* \"#utility.yul\":1975:1979   */\n      0x00\n        /* \"#utility.yul\":2013:2015   */\n      0x20\n        /* \"#utility.yul\":2002:2011   */\n      dup3\n        /* \"#utility.yul\":1998:2016   */\n      add\n        /* \"#utility.yul\":1990:2016   */\n      swap1\n      pop\n        /* \"#utility.yul\":2026:2091   */\n      tag_68\n        /* \"#utility.yul\":2088:2089   */\n      0x00\n        /* \"#utility.yul\":2077:2086   */\n      dup4\n        /* \"#utility.yul\":2073:2090   */\n      add\n        /* \"#utility.yul\":2064:2070   */\n      dup5\n        /* \"#utility.yul\":2026:2091   */\n      tag_33\n      jump\t// in\n    tag_68:\n        /* \"#utility.yul\":1888:2098   */\n      swap3\n      swap2\n      pop\n      pop\n      jump\t// out\n        /* \"#utility.yul\":2104:2202   */\n    tag_34:\n        /* \"#utility.yul\":2155:2161   */\n      0x00\n        /* \"#utility.yul\":2189:2194   */\n      dup2\n        /* \"#utility.yul\":2183:2195   */\n      mload\n        /* \"#utility.yul\":2173:2195   */\n      swap1\n      pop\n        /* \"#utility.yul\":2104:2202   */\n      swap2\n      swap1\n      pop\n      jump\t// out\n        /* \"#utility.yul\":2208:2355   */\n    tag_35:\n        /* \"#utility.yul\":2309:2320   */\n      0x00\n        /* \"#utility.yul\":2346:2349   */\n      dup2\n        /* \"#utility.yul\":2331:2349   */\n      swap1\n      pop\n        /* \"#utility.yul\":2208:2355   */\n      swap3\n      swap2\n      pop\n      pop\n      jump\t// out\n        /* \"#utility.yul\":2361:2607   */\n    tag_36:\n        /* \"#utility.yul\":2442:2443   */\n      0x00\n        /* \"#utility.yul\":2452:2565   */\n    tag_72:\n        /* \"#utility.yul\":2466:2472   */\n      dup4\n        /* \"#utility.yul\":2463:2464   */\n      dup2\n        /* \"#utility.yul\":2460:2473   */\n      lt\n        /* \"#utility.yul\":2452:2565   */\n      iszero\n      tag_74\n      jumpi\n        /* \"#utility.yul\":2551:2552   */\n      dup1\n        /* \"#utility.yul\":2546:2549   */\n      dup3\n        /* \"#utility.yul\":2542:2553   */\n      add\n        /* \"#utility.yul\":2536:2554   */\n      mload\n        /* \"#utility.yul\":2532:2533   */\n      dup2\n        /* \"#utility.yul\":2527:2530   */\n      dup5\n        /* \"#utility.yul\":2523:2534   */\n      add\n        /* \"#utility.yul\":2516:2555   */\n      mstore\n        /* \"#utility.yul\":2488:2490   */\n      0x20\n        /* \"#utility.yul\":2485:2486   */\n      dup2\n        /* \"#utility.yul\":2481:2491   */\n      add\n        /* \"#utility.yul\":2476:2491   */\n      swap1\n      pop\n        /* \"#utility.yul\":2452:2565   */\n      jump(tag_72)\n    tag_74:\n        /* \"#utility.yul\":2599:2600   */\n      0x00\n        /* \"#utility.yul\":2590:2596   */\n      dup5\n        /* \"#utility.yul\":2585:2588   */\n      dup5\n        /* \"#utility.yul\":2581:2597   */\n      add\n        /* \"#utility.yul\":2574:2601   */\n      mstore\n        /* \"#utility.yul\":2423:2607   */\n      pop\n        /* \"#utility.yul\":2361:2607   */\n      pop\n      pop\n      pop\n      jump\t// out\n        /* \"#utility.yul\":2613:2999   */\n    tag_37:\n        /* \"#utility.yul\":2717:2720   */\n      0x00\n        /* \"#utility.yul\":2745:2783   */\n      tag_76\n        /* \"#utility.yul\":2777:2782   */\n      dup3\n        /* \"#utility.yul\":2745:2783   */\n      tag_34\n      jump\t// in\n    tag_76:\n        /* \"#utility.yul\":2799:2887   */\n      tag_77\n        /* \"#utility.yul\":2880:2886   */\n      dup2\n        /* \"#utility.yul\":2875:2878   */\n      dup6\n        /* \"#utility.yul\":2799:2887   */\n      tag_35\n      jump\t// in\n    tag_77:\n        /* \"#utility.yul\":2792:2887   */\n      swap4\n      pop\n        /* \"#utility.yul\":2896:2961   */\n      tag_78\n        /* \"#utility.yul\":2954:2960   */\n      dup2\n        /* \"#utility.yul\":2949:2952   */\n      dup6\n        /* \"#utility.yul\":2942:2946   */\n      0x20\n        /* \"#utility.yul\":2935:2940   */\n      dup7\n        /* \"#utility.yul\":2931:2947   */\n      add\n        /* \"#utility.yul\":2896:2961   */\n      tag_36\n      jump\t// in\n    tag_78:\n        /* \"#utility.yul\":2986:2992   */\n      dup1\n        /* \"#utility.yul\":2981:2984   */\n      dup5\n        /* \"#utility.yul\":2977:2993   */\n      add\n        /* \"#utility.yul\":2970:2993   */\n      swap2\n      pop\n        /* \"#utility.yul\":2721:2999   */\n      pop\n        /* \"#utility.yul\":2613:2999   */\n      swap3\n      swap2\n      pop\n      pop\n      jump\t// out\n        /* \"#utility.yul\":3005:3276   */\n    tag_15:\n        /* \"#utility.yul\":3135:3138   */\n      0x00\n        /* \"#utility.yul\":3157:3250   */\n      tag_80\n        /* \"#utility.yul\":3246:3249   */\n      dup3\n        /* \"#utility.yul\":3237:3243   */\n      dup5\n        /* \"#utility.yul\":3157:3250   */\n      tag_37\n      jump\t// in\n    tag_80:\n        /* \"#utility.yul\":3150:3250   */\n      swap2\n      pop\n        /* \"#utility.yul\":3267:3270   */\n      dup2\n        /* \"#utility.yul\":3260:3270   */\n      swap1\n      pop\n        /* \"#utility.yul\":3005:3276   */\n      swap3\n      swap2\n      pop\n      pop\n      jump\t// out\n        /* \"#utility.yul\":3282:3451   */\n    tag_38:\n        /* \"#utility.yul\":3366:3377   */\n      0x00\n        /* \"#utility.yul\":3400:3406   */\n      dup3\n        /* \"#utility.yul\":3395:3398   */\n      dup3\n        /* \"#utility.yul\":3388:3407   */\n      mstore\n        /* \"#utility.yul\":3440:3444   */\n      0x20\n        /* \"#utility.yul\":3435:3438   */\n      dup3\n        /* \"#utility.yul\":3431:3445   */\n      add\n        /* \"#utility.yul\":3416:3445   */\n      swap1\n      pop\n        /* \"#utility.yul\":3282:3451   */\n      swap3\n      swap2\n      pop\n      pop\n      jump\t// out\n        /* \"#utility.yul\":3457:3623   */\n    tag_39:\n        /* \"#utility.yul\":3597:3615   */\n      0x73656e644574686572206661696c656400000000000000000000000000000000\n        /* \"#utility.yul\":3593:3594   */\n      0x00\n        /* \"#utility.yul\":3585:3591   */\n      dup3\n        /* \"#utility.yul\":3581:3595   */\n      add\n        /* \"#utility.yul\":3574:3616   */\n      mstore\n        /* \"#utility.yul\":3457:3623   */\n      pop\n      jump\t// out\n        /* \"#utility.yul\":3629:3995   */\n    tag_40:\n        /* \"#utility.yul\":3771:3774   */\n      0x00\n        /* \"#utility.yul\":3792:3859   */\n      tag_84\n        /* \"#utility.yul\":3856:3858   */\n      0x10\n        /* \"#utility.yul\":3851:3854   */\n      dup4\n        /* \"#utility.yul\":3792:3859   */\n      tag_38\n      jump\t// in\n    tag_84:\n        /* \"#utility.yul\":3785:3859   */\n      swap2\n      pop\n        /* \"#utility.yul\":3868:3961   */\n      tag_85\n        /* \"#utility.yul\":3957:3960   */\n      dup3\n        /* \"#utility.yul\":3868:3961   */\n      tag_39\n      jump\t// in\n    tag_85:\n        /* \"#utility.yul\":3986:3988   */\n      0x20\n        /* \"#utility.yul\":3981:3984   */\n      dup3\n        /* \"#utility.yul\":3977:3989   */\n      add\n        /* \"#utility.yul\":3970:3989   */\n      swap1\n      pop\n        /* \"#utility.yul\":3629:3995   */\n      swap2\n      swap1\n      pop\n      jump\t// out\n        /* \"#utility.yul\":4001:4420   */\n    tag_21:\n        /* \"#utility.yul\":4167:4171   */\n      0x00\n        /* \"#utility.yul\":4205:4207   */\n      0x20\n        /* \"#utility.yul\":4194:4203   */\n      dup3\n        /* \"#utility.yul\":4190:4208   */\n      add\n        /* \"#utility.yul\":4182:4208   */\n      swap1\n      pop\n        /* \"#utility.yul\":4254:4263   */\n      dup2\n        /* \"#utility.yul\":4248:4252   */\n      dup2\n        /* \"#utility.yul\":4244:4264   */\n      sub\n        /* \"#utility.yul\":4240:4241   */\n      0x00\n        /* \"#utility.yul\":4229:4238   */\n      dup4\n        /* \"#utility.yul\":4225:4242   */\n      add\n        /* \"#utility.yul\":4218:4265   */\n      mstore\n        /* \"#utility.yul\":4282:4413   */\n      tag_87\n        /* \"#utility.yul\":4408:4412   */\n      dup2\n        /* \"#utility.yul\":4282:4413   */\n      tag_40\n      jump\t// in\n    tag_87:\n        /* \"#utility.yul\":4274:4413   */\n      swap1\n      pop\n        /* \"#utility.yul\":4001:4420   */\n      swap2\n      swap1\n      pop\n      jump\t// out\n\n    auxdata: 0xa26469706673582212209d0a79086ccf09e7888432c48bd8ff0927aead9e9d729a6d6d3c8bf9808c330f64736f6c63430008140033\n}\n",
				"bytecode": {
					"linkReferences": {},
					"object": "608060405234801561000f575f80fd5b506103d68061001d5f395ff3fe608060405260043610610021575f3560e01c8063c1756a2c1461002c57610028565b3661002857005b5f80fd5b348015610037575f80fd5b50610052600480360381019061004d9190610235565b610068565b60405161005f919061028d565b60405180910390f35b5f806040516024016040516020818303038152906040527f0e29df22000000000000000000000000000000000000000000000000000000007bffffffffffffffffffffffffffffffffffffffffffffffffffffffff19166020820180517bffffffffffffffffffffffffffffffffffffffffffffffffffffffff838183161783525050505090505f8473ffffffffffffffffffffffffffffffffffffffff1684836040516101169190610312565b5f6040518083038185875af1925050503d805f8114610150576040519150601f19603f3d011682016040523d82523d5f602084013e610155565b606091505b5050905080610199576040517f08c379a000000000000000000000000000000000000000000000000000000000815260040161019090610382565b60405180910390fd5b809250505092915050565b5f80fd5b5f73ffffffffffffffffffffffffffffffffffffffff82169050919050565b5f6101d1826101a8565b9050919050565b6101e1816101c7565b81146101eb575f80fd5b50565b5f813590506101fc816101d8565b92915050565b5f819050919050565b61021481610202565b811461021e575f80fd5b50565b5f8135905061022f8161020b565b92915050565b5f806040838503121561024b5761024a6101a4565b5b5f610258858286016101ee565b925050602061026985828601610221565b9150509250929050565b5f8115159050919050565b61028781610273565b82525050565b5f6020820190506102a05f83018461027e565b92915050565b5f81519050919050565b5f81905092915050565b5f5b838110156102d75780820151818401526020810190506102bc565b5f8484015250505050565b5f6102ec826102a6565b6102f681856102b0565b93506103068185602086016102ba565b80840191505092915050565b5f61031d82846102e2565b915081905092915050565b5f82825260208201905092915050565b7f73656e644574686572206661696c6564000000000000000000000000000000005f82015250565b5f61036c601083610328565b915061037782610338565b602082019050919050565b5f6020820190508181035f83015261039981610360565b905091905056fea26469706673582212209d0a79086ccf09e7888432c48bd8ff0927aead9e9d729a6d6d3c8bf9808c330f64736f6c63430008140033",
					"opcodes": "PUSH1 0x80 PUSH1 0x40 MSTORE CALLVALUE DUP1 ISZERO PUSH2 0xF JUMPI PUSH0 DUP1 REVERT JUMPDEST POP PUSH2 0x3D6 DUP1 PUSH2 0x1D PUSH0 CODECOPY PUSH0 RETURN INVALID PUSH1 0x80 PUSH1 0x40 MSTORE PUSH1 0x4 CALLDATASIZE LT PUSH2 0x21 JUMPI PUSH0 CALLDATALOAD PUSH1 0xE0 SHR DUP1 PUSH4 0xC1756A2C EQ PUSH2 0x2C JUMPI PUSH2 0x28 JUMP JUMPDEST CALLDATASIZE PUSH2 0x28 JUMPI STOP JUMPDEST PUSH0 DUP1 REVERT JUMPDEST CALLVALUE DUP1 ISZERO PUSH2 0x37 JUMPI PUSH0 DUP1 REVERT JUMPDEST POP PUSH2 0x52 PUSH1 0x4 DUP1 CALLDATASIZE SUB DUP2 ADD SWAP1 PUSH2 0x4D SWAP2 SWAP1 PUSH2 0x235 JUMP JUMPDEST PUSH2 0x68 JUMP JUMPDEST PUSH1 0x40 MLOAD PUSH2 0x5F SWAP2 SWAP1 PUSH2 0x28D JUMP JUMPDEST PUSH1 0x40 MLOAD DUP1 SWAP2 SUB SWAP1 RETURN JUMPDEST PUSH0 DUP1 PUSH1 0x40 MLOAD PUSH1 0x24 ADD PUSH1 0x40 MLOAD PUSH1 0x20 DUP2 DUP4 SUB SUB DUP2 MSTORE SWAP1 PUSH1 0x40 MSTORE PUSH32 0xE29DF2200000000000000000000000000000000000000000000000000000000 PUSH28 0xFFFFFFFFFFFFFFFFFFFFFFFFFFFFFFFFFFFFFFFFFFFFFFFFFFFFFFFF NOT AND PUSH1 0x20 DUP3 ADD DUP1 MLOAD PUSH28 0xFFFFFFFFFFFFFFFFFFFFFFFFFFFFFFFFFFFFFFFFFFFFFFFFFFFFFFFF DUP4 DUP2 DUP4 AND OR DUP4 MSTORE POP POP POP POP SWAP1 POP PUSH0 DUP5 PUSH20 0xFFFFFFFFFFFFFFFFFFFFFFFFFFFFFFFFFFFFFFFF AND DUP5 DUP4 PUSH1 0x40 MLOAD PUSH2 0x116 SWAP2 SWAP1 PUSH2 0x312 JUMP JUMPDEST PUSH0 PUSH1 0x40 MLOAD DUP1 DUP4 SUB DUP2 DUP6 DUP8 GAS CALL SWAP3 POP POP POP RETURNDATASIZE DUP1 PUSH0 DUP2 EQ PUSH2 0x150 JUMPI PUSH1 0x40 MLOAD SWAP2 POP PUSH1 0x1F NOT PUSH1 0x3F RETURNDATASIZE ADD AND DUP3 ADD PUSH1 0x40 MSTORE RETURNDATASIZE DUP3 MSTORE RETURNDATASIZE PUSH0 PUSH1 0x20 DUP5 ADD RETURNDATACOPY PUSH2 0x155 JUMP JUMPDEST PUSH1 0x60 SWAP2 POP JUMPDEST POP POP SWAP1 POP DUP1 PUSH2 0x199 JUMPI PUSH1 0x40 MLOAD PUSH32 0x8C379A000000000000000000000000000000000000000000000000000000000 DUP2 MSTORE PUSH1 0x4 ADD PUSH2 0x190 SWAP1 PUSH2 0x382 JUMP JUMPDEST PUSH1 0x40 MLOAD DUP1 SWAP2 SUB SWAP1 REVERT JUMPDEST DUP1 SWAP3 POP POP POP SWAP3 SWAP2 POP POP JUMP JUMPDEST PUSH0 DUP1 REVERT JUMPDEST PUSH0 PUSH20 0xFFFFFFFFFFFFFFFFFFFFFFFFFFFFFFFFFFFFFFFF DUP3 AND SWAP1 POP SWAP2 SWAP1 POP JUMP JUMPDEST PUSH0 PUSH2 0x1D1 DUP3 PUSH2 0x1A8 JUMP JUMPDEST SWAP1 POP SWAP2 SWAP1 POP JUMP JUMPDEST PUSH2 0x1E1 DUP2 PUSH2 0x1C7 JUMP JUMPDEST DUP2 EQ PUSH2 0x1EB JUMPI PUSH0 DUP1 REVERT JUMPDEST POP JUMP JUMPDEST PUSH0 DUP2 CALLDATALOAD SWAP1 POP PUSH2 0x1FC DUP2 PUSH2 0x1D8 JUMP JUMPDEST SWAP3 SWAP2 POP POP JUMP JUMPDEST PUSH0 DUP2 SWAP1 POP SWAP2 SWAP1 POP JUMP JUMPDEST PUSH2 0x214 DUP2 PUSH2 0x202 JUMP JUMPDEST DUP2 EQ PUSH2 0x21E JUMPI PUSH0 DUP1 REVERT JUMPDEST POP JUMP JUMPDEST PUSH0 DUP2 CALLDATALOAD SWAP1 POP PUSH2 0x22F DUP2 PUSH2 0x20B JUMP JUMPDEST SWAP3 SWAP2 POP POP JUMP JUMPDEST PUSH0 DUP1 PUSH1 0x40 DUP4 DUP6 SUB SLT ISZERO PUSH2 0x24B JUMPI PUSH2 0x24A PUSH2 0x1A4 JUMP JUMPDEST JUMPDEST PUSH0 PUSH2 0x258 DUP6 DUP3 DUP7 ADD PUSH2 0x1EE JUMP JUMPDEST SWAP3 POP POP PUSH1 0x20 PUSH2 0x269 DUP6 DUP3 DUP7 ADD PUSH2 0x221 JUMP JUMPDEST SWAP2 POP POP SWAP3 POP SWAP3 SWAP1 POP JUMP JUMPDEST PUSH0 DUP2 ISZERO ISZERO SWAP1 POP SWAP2 SWAP1 POP JUMP JUMPDEST PUSH2 0x287 DUP2 PUSH2 0x273 JUMP JUMPDEST DUP3 MSTORE POP POP JUMP JUMPDEST PUSH0 PUSH1 0x20 DUP3 ADD SWAP1 POP PUSH2 0x2A0 PUSH0 DUP4 ADD DUP5 PUSH2 0x27E JUMP JUMPDEST SWAP3 SWAP2 POP POP JUMP JUMPDEST PUSH0 DUP2 MLOAD SWAP1 POP SWAP2 SWAP1 POP JUMP JUMPDEST PUSH0 DUP2 SWAP1 POP SWAP3 SWAP2 POP POP JUMP JUMPDEST PUSH0 JUMPDEST DUP4 DUP2 LT ISZERO PUSH2 0x2D7 JUMPI DUP1 DUP3 ADD MLOAD DUP2 DUP5 ADD MSTORE PUSH1 0x20 DUP2 ADD SWAP1 POP PUSH2 0x2BC JUMP JUMPDEST PUSH0 DUP5 DUP5 ADD MSTORE POP POP POP POP JUMP JUMPDEST PUSH0 PUSH2 0x2EC DUP3 PUSH2 0x2A6 JUMP JUMPDEST PUSH2 0x2F6 DUP2 DUP6 PUSH2 0x2B0 JUMP JUMPDEST SWAP4 POP PUSH2 0x306 DUP2 DUP6 PUSH1 0x20 DUP7 ADD PUSH2 0x2BA JUMP JUMPDEST DUP1 DUP5 ADD SWAP2 POP POP SWAP3 SWAP2 POP POP JUMP JUMPDEST PUSH0 PUSH2 0x31D DUP3 DUP5 PUSH2 0x2E2 JUMP JUMPDEST SWAP2 POP DUP2 SWAP1 POP SWAP3 SWAP2 POP POP JUMP JUMPDEST PUSH0 DUP3 DUP3 MSTORE PUSH1 0x20 DUP3 ADD SWAP1 POP SWAP3 SWAP2 POP POP JUMP JUMPDEST PUSH32 0x73656E644574686572206661696C656400000000000000000000000000000000 PUSH0 DUP3 ADD MSTORE POP JUMP JUMPDEST PUSH0 PUSH2 0x36C PUSH1 0x10 DUP4 PUSH2 0x328 JUMP JUMPDEST SWAP2 POP PUSH2 0x377 DUP3 PUSH2 0x338 JUMP JUMPDEST PUSH1 0x20 DUP3 ADD SWAP1 POP SWAP2 SWAP1 POP JUMP JUMPDEST PUSH0 PUSH1 0x20 DUP3 ADD SWAP1 POP DUP2 DUP2 SUB PUSH0 DUP4 ADD MSTORE PUSH2 0x399 DUP2 PUSH2 0x360 JUMP JUMPDEST SWAP1 POP SWAP2 SWAP1 POP JUMP INVALID LOG2 PUSH5 0x6970667358 0x22 SLT KECCAK256 SWAP14 EXP PUSH26 0x86CCF09E7888432C48BD8FF0927AEAD9E9D729A6D6D3C8BF980 DUP13 CALLER 0xF PUSH5 0x736F6C6343 STOP ADDMOD EQ STOP CALLER "
				},
				"gasEstimates": {
					"creation": {
						"codeDepositCost": "196400",
						"executionCost": "236",
						"totalCost": "196636"
					},
					"external": {
						"sendEther(address,uint256)": "infinite"
					}
				},
				"methodIdentifiers": {
					"sendEther(address,uint256)": "c1756a2c"
				}
			},
			"storageLayout": {
				"storage": [],
				"types": null
			},
			"userdoc": {
				"kind": "user",
				"methods": {},
				"version": 1
			}
		}
	}
}