{
	"0504learnEncodeCall.sol": {
		"DataConsumer": {
			"abi": [
				{
					"inputs": [
						{
							"internalType": "address",
							"name": "_dataStorageAddress",
							"type": "address"
						}
					],
					"stateMutability": "nonpayable",
					"type": "constructor"
				},
				{
					"inputs": [],
					"name": "getDataByABI",
					"outputs": [
						{
							"internalType": "string",
							"name": "",
							"type": "string"
						}
					],
					"stateMutability": "nonpayable",
					"type": "function"
				},
				{
					"inputs": [
						{
							"internalType": "string",
							"name": "newData",
							"type": "string"
						}
					],
					"name": "setDataByABI1",
					"outputs": [
						{
							"internalType": "bool",
							"name": "",
							"type": "bool"
						}
					],
					"stateMutability": "nonpayable",
					"type": "function"
				},
				{
					"inputs": [
						{
							"internalType": "string",
							"name": "newData",
							"type": "string"
						}
					],
					"name": "setDataByABI2",
					"outputs": [
						{
							"internalType": "bool",
							"name": "",
							"type": "bool"
						}
					],
					"stateMutability": "nonpayable",
					"type": "function"
				},
				{
					"inputs": [
						{
							"internalType": "string",
							"name": "newData",
							"type": "string"
						}
					],
					"name": "setDataByABI3",
					"outputs": [
						{
							"internalType": "bool",
							"name": "",
							"type": "bool"
						}
					],
					"stateMutability": "nonpayable",
					"type": "function"
				}
			],
			"devdoc": {
				"kind": "dev",
				"methods": {},
				"version": 1
			},
			"evm": {
				"assembly": "    /* \"0504learnEncodeCall.sol\":281:1711  contract DataConsumer {... */\n  mstore(0x40, 0x80)\n    /* \"0504learnEncodeCall.sol\":350:448  constructor(address _dataStorageAddress) {... */\n  callvalue\n  dup1\n  iszero\n  tag_1\n  jumpi\n  0x00\n  dup1\n  revert\ntag_1:\n  pop\n  mload(0x40)\n  sub(codesize, bytecodeSize)\n  dup1\n  bytecodeSize\n  dup4\n  codecopy\n  dup2\n  dup2\n  add\n  0x40\n  mstore\n  dup2\n  add\n  swap1\n  tag_2\n  swap2\n  swap1\n  tag_3\n  jump\t// in\ntag_2:\n    /* \"0504learnEncodeCall.sol\":422:441  _dataStorageAddress */\n  dup1\n    /* \"0504learnEncodeCall.sol\":401:419  dataStorageAddress */\n  0x00\n  dup1\n    /* \"0504learnEncodeCall.sol\":401:441  dataStorageAddress = _dataStorageAddress */\n  0x0100\n  exp\n  dup2\n  sload\n  dup2\n  0xffffffffffffffffffffffffffffffffffffffff\n  mul\n  not\n  and\n  swap1\n  dup4\n  0xffffffffffffffffffffffffffffffffffffffff\n  and\n  mul\n  or\n  swap1\n  sstore\n  pop\n    /* \"0504learnEncodeCall.sol\":350:448  constructor(address _dataStorageAddress) {... */\n  pop\n    /* \"0504learnEncodeCall.sol\":281:1711  contract DataConsumer {... */\n  jump(tag_6)\n    /* \"#utility.yul\":88:205   */\ntag_8:\n    /* \"#utility.yul\":197:198   */\n  0x00\n    /* \"#utility.yul\":194:195   */\n  dup1\n    /* \"#utility.yul\":187:199   */\n  revert\n    /* \"#utility.yul\":334:460   */\ntag_10:\n    /* \"#utility.yul\":371:378   */\n  0x00\n    /* \"#utility.yul\":411:453   */\n  0xffffffffffffffffffffffffffffffffffffffff\n    /* \"#utility.yul\":404:409   */\n  dup3\n    /* \"#utility.yul\":400:454   */\n  and\n    /* \"#utility.yul\":389:454   */\n  swap1\n  pop\n    /* \"#utility.yul\":334:460   */\n  swap2\n  swap1\n  pop\n  jump\t// out\n    /* \"#utility.yul\":466:562   */\ntag_11:\n    /* \"#utility.yul\":503:510   */\n  0x00\n    /* \"#utility.yul\":532:556   */\n  tag_20\n    /* \"#utility.yul\":550:555   */\n  dup3\n    /* \"#utility.yul\":532:556   */\n  tag_10\n  jump\t// in\ntag_20:\n    /* \"#utility.yul\":521:556   */\n  swap1\n  pop\n    /* \"#utility.yul\":466:562   */\n  swap2\n  swap1\n  pop\n  jump\t// out\n    /* \"#utility.yul\":568:690   */\ntag_12:\n    /* \"#utility.yul\":641:665   */\n  tag_22\n    /* \"#utility.yul\":659:664   */\n  dup2\n    /* \"#utility.yul\":641:665   */\n  tag_11\n  jump\t// in\ntag_22:\n    /* \"#utility.yul\":634:639   */\n  dup2\n    /* \"#utility.yul\":631:666   */\n  eq\n    /* \"#utility.yul\":621:684   */\n  tag_23\n  jumpi\n    /* \"#utility.yul\":680:681   */\n  0x00\n    /* \"#utility.yul\":677:678   */\n  dup1\n    /* \"#utility.yul\":670:682   */\n  revert\n    /* \"#utility.yul\":621:684   */\ntag_23:\n    /* \"#utility.yul\":568:690   */\n  pop\n  jump\t// out\n    /* \"#utility.yul\":696:839   */\ntag_13:\n    /* \"#utility.yul\":753:758   */\n  0x00\n    /* \"#utility.yul\":784:790   */\n  dup2\n    /* \"#utility.yul\":778:791   */\n  mload\n    /* \"#utility.yul\":769:791   */\n  swap1\n  pop\n    /* \"#utility.yul\":800:833   */\n  tag_25\n    /* \"#utility.yul\":827:832   */\n  dup2\n    /* \"#utility.yul\":800:833   */\n  tag_12\n  jump\t// in\ntag_25:\n    /* \"#utility.yul\":696:839   */\n  swap3\n  swap2\n  pop\n  pop\n  jump\t// out\n    /* \"#utility.yul\":845:1196   */\ntag_3:\n    /* \"#utility.yul\":915:921   */\n  0x00\n    /* \"#utility.yul\":964:966   */\n  0x20\n    /* \"#utility.yul\":952:961   */\n  dup3\n    /* \"#utility.yul\":943:950   */\n  dup5\n    /* \"#utility.yul\":939:962   */\n  sub\n    /* \"#utility.yul\":935:967   */\n  slt\n    /* \"#utility.yul\":932:1051   */\n  iszero\n  tag_27\n  jumpi\n    /* \"#utility.yul\":970:1049   */\n  tag_28\n  tag_8\n  jump\t// in\ntag_28:\n    /* \"#utility.yul\":932:1051   */\ntag_27:\n    /* \"#utility.yul\":1090:1091   */\n  0x00\n    /* \"#utility.yul\":1115:1179   */\n  tag_29\n    /* \"#utility.yul\":1171:1178   */\n  dup5\n    /* \"#utility.yul\":1162:1168   */\n  dup3\n    /* \"#utility.yul\":1151:1160   */\n  dup6\n    /* \"#utility.yul\":1147:1169   */\n  add\n    /* \"#utility.yul\":1115:1179   */\n  tag_13\n  jump\t// in\ntag_29:\n    /* \"#utility.yul\":1105:1179   */\n  swap2\n  pop\n    /* \"#utility.yul\":1061:1189   */\n  pop\n    /* \"#utility.yul\":845:1196   */\n  swap3\n  swap2\n  pop\n  pop\n  jump\t// out\n    /* \"0504learnEncodeCall.sol\":281:1711  contract DataConsumer {... */\ntag_6:\n  dataSize(sub_0)\n  dup1\n  dataOffset(sub_0)\n  0x00\n  codecopy\n  0x00\n  return\nstop\n\nsub_0: assembly {\n        /* \"0504learnEncodeCall.sol\":281:1711  contract DataConsumer {... */\n      mstore(0x40, 0x80)\n      callvalue\n      dup1\n      iszero\n      tag_1\n      jumpi\n      0x00\n      dup1\n      revert\n    tag_1:\n      pop\n      jumpi(tag_2, lt(calldatasize, 0x04))\n      shr(0xe0, calldataload(0x00))\n      dup1\n      0x2971e81f\n      eq\n      tag_3\n      jumpi\n      dup1\n      0x424d571c\n      eq\n      tag_4\n      jumpi\n      dup1\n      0x70d1c75b\n      eq\n      tag_5\n      jumpi\n      dup1\n      0x76db04d4\n      eq\n      tag_6\n      jumpi\n    tag_2:\n      0x00\n      dup1\n      revert\n        /* \"0504learnEncodeCall.sol\":813:1087  function setDataByABI1(string calldata newData) public returns (bool) {... */\n    tag_3:\n      tag_7\n      0x04\n      dup1\n      calldatasize\n      sub\n      dup2\n      add\n      swap1\n      tag_8\n      swap2\n      swap1\n      tag_9\n      jump\t// in\n    tag_8:\n      tag_10\n      jump\t// in\n    tag_7:\n      mload(0x40)\n      tag_11\n      swap2\n      swap1\n      tag_12\n      jump\t// in\n    tag_11:\n      mload(0x40)\n      dup1\n      swap2\n      sub\n      swap1\n      return\n        /* \"0504learnEncodeCall.sol\":1093:1442  function setDataByABI2(string calldata newData) public returns (bool) {... */\n    tag_4:\n      tag_13\n      0x04\n      dup1\n      calldatasize\n      sub\n      dup2\n      add\n      swap1\n      tag_14\n      swap2\n      swap1\n      tag_9\n      jump\t// in\n    tag_14:\n      tag_15\n      jump\t// in\n    tag_13:\n      mload(0x40)\n      tag_16\n      swap2\n      swap1\n      tag_12\n      jump\t// in\n    tag_16:\n      mload(0x40)\n      dup1\n      swap2\n      sub\n      swap1\n      return\n        /* \"0504learnEncodeCall.sol\":454:807  function getDataByABI() public returns (string memory) {... */\n    tag_5:\n      tag_17\n      tag_18\n      jump\t// in\n    tag_17:\n      mload(0x40)\n      tag_19\n      swap2\n      swap1\n      tag_20\n      jump\t// in\n    tag_19:\n      mload(0x40)\n      dup1\n      swap2\n      sub\n      swap1\n      return\n        /* \"0504learnEncodeCall.sol\":1448:1709  function setDataByABI3(string calldata newData) public returns (bool) {... */\n    tag_6:\n      tag_21\n      0x04\n      dup1\n      calldatasize\n      sub\n      dup2\n      add\n      swap1\n      tag_22\n      swap2\n      swap1\n      tag_9\n      jump\t// in\n    tag_22:\n      tag_23\n      jump\t// in\n    tag_21:\n      mload(0x40)\n      tag_24\n      swap2\n      swap1\n      tag_12\n      jump\t// in\n    tag_24:\n      mload(0x40)\n      dup1\n      swap2\n      sub\n      swap1\n      return\n        /* \"0504learnEncodeCall.sol\":813:1087  function setDataByABI1(string calldata newData) public returns (bool) {... */\n    tag_10:\n        /* \"0504learnEncodeCall.sol\":877:881  bool */\n      0x00\n        /* \"0504learnEncodeCall.sol\":913:933  bytes memory payload */\n      dup1\n        /* \"0504learnEncodeCall.sol\":986:993  newData */\n      dup4\n      dup4\n        /* \"0504learnEncodeCall.sol\":936:994  abi.encodeWithSignature(\"setData(string memeory)\",newData) */\n      add(0x24, mload(0x40))\n      tag_26\n      swap3\n      swap2\n      swap1\n      tag_27\n      jump\t// in\n    tag_26:\n      mload(0x40)\n      0x20\n      dup2\n      dup4\n      sub\n      sub\n      dup2\n      mstore\n      swap1\n      0x40\n      mstore\n      and(not(0xffffffffffffffffffffffffffffffffffffffffffffffffffffffff), 0xab24f88400000000000000000000000000000000000000000000000000000000)\n      0x20\n      dup3\n      add\n      dup1\n      mload\n      0xffffffffffffffffffffffffffffffffffffffffffffffffffffffff\n      dup4\n      dup2\n      dup4\n      and\n      or\n      dup4\n      mstore\n      pop\n      pop\n      pop\n      pop\n        /* \"0504learnEncodeCall.sol\":913:994  bytes memory payload = abi.encodeWithSignature(\"setData(string memeory)\",newData) */\n      swap1\n      pop\n        /* \"0504learnEncodeCall.sol\":1005:1017  bool success */\n      0x00\n        /* \"0504learnEncodeCall.sol\":1023:1041  dataStorageAddress */\n      dup1\n      0x00\n      swap1\n      sload\n      swap1\n      0x0100\n      exp\n      swap1\n      div\n      0xffffffffffffffffffffffffffffffffffffffff\n      and\n        /* \"0504learnEncodeCall.sol\":1023:1046  dataStorageAddress.call */\n      0xffffffffffffffffffffffffffffffffffffffff\n      and\n        /* \"0504learnEncodeCall.sol\":1047:1054  payload */\n      dup3\n        /* \"0504learnEncodeCall.sol\":1023:1055  dataStorageAddress.call(payload) */\n      mload(0x40)\n      tag_28\n      swap2\n      swap1\n      tag_29\n      jump\t// in\n    tag_28:\n      0x00\n      mload(0x40)\n      dup1\n      dup4\n      sub\n      dup2\n      0x00\n      dup7\n      gas\n      call\n      swap2\n      pop\n      pop\n      returndatasize\n      dup1\n      0x00\n      dup2\n      eq\n      tag_32\n      jumpi\n      mload(0x40)\n      swap2\n      pop\n      and(add(returndatasize, 0x3f), not(0x1f))\n      dup3\n      add\n      0x40\n      mstore\n      returndatasize\n      dup3\n      mstore\n      returndatasize\n      0x00\n      0x20\n      dup5\n      add\n      returndatacopy\n      jump(tag_31)\n    tag_32:\n      0x60\n      swap2\n      pop\n    tag_31:\n      pop\n        /* \"0504learnEncodeCall.sol\":1004:1055  (bool success, ) = dataStorageAddress.call(payload) */\n      pop\n      swap1\n      pop\n        /* \"0504learnEncodeCall.sol\":1073:1080  success */\n      dup1\n        /* \"0504learnEncodeCall.sol\":1066:1080  return success */\n      swap3\n      pop\n      pop\n      pop\n        /* \"0504learnEncodeCall.sol\":813:1087  function setDataByABI1(string calldata newData) public returns (bool) {... */\n      swap3\n      swap2\n      pop\n      pop\n      jump\t// out\n        /* \"0504learnEncodeCall.sol\":1093:1442  function setDataByABI2(string calldata newData) public returns (bool) {... */\n    tag_15:\n        /* \"0504learnEncodeCall.sol\":1157:1161  bool */\n      0x00\n        /* \"0504learnEncodeCall.sol\":1193:1208  bytes4 selector */\n      dup1\n        /* \"0504learnEncodeCall.sol\":1218:1254  keccak256(\"setData(string memeory)\") */\n      0xab24f8849d0d2297307fd0cf298a667ca3f6781dc4485c7b1db9654af5371a44\n        /* \"0504learnEncodeCall.sol\":1193:1255  bytes4 selector = bytes4(keccak256(\"setData(string memeory)\")) */\n      swap1\n      pop\n        /* \"0504learnEncodeCall.sol\":1285:1305  bytes memory payload */\n      0x00\n        /* \"0504learnEncodeCall.sol\":1331:1339  selector */\n      dup2\n        /* \"0504learnEncodeCall.sol\":1341:1348  newData */\n      dup6\n      dup6\n        /* \"0504learnEncodeCall.sol\":1308:1349  abi.encodeWithSelector(selector, newData) */\n      add(0x24, mload(0x40))\n      tag_34\n      swap3\n      swap2\n      swap1\n      tag_27\n      jump\t// in\n    tag_34:\n      mload(0x40)\n      0x20\n      dup2\n      dup4\n      sub\n      sub\n      dup2\n      mstore\n      swap1\n      0x40\n      mstore\n      swap1\n      not(0xffffffffffffffffffffffffffffffffffffffffffffffffffffffff)\n      and\n      0x20\n      dup3\n      add\n      dup1\n      mload\n      0xffffffffffffffffffffffffffffffffffffffffffffffffffffffff\n      dup4\n      dup2\n      dup4\n      and\n      or\n      dup4\n      mstore\n      pop\n      pop\n      pop\n      pop\n        /* \"0504learnEncodeCall.sol\":1285:1349  bytes memory payload = abi.encodeWithSelector(selector, newData) */\n      swap1\n      pop\n        /* \"0504learnEncodeCall.sol\":1360:1372  bool success */\n      0x00\n        /* \"0504learnEncodeCall.sol\":1378:1396  dataStorageAddress */\n      dup1\n      0x00\n      swap1\n      sload\n      swap1\n      0x0100\n      exp\n      swap1\n      div\n      0xffffffffffffffffffffffffffffffffffffffff\n      and\n        /* \"0504learnEncodeCall.sol\":1378:1401  dataStorageAddress.call */\n      0xffffffffffffffffffffffffffffffffffffffff\n      and\n        /* \"0504learnEncodeCall.sol\":1402:1409  payload */\n      dup3\n        /* \"0504learnEncodeCall.sol\":1378:1410  dataStorageAddress.call(payload) */\n      mload(0x40)\n      tag_35\n      swap2\n      swap1\n      tag_29\n      jump\t// in\n    tag_35:\n      0x00\n      mload(0x40)\n      dup1\n      dup4\n      sub\n      dup2\n      0x00\n      dup7\n      gas\n      call\n      swap2\n      pop\n      pop\n      returndatasize\n      dup1\n      0x00\n      dup2\n      eq\n      tag_38\n      jumpi\n      mload(0x40)\n      swap2\n      pop\n      and(add(returndatasize, 0x3f), not(0x1f))\n      dup3\n      add\n      0x40\n      mstore\n      returndatasize\n      dup3\n      mstore\n      returndatasize\n      0x00\n      0x20\n      dup5\n      add\n      returndatacopy\n      jump(tag_37)\n    tag_38:\n      0x60\n      swap2\n      pop\n    tag_37:\n      pop\n        /* \"0504learnEncodeCall.sol\":1359:1410  (bool success, ) = dataStorageAddress.call(payload) */\n      pop\n      swap1\n      pop\n        /* \"0504learnEncodeCall.sol\":1428:1435  success */\n      dup1\n        /* \"0504learnEncodeCall.sol\":1421:1435  return success */\n      swap4\n      pop\n      pop\n      pop\n      pop\n        /* \"0504learnEncodeCall.sol\":1093:1442  function setDataByABI2(string calldata newData) public returns (bool) {... */\n      swap3\n      swap2\n      pop\n      pop\n      jump\t// out\n        /* \"0504learnEncodeCall.sol\":454:807  function getDataByABI() public returns (string memory) {... */\n    tag_18:\n        /* \"0504learnEncodeCall.sol\":494:507  string memory */\n      0x60\n        /* \"0504learnEncodeCall.sol\":538:558  bytes memory payload */\n      0x00\n        /* \"0504learnEncodeCall.sol\":561:597  abi.encodeWithSignature(\"getData()\") */\n      add(0x24, mload(0x40))\n      mload(0x40)\n      0x20\n      dup2\n      dup4\n      sub\n      sub\n      dup2\n      mstore\n      swap1\n      0x40\n      mstore\n      and(not(0xffffffffffffffffffffffffffffffffffffffffffffffffffffffff), 0x3bc5de3000000000000000000000000000000000000000000000000000000000)\n      0x20\n      dup3\n      add\n      dup1\n      mload\n      0xffffffffffffffffffffffffffffffffffffffffffffffffffffffff\n      dup4\n      dup2\n      dup4\n      and\n      or\n      dup4\n      mstore\n      pop\n      pop\n      pop\n      pop\n        /* \"0504learnEncodeCall.sol\":538:597  bytes memory payload = abi.encodeWithSignature(\"getData()\") */\n      swap1\n      pop\n        /* \"0504learnEncodeCall.sol\":608:620  bool success */\n      0x00\n        /* \"0504learnEncodeCall.sol\":622:639  bytes memory data */\n      dup1\n        /* \"0504learnEncodeCall.sol\":643:661  dataStorageAddress */\n      0x00\n      dup1\n      sload\n      swap1\n      0x0100\n      exp\n      swap1\n      div\n      0xffffffffffffffffffffffffffffffffffffffff\n      and\n        /* \"0504learnEncodeCall.sol\":643:666  dataStorageAddress.call */\n      0xffffffffffffffffffffffffffffffffffffffff\n      and\n        /* \"0504learnEncodeCall.sol\":667:674  payload */\n      dup4\n        /* \"0504learnEncodeCall.sol\":643:675  dataStorageAddress.call(payload) */\n      mload(0x40)\n      tag_40\n      swap2\n      swap1\n      tag_29\n      jump\t// in\n    tag_40:\n      0x00\n      mload(0x40)\n      dup1\n      dup4\n      sub\n      dup2\n      0x00\n      dup7\n      gas\n      call\n      swap2\n      pop\n      pop\n      returndatasize\n      dup1\n      0x00\n      dup2\n      eq\n      tag_43\n      jumpi\n      mload(0x40)\n      swap2\n      pop\n      and(add(returndatasize, 0x3f), not(0x1f))\n      dup3\n      add\n      0x40\n      mstore\n      returndatasize\n      dup3\n      mstore\n      returndatasize\n      0x00\n      0x20\n      dup5\n      add\n      returndatacopy\n      jump(tag_42)\n    tag_43:\n      0x60\n      swap2\n      pop\n    tag_42:\n      pop\n        /* \"0504learnEncodeCall.sol\":607:675  (bool success, bytes memory data) = dataStorageAddress.call(payload) */\n      swap2\n      pop\n      swap2\n      pop\n        /* \"0504learnEncodeCall.sol\":693:700  success */\n      dup2\n        /* \"0504learnEncodeCall.sol\":685:725  require(success, \"call function failed\") */\n      tag_44\n      jumpi\n      mload(0x40)\n      0x08c379a000000000000000000000000000000000000000000000000000000000\n      dup2\n      mstore\n      0x04\n      add\n      tag_45\n      swap1\n      tag_46\n      jump\t// in\n    tag_45:\n      mload(0x40)\n      dup1\n      swap2\n      sub\n      swap1\n      revert\n    tag_44:\n        /* \"0504learnEncodeCall.sol\":785:789  data */\n      dup1\n        /* \"0504learnEncodeCall.sol\":774:800  abi.decode(data, (string)) */\n      dup1\n      0x20\n      add\n      swap1\n      mload\n      dup2\n      add\n      swap1\n      tag_47\n      swap2\n      swap1\n      tag_48\n      jump\t// in\n    tag_47:\n        /* \"0504learnEncodeCall.sol\":767:800  return abi.decode(data, (string)) */\n      swap4\n      pop\n      pop\n      pop\n      pop\n        /* \"0504learnEncodeCall.sol\":454:807  function getDataByABI() public returns (string memory) {... */\n      swap1\n      jump\t// out\n        /* \"0504learnEncodeCall.sol\":1448:1709  function setDataByABI3(string calldata newData) public returns (bool) {... */\n    tag_23:\n        /* \"0504learnEncodeCall.sol\":1512:1516  bool */\n      0x00\n        /* \"0504learnEncodeCall.sol\":1548:1569  bytes memory playload */\n      dup1\n        /* \"0504learnEncodeCall.sol\":1608:1615  newData */\n      dup4\n      dup4\n        /* \"0504learnEncodeCall.sol\":1572:1616  abi.encodeCall(DataStorage.setData, newData) */\n      add(0x24, mload(0x40))\n      tag_50\n      swap3\n      swap2\n      swap1\n      tag_27\n      jump\t// in\n    tag_50:\n      mload(0x40)\n      0x20\n      dup2\n      dup4\n      sub\n      sub\n      dup2\n      mstore\n      swap1\n      0x40\n      mstore\n      shl(0xe0, 0x47064d6a)\n      0x20\n      dup3\n      add\n      dup1\n      mload\n      0xffffffffffffffffffffffffffffffffffffffffffffffffffffffff\n      dup4\n      dup2\n      dup4\n      and\n      or\n      dup4\n      mstore\n      pop\n      pop\n      pop\n      pop\n        /* \"0504learnEncodeCall.sol\":1548:1616  bytes memory playload = abi.encodeCall(DataStorage.setData, newData) */\n      swap1\n      pop\n        /* \"0504learnEncodeCall.sol\":1627:1639  bool success */\n      0x00\n        /* \"0504learnEncodeCall.sol\":1645:1663  dataStorageAddress */\n      dup1\n      0x00\n      swap1\n      sload\n      swap1\n      0x0100\n      exp\n      swap1\n      div\n      0xffffffffffffffffffffffffffffffffffffffff\n      and\n        /* \"0504learnEncodeCall.sol\":1645:1668  dataStorageAddress.call */\n      0xffffffffffffffffffffffffffffffffffffffff\n      and\n        /* \"0504learnEncodeCall.sol\":1669:1677  playload */\n      dup3\n        /* \"0504learnEncodeCall.sol\":1645:1678  dataStorageAddress.call(playload) */\n      mload(0x40)\n      tag_51\n      swap2\n      swap1\n      tag_29\n      jump\t// in\n    tag_51:\n      0x00\n      mload(0x40)\n      dup1\n      dup4\n      sub\n      dup2\n      0x00\n      dup7\n      gas\n      call\n      swap2\n      pop\n      pop\n      returndatasize\n      dup1\n      0x00\n      dup2\n      eq\n      tag_54\n      jumpi\n      mload(0x40)\n      swap2\n      pop\n      and(add(returndatasize, 0x3f), not(0x1f))\n      dup3\n      add\n      0x40\n      mstore\n      returndatasize\n      dup3\n      mstore\n      returndatasize\n      0x00\n      0x20\n      dup5\n      add\n      returndatacopy\n      jump(tag_53)\n    tag_54:\n      0x60\n      swap2\n      pop\n    tag_53:\n      pop\n        /* \"0504learnEncodeCall.sol\":1626:1678  (bool success, ) = dataStorageAddress.call(playload) */\n      pop\n      swap1\n      pop\n        /* \"0504learnEncodeCall.sol\":1695:1702  success */\n      dup1\n        /* \"0504learnEncodeCall.sol\":1688:1702  return success */\n      swap3\n      pop\n      pop\n      pop\n        /* \"0504learnEncodeCall.sol\":1448:1709  function setDataByABI3(string calldata newData) public returns (bool) {... */\n      swap3\n      swap2\n      pop\n      pop\n      jump\t// out\n        /* \"#utility.yul\":7:82   */\n    tag_55:\n        /* \"#utility.yul\":40:46   */\n      0x00\n        /* \"#utility.yul\":73:75   */\n      0x40\n        /* \"#utility.yul\":67:76   */\n      mload\n        /* \"#utility.yul\":57:76   */\n      swap1\n      pop\n        /* \"#utility.yul\":7:82   */\n      swap1\n      jump\t// out\n        /* \"#utility.yul\":88:205   */\n    tag_56:\n        /* \"#utility.yul\":197:198   */\n      0x00\n        /* \"#utility.yul\":194:195   */\n      dup1\n        /* \"#utility.yul\":187:199   */\n      revert\n        /* \"#utility.yul\":211:328   */\n    tag_57:\n        /* \"#utility.yul\":320:321   */\n      0x00\n        /* \"#utility.yul\":317:318   */\n      dup1\n        /* \"#utility.yul\":310:322   */\n      revert\n        /* \"#utility.yul\":334:451   */\n    tag_58:\n        /* \"#utility.yul\":443:444   */\n      0x00\n        /* \"#utility.yul\":440:441   */\n      dup1\n        /* \"#utility.yul\":433:445   */\n      revert\n        /* \"#utility.yul\":457:574   */\n    tag_59:\n        /* \"#utility.yul\":566:567   */\n      0x00\n        /* \"#utility.yul\":563:564   */\n      dup1\n        /* \"#utility.yul\":556:568   */\n      revert\n        /* \"#utility.yul\":580:697   */\n    tag_60:\n        /* \"#utility.yul\":689:690   */\n      0x00\n        /* \"#utility.yul\":686:687   */\n      dup1\n        /* \"#utility.yul\":679:691   */\n      revert\n        /* \"#utility.yul\":717:1270   */\n    tag_61:\n        /* \"#utility.yul\":775:783   */\n      0x00\n        /* \"#utility.yul\":785:791   */\n      dup1\n        /* \"#utility.yul\":835:838   */\n      dup4\n        /* \"#utility.yul\":828:832   */\n      0x1f\n        /* \"#utility.yul\":820:826   */\n      dup5\n        /* \"#utility.yul\":816:833   */\n      add\n        /* \"#utility.yul\":812:839   */\n      slt\n        /* \"#utility.yul\":802:924   */\n      tag_91\n      jumpi\n        /* \"#utility.yul\":843:922   */\n      tag_92\n      tag_58\n      jump\t// in\n    tag_92:\n        /* \"#utility.yul\":802:924   */\n    tag_91:\n        /* \"#utility.yul\":956:962   */\n      dup3\n        /* \"#utility.yul\":943:963   */\n      calldataload\n        /* \"#utility.yul\":933:963   */\n      swap1\n      pop\n        /* \"#utility.yul\":986:1004   */\n      0xffffffffffffffff\n        /* \"#utility.yul\":978:984   */\n      dup2\n        /* \"#utility.yul\":975:1005   */\n      gt\n        /* \"#utility.yul\":972:1089   */\n      iszero\n      tag_93\n      jumpi\n        /* \"#utility.yul\":1008:1087   */\n      tag_94\n      tag_59\n      jump\t// in\n    tag_94:\n        /* \"#utility.yul\":972:1089   */\n    tag_93:\n        /* \"#utility.yul\":1122:1126   */\n      0x20\n        /* \"#utility.yul\":1114:1120   */\n      dup4\n        /* \"#utility.yul\":1110:1127   */\n      add\n        /* \"#utility.yul\":1098:1127   */\n      swap2\n      pop\n        /* \"#utility.yul\":1176:1179   */\n      dup4\n        /* \"#utility.yul\":1168:1172   */\n      0x01\n        /* \"#utility.yul\":1160:1166   */\n      dup3\n        /* \"#utility.yul\":1156:1173   */\n      mul\n        /* \"#utility.yul\":1146:1154   */\n      dup4\n        /* \"#utility.yul\":1142:1174   */\n      add\n        /* \"#utility.yul\":1139:1180   */\n      gt\n        /* \"#utility.yul\":1136:1264   */\n      iszero\n      tag_95\n      jumpi\n        /* \"#utility.yul\":1183:1262   */\n      tag_96\n      tag_60\n      jump\t// in\n    tag_96:\n        /* \"#utility.yul\":1136:1264   */\n    tag_95:\n        /* \"#utility.yul\":717:1270   */\n      swap3\n      pop\n      swap3\n      swap1\n      pop\n      jump\t// out\n        /* \"#utility.yul\":1276:1805   */\n    tag_9:\n        /* \"#utility.yul\":1347:1353   */\n      0x00\n        /* \"#utility.yul\":1355:1361   */\n      dup1\n        /* \"#utility.yul\":1404:1406   */\n      0x20\n        /* \"#utility.yul\":1392:1401   */\n      dup4\n        /* \"#utility.yul\":1383:1390   */\n      dup6\n        /* \"#utility.yul\":1379:1402   */\n      sub\n        /* \"#utility.yul\":1375:1407   */\n      slt\n        /* \"#utility.yul\":1372:1491   */\n      iszero\n      tag_98\n      jumpi\n        /* \"#utility.yul\":1410:1489   */\n      tag_99\n      tag_56\n      jump\t// in\n    tag_99:\n        /* \"#utility.yul\":1372:1491   */\n    tag_98:\n        /* \"#utility.yul\":1558:1559   */\n      0x00\n        /* \"#utility.yul\":1547:1556   */\n      dup4\n        /* \"#utility.yul\":1543:1560   */\n      add\n        /* \"#utility.yul\":1530:1561   */\n      calldataload\n        /* \"#utility.yul\":1588:1606   */\n      0xffffffffffffffff\n        /* \"#utility.yul\":1580:1586   */\n      dup2\n        /* \"#utility.yul\":1577:1607   */\n      gt\n        /* \"#utility.yul\":1574:1691   */\n      iszero\n      tag_100\n      jumpi\n        /* \"#utility.yul\":1610:1689   */\n      tag_101\n      tag_57\n      jump\t// in\n    tag_101:\n        /* \"#utility.yul\":1574:1691   */\n    tag_100:\n        /* \"#utility.yul\":1723:1788   */\n      tag_102\n        /* \"#utility.yul\":1780:1787   */\n      dup6\n        /* \"#utility.yul\":1771:1777   */\n      dup3\n        /* \"#utility.yul\":1760:1769   */\n      dup7\n        /* \"#utility.yul\":1756:1778   */\n      add\n        /* \"#utility.yul\":1723:1788   */\n      tag_61\n      jump\t// in\n    tag_102:\n        /* \"#utility.yul\":1705:1788   */\n      swap3\n      pop\n      swap3\n      pop\n        /* \"#utility.yul\":1501:1798   */\n      pop\n        /* \"#utility.yul\":1276:1805   */\n      swap3\n      pop\n      swap3\n      swap1\n      pop\n      jump\t// out\n        /* \"#utility.yul\":1811:1901   */\n    tag_62:\n        /* \"#utility.yul\":1845:1852   */\n      0x00\n        /* \"#utility.yul\":1888:1893   */\n      dup2\n        /* \"#utility.yul\":1881:1894   */\n      iszero\n        /* \"#utility.yul\":1874:1895   */\n      iszero\n        /* \"#utility.yul\":1863:1895   */\n      swap1\n      pop\n        /* \"#utility.yul\":1811:1901   */\n      swap2\n      swap1\n      pop\n      jump\t// out\n        /* \"#utility.yul\":1907:2016   */\n    tag_63:\n        /* \"#utility.yul\":1988:2009   */\n      tag_105\n        /* \"#utility.yul\":2003:2008   */\n      dup2\n        /* \"#utility.yul\":1988:2009   */\n      tag_62\n      jump\t// in\n    tag_105:\n        /* \"#utility.yul\":1983:1986   */\n      dup3\n        /* \"#utility.yul\":1976:2010   */\n      mstore\n        /* \"#utility.yul\":1907:2016   */\n      pop\n      pop\n      jump\t// out\n        /* \"#utility.yul\":2022:2232   */\n    tag_12:\n        /* \"#utility.yul\":2109:2113   */\n      0x00\n        /* \"#utility.yul\":2147:2149   */\n      0x20\n        /* \"#utility.yul\":2136:2145   */\n      dup3\n        /* \"#utility.yul\":2132:2150   */\n      add\n        /* \"#utility.yul\":2124:2150   */\n      swap1\n      pop\n        /* \"#utility.yul\":2160:2225   */\n      tag_107\n        /* \"#utility.yul\":2222:2223   */\n      0x00\n        /* \"#utility.yul\":2211:2220   */\n      dup4\n        /* \"#utility.yul\":2207:2224   */\n      add\n        /* \"#utility.yul\":2198:2204   */\n      dup5\n        /* \"#utility.yul\":2160:2225   */\n      tag_63\n      jump\t// in\n    tag_107:\n        /* \"#utility.yul\":2022:2232   */\n      swap3\n      swap2\n      pop\n      pop\n      jump\t// out\n        /* \"#utility.yul\":2238:2337   */\n    tag_64:\n        /* \"#utility.yul\":2290:2296   */\n      0x00\n        /* \"#utility.yul\":2324:2329   */\n      dup2\n        /* \"#utility.yul\":2318:2330   */\n      mload\n        /* \"#utility.yul\":2308:2330   */\n      swap1\n      pop\n        /* \"#utility.yul\":2238:2337   */\n      swap2\n      swap1\n      pop\n      jump\t// out\n        /* \"#utility.yul\":2343:2512   */\n    tag_65:\n        /* \"#utility.yul\":2427:2438   */\n      0x00\n        /* \"#utility.yul\":2461:2467   */\n      dup3\n        /* \"#utility.yul\":2456:2459   */\n      dup3\n        /* \"#utility.yul\":2449:2468   */\n      mstore\n        /* \"#utility.yul\":2501:2505   */\n      0x20\n        /* \"#utility.yul\":2496:2499   */\n      dup3\n        /* \"#utility.yul\":2492:2506   */\n      add\n        /* \"#utility.yul\":2477:2506   */\n      swap1\n      pop\n        /* \"#utility.yul\":2343:2512   */\n      swap3\n      swap2\n      pop\n      pop\n      jump\t// out\n        /* \"#utility.yul\":2518:2764   */\n    tag_66:\n        /* \"#utility.yul\":2599:2600   */\n      0x00\n        /* \"#utility.yul\":2609:2722   */\n    tag_111:\n        /* \"#utility.yul\":2623:2629   */\n      dup4\n        /* \"#utility.yul\":2620:2621   */\n      dup2\n        /* \"#utility.yul\":2617:2630   */\n      lt\n        /* \"#utility.yul\":2609:2722   */\n      iszero\n      tag_113\n      jumpi\n        /* \"#utility.yul\":2708:2709   */\n      dup1\n        /* \"#utility.yul\":2703:2706   */\n      dup3\n        /* \"#utility.yul\":2699:2710   */\n      add\n        /* \"#utility.yul\":2693:2711   */\n      mload\n        /* \"#utility.yul\":2689:2690   */\n      dup2\n        /* \"#utility.yul\":2684:2687   */\n      dup5\n        /* \"#utility.yul\":2680:2691   */\n      add\n        /* \"#utility.yul\":2673:2712   */\n      mstore\n        /* \"#utility.yul\":2645:2647   */\n      0x20\n        /* \"#utility.yul\":2642:2643   */\n      dup2\n        /* \"#utility.yul\":2638:2648   */\n      add\n        /* \"#utility.yul\":2633:2648   */\n      swap1\n      pop\n        /* \"#utility.yul\":2609:2722   */\n      jump(tag_111)\n    tag_113:\n        /* \"#utility.yul\":2756:2757   */\n      0x00\n        /* \"#utility.yul\":2747:2753   */\n      dup5\n        /* \"#utility.yul\":2742:2745   */\n      dup5\n        /* \"#utility.yul\":2738:2754   */\n      add\n        /* \"#utility.yul\":2731:2758   */\n      mstore\n        /* \"#utility.yul\":2580:2764   */\n      pop\n        /* \"#utility.yul\":2518:2764   */\n      pop\n      pop\n      pop\n      jump\t// out\n        /* \"#utility.yul\":2770:2872   */\n    tag_67:\n        /* \"#utility.yul\":2811:2817   */\n      0x00\n        /* \"#utility.yul\":2862:2864   */\n      0x1f\n        /* \"#utility.yul\":2858:2865   */\n      not\n        /* \"#utility.yul\":2853:2855   */\n      0x1f\n        /* \"#utility.yul\":2846:2851   */\n      dup4\n        /* \"#utility.yul\":2842:2856   */\n      add\n        /* \"#utility.yul\":2838:2866   */\n      and\n        /* \"#utility.yul\":2828:2866   */\n      swap1\n      pop\n        /* \"#utility.yul\":2770:2872   */\n      swap2\n      swap1\n      pop\n      jump\t// out\n        /* \"#utility.yul\":2878:3255   */\n    tag_68:\n        /* \"#utility.yul\":2966:2969   */\n      0x00\n        /* \"#utility.yul\":2994:3033   */\n      tag_116\n        /* \"#utility.yul\":3027:3032   */\n      dup3\n        /* \"#utility.yul\":2994:3033   */\n      tag_64\n      jump\t// in\n    tag_116:\n        /* \"#utility.yul\":3049:3120   */\n      tag_117\n        /* \"#utility.yul\":3113:3119   */\n      dup2\n        /* \"#utility.yul\":3108:3111   */\n      dup6\n        /* \"#utility.yul\":3049:3120   */\n      tag_65\n      jump\t// in\n    tag_117:\n        /* \"#utility.yul\":3042:3120   */\n      swap4\n      pop\n        /* \"#utility.yul\":3129:3194   */\n      tag_118\n        /* \"#utility.yul\":3187:3193   */\n      dup2\n        /* \"#utility.yul\":3182:3185   */\n      dup6\n        /* \"#utility.yul\":3175:3179   */\n      0x20\n        /* \"#utility.yul\":3168:3173   */\n      dup7\n        /* \"#utility.yul\":3164:3180   */\n      add\n        /* \"#utility.yul\":3129:3194   */\n      tag_66\n      jump\t// in\n    tag_118:\n        /* \"#utility.yul\":3219:3248   */\n      tag_119\n        /* \"#utility.yul\":3241:3247   */\n      dup2\n        /* \"#utility.yul\":3219:3248   */\n      tag_67\n      jump\t// in\n    tag_119:\n        /* \"#utility.yul\":3214:3217   */\n      dup5\n        /* \"#utility.yul\":3210:3249   */\n      add\n        /* \"#utility.yul\":3203:3249   */\n      swap2\n      pop\n        /* \"#utility.yul\":2970:3255   */\n      pop\n        /* \"#utility.yul\":2878:3255   */\n      swap3\n      swap2\n      pop\n      pop\n      jump\t// out\n        /* \"#utility.yul\":3261:3574   */\n    tag_20:\n        /* \"#utility.yul\":3374:3378   */\n      0x00\n        /* \"#utility.yul\":3412:3414   */\n      0x20\n        /* \"#utility.yul\":3401:3410   */\n      dup3\n        /* \"#utility.yul\":3397:3415   */\n      add\n        /* \"#utility.yul\":3389:3415   */\n      swap1\n      pop\n        /* \"#utility.yul\":3461:3470   */\n      dup2\n        /* \"#utility.yul\":3455:3459   */\n      dup2\n        /* \"#utility.yul\":3451:3471   */\n      sub\n        /* \"#utility.yul\":3447:3448   */\n      0x00\n        /* \"#utility.yul\":3436:3445   */\n      dup4\n        /* \"#utility.yul\":3432:3449   */\n      add\n        /* \"#utility.yul\":3425:3472   */\n      mstore\n        /* \"#utility.yul\":3489:3567   */\n      tag_121\n        /* \"#utility.yul\":3562:3566   */\n      dup2\n        /* \"#utility.yul\":3553:3559   */\n      dup5\n        /* \"#utility.yul\":3489:3567   */\n      tag_68\n      jump\t// in\n    tag_121:\n        /* \"#utility.yul\":3481:3567   */\n      swap1\n      pop\n        /* \"#utility.yul\":3261:3574   */\n      swap3\n      swap2\n      pop\n      pop\n      jump\t// out\n        /* \"#utility.yul\":3580:3726   */\n    tag_69:\n        /* \"#utility.yul\":3677:3683   */\n      dup3\n        /* \"#utility.yul\":3672:3675   */\n      dup2\n        /* \"#utility.yul\":3667:3670   */\n      dup4\n        /* \"#utility.yul\":3654:3684   */\n      calldatacopy\n        /* \"#utility.yul\":3718:3719   */\n      0x00\n        /* \"#utility.yul\":3709:3715   */\n      dup4\n        /* \"#utility.yul\":3704:3707   */\n      dup4\n        /* \"#utility.yul\":3700:3716   */\n      add\n        /* \"#utility.yul\":3693:3720   */\n      mstore\n        /* \"#utility.yul\":3580:3726   */\n      pop\n      pop\n      pop\n      jump\t// out\n        /* \"#utility.yul\":3756:4073   */\n    tag_70:\n        /* \"#utility.yul\":3854:3857   */\n      0x00\n        /* \"#utility.yul\":3875:3946   */\n      tag_124\n        /* \"#utility.yul\":3939:3945   */\n      dup4\n        /* \"#utility.yul\":3934:3937   */\n      dup6\n        /* \"#utility.yul\":3875:3946   */\n      tag_65\n      jump\t// in\n    tag_124:\n        /* \"#utility.yul\":3868:3946   */\n      swap4\n      pop\n        /* \"#utility.yul\":3956:4012   */\n      tag_125\n        /* \"#utility.yul\":4005:4011   */\n      dup4\n        /* \"#utility.yul\":4000:4003   */\n      dup6\n        /* \"#utility.yul\":3993:3998   */\n      dup5\n        /* \"#utility.yul\":3956:4012   */\n      tag_69\n      jump\t// in\n    tag_125:\n        /* \"#utility.yul\":4037:4066   */\n      tag_126\n        /* \"#utility.yul\":4059:4065   */\n      dup4\n        /* \"#utility.yul\":4037:4066   */\n      tag_67\n      jump\t// in\n    tag_126:\n        /* \"#utility.yul\":4032:4035   */\n      dup5\n        /* \"#utility.yul\":4028:4067   */\n      add\n        /* \"#utility.yul\":4021:4067   */\n      swap1\n      pop\n        /* \"#utility.yul\":3756:4073   */\n      swap4\n      swap3\n      pop\n      pop\n      pop\n      jump\t// out\n        /* \"#utility.yul\":4079:4412   */\n    tag_27:\n        /* \"#utility.yul\":4202:4206   */\n      0x00\n        /* \"#utility.yul\":4240:4242   */\n      0x20\n        /* \"#utility.yul\":4229:4238   */\n      dup3\n        /* \"#utility.yul\":4225:4243   */\n      add\n        /* \"#utility.yul\":4217:4243   */\n      swap1\n      pop\n        /* \"#utility.yul\":4289:4298   */\n      dup2\n        /* \"#utility.yul\":4283:4287   */\n      dup2\n        /* \"#utility.yul\":4279:4299   */\n      sub\n        /* \"#utility.yul\":4275:4276   */\n      0x00\n        /* \"#utility.yul\":4264:4273   */\n      dup4\n        /* \"#utility.yul\":4260:4277   */\n      add\n        /* \"#utility.yul\":4253:4300   */\n      mstore\n        /* \"#utility.yul\":4317:4405   */\n      tag_128\n        /* \"#utility.yul\":4400:4404   */\n      dup2\n        /* \"#utility.yul\":4391:4397   */\n      dup5\n        /* \"#utility.yul\":4383:4389   */\n      dup7\n        /* \"#utility.yul\":4317:4405   */\n      tag_70\n      jump\t// in\n    tag_128:\n        /* \"#utility.yul\":4309:4405   */\n      swap1\n      pop\n        /* \"#utility.yul\":4079:4412   */\n      swap4\n      swap3\n      pop\n      pop\n      pop\n      jump\t// out\n        /* \"#utility.yul\":4418:4516   */\n    tag_71:\n        /* \"#utility.yul\":4469:4475   */\n      0x00\n        /* \"#utility.yul\":4503:4508   */\n      dup2\n        /* \"#utility.yul\":4497:4509   */\n      mload\n        /* \"#utility.yul\":4487:4509   */\n      swap1\n      pop\n        /* \"#utility.yul\":4418:4516   */\n      swap2\n      swap1\n      pop\n      jump\t// out\n        /* \"#utility.yul\":4522:4669   */\n    tag_72:\n        /* \"#utility.yul\":4623:4634   */\n      0x00\n        /* \"#utility.yul\":4660:4663   */\n      dup2\n        /* \"#utility.yul\":4645:4663   */\n      swap1\n      pop\n        /* \"#utility.yul\":4522:4669   */\n      swap3\n      swap2\n      pop\n      pop\n      jump\t// out\n        /* \"#utility.yul\":4675:5061   */\n    tag_73:\n        /* \"#utility.yul\":4779:4782   */\n      0x00\n        /* \"#utility.yul\":4807:4845   */\n      tag_132\n        /* \"#utility.yul\":4839:4844   */\n      dup3\n        /* \"#utility.yul\":4807:4845   */\n      tag_71\n      jump\t// in\n    tag_132:\n        /* \"#utility.yul\":4861:4949   */\n      tag_133\n        /* \"#utility.yul\":4942:4948   */\n      dup2\n        /* \"#utility.yul\":4937:4940   */\n      dup6\n        /* \"#utility.yul\":4861:4949   */\n      tag_72\n      jump\t// in\n    tag_133:\n        /* \"#utility.yul\":4854:4949   */\n      swap4\n      pop\n        /* \"#utility.yul\":4958:5023   */\n      tag_134\n        /* \"#utility.yul\":5016:5022   */\n      dup2\n        /* \"#utility.yul\":5011:5014   */\n      dup6\n        /* \"#utility.yul\":5004:5008   */\n      0x20\n        /* \"#utility.yul\":4997:5002   */\n      dup7\n        /* \"#utility.yul\":4993:5009   */\n      add\n        /* \"#utility.yul\":4958:5023   */\n      tag_66\n      jump\t// in\n    tag_134:\n        /* \"#utility.yul\":5048:5054   */\n      dup1\n        /* \"#utility.yul\":5043:5046   */\n      dup5\n        /* \"#utility.yul\":5039:5055   */\n      add\n        /* \"#utility.yul\":5032:5055   */\n      swap2\n      pop\n        /* \"#utility.yul\":4783:5061   */\n      pop\n        /* \"#utility.yul\":4675:5061   */\n      swap3\n      swap2\n      pop\n      pop\n      jump\t// out\n        /* \"#utility.yul\":5067:5338   */\n    tag_29:\n        /* \"#utility.yul\":5197:5200   */\n      0x00\n        /* \"#utility.yul\":5219:5312   */\n      tag_136\n        /* \"#utility.yul\":5308:5311   */\n      dup3\n        /* \"#utility.yul\":5299:5305   */\n      dup5\n        /* \"#utility.yul\":5219:5312   */\n      tag_73\n      jump\t// in\n    tag_136:\n        /* \"#utility.yul\":5212:5312   */\n      swap2\n      pop\n        /* \"#utility.yul\":5329:5332   */\n      dup2\n        /* \"#utility.yul\":5322:5332   */\n      swap1\n      pop\n        /* \"#utility.yul\":5067:5338   */\n      swap3\n      swap2\n      pop\n      pop\n      jump\t// out\n        /* \"#utility.yul\":5344:5514   */\n    tag_74:\n        /* \"#utility.yul\":5484:5506   */\n      0x63616c6c2066756e6374696f6e206661696c6564000000000000000000000000\n        /* \"#utility.yul\":5480:5481   */\n      0x00\n        /* \"#utility.yul\":5472:5478   */\n      dup3\n        /* \"#utility.yul\":5468:5482   */\n      add\n        /* \"#utility.yul\":5461:5507   */\n      mstore\n        /* \"#utility.yul\":5344:5514   */\n      pop\n      jump\t// out\n        /* \"#utility.yul\":5520:5886   */\n    tag_75:\n        /* \"#utility.yul\":5662:5665   */\n      0x00\n        /* \"#utility.yul\":5683:5750   */\n      tag_139\n        /* \"#utility.yul\":5747:5749   */\n      0x14\n        /* \"#utility.yul\":5742:5745   */\n      dup4\n        /* \"#utility.yul\":5683:5750   */\n      tag_65\n      jump\t// in\n    tag_139:\n        /* \"#utility.yul\":5676:5750   */\n      swap2\n      pop\n        /* \"#utility.yul\":5759:5852   */\n      tag_140\n        /* \"#utility.yul\":5848:5851   */\n      dup3\n        /* \"#utility.yul\":5759:5852   */\n      tag_74\n      jump\t// in\n    tag_140:\n        /* \"#utility.yul\":5877:5879   */\n      0x20\n        /* \"#utility.yul\":5872:5875   */\n      dup3\n        /* \"#utility.yul\":5868:5880   */\n      add\n        /* \"#utility.yul\":5861:5880   */\n      swap1\n      pop\n        /* \"#utility.yul\":5520:5886   */\n      swap2\n      swap1\n      pop\n      jump\t// out\n        /* \"#utility.yul\":5892:6311   */\n    tag_46:\n        /* \"#utility.yul\":6058:6062   */\n      0x00\n        /* \"#utility.yul\":6096:6098   */\n      0x20\n        /* \"#utility.yul\":6085:6094   */\n      dup3\n        /* \"#utility.yul\":6081:6099   */\n      add\n        /* \"#utility.yul\":6073:6099   */\n      swap1\n      pop\n        /* \"#utility.yul\":6145:6154   */\n      dup2\n        /* \"#utility.yul\":6139:6143   */\n      dup2\n        /* \"#utility.yul\":6135:6155   */\n      sub\n        /* \"#utility.yul\":6131:6132   */\n      0x00\n        /* \"#utility.yul\":6120:6129   */\n      dup4\n        /* \"#utility.yul\":6116:6133   */\n      add\n        /* \"#utility.yul\":6109:6156   */\n      mstore\n        /* \"#utility.yul\":6173:6304   */\n      tag_142\n        /* \"#utility.yul\":6299:6303   */\n      dup2\n        /* \"#utility.yul\":6173:6304   */\n      tag_75\n      jump\t// in\n    tag_142:\n        /* \"#utility.yul\":6165:6304   */\n      swap1\n      pop\n        /* \"#utility.yul\":5892:6311   */\n      swap2\n      swap1\n      pop\n      jump\t// out\n        /* \"#utility.yul\":6317:6434   */\n    tag_76:\n        /* \"#utility.yul\":6426:6427   */\n      0x00\n        /* \"#utility.yul\":6423:6424   */\n      dup1\n        /* \"#utility.yul\":6416:6428   */\n      revert\n        /* \"#utility.yul\":6440:6620   */\n    tag_77:\n        /* \"#utility.yul\":6488:6565   */\n      0x4e487b7100000000000000000000000000000000000000000000000000000000\n        /* \"#utility.yul\":6485:6486   */\n      0x00\n        /* \"#utility.yul\":6478:6566   */\n      mstore\n        /* \"#utility.yul\":6585:6589   */\n      0x41\n        /* \"#utility.yul\":6582:6583   */\n      0x04\n        /* \"#utility.yul\":6575:6590   */\n      mstore\n        /* \"#utility.yul\":6609:6613   */\n      0x24\n        /* \"#utility.yul\":6606:6607   */\n      0x00\n        /* \"#utility.yul\":6599:6614   */\n      revert\n        /* \"#utility.yul\":6626:6907   */\n    tag_78:\n        /* \"#utility.yul\":6709:6736   */\n      tag_146\n        /* \"#utility.yul\":6731:6735   */\n      dup3\n        /* \"#utility.yul\":6709:6736   */\n      tag_67\n      jump\t// in\n    tag_146:\n        /* \"#utility.yul\":6701:6707   */\n      dup2\n        /* \"#utility.yul\":6697:6737   */\n      add\n        /* \"#utility.yul\":6839:6845   */\n      dup2\n        /* \"#utility.yul\":6827:6837   */\n      dup2\n        /* \"#utility.yul\":6824:6846   */\n      lt\n        /* \"#utility.yul\":6803:6821   */\n      0xffffffffffffffff\n        /* \"#utility.yul\":6791:6801   */\n      dup3\n        /* \"#utility.yul\":6788:6822   */\n      gt\n        /* \"#utility.yul\":6785:6847   */\n      or\n        /* \"#utility.yul\":6782:6870   */\n      iszero\n      tag_147\n      jumpi\n        /* \"#utility.yul\":6850:6868   */\n      tag_148\n      tag_77\n      jump\t// in\n    tag_148:\n        /* \"#utility.yul\":6782:6870   */\n    tag_147:\n        /* \"#utility.yul\":6890:6900   */\n      dup1\n        /* \"#utility.yul\":6886:6888   */\n      0x40\n        /* \"#utility.yul\":6879:6901   */\n      mstore\n        /* \"#utility.yul\":6669:6907   */\n      pop\n        /* \"#utility.yul\":6626:6907   */\n      pop\n      pop\n      jump\t// out\n        /* \"#utility.yul\":6913:7042   */\n    tag_79:\n        /* \"#utility.yul\":6947:6953   */\n      0x00\n        /* \"#utility.yul\":6974:6994   */\n      tag_150\n      tag_55\n      jump\t// in\n    tag_150:\n        /* \"#utility.yul\":6964:6994   */\n      swap1\n      pop\n        /* \"#utility.yul\":7003:7036   */\n      tag_151\n        /* \"#utility.yul\":7031:7035   */\n      dup3\n        /* \"#utility.yul\":7023:7029   */\n      dup3\n        /* \"#utility.yul\":7003:7036   */\n      tag_78\n      jump\t// in\n    tag_151:\n        /* \"#utility.yul\":6913:7042   */\n      swap2\n      swap1\n      pop\n      jump\t// out\n        /* \"#utility.yul\":7048:7356   */\n    tag_80:\n        /* \"#utility.yul\":7110:7114   */\n      0x00\n        /* \"#utility.yul\":7200:7218   */\n      0xffffffffffffffff\n        /* \"#utility.yul\":7192:7198   */\n      dup3\n        /* \"#utility.yul\":7189:7219   */\n      gt\n        /* \"#utility.yul\":7186:7242   */\n      iszero\n      tag_153\n      jumpi\n        /* \"#utility.yul\":7222:7240   */\n      tag_154\n      tag_77\n      jump\t// in\n    tag_154:\n        /* \"#utility.yul\":7186:7242   */\n    tag_153:\n        /* \"#utility.yul\":7260:7289   */\n      tag_155\n        /* \"#utility.yul\":7282:7288   */\n      dup3\n        /* \"#utility.yul\":7260:7289   */\n      tag_67\n      jump\t// in\n    tag_155:\n        /* \"#utility.yul\":7252:7289   */\n      swap1\n      pop\n        /* \"#utility.yul\":7344:7348   */\n      0x20\n        /* \"#utility.yul\":7338:7342   */\n      dup2\n        /* \"#utility.yul\":7334:7349   */\n      add\n        /* \"#utility.yul\":7326:7349   */\n      swap1\n      pop\n        /* \"#utility.yul\":7048:7356   */\n      swap2\n      swap1\n      pop\n      jump\t// out\n        /* \"#utility.yul\":7362:7796   */\n    tag_81:\n        /* \"#utility.yul\":7451:7456   */\n      0x00\n        /* \"#utility.yul\":7476:7542   */\n      tag_157\n        /* \"#utility.yul\":7492:7541   */\n      tag_158\n        /* \"#utility.yul\":7534:7540   */\n      dup5\n        /* \"#utility.yul\":7492:7541   */\n      tag_80\n      jump\t// in\n    tag_158:\n        /* \"#utility.yul\":7476:7542   */\n      tag_79\n      jump\t// in\n    tag_157:\n        /* \"#utility.yul\":7467:7542   */\n      swap1\n      pop\n        /* \"#utility.yul\":7565:7571   */\n      dup3\n        /* \"#utility.yul\":7558:7563   */\n      dup2\n        /* \"#utility.yul\":7551:7572   */\n      mstore\n        /* \"#utility.yul\":7603:7607   */\n      0x20\n        /* \"#utility.yul\":7596:7601   */\n      dup2\n        /* \"#utility.yul\":7592:7608   */\n      add\n        /* \"#utility.yul\":7641:7644   */\n      dup5\n        /* \"#utility.yul\":7632:7638   */\n      dup5\n        /* \"#utility.yul\":7627:7630   */\n      dup5\n        /* \"#utility.yul\":7623:7639   */\n      add\n        /* \"#utility.yul\":7620:7645   */\n      gt\n        /* \"#utility.yul\":7617:7729   */\n      iszero\n      tag_159\n      jumpi\n        /* \"#utility.yul\":7648:7727   */\n      tag_160\n      tag_76\n      jump\t// in\n    tag_160:\n        /* \"#utility.yul\":7617:7729   */\n    tag_159:\n        /* \"#utility.yul\":7738:7790   */\n      tag_161\n        /* \"#utility.yul\":7783:7789   */\n      dup5\n        /* \"#utility.yul\":7778:7781   */\n      dup3\n        /* \"#utility.yul\":7773:7776   */\n      dup6\n        /* \"#utility.yul\":7738:7790   */\n      tag_66\n      jump\t// in\n    tag_161:\n        /* \"#utility.yul\":7457:7796   */\n      pop\n        /* \"#utility.yul\":7362:7796   */\n      swap4\n      swap3\n      pop\n      pop\n      pop\n      jump\t// out\n        /* \"#utility.yul\":7816:8171   */\n    tag_82:\n        /* \"#utility.yul\":7883:7888   */\n      0x00\n        /* \"#utility.yul\":7932:7935   */\n      dup3\n        /* \"#utility.yul\":7925:7929   */\n      0x1f\n        /* \"#utility.yul\":7917:7923   */\n      dup4\n        /* \"#utility.yul\":7913:7930   */\n      add\n        /* \"#utility.yul\":7909:7936   */\n      slt\n        /* \"#utility.yul\":7899:8021   */\n      tag_163\n      jumpi\n        /* \"#utility.yul\":7940:8019   */\n      tag_164\n      tag_58\n      jump\t// in\n    tag_164:\n        /* \"#utility.yul\":7899:8021   */\n    tag_163:\n        /* \"#utility.yul\":8050:8056   */\n      dup2\n        /* \"#utility.yul\":8044:8057   */\n      mload\n        /* \"#utility.yul\":8075:8165   */\n      tag_165\n        /* \"#utility.yul\":8161:8164   */\n      dup5\n        /* \"#utility.yul\":8153:8159   */\n      dup3\n        /* \"#utility.yul\":8146:8150   */\n      0x20\n        /* \"#utility.yul\":8138:8144   */\n      dup7\n        /* \"#utility.yul\":8134:8151   */\n      add\n        /* \"#utility.yul\":8075:8165   */\n      tag_81\n      jump\t// in\n    tag_165:\n        /* \"#utility.yul\":8066:8165   */\n      swap2\n      pop\n        /* \"#utility.yul\":7889:8171   */\n      pop\n        /* \"#utility.yul\":7816:8171   */\n      swap3\n      swap2\n      pop\n      pop\n      jump\t// out\n        /* \"#utility.yul\":8177:8701   */\n    tag_48:\n        /* \"#utility.yul\":8257:8263   */\n      0x00\n        /* \"#utility.yul\":8306:8308   */\n      0x20\n        /* \"#utility.yul\":8294:8303   */\n      dup3\n        /* \"#utility.yul\":8285:8292   */\n      dup5\n        /* \"#utility.yul\":8281:8304   */\n      sub\n        /* \"#utility.yul\":8277:8309   */\n      slt\n        /* \"#utility.yul\":8274:8393   */\n      iszero\n      tag_167\n      jumpi\n        /* \"#utility.yul\":8312:8391   */\n      tag_168\n      tag_56\n      jump\t// in\n    tag_168:\n        /* \"#utility.yul\":8274:8393   */\n    tag_167:\n        /* \"#utility.yul\":8453:8454   */\n      0x00\n        /* \"#utility.yul\":8442:8451   */\n      dup3\n        /* \"#utility.yul\":8438:8455   */\n      add\n        /* \"#utility.yul\":8432:8456   */\n      mload\n        /* \"#utility.yul\":8483:8501   */\n      0xffffffffffffffff\n        /* \"#utility.yul\":8475:8481   */\n      dup2\n        /* \"#utility.yul\":8472:8502   */\n      gt\n        /* \"#utility.yul\":8469:8586   */\n      iszero\n      tag_169\n      jumpi\n        /* \"#utility.yul\":8505:8584   */\n      tag_170\n      tag_57\n      jump\t// in\n    tag_170:\n        /* \"#utility.yul\":8469:8586   */\n    tag_169:\n        /* \"#utility.yul\":8610:8684   */\n      tag_171\n        /* \"#utility.yul\":8676:8683   */\n      dup5\n        /* \"#utility.yul\":8667:8673   */\n      dup3\n        /* \"#utility.yul\":8656:8665   */\n      dup6\n        /* \"#utility.yul\":8652:8674   */\n      add\n        /* \"#utility.yul\":8610:8684   */\n      tag_82\n      jump\t// in\n    tag_171:\n        /* \"#utility.yul\":8600:8684   */\n      swap2\n      pop\n        /* \"#utility.yul\":8403:8694   */\n      pop\n        /* \"#utility.yul\":8177:8701   */\n      swap3\n      swap2\n      pop\n      pop\n      jump\t// out\n\n    auxdata: 0xa26469706673582212200373fc853e675871b35b77bc2d1b634e886471a223548c41907d3642b6b3373264736f6c63430008140033\n}\n",
				"bytecode": {
					"linkReferences": {},
					"object": "608060405234801561000f575f80fd5b50604051610b07380380610b07833981810160405281019061003191906100d4565b805f806101000a81548173ffffffffffffffffffffffffffffffffffffffff021916908373ffffffffffffffffffffffffffffffffffffffff160217905550506100ff565b5f80fd5b5f73ffffffffffffffffffffffffffffffffffffffff82169050919050565b5f6100a38261007a565b9050919050565b6100b381610099565b81146100bd575f80fd5b50565b5f815190506100ce816100aa565b92915050565b5f602082840312156100e9576100e8610076565b5b5f6100f6848285016100c0565b91505092915050565b6109fb8061010c5f395ff3fe608060405234801561000f575f80fd5b506004361061004a575f3560e01c80632971e81f1461004e578063424d571c1461007e57806370d1c75b146100ae57806376db04d4146100cc575b5f80fd5b6100686004803603810190610063919061061e565b6100fc565b6040516100759190610683565b60405180910390f35b6100986004803603810190610093919061061e565b610223565b6040516100a59190610683565b60405180910390f35b6100b6610350565b6040516100c39190610726565b60405180910390f35b6100e660048036038101906100e1919061061e565b6104bd565b6040516100f39190610683565b60405180910390f35b5f808383604051602401610111929190610780565b6040516020818303038152906040527fab24f884000000000000000000000000000000000000000000000000000000007bffffffffffffffffffffffffffffffffffffffffffffffffffffffff19166020820180517bffffffffffffffffffffffffffffffffffffffffffffffffffffffff838183161783525050505090505f805f9054906101000a900473ffffffffffffffffffffffffffffffffffffffff1673ffffffffffffffffffffffffffffffffffffffff16826040516101d691906107e6565b5f604051808303815f865af19150503d805f811461020f576040519150601f19603f3d011682016040523d82523d5f602084013e610214565b606091505b50509050809250505092915050565b5f807fab24f8849d0d2297307fd0cf298a667ca3f6781dc4485c7b1db9654af5371a4490505f81858560405160240161025d929190610780565b604051602081830303815290604052907bffffffffffffffffffffffffffffffffffffffffffffffffffffffff19166020820180517bffffffffffffffffffffffffffffffffffffffffffffffffffffffff838183161783525050505090505f805f9054906101000a900473ffffffffffffffffffffffffffffffffffffffff1673ffffffffffffffffffffffffffffffffffffffff168260405161030291906107e6565b5f604051808303815f865af19150503d805f811461033b576040519150601f19603f3d011682016040523d82523d5f602084013e610340565b606091505b5050905080935050505092915050565b60605f6040516024016040516020818303038152906040527f3bc5de30000000000000000000000000000000000000000000000000000000007bffffffffffffffffffffffffffffffffffffffffffffffffffffffff19166020820180517bffffffffffffffffffffffffffffffffffffffffffffffffffffffff838183161783525050505090505f805f8054906101000a900473ffffffffffffffffffffffffffffffffffffffff1673ffffffffffffffffffffffffffffffffffffffff168360405161041e91906107e6565b5f604051808303815f865af19150503d805f8114610457576040519150601f19603f3d011682016040523d82523d5f602084013e61045c565b606091505b5091509150816104a1576040517f08c379a000000000000000000000000000000000000000000000000000000000815260040161049890610846565b60405180910390fd5b808060200190518101906104b5919061097e565b935050505090565b5f8083836040516024016104d2929190610780565b6040516020818303038152906040526347064d6a60e01b6020820180517bffffffffffffffffffffffffffffffffffffffffffffffffffffffff838183161783525050505090505f805f9054906101000a900473ffffffffffffffffffffffffffffffffffffffff1673ffffffffffffffffffffffffffffffffffffffff168260405161055f91906107e6565b5f604051808303815f865af19150503d805f8114610598576040519150601f19603f3d011682016040523d82523d5f602084013e61059d565b606091505b50509050809250505092915050565b5f604051905090565b5f80fd5b5f80fd5b5f80fd5b5f80fd5b5f80fd5b5f8083601f8401126105de576105dd6105bd565b5b8235905067ffffffffffffffff8111156105fb576105fa6105c1565b5b602083019150836001820283011115610617576106166105c5565b5b9250929050565b5f8060208385031215610634576106336105b5565b5b5f83013567ffffffffffffffff811115610651576106506105b9565b5b61065d858286016105c9565b92509250509250929050565b5f8115159050919050565b61067d81610669565b82525050565b5f6020820190506106965f830184610674565b92915050565b5f81519050919050565b5f82825260208201905092915050565b5f5b838110156106d35780820151818401526020810190506106b8565b5f8484015250505050565b5f601f19601f8301169050919050565b5f6106f88261069c565b61070281856106a6565b93506107128185602086016106b6565b61071b816106de565b840191505092915050565b5f6020820190508181035f83015261073e81846106ee565b905092915050565b828183375f83830152505050565b5f61075f83856106a6565b935061076c838584610746565b610775836106de565b840190509392505050565b5f6020820190508181035f830152610799818486610754565b90509392505050565b5f81519050919050565b5f81905092915050565b5f6107c0826107a2565b6107ca81856107ac565b93506107da8185602086016106b6565b80840191505092915050565b5f6107f182846107b6565b915081905092915050565b7f63616c6c2066756e6374696f6e206661696c65640000000000000000000000005f82015250565b5f6108306014836106a6565b915061083b826107fc565b602082019050919050565b5f6020820190508181035f83015261085d81610824565b9050919050565b5f80fd5b7f4e487b71000000000000000000000000000000000000000000000000000000005f52604160045260245ffd5b61089e826106de565b810181811067ffffffffffffffff821117156108bd576108bc610868565b5b80604052505050565b5f6108cf6105ac565b90506108db8282610895565b919050565b5f67ffffffffffffffff8211156108fa576108f9610868565b5b610903826106de565b9050602081019050919050565b5f61092261091d846108e0565b6108c6565b90508281526020810184848401111561093e5761093d610864565b5b6109498482856106b6565b509392505050565b5f82601f830112610965576109646105bd565b5b8151610975848260208601610910565b91505092915050565b5f60208284031215610993576109926105b5565b5b5f82015167ffffffffffffffff8111156109b0576109af6105b9565b5b6109bc84828501610951565b9150509291505056fea26469706673582212200373fc853e675871b35b77bc2d1b634e886471a223548c41907d3642b6b3373264736f6c63430008140033",
					"opcodes": "PUSH1 0x80 PUSH1 0x40 MSTORE CALLVALUE DUP1 ISZERO PUSH2 0xF JUMPI PUSH0 DUP1 REVERT JUMPDEST POP PUSH1 0x40 MLOAD PUSH2 0xB07 CODESIZE SUB DUP1 PUSH2 0xB07 DUP4 CODECOPY DUP2 DUP2 ADD PUSH1 0x40 MSTORE DUP2 ADD SWAP1 PUSH2 0x31 SWAP2 SWAP1 PUSH2 0xD4 JUMP JUMPDEST DUP1 PUSH0 DUP1 PUSH2 0x100 EXP DUP2 SLOAD DUP2 PUSH20 0xFFFFFFFFFFFFFFFFFFFFFFFFFFFFFFFFFFFFFFFF MUL NOT AND SWAP1 DUP4 PUSH20 0xFFFFFFFFFFFFFFFFFFFFFFFFFFFFFFFFFFFFFFFF AND MUL OR SWAP1 SSTORE POP POP PUSH2 0xFF JUMP JUMPDEST PUSH0 DUP1 REVERT JUMPDEST PUSH0 PUSH20 0xFFFFFFFFFFFFFFFFFFFFFFFFFFFFFFFFFFFFFFFF DUP3 AND SWAP1 POP SWAP2 SWAP1 POP JUMP JUMPDEST PUSH0 PUSH2 0xA3 DUP3 PUSH2 0x7A JUMP JUMPDEST SWAP1 POP SWAP2 SWAP1 POP JUMP JUMPDEST PUSH2 0xB3 DUP2 PUSH2 0x99 JUMP JUMPDEST DUP2 EQ PUSH2 0xBD JUMPI PUSH0 DUP1 REVERT JUMPDEST POP JUMP JUMPDEST PUSH0 DUP2 MLOAD SWAP1 POP PUSH2 0xCE DUP2 PUSH2 0xAA JUMP JUMPDEST SWAP3 SWAP2 POP POP JUMP JUMPDEST PUSH0 PUSH1 0x20 DUP3 DUP5 SUB SLT ISZERO PUSH2 0xE9 JUMPI PUSH2 0xE8 PUSH2 0x76 JUMP JUMPDEST JUMPDEST PUSH0 PUSH2 0xF6 DUP5 DUP3 DUP6 ADD PUSH2 0xC0 JUMP JUMPDEST SWAP2 POP POP SWAP3 SWAP2 POP POP JUMP JUMPDEST PUSH2 0x9FB DUP1 PUSH2 0x10C PUSH0 CODECOPY PUSH0 RETURN INVALID PUSH1 0x80 PUSH1 0x40 MSTORE CALLVALUE DUP1 ISZERO PUSH2 0xF JUMPI PUSH0 DUP1 REVERT JUMPDEST POP PUSH1 0x4 CALLDATASIZE LT PUSH2 0x4A JUMPI PUSH0 CALLDATALOAD PUSH1 0xE0 SHR DUP1 PUSH4 0x2971E81F EQ PUSH2 0x4E JUMPI DUP1 PUSH4 0x424D571C EQ PUSH2 0x7E JUMPI DUP1 PUSH4 0x70D1C75B EQ PUSH2 0xAE JUMPI DUP1 PUSH4 0x76DB04D4 EQ PUSH2 0xCC JUMPI JUMPDEST PUSH0 DUP1 REVERT JUMPDEST PUSH2 0x68 PUSH1 0x4 DUP1 CALLDATASIZE SUB DUP2 ADD SWAP1 PUSH2 0x63 SWAP2 SWAP1 PUSH2 0x61E JUMP JUMPDEST PUSH2 0xFC JUMP JUMPDEST PUSH1 0x40 MLOAD PUSH2 0x75 SWAP2 SWAP1 PUSH2 0x683 JUMP JUMPDEST PUSH1 0x40 MLOAD DUP1 SWAP2 SUB SWAP1 RETURN JUMPDEST PUSH2 0x98 PUSH1 0x4 DUP1 CALLDATASIZE SUB DUP2 ADD SWAP1 PUSH2 0x93 SWAP2 SWAP1 PUSH2 0x61E JUMP JUMPDEST PUSH2 0x223 JUMP JUMPDEST PUSH1 0x40 MLOAD PUSH2 0xA5 SWAP2 SWAP1 PUSH2 0x683 JUMP JUMPDEST PUSH1 0x40 MLOAD DUP1 SWAP2 SUB SWAP1 RETURN JUMPDEST PUSH2 0xB6 PUSH2 0x350 JUMP JUMPDEST PUSH1 0x40 MLOAD PUSH2 0xC3 SWAP2 SWAP1 PUSH2 0x726 JUMP JUMPDEST PUSH1 0x40 MLOAD DUP1 SWAP2 SUB SWAP1 RETURN JUMPDEST PUSH2 0xE6 PUSH1 0x4 DUP1 CALLDATASIZE SUB DUP2 ADD SWAP1 PUSH2 0xE1 SWAP2 SWAP1 PUSH2 0x61E JUMP JUMPDEST PUSH2 0x4BD JUMP JUMPDEST PUSH1 0x40 MLOAD PUSH2 0xF3 SWAP2 SWAP1 PUSH2 0x683 JUMP JUMPDEST PUSH1 0x40 MLOAD DUP1 SWAP2 SUB SWAP1 RETURN JUMPDEST PUSH0 DUP1 DUP4 DUP4 PUSH1 0x40 MLOAD PUSH1 0x24 ADD PUSH2 0x111 SWAP3 SWAP2 SWAP1 PUSH2 0x780 JUMP JUMPDEST PUSH1 0x40 MLOAD PUSH1 0x20 DUP2 DUP4 SUB SUB DUP2 MSTORE SWAP1 PUSH1 0x40 MSTORE PUSH32 0xAB24F88400000000000000000000000000000000000000000000000000000000 PUSH28 0xFFFFFFFFFFFFFFFFFFFFFFFFFFFFFFFFFFFFFFFFFFFFFFFFFFFFFFFF NOT AND PUSH1 0x20 DUP3 ADD DUP1 MLOAD PUSH28 0xFFFFFFFFFFFFFFFFFFFFFFFFFFFFFFFFFFFFFFFFFFFFFFFFFFFFFFFF DUP4 DUP2 DUP4 AND OR DUP4 MSTORE POP POP POP POP SWAP1 POP PUSH0 DUP1 PUSH0 SWAP1 SLOAD SWAP1 PUSH2 0x100 EXP SWAP1 DIV PUSH20 0xFFFFFFFFFFFFFFFFFFFFFFFFFFFFFFFFFFFFFFFF AND PUSH20 0xFFFFFFFFFFFFFFFFFFFFFFFFFFFFFFFFFFFFFFFF AND DUP3 PUSH1 0x40 MLOAD PUSH2 0x1D6 SWAP2 SWAP1 PUSH2 0x7E6 JUMP JUMPDEST PUSH0 PUSH1 0x40 MLOAD DUP1 DUP4 SUB DUP2 PUSH0 DUP7 GAS CALL SWAP2 POP POP RETURNDATASIZE DUP1 PUSH0 DUP2 EQ PUSH2 0x20F JUMPI PUSH1 0x40 MLOAD SWAP2 POP PUSH1 0x1F NOT PUSH1 0x3F RETURNDATASIZE ADD AND DUP3 ADD PUSH1 0x40 MSTORE RETURNDATASIZE DUP3 MSTORE RETURNDATASIZE PUSH0 PUSH1 0x20 DUP5 ADD RETURNDATACOPY PUSH2 0x214 JUMP JUMPDEST PUSH1 0x60 SWAP2 POP JUMPDEST POP POP SWAP1 POP DUP1 SWAP3 POP POP POP SWAP3 SWAP2 POP POP JUMP JUMPDEST PUSH0 DUP1 PUSH32 0xAB24F8849D0D2297307FD0CF298A667CA3F6781DC4485C7B1DB9654AF5371A44 SWAP1 POP PUSH0 DUP2 DUP6 DUP6 PUSH1 0x40 MLOAD PUSH1 0x24 ADD PUSH2 0x25D SWAP3 SWAP2 SWAP1 PUSH2 0x780 JUMP JUMPDEST PUSH1 0x40 MLOAD PUSH1 0x20 DUP2 DUP4 SUB SUB DUP2 MSTORE SWAP1 PUSH1 0x40 MSTORE SWAP1 PUSH28 0xFFFFFFFFFFFFFFFFFFFFFFFFFFFFFFFFFFFFFFFFFFFFFFFFFFFFFFFF NOT AND PUSH1 0x20 DUP3 ADD DUP1 MLOAD PUSH28 0xFFFFFFFFFFFFFFFFFFFFFFFFFFFFFFFFFFFFFFFFFFFFFFFFFFFFFFFF DUP4 DUP2 DUP4 AND OR DUP4 MSTORE POP POP POP POP SWAP1 POP PUSH0 DUP1 PUSH0 SWAP1 SLOAD SWAP1 PUSH2 0x100 EXP SWAP1 DIV PUSH20 0xFFFFFFFFFFFFFFFFFFFFFFFFFFFFFFFFFFFFFFFF AND PUSH20 0xFFFFFFFFFFFFFFFFFFFFFFFFFFFFFFFFFFFFFFFF AND DUP3 PUSH1 0x40 MLOAD PUSH2 0x302 SWAP2 SWAP1 PUSH2 0x7E6 JUMP JUMPDEST PUSH0 PUSH1 0x40 MLOAD DUP1 DUP4 SUB DUP2 PUSH0 DUP7 GAS CALL SWAP2 POP POP RETURNDATASIZE DUP1 PUSH0 DUP2 EQ PUSH2 0x33B JUMPI PUSH1 0x40 MLOAD SWAP2 POP PUSH1 0x1F NOT PUSH1 0x3F RETURNDATASIZE ADD AND DUP3 ADD PUSH1 0x40 MSTORE RETURNDATASIZE DUP3 MSTORE RETURNDATASIZE PUSH0 PUSH1 0x20 DUP5 ADD RETURNDATACOPY PUSH2 0x340 JUMP JUMPDEST PUSH1 0x60 SWAP2 POP JUMPDEST POP POP SWAP1 POP DUP1 SWAP4 POP POP POP POP SWAP3 SWAP2 POP POP JUMP JUMPDEST PUSH1 0x60 PUSH0 PUSH1 0x40 MLOAD PUSH1 0x24 ADD PUSH1 0x40 MLOAD PUSH1 0x20 DUP2 DUP4 SUB SUB DUP2 MSTORE SWAP1 PUSH1 0x40 MSTORE PUSH32 0x3BC5DE3000000000000000000000000000000000000000000000000000000000 PUSH28 0xFFFFFFFFFFFFFFFFFFFFFFFFFFFFFFFFFFFFFFFFFFFFFFFFFFFFFFFF NOT AND PUSH1 0x20 DUP3 ADD DUP1 MLOAD PUSH28 0xFFFFFFFFFFFFFFFFFFFFFFFFFFFFFFFFFFFFFFFFFFFFFFFFFFFFFFFF DUP4 DUP2 DUP4 AND OR DUP4 MSTORE POP POP POP POP SWAP1 POP PUSH0 DUP1 PUSH0 DUP1 SLOAD SWAP1 PUSH2 0x100 EXP SWAP1 DIV PUSH20 0xFFFFFFFFFFFFFFFFFFFFFFFFFFFFFFFFFFFFFFFF AND PUSH20 0xFFFFFFFFFFFFFFFFFFFFFFFFFFFFFFFFFFFFFFFF AND DUP4 PUSH1 0x40 MLOAD PUSH2 0x41E SWAP2 SWAP1 PUSH2 0x7E6 JUMP JUMPDEST PUSH0 PUSH1 0x40 MLOAD DUP1 DUP4 SUB DUP2 PUSH0 DUP7 GAS CALL SWAP2 POP POP RETURNDATASIZE DUP1 PUSH0 DUP2 EQ PUSH2 0x457 JUMPI PUSH1 0x40 MLOAD SWAP2 POP PUSH1 0x1F NOT PUSH1 0x3F RETURNDATASIZE ADD AND DUP3 ADD PUSH1 0x40 MSTORE RETURNDATASIZE DUP3 MSTORE RETURNDATASIZE PUSH0 PUSH1 0x20 DUP5 ADD RETURNDATACOPY PUSH2 0x45C JUMP JUMPDEST PUSH1 0x60 SWAP2 POP JUMPDEST POP SWAP2 POP SWAP2 POP DUP2 PUSH2 0x4A1 JUMPI PUSH1 0x40 MLOAD PUSH32 0x8C379A000000000000000000000000000000000000000000000000000000000 DUP2 MSTORE PUSH1 0x4 ADD PUSH2 0x498 SWAP1 PUSH2 0x846 JUMP JUMPDEST PUSH1 0x40 MLOAD DUP1 SWAP2 SUB SWAP1 REVERT JUMPDEST DUP1 DUP1 PUSH1 0x20 ADD SWAP1 MLOAD DUP2 ADD SWAP1 PUSH2 0x4B5 SWAP2 SWAP1 PUSH2 0x97E JUMP JUMPDEST SWAP4 POP POP POP POP SWAP1 JUMP JUMPDEST PUSH0 DUP1 DUP4 DUP4 PUSH1 0x40 MLOAD PUSH1 0x24 ADD PUSH2 0x4D2 SWAP3 SWAP2 SWAP1 PUSH2 0x780 JUMP JUMPDEST PUSH1 0x40 MLOAD PUSH1 0x20 DUP2 DUP4 SUB SUB DUP2 MSTORE SWAP1 PUSH1 0x40 MSTORE PUSH4 0x47064D6A PUSH1 0xE0 SHL PUSH1 0x20 DUP3 ADD DUP1 MLOAD PUSH28 0xFFFFFFFFFFFFFFFFFFFFFFFFFFFFFFFFFFFFFFFFFFFFFFFFFFFFFFFF DUP4 DUP2 DUP4 AND OR DUP4 MSTORE POP POP POP POP SWAP1 POP PUSH0 DUP1 PUSH0 SWAP1 SLOAD SWAP1 PUSH2 0x100 EXP SWAP1 DIV PUSH20 0xFFFFFFFFFFFFFFFFFFFFFFFFFFFFFFFFFFFFFFFF AND PUSH20 0xFFFFFFFFFFFFFFFFFFFFFFFFFFFFFFFFFFFFFFFF AND DUP3 PUSH1 0x40 MLOAD PUSH2 0x55F SWAP2 SWAP1 PUSH2 0x7E6 JUMP JUMPDEST PUSH0 PUSH1 0x40 MLOAD DUP1 DUP4 SUB DUP2 PUSH0 DUP7 GAS CALL SWAP2 POP POP RETURNDATASIZE DUP1 PUSH0 DUP2 EQ PUSH2 0x598 JUMPI PUSH1 0x40 MLOAD SWAP2 POP PUSH1 0x1F NOT PUSH1 0x3F RETURNDATASIZE ADD AND DUP3 ADD PUSH1 0x40 MSTORE RETURNDATASIZE DUP3 MSTORE RETURNDATASIZE PUSH0 PUSH1 0x20 DUP5 ADD RETURNDATACOPY PUSH2 0x59D JUMP JUMPDEST PUSH1 0x60 SWAP2 POP JUMPDEST POP POP SWAP1 POP DUP1 SWAP3 POP POP POP SWAP3 SWAP2 POP POP JUMP JUMPDEST PUSH0 PUSH1 0x40 MLOAD SWAP1 POP SWAP1 JUMP JUMPDEST PUSH0 DUP1 REVERT JUMPDEST PUSH0 DUP1 REVERT JUMPDEST PUSH0 DUP1 REVERT JUMPDEST PUSH0 DUP1 REVERT JUMPDEST PUSH0 DUP1 REVERT JUMPDEST PUSH0 DUP1 DUP4 PUSH1 0x1F DUP5 ADD SLT PUSH2 0x5DE JUMPI PUSH2 0x5DD PUSH2 0x5BD JUMP JUMPDEST JUMPDEST DUP3 CALLDATALOAD SWAP1 POP PUSH8 0xFFFFFFFFFFFFFFFF DUP2 GT ISZERO PUSH2 0x5FB JUMPI PUSH2 0x5FA PUSH2 0x5C1 JUMP JUMPDEST JUMPDEST PUSH1 0x20 DUP4 ADD SWAP2 POP DUP4 PUSH1 0x1 DUP3 MUL DUP4 ADD GT ISZERO PUSH2 0x617 JUMPI PUSH2 0x616 PUSH2 0x5C5 JUMP JUMPDEST JUMPDEST SWAP3 POP SWAP3 SWAP1 POP JUMP JUMPDEST PUSH0 DUP1 PUSH1 0x20 DUP4 DUP6 SUB SLT ISZERO PUSH2 0x634 JUMPI PUSH2 0x633 PUSH2 0x5B5 JUMP JUMPDEST JUMPDEST PUSH0 DUP4 ADD CALLDATALOAD PUSH8 0xFFFFFFFFFFFFFFFF DUP2 GT ISZERO PUSH2 0x651 JUMPI PUSH2 0x650 PUSH2 0x5B9 JUMP JUMPDEST JUMPDEST PUSH2 0x65D DUP6 DUP3 DUP7 ADD PUSH2 0x5C9 JUMP JUMPDEST SWAP3 POP SWAP3 POP POP SWAP3 POP SWAP3 SWAP1 POP JUMP JUMPDEST PUSH0 DUP2 ISZERO ISZERO SWAP1 POP SWAP2 SWAP1 POP JUMP JUMPDEST PUSH2 0x67D DUP2 PUSH2 0x669 JUMP JUMPDEST DUP3 MSTORE POP POP JUMP JUMPDEST PUSH0 PUSH1 0x20 DUP3 ADD SWAP1 POP PUSH2 0x696 PUSH0 DUP4 ADD DUP5 PUSH2 0x674 JUMP JUMPDEST SWAP3 SWAP2 POP POP JUMP JUMPDEST PUSH0 DUP2 MLOAD SWAP1 POP SWAP2 SWAP1 POP JUMP JUMPDEST PUSH0 DUP3 DUP3 MSTORE PUSH1 0x20 DUP3 ADD SWAP1 POP SWAP3 SWAP2 POP POP JUMP JUMPDEST PUSH0 JUMPDEST DUP4 DUP2 LT ISZERO PUSH2 0x6D3 JUMPI DUP1 DUP3 ADD MLOAD DUP2 DUP5 ADD MSTORE PUSH1 0x20 DUP2 ADD SWAP1 POP PUSH2 0x6B8 JUMP JUMPDEST PUSH0 DUP5 DUP5 ADD MSTORE POP POP POP POP JUMP JUMPDEST PUSH0 PUSH1 0x1F NOT PUSH1 0x1F DUP4 ADD AND SWAP1 POP SWAP2 SWAP1 POP JUMP JUMPDEST PUSH0 PUSH2 0x6F8 DUP3 PUSH2 0x69C JUMP JUMPDEST PUSH2 0x702 DUP2 DUP6 PUSH2 0x6A6 JUMP JUMPDEST SWAP4 POP PUSH2 0x712 DUP2 DUP6 PUSH1 0x20 DUP7 ADD PUSH2 0x6B6 JUMP JUMPDEST PUSH2 0x71B DUP2 PUSH2 0x6DE JUMP JUMPDEST DUP5 ADD SWAP2 POP POP SWAP3 SWAP2 POP POP JUMP JUMPDEST PUSH0 PUSH1 0x20 DUP3 ADD SWAP1 POP DUP2 DUP2 SUB PUSH0 DUP4 ADD MSTORE PUSH2 0x73E DUP2 DUP5 PUSH2 0x6EE JUMP JUMPDEST SWAP1 POP SWAP3 SWAP2 POP POP JUMP JUMPDEST DUP3 DUP2 DUP4 CALLDATACOPY PUSH0 DUP4 DUP4 ADD MSTORE POP POP POP JUMP JUMPDEST PUSH0 PUSH2 0x75F DUP4 DUP6 PUSH2 0x6A6 JUMP JUMPDEST SWAP4 POP PUSH2 0x76C DUP4 DUP6 DUP5 PUSH2 0x746 JUMP JUMPDEST PUSH2 0x775 DUP4 PUSH2 0x6DE JUMP JUMPDEST DUP5 ADD SWAP1 POP SWAP4 SWAP3 POP POP POP JUMP JUMPDEST PUSH0 PUSH1 0x20 DUP3 ADD SWAP1 POP DUP2 DUP2 SUB PUSH0 DUP4 ADD MSTORE PUSH2 0x799 DUP2 DUP5 DUP7 PUSH2 0x754 JUMP JUMPDEST SWAP1 POP SWAP4 SWAP3 POP POP POP JUMP JUMPDEST PUSH0 DUP2 MLOAD SWAP1 POP SWAP2 SWAP1 POP JUMP JUMPDEST PUSH0 DUP2 SWAP1 POP SWAP3 SWAP2 POP POP JUMP JUMPDEST PUSH0 PUSH2 0x7C0 DUP3 PUSH2 0x7A2 JUMP JUMPDEST PUSH2 0x7CA DUP2 DUP6 PUSH2 0x7AC JUMP JUMPDEST SWAP4 POP PUSH2 0x7DA DUP2 DUP6 PUSH1 0x20 DUP7 ADD PUSH2 0x6B6 JUMP JUMPDEST DUP1 DUP5 ADD SWAP2 POP POP SWAP3 SWAP2 POP POP JUMP JUMPDEST PUSH0 PUSH2 0x7F1 DUP3 DUP5 PUSH2 0x7B6 JUMP JUMPDEST SWAP2 POP DUP2 SWAP1 POP SWAP3 SWAP2 POP POP JUMP JUMPDEST PUSH32 0x63616C6C2066756E6374696F6E206661696C6564000000000000000000000000 PUSH0 DUP3 ADD MSTORE POP JUMP JUMPDEST PUSH0 PUSH2 0x830 PUSH1 0x14 DUP4 PUSH2 0x6A6 JUMP JUMPDEST SWAP2 POP PUSH2 0x83B DUP3 PUSH2 0x7FC JUMP JUMPDEST PUSH1 0x20 DUP3 ADD SWAP1 POP SWAP2 SWAP1 POP JUMP JUMPDEST PUSH0 PUSH1 0x20 DUP3 ADD SWAP1 POP DUP2 DUP2 SUB PUSH0 DUP4 ADD MSTORE PUSH2 0x85D DUP2 PUSH2 0x824 JUMP JUMPDEST SWAP1 POP SWAP2 SWAP1 POP JUMP JUMPDEST PUSH0 DUP1 REVERT JUMPDEST PUSH32 0x4E487B7100000000000000000000000000000000000000000000000000000000 PUSH0 MSTORE PUSH1 0x41 PUSH1 0x4 MSTORE PUSH1 0x24 PUSH0 REVERT JUMPDEST PUSH2 0x89E DUP3 PUSH2 0x6DE JUMP JUMPDEST DUP2 ADD DUP2 DUP2 LT PUSH8 0xFFFFFFFFFFFFFFFF DUP3 GT OR ISZERO PUSH2 0x8BD JUMPI PUSH2 0x8BC PUSH2 0x868 JUMP JUMPDEST JUMPDEST DUP1 PUSH1 0x40 MSTORE POP POP POP JUMP JUMPDEST PUSH0 PUSH2 0x8CF PUSH2 0x5AC JUMP JUMPDEST SWAP1 POP PUSH2 0x8DB DUP3 DUP3 PUSH2 0x895 JUMP JUMPDEST SWAP2 SWAP1 POP JUMP JUMPDEST PUSH0 PUSH8 0xFFFFFFFFFFFFFFFF DUP3 GT ISZERO PUSH2 0x8FA JUMPI PUSH2 0x8F9 PUSH2 0x868 JUMP JUMPDEST JUMPDEST PUSH2 0x903 DUP3 PUSH2 0x6DE JUMP JUMPDEST SWAP1 POP PUSH1 0x20 DUP2 ADD SWAP1 POP SWAP2 SWAP1 POP JUMP JUMPDEST PUSH0 PUSH2 0x922 PUSH2 0x91D DUP5 PUSH2 0x8E0 JUMP JUMPDEST PUSH2 0x8C6 JUMP JUMPDEST SWAP1 POP DUP3 DUP2 MSTORE PUSH1 0x20 DUP2 ADD DUP5 DUP5 DUP5 ADD GT ISZERO PUSH2 0x93E JUMPI PUSH2 0x93D PUSH2 0x864 JUMP JUMPDEST JUMPDEST PUSH2 0x949 DUP5 DUP3 DUP6 PUSH2 0x6B6 JUMP JUMPDEST POP SWAP4 SWAP3 POP POP POP JUMP JUMPDEST PUSH0 DUP3 PUSH1 0x1F DUP4 ADD SLT PUSH2 0x965 JUMPI PUSH2 0x964 PUSH2 0x5BD JUMP JUMPDEST JUMPDEST DUP2 MLOAD PUSH2 0x975 DUP5 DUP3 PUSH1 0x20 DUP7 ADD PUSH2 0x910 JUMP JUMPDEST SWAP2 POP POP SWAP3 SWAP2 POP POP JUMP JUMPDEST PUSH0 PUSH1 0x20 DUP3 DUP5 SUB SLT ISZERO PUSH2 0x993 JUMPI PUSH2 0x992 PUSH2 0x5B5 JUMP JUMPDEST JUMPDEST PUSH0 DUP3 ADD MLOAD PUSH8 0xFFFFFFFFFFFFFFFF DUP2 GT ISZERO PUSH2 0x9B0 JUMPI PUSH2 0x9AF PUSH2 0x5B9 JUMP JUMPDEST JUMPDEST PUSH2 0x9BC DUP5 DUP3 DUP6 ADD PUSH2 0x951 JUMP JUMPDEST SWAP2 POP POP SWAP3 SWAP2 POP POP JUMP INVALID LOG2 PUSH5 0x6970667358 0x22 SLT KECCAK256 SUB PUSH20 0xFC853E675871B35B77BC2D1B634E886471A22354 DUP13 COINBASE SWAP1 PUSH30 0x3642B6B3373264736F6C6343000814003300000000000000000000000000 "
				},
				"gasEstimates": {
					"creation": {
						"codeDepositCost": "511000",
						"executionCost": "infinite",
						"totalCost": "infinite"
					},
					"external": {
						"getDataByABI()": "infinite",
						"setDataByABI1(string)": "infinite",
						"setDataByABI2(string)": "infinite",
						"setDataByABI3(string)": "infinite"
					}
				},
				"methodIdentifiers": {
					"getDataByABI()": "70d1c75b",
					"setDataByABI1(string)": "2971e81f",
					"setDataByABI2(string)": "424d571c",
					"setDataByABI3(string)": "76db04d4"
				}
			},
			"storageLayout": {
				"storage": [
					{
						"astId": 24,
						"contract": "0504learnEncodeCall.sol:DataConsumer",
						"label": "dataStorageAddress",
						"offset": 0,
						"slot": "0",
						"type": "t_address"
					}
				],
				"types": {
					"t_address": {
						"encoding": "inplace",
						"label": "address",
						"numberOfBytes": "20"
					}
				}
			},
			"userdoc": {
				"kind": "user",
				"methods": {},
				"version": 1
			}
		}
	}
}