{
	"BigBank.sol": {
		"BigBank": {
			"abi": [
				{
					"inputs": [],
					"stateMutability": "nonpayable",
					"type": "constructor"
				},
				{
					"anonymous": false,
					"inputs": [
						{
							"indexed": false,
							"internalType": "address",
							"name": "",
							"type": "address"
						},
						{
							"indexed": false,
							"internalType": "uint256",
							"name": "",
							"type": "uint256"
						}
					],
					"name": "Received",
					"type": "event"
				},
				{
					"anonymous": false,
					"inputs": [
						{
							"indexed": false,
							"internalType": "address",
							"name": "",
							"type": "address"
						},
						{
							"indexed": false,
							"internalType": "uint256",
							"name": "",
							"type": "uint256"
						}
					],
					"name": "Withdrawed",
					"type": "event"
				},
				{
					"inputs": [
						{
							"internalType": "address",
							"name": "",
							"type": "address"
						}
					],
					"name": "addr2money",
					"outputs": [
						{
							"internalType": "uint256",
							"name": "",
							"type": "uint256"
						}
					],
					"stateMutability": "view",
					"type": "function"
				},
				{
					"inputs": [],
					"name": "bankBalance",
					"outputs": [
						{
							"internalType": "uint256",
							"name": "",
							"type": "uint256"
						}
					],
					"stateMutability": "view",
					"type": "function"
				},
				{
					"inputs": [
						{
							"internalType": "uint256",
							"name": "",
							"type": "uint256"
						}
					],
					"name": "donors",
					"outputs": [
						{
							"internalType": "address",
							"name": "",
							"type": "address"
						}
					],
					"stateMutability": "view",
					"type": "function"
				},
				{
					"inputs": [],
					"name": "getTop3Donors",
					"outputs": [
						{
							"internalType": "address[3]",
							"name": "",
							"type": "address[3]"
						}
					],
					"stateMutability": "view",
					"type": "function"
				},
				{
					"inputs": [],
					"name": "onReceive",
					"outputs": [],
					"stateMutability": "payable",
					"type": "function"
				},
				{
					"inputs": [],
					"name": "owner",
					"outputs": [
						{
							"internalType": "address",
							"name": "",
							"type": "address"
						}
					],
					"stateMutability": "view",
					"type": "function"
				},
				{
					"inputs": [
						{
							"internalType": "uint256",
							"name": "",
							"type": "uint256"
						}
					],
					"name": "top3donors",
					"outputs": [
						{
							"internalType": "address",
							"name": "",
							"type": "address"
						}
					],
					"stateMutability": "view",
					"type": "function"
				},
				{
					"inputs": [
						{
							"internalType": "address",
							"name": "admin",
							"type": "address"
						}
					],
					"name": "transferOwnership",
					"outputs": [],
					"stateMutability": "nonpayable",
					"type": "function"
				},
				{
					"inputs": [],
					"name": "withdraw",
					"outputs": [],
					"stateMutability": "nonpayable",
					"type": "function"
				},
				{
					"stateMutability": "payable",
					"type": "receive"
				}
			],
			"devdoc": {
				"kind": "dev",
				"methods": {},
				"version": 1
			},
			"evm": {
				"assembly": "    /* \"BigBank.sol\":4805:5280  contract BigBank is Bank {... */\n  mstore(0x40, 0x80)\n    /* \"BigBank.sol\":4891:4940  constructor() {... */\n  callvalue\n  dup1\n  iszero\n  tag_1\n  jumpi\n  0x00\n  dup1\n  revert\ntag_1:\n  pop\n    /* \"BigBank.sol\":970:980  msg.sender */\n  caller\n    /* \"BigBank.sol\":962:967  owner */\n  0x00\n  dup1\n    /* \"BigBank.sol\":962:980  owner = msg.sender */\n  0x0100\n  exp\n  dup2\n  sload\n  dup2\n  0xffffffffffffffffffffffffffffffffffffffff\n  mul\n  not\n  and\n  swap1\n  dup4\n  0xffffffffffffffffffffffffffffffffffffffff\n  and\n  mul\n  or\n  swap1\n  sstore\n  pop\n    /* \"BigBank.sol\":4923:4933  msg.sender */\n  caller\n    /* \"BigBank.sol\":4915:4920  owner */\n  0x00\n  dup1\n    /* \"BigBank.sol\":4915:4933  owner = msg.sender */\n  0x0100\n  exp\n  dup2\n  sload\n  dup2\n  0xffffffffffffffffffffffffffffffffffffffff\n  mul\n  not\n  and\n  swap1\n  dup4\n  0xffffffffffffffffffffffffffffffffffffffff\n  and\n  mul\n  or\n  swap1\n  sstore\n  pop\n    /* \"BigBank.sol\":4805:5280  contract BigBank is Bank {... */\n  dataSize(sub_0)\n  dup1\n  dataOffset(sub_0)\n  0x00\n  codecopy\n  0x00\n  return\nstop\n\nsub_0: assembly {\n        /* \"BigBank.sol\":4805:5280  contract BigBank is Bank {... */\n      mstore(0x40, 0x80)\n      jumpi(tag_1, lt(calldatasize, 0x04))\n      shr(0xe0, calldataload(0x00))\n      dup1\n      0x4f0f4bd3\n      gt\n      tag_12\n      jumpi\n      dup1\n      0x4f0f4bd3\n      eq\n      tag_7\n      jumpi\n      dup1\n      0x8da5cb5b\n      eq\n      tag_8\n      jumpi\n      dup1\n      0x8e708bca\n      eq\n      tag_9\n      jumpi\n      dup1\n      0xc89f8245\n      eq\n      tag_10\n      jumpi\n      dup1\n      0xf2fde38b\n      eq\n      tag_11\n      jumpi\n      jump(tag_2)\n    tag_12:\n      dup1\n      0x28657aa5\n      eq\n      tag_3\n      jumpi\n      dup1\n      0x2d1e2518\n      eq\n      tag_4\n      jumpi\n      dup1\n      0x3ccfd60b\n      eq\n      tag_5\n      jumpi\n      dup1\n      0x4abfa163\n      eq\n      tag_6\n      jumpi\n      jump(tag_2)\n    tag_1:\n      jumpi(tag_2, calldatasize)\n        /* \"BigBank.sol\":5137:5148  0.001 ether */\n      0x038d7ea4c68000\n        /* \"BigBank.sol\":5124:5133  msg.value */\n      callvalue\n        /* \"BigBank.sol\":5124:5148  msg.value >= 0.001 ether */\n      lt\n      iszero\n        /* \"BigBank.sol\":5116:5176  require(msg.value >= 0.001 ether, 'Must more than 0.001eth') */\n      tag_15\n      jumpi\n      mload(0x40)\n      0x08c379a000000000000000000000000000000000000000000000000000000000\n      dup2\n      mstore\n      0x04\n      add\n      tag_16\n      swap1\n      tag_17\n      jump\t// in\n    tag_16:\n      mload(0x40)\n      dup1\n      swap2\n      sub\n      swap1\n      revert\n    tag_15:\n        /* \"BigBank.sol\":5260:5271  onReceive() */\n      tag_19\n        /* \"BigBank.sol\":5260:5269  onReceive */\n      tag_20\n        /* \"BigBank.sol\":5260:5271  onReceive() */\n      jump\t// in\n    tag_19:\n        /* \"BigBank.sol\":4805:5280  contract BigBank is Bank {... */\n      stop\n    tag_2:\n      0x00\n      dup1\n      revert\n        /* \"BigBank.sol\":1800:1895  function bankBalance() public view returns (uint) {... */\n    tag_3:\n      callvalue\n      dup1\n      iszero\n      tag_21\n      jumpi\n      0x00\n      dup1\n      revert\n    tag_21:\n      pop\n      tag_22\n      tag_23\n      jump\t// in\n    tag_22:\n      mload(0x40)\n      tag_24\n      swap2\n      swap1\n      tag_25\n      jump\t// in\n    tag_24:\n      mload(0x40)\n      dup1\n      swap2\n      sub\n      swap1\n      return\n        /* \"BigBank.sol\":2210:2309  function getTop3Donors() public view returns (address[3] memory) {... */\n    tag_4:\n      callvalue\n      dup1\n      iszero\n      tag_26\n      jumpi\n      0x00\n      dup1\n      revert\n    tag_26:\n      pop\n      tag_27\n      tag_28\n      jump\t// in\n    tag_27:\n      mload(0x40)\n      tag_29\n      swap2\n      swap1\n      tag_30\n      jump\t// in\n    tag_29:\n      mload(0x40)\n      dup1\n      swap2\n      sub\n      swap1\n      return\n        /* \"BigBank.sol\":1996:2156  function withdraw() public onlyOwner {... */\n    tag_5:\n      callvalue\n      dup1\n      iszero\n      tag_31\n      jumpi\n      0x00\n      dup1\n      revert\n    tag_31:\n      pop\n      tag_32\n      tag_33\n      jump\t// in\n    tag_32:\n      stop\n        /* \"BigBank.sol\":776:799  address[] public donors */\n    tag_6:\n      callvalue\n      dup1\n      iszero\n      tag_34\n      jumpi\n      0x00\n      dup1\n      revert\n    tag_34:\n      pop\n      tag_35\n      0x04\n      dup1\n      calldatasize\n      sub\n      dup2\n      add\n      swap1\n      tag_36\n      swap2\n      swap1\n      tag_37\n      jump\t// in\n    tag_36:\n      tag_38\n      jump\t// in\n    tag_35:\n      mload(0x40)\n      tag_39\n      swap2\n      swap1\n      tag_40\n      jump\t// in\n    tag_39:\n      mload(0x40)\n      dup1\n      swap2\n      sub\n      swap1\n      return\n        /* \"BigBank.sol\":853:881  address[3] public top3donors */\n    tag_7:\n      callvalue\n      dup1\n      iszero\n      tag_41\n      jumpi\n      0x00\n      dup1\n      revert\n    tag_41:\n      pop\n      tag_42\n      0x04\n      dup1\n      calldatasize\n      sub\n      dup2\n      add\n      swap1\n      tag_43\n      swap2\n      swap1\n      tag_37\n      jump\t// in\n    tag_43:\n      tag_44\n      jump\t// in\n    tag_42:\n      mload(0x40)\n      tag_45\n      swap2\n      swap1\n      tag_40\n      jump\t// in\n    tag_45:\n      mload(0x40)\n      dup1\n      swap2\n      sub\n      swap1\n      return\n        /* \"BigBank.sol\":750:770  address public owner */\n    tag_8:\n      callvalue\n      dup1\n      iszero\n      tag_46\n      jumpi\n      0x00\n      dup1\n      revert\n    tag_46:\n      pop\n      tag_47\n      tag_48\n      jump\t// in\n    tag_47:\n      mload(0x40)\n      tag_49\n      swap2\n      swap1\n      tag_40\n      jump\t// in\n    tag_49:\n      mload(0x40)\n      dup1\n      swap2\n      sub\n      swap1\n      return\n        /* \"BigBank.sol\":1215:1627  function onReceive() public payable virtual {... */\n    tag_9:\n      tag_50\n      tag_20\n      jump\t// in\n    tag_50:\n      stop\n        /* \"BigBank.sol\":805:847  mapping(address => uint) public addr2money */\n    tag_10:\n      callvalue\n      dup1\n      iszero\n      tag_51\n      jumpi\n      0x00\n      dup1\n      revert\n    tag_51:\n      pop\n      tag_52\n      0x04\n      dup1\n      calldatasize\n      sub\n      dup2\n      add\n      swap1\n      tag_53\n      swap2\n      swap1\n      tag_54\n      jump\t// in\n    tag_53:\n      tag_55\n      jump\t// in\n    tag_52:\n      mload(0x40)\n      tag_56\n      swap2\n      swap1\n      tag_25\n      jump\t// in\n    tag_56:\n      mload(0x40)\n      dup1\n      swap2\n      sub\n      swap1\n      return\n        /* \"BigBank.sol\":4987:5076  function transferOwnership(address admin) public onlyOwner {... */\n    tag_11:\n      callvalue\n      dup1\n      iszero\n      tag_57\n      jumpi\n      0x00\n      dup1\n      revert\n    tag_57:\n      pop\n      tag_58\n      0x04\n      dup1\n      calldatasize\n      sub\n      dup2\n      add\n      swap1\n      tag_59\n      swap2\n      swap1\n      tag_54\n      jump\t// in\n    tag_59:\n      tag_60\n      jump\t// in\n    tag_58:\n      stop\n        /* \"BigBank.sol\":1215:1627  function onReceive() public payable virtual {... */\n    tag_20:\n        /* \"BigBank.sol\":1370:1371  0 */\n      0x00\n        /* \"BigBank.sol\":1344:1354  addr2money */\n      0x02\n        /* \"BigBank.sol\":1344:1366  addr2money[msg.sender] */\n      0x00\n        /* \"BigBank.sol\":1355:1365  msg.sender */\n      caller\n        /* \"BigBank.sol\":1344:1366  addr2money[msg.sender] */\n      0xffffffffffffffffffffffffffffffffffffffff\n      and\n      0xffffffffffffffffffffffffffffffffffffffff\n      and\n      dup2\n      mstore\n      0x20\n      add\n      swap1\n      dup2\n      mstore\n      0x20\n      add\n      0x00\n      keccak256\n      sload\n        /* \"BigBank.sol\":1344:1371  addr2money[msg.sender] == 0 */\n      sub\n        /* \"BigBank.sol\":1341:1420  if(addr2money[msg.sender] == 0){... */\n      tag_62\n      jumpi\n        /* \"BigBank.sol\":1386:1392  donors */\n      0x01\n        /* \"BigBank.sol\":1398:1408  msg.sender */\n      caller\n        /* \"BigBank.sol\":1386:1409  donors.push(msg.sender) */\n      swap1\n      dup1\n      0x01\n      dup2\n      sload\n      add\n      dup1\n      dup3\n      sstore\n      dup1\n      swap2\n      pop\n      pop\n      0x01\n      swap1\n      sub\n      swap1\n      0x00\n      mstore\n      keccak256(0x00, 0x20)\n      add\n      0x00\n      swap1\n      swap2\n      swap1\n      swap2\n      swap1\n      swap2\n      0x0100\n      exp\n      dup2\n      sload\n      dup2\n      0xffffffffffffffffffffffffffffffffffffffff\n      mul\n      not\n      and\n      swap1\n      dup4\n      0xffffffffffffffffffffffffffffffffffffffff\n      and\n      mul\n      or\n      swap1\n      sstore\n      pop\n        /* \"BigBank.sol\":1341:1420  if(addr2money[msg.sender] == 0){... */\n    tag_62:\n        /* \"BigBank.sol\":1485:1494  msg.value */\n      callvalue\n        /* \"BigBank.sol\":1459:1469  addr2money */\n      0x02\n        /* \"BigBank.sol\":1459:1481  addr2money[msg.sender] */\n      0x00\n        /* \"BigBank.sol\":1470:1480  msg.sender */\n      caller\n        /* \"BigBank.sol\":1459:1481  addr2money[msg.sender] */\n      0xffffffffffffffffffffffffffffffffffffffff\n      and\n      0xffffffffffffffffffffffffffffffffffffffff\n      and\n      dup2\n      mstore\n      0x20\n      add\n      swap1\n      dup2\n      mstore\n      0x20\n      add\n      0x00\n      keccak256\n      0x00\n        /* \"BigBank.sol\":1459:1494  addr2money[msg.sender] += msg.value */\n      dup3\n      dup3\n      sload\n      tag_64\n      swap2\n      swap1\n      tag_65\n      jump\t// in\n    tag_64:\n      swap3\n      pop\n      pop\n      dup2\n      swap1\n      sstore\n      pop\n        /* \"BigBank.sol\":1591:1620  _updateTop3Donors(msg.sender) */\n      tag_66\n        /* \"BigBank.sol\":1609:1619  msg.sender */\n      caller\n        /* \"BigBank.sol\":1591:1608  _updateTop3Donors */\n      tag_67\n        /* \"BigBank.sol\":1591:1620  _updateTop3Donors(msg.sender) */\n      jump\t// in\n    tag_66:\n        /* \"BigBank.sol\":1215:1627  function onReceive() public payable virtual {... */\n      jump\t// out\n        /* \"BigBank.sol\":1800:1895  function bankBalance() public view returns (uint) {... */\n    tag_23:\n        /* \"BigBank.sol\":1844:1848  uint */\n      0x00\n        /* \"BigBank.sol\":1867:1888  address(this).balance */\n      selfbalance\n        /* \"BigBank.sol\":1860:1888  return address(this).balance */\n      swap1\n      pop\n        /* \"BigBank.sol\":1800:1895  function bankBalance() public view returns (uint) {... */\n      swap1\n      jump\t// out\n        /* \"BigBank.sol\":2210:2309  function getTop3Donors() public view returns (address[3] memory) {... */\n    tag_28:\n        /* \"BigBank.sol\":2256:2273  address[3] memory */\n      tag_69\n      tag_70\n      jump\t// in\n    tag_69:\n        /* \"BigBank.sol\":2292:2302  top3donors */\n      0x03\n        /* \"BigBank.sol\":2285:2302  return top3donors */\n      dup1\n      dup1\n      0x20\n      mul\n      mload(0x40)\n      swap1\n      dup2\n      add\n      0x40\n      mstore\n      dup1\n      swap3\n      swap2\n      swap1\n      dup3\n      0x03\n      dup1\n      iszero\n      tag_72\n      jumpi\n      0x20\n      mul\n      dup3\n      add\n      swap2\n    tag_73:\n      dup2\n      0x00\n      swap1\n      sload\n      swap1\n      0x0100\n      exp\n      swap1\n      div\n      0xffffffffffffffffffffffffffffffffffffffff\n      and\n      0xffffffffffffffffffffffffffffffffffffffff\n      and\n      dup2\n      mstore\n      0x20\n      add\n      swap1\n      0x01\n      add\n      swap1\n      dup1\n      dup4\n      gt\n      tag_73\n      jumpi\n    tag_72:\n      pop\n      pop\n      pop\n      pop\n      pop\n      swap1\n      pop\n        /* \"BigBank.sol\":2210:2309  function getTop3Donors() public view returns (address[3] memory) {... */\n      swap1\n      jump\t// out\n        /* \"BigBank.sol\":1996:2156  function withdraw() public onlyOwner {... */\n    tag_33:\n        /* \"BigBank.sol\":1085:1090  owner */\n      0x00\n      dup1\n      sload\n      swap1\n      0x0100\n      exp\n      swap1\n      div\n      0xffffffffffffffffffffffffffffffffffffffff\n      and\n        /* \"BigBank.sol\":1071:1090  msg.sender == owner */\n      0xffffffffffffffffffffffffffffffffffffffff\n      and\n        /* \"BigBank.sol\":1071:1081  msg.sender */\n      caller\n        /* \"BigBank.sol\":1071:1090  msg.sender == owner */\n      0xffffffffffffffffffffffffffffffffffffffff\n      and\n      eq\n        /* \"BigBank.sol\":1063:1104  require(msg.sender == owner, \"not owner\") */\n      tag_75\n      jumpi\n      mload(0x40)\n      0x08c379a000000000000000000000000000000000000000000000000000000000\n      dup2\n      mstore\n      0x04\n      add\n      tag_76\n      swap1\n      tag_77\n      jump\t// in\n    tag_76:\n      mload(0x40)\n      dup1\n      swap2\n      sub\n      swap1\n      revert\n    tag_75:\n        /* \"BigBank.sol\":2048:2093  Withdrawed(msg.sender, address(this).balance) */\n      0x6cca423c6ffc06e62a0acc433965e074b11c28479b0449250ce3ff65ac9e39fe\n        /* \"BigBank.sol\":2059:2069  msg.sender */\n      caller\n        /* \"BigBank.sol\":2071:2092  address(this).balance */\n      selfbalance\n        /* \"BigBank.sol\":2048:2093  Withdrawed(msg.sender, address(this).balance) */\n      mload(0x40)\n      tag_79\n      swap3\n      swap2\n      swap1\n      tag_80\n      jump\t// in\n    tag_79:\n      mload(0x40)\n      dup1\n      swap2\n      sub\n      swap1\n      log1\n        /* \"BigBank.sol\":2111:2116  owner */\n      0x00\n      dup1\n      sload\n      swap1\n      0x0100\n      exp\n      swap1\n      div\n      0xffffffffffffffffffffffffffffffffffffffff\n      and\n        /* \"BigBank.sol\":2103:2126  payable(owner).transfer */\n      0xffffffffffffffffffffffffffffffffffffffff\n      and\n        /* \"BigBank.sol\":2103:2149  payable(owner).transfer(address(this).balance) */\n      0x08fc\n        /* \"BigBank.sol\":2127:2148  address(this).balance */\n      selfbalance\n        /* \"BigBank.sol\":2103:2149  payable(owner).transfer(address(this).balance) */\n      swap1\n      dup2\n      iszero\n      mul\n      swap1\n      mload(0x40)\n      0x00\n      mload(0x40)\n      dup1\n      dup4\n      sub\n      dup2\n      dup6\n      dup9\n      dup9\n      call\n      swap4\n      pop\n      pop\n      pop\n      pop\n      iszero\n      dup1\n      iszero\n      tag_82\n      jumpi\n      returndatasize\n      0x00\n      dup1\n      returndatacopy\n      revert(0x00, returndatasize)\n    tag_82:\n      pop\n        /* \"BigBank.sol\":1996:2156  function withdraw() public onlyOwner {... */\n      jump\t// out\n        /* \"BigBank.sol\":776:799  address[] public donors */\n    tag_38:\n      0x01\n      dup2\n      dup2\n      sload\n      dup2\n      lt\n      tag_83\n      jumpi\n      0x00\n      dup1\n      revert\n    tag_83:\n      swap1\n      0x00\n      mstore\n      keccak256(0x00, 0x20)\n      add\n      0x00\n      swap2\n      pop\n      sload\n      swap1\n      0x0100\n      exp\n      swap1\n      div\n      0xffffffffffffffffffffffffffffffffffffffff\n      and\n      dup2\n      jump\t// out\n        /* \"BigBank.sol\":853:881  address[3] public top3donors */\n    tag_44:\n      0x03\n      dup2\n      0x03\n      dup2\n      lt\n      tag_85\n      jumpi\n      0x00\n      dup1\n      revert\n    tag_85:\n      add\n      0x00\n      swap2\n      pop\n      sload\n      swap1\n      0x0100\n      exp\n      swap1\n      div\n      0xffffffffffffffffffffffffffffffffffffffff\n      and\n      dup2\n      jump\t// out\n        /* \"BigBank.sol\":750:770  address public owner */\n    tag_48:\n      0x00\n      dup1\n      sload\n      swap1\n      0x0100\n      exp\n      swap1\n      div\n      0xffffffffffffffffffffffffffffffffffffffff\n      and\n      dup2\n      jump\t// out\n        /* \"BigBank.sol\":805:847  mapping(address => uint) public addr2money */\n    tag_55:\n      mstore(0x20, 0x02)\n      dup1\n      0x00\n      mstore\n      keccak256(0x00, 0x40)\n      0x00\n      swap2\n      pop\n      swap1\n      pop\n      sload\n      dup2\n      jump\t// out\n        /* \"BigBank.sol\":4987:5076  function transferOwnership(address admin) public onlyOwner {... */\n    tag_60:\n        /* \"BigBank.sol\":1085:1090  owner */\n      0x00\n      dup1\n      sload\n      swap1\n      0x0100\n      exp\n      swap1\n      div\n      0xffffffffffffffffffffffffffffffffffffffff\n      and\n        /* \"BigBank.sol\":1071:1090  msg.sender == owner */\n      0xffffffffffffffffffffffffffffffffffffffff\n      and\n        /* \"BigBank.sol\":1071:1081  msg.sender */\n      caller\n        /* \"BigBank.sol\":1071:1090  msg.sender == owner */\n      0xffffffffffffffffffffffffffffffffffffffff\n      and\n      eq\n        /* \"BigBank.sol\":1063:1104  require(msg.sender == owner, \"not owner\") */\n      tag_88\n      jumpi\n      mload(0x40)\n      0x08c379a000000000000000000000000000000000000000000000000000000000\n      dup2\n      mstore\n      0x04\n      add\n      tag_89\n      swap1\n      tag_77\n      jump\t// in\n    tag_89:\n      mload(0x40)\n      dup1\n      swap2\n      sub\n      swap1\n      revert\n    tag_88:\n        /* \"BigBank.sol\":5064:5069  admin */\n      dup1\n        /* \"BigBank.sol\":5056:5061  owner */\n      0x00\n      dup1\n        /* \"BigBank.sol\":5056:5069  owner = admin */\n      0x0100\n      exp\n      dup2\n      sload\n      dup2\n      0xffffffffffffffffffffffffffffffffffffffff\n      mul\n      not\n      and\n      swap1\n      dup4\n      0xffffffffffffffffffffffffffffffffffffffff\n      and\n      mul\n      or\n      swap1\n      sstore\n      pop\n        /* \"BigBank.sol\":4987:5076  function transferOwnership(address admin) public onlyOwner {... */\n      pop\n      jump\t// out\n        /* \"BigBank.sol\":2354:3600  function _updateTop3Donors(address newDonor) internal {... */\n    tag_67:\n        /* \"BigBank.sol\":2484:2490  uint i */\n      0x00\n        /* \"BigBank.sol\":2479:2754  for (uint i = 0; i < 3; i++) {... */\n    tag_92:\n        /* \"BigBank.sol\":2500:2501  3 */\n      0x03\n        /* \"BigBank.sol\":2496:2497  i */\n      dup2\n        /* \"BigBank.sol\":2496:2501  i < 3 */\n      lt\n        /* \"BigBank.sol\":2479:2754  for (uint i = 0; i < 3; i++) {... */\n      iszero\n      tag_93\n      jumpi\n        /* \"BigBank.sol\":2538:2548  top3donors */\n      0x03\n        /* \"BigBank.sol\":2549:2550  i */\n      dup2\n        /* \"BigBank.sol\":2538:2551  top3donors[i] */\n      0x03\n      dup2\n      lt\n      tag_95\n      jumpi\n      tag_96\n      tag_97\n      jump\t// in\n    tag_96:\n    tag_95:\n      add\n      0x00\n      swap1\n      sload\n      swap1\n      0x0100\n      exp\n      swap1\n      div\n      0xffffffffffffffffffffffffffffffffffffffff\n      and\n        /* \"BigBank.sol\":2526:2551  newDonor == top3donors[i] */\n      0xffffffffffffffffffffffffffffffffffffffff\n      and\n        /* \"BigBank.sol\":2526:2534  newDonor */\n      dup3\n        /* \"BigBank.sol\":2526:2551  newDonor == top3donors[i] */\n      0xffffffffffffffffffffffffffffffffffffffff\n      and\n      sub\n        /* \"BigBank.sol\":2522:2744  if (newDonor == top3donors[i]) {... */\n      tag_99\n      jumpi\n        /* \"BigBank.sol\":2677:2705  _sortTop3Donors(i, newDonor) */\n      tag_100\n        /* \"BigBank.sol\":2693:2694  i */\n      dup2\n        /* \"BigBank.sol\":2696:2704  newDonor */\n      dup4\n        /* \"BigBank.sol\":2677:2692  _sortTop3Donors */\n      tag_101\n        /* \"BigBank.sol\":2677:2705  _sortTop3Donors(i, newDonor) */\n      jump\t// in\n    tag_100:\n        /* \"BigBank.sol\":2723:2730  return; */\n      pop\n      jump(tag_91)\n        /* \"BigBank.sol\":2522:2744  if (newDonor == top3donors[i]) {... */\n    tag_99:\n        /* \"BigBank.sol\":2503:2506  i++ */\n      dup1\n      dup1\n      tag_102\n      swap1\n      tag_103\n      jump\t// in\n    tag_102:\n      swap2\n      pop\n      pop\n        /* \"BigBank.sol\":2479:2754  for (uint i = 0; i < 3; i++) {... */\n      jump(tag_92)\n    tag_93:\n      pop\n        /* \"BigBank.sol\":2951:2952  0 */\n      0x00\n        /* \"BigBank.sol\":2926:2953  top3donors[0] == address(0) */\n      0xffffffffffffffffffffffffffffffffffffffff\n      and\n        /* \"BigBank.sol\":2926:2936  top3donors */\n      0x03\n        /* \"BigBank.sol\":2937:2938  0 */\n      0x00\n        /* \"BigBank.sol\":2926:2939  top3donors[0] */\n      0x03\n      dup2\n      lt\n      tag_104\n      jumpi\n      tag_105\n      tag_97\n      jump\t// in\n    tag_105:\n    tag_104:\n      add\n      0x00\n      swap1\n      sload\n      swap1\n      0x0100\n      exp\n      swap1\n      div\n      0xffffffffffffffffffffffffffffffffffffffff\n      and\n        /* \"BigBank.sol\":2926:2953  top3donors[0] == address(0) */\n      0xffffffffffffffffffffffffffffffffffffffff\n      and\n      eq\n        /* \"BigBank.sol\":2926:2996  top3donors[0] == address(0) ||... */\n      dup1\n      tag_107\n      jumpi\n      pop\n        /* \"BigBank.sol\":2994:2995  0 */\n      0x00\n        /* \"BigBank.sol\":2969:2996  top3donors[1] == address(0) */\n      0xffffffffffffffffffffffffffffffffffffffff\n      and\n        /* \"BigBank.sol\":2969:2979  top3donors */\n      0x03\n        /* \"BigBank.sol\":2980:2981  1 */\n      0x01\n        /* \"BigBank.sol\":2969:2982  top3donors[1] */\n      0x03\n      dup2\n      lt\n      tag_108\n      jumpi\n      tag_109\n      tag_97\n      jump\t// in\n    tag_109:\n    tag_108:\n      add\n      0x00\n      swap1\n      sload\n      swap1\n      0x0100\n      exp\n      swap1\n      div\n      0xffffffffffffffffffffffffffffffffffffffff\n      and\n        /* \"BigBank.sol\":2969:2996  top3donors[1] == address(0) */\n      0xffffffffffffffffffffffffffffffffffffffff\n      and\n      eq\n        /* \"BigBank.sol\":2926:2996  top3donors[0] == address(0) ||... */\n    tag_107:\n        /* \"BigBank.sol\":2926:3039  top3donors[0] == address(0) ||... */\n      dup1\n      tag_111\n      jumpi\n      pop\n        /* \"BigBank.sol\":3037:3038  0 */\n      0x00\n        /* \"BigBank.sol\":3012:3039  top3donors[2] == address(0) */\n      0xffffffffffffffffffffffffffffffffffffffff\n      and\n        /* \"BigBank.sol\":3012:3022  top3donors */\n      0x03\n        /* \"BigBank.sol\":3023:3024  2 */\n      0x02\n        /* \"BigBank.sol\":3012:3025  top3donors[2] */\n      0x03\n      dup2\n      lt\n      tag_112\n      jumpi\n      tag_113\n      tag_97\n      jump\t// in\n    tag_113:\n    tag_112:\n      add\n      0x00\n      swap1\n      sload\n      swap1\n      0x0100\n      exp\n      swap1\n      div\n      0xffffffffffffffffffffffffffffffffffffffff\n      and\n        /* \"BigBank.sol\":3012:3039  top3donors[2] == address(0) */\n      0xffffffffffffffffffffffffffffffffffffffff\n      and\n      eq\n        /* \"BigBank.sol\":2926:3039  top3donors[0] == address(0) ||... */\n    tag_111:\n        /* \"BigBank.sol\":2926:3103  top3donors[0] == address(0) ||... */\n      dup1\n      tag_115\n      jumpi\n      pop\n        /* \"BigBank.sol\":3078:3088  addr2money */\n      0x02\n        /* \"BigBank.sol\":3078:3103  addr2money[top3donors[0]] */\n      0x00\n        /* \"BigBank.sol\":3089:3099  top3donors */\n      0x03\n        /* \"BigBank.sol\":3100:3101  0 */\n      0x00\n        /* \"BigBank.sol\":3089:3102  top3donors[0] */\n      0x03\n      dup2\n      lt\n      tag_116\n      jumpi\n      tag_117\n      tag_97\n      jump\t// in\n    tag_117:\n    tag_116:\n      add\n      0x00\n      swap1\n      sload\n      swap1\n      0x0100\n      exp\n      swap1\n      div\n      0xffffffffffffffffffffffffffffffffffffffff\n      and\n        /* \"BigBank.sol\":3078:3103  addr2money[top3donors[0]] */\n      0xffffffffffffffffffffffffffffffffffffffff\n      and\n      0xffffffffffffffffffffffffffffffffffffffff\n      and\n      dup2\n      mstore\n      0x20\n      add\n      swap1\n      dup2\n      mstore\n      0x20\n      add\n      0x00\n      keccak256\n      sload\n        /* \"BigBank.sol\":3055:3065  addr2money */\n      0x02\n        /* \"BigBank.sol\":3055:3075  addr2money[newDonor] */\n      0x00\n        /* \"BigBank.sol\":3066:3074  newDonor */\n      dup4\n        /* \"BigBank.sol\":3055:3075  addr2money[newDonor] */\n      0xffffffffffffffffffffffffffffffffffffffff\n      and\n      0xffffffffffffffffffffffffffffffffffffffff\n      and\n      dup2\n      mstore\n      0x20\n      add\n      swap1\n      dup2\n      mstore\n      0x20\n      add\n      0x00\n      keccak256\n      sload\n        /* \"BigBank.sol\":3055:3103  addr2money[newDonor] > addr2money[top3donors[0]] */\n      gt\n        /* \"BigBank.sol\":2926:3103  top3donors[0] == address(0) ||... */\n    tag_115:\n        /* \"BigBank.sol\":2926:3167  top3donors[0] == address(0) ||... */\n      dup1\n      tag_119\n      jumpi\n      pop\n        /* \"BigBank.sol\":3142:3152  addr2money */\n      0x02\n        /* \"BigBank.sol\":3142:3167  addr2money[top3donors[1]] */\n      0x00\n        /* \"BigBank.sol\":3153:3163  top3donors */\n      0x03\n        /* \"BigBank.sol\":3164:3165  1 */\n      0x01\n        /* \"BigBank.sol\":3153:3166  top3donors[1] */\n      0x03\n      dup2\n      lt\n      tag_120\n      jumpi\n      tag_121\n      tag_97\n      jump\t// in\n    tag_121:\n    tag_120:\n      add\n      0x00\n      swap1\n      sload\n      swap1\n      0x0100\n      exp\n      swap1\n      div\n      0xffffffffffffffffffffffffffffffffffffffff\n      and\n        /* \"BigBank.sol\":3142:3167  addr2money[top3donors[1]] */\n      0xffffffffffffffffffffffffffffffffffffffff\n      and\n      0xffffffffffffffffffffffffffffffffffffffff\n      and\n      dup2\n      mstore\n      0x20\n      add\n      swap1\n      dup2\n      mstore\n      0x20\n      add\n      0x00\n      keccak256\n      sload\n        /* \"BigBank.sol\":3119:3129  addr2money */\n      0x02\n        /* \"BigBank.sol\":3119:3139  addr2money[newDonor] */\n      0x00\n        /* \"BigBank.sol\":3130:3138  newDonor */\n      dup4\n        /* \"BigBank.sol\":3119:3139  addr2money[newDonor] */\n      0xffffffffffffffffffffffffffffffffffffffff\n      and\n      0xffffffffffffffffffffffffffffffffffffffff\n      and\n      dup2\n      mstore\n      0x20\n      add\n      swap1\n      dup2\n      mstore\n      0x20\n      add\n      0x00\n      keccak256\n      sload\n        /* \"BigBank.sol\":3119:3167  addr2money[newDonor] > addr2money[top3donors[1]] */\n      gt\n        /* \"BigBank.sol\":2926:3167  top3donors[0] == address(0) ||... */\n    tag_119:\n        /* \"BigBank.sol\":2926:3231  top3donors[0] == address(0) ||... */\n      dup1\n      tag_123\n      jumpi\n      pop\n        /* \"BigBank.sol\":3206:3216  addr2money */\n      0x02\n        /* \"BigBank.sol\":3206:3231  addr2money[top3donors[2]] */\n      0x00\n        /* \"BigBank.sol\":3217:3227  top3donors */\n      0x03\n        /* \"BigBank.sol\":3228:3229  2 */\n      0x02\n        /* \"BigBank.sol\":3217:3230  top3donors[2] */\n      0x03\n      dup2\n      lt\n      tag_124\n      jumpi\n      tag_125\n      tag_97\n      jump\t// in\n    tag_125:\n    tag_124:\n      add\n      0x00\n      swap1\n      sload\n      swap1\n      0x0100\n      exp\n      swap1\n      div\n      0xffffffffffffffffffffffffffffffffffffffff\n      and\n        /* \"BigBank.sol\":3206:3231  addr2money[top3donors[2]] */\n      0xffffffffffffffffffffffffffffffffffffffff\n      and\n      0xffffffffffffffffffffffffffffffffffffffff\n      and\n      dup2\n      mstore\n      0x20\n      add\n      swap1\n      dup2\n      mstore\n      0x20\n      add\n      0x00\n      keccak256\n      sload\n        /* \"BigBank.sol\":3183:3193  addr2money */\n      0x02\n        /* \"BigBank.sol\":3183:3203  addr2money[newDonor] */\n      0x00\n        /* \"BigBank.sol\":3194:3202  newDonor */\n      dup4\n        /* \"BigBank.sol\":3183:3203  addr2money[newDonor] */\n      0xffffffffffffffffffffffffffffffffffffffff\n      and\n      0xffffffffffffffffffffffffffffffffffffffff\n      and\n      dup2\n      mstore\n      0x20\n      add\n      swap1\n      dup2\n      mstore\n      0x20\n      add\n      0x00\n      keccak256\n      sload\n        /* \"BigBank.sol\":3183:3231  addr2money[newDonor] > addr2money[top3donors[2]] */\n      gt\n        /* \"BigBank.sol\":2926:3231  top3donors[0] == address(0) ||... */\n    tag_123:\n        /* \"BigBank.sol\":2922:3594  if (top3donors[0] == address(0) ||... */\n      iszero\n      tag_127\n      jumpi\n        /* \"BigBank.sol\":3341:3342  0 */\n      0x00\n        /* \"BigBank.sol\":3316:3343  top3donors[2] == address(0) */\n      0xffffffffffffffffffffffffffffffffffffffff\n      and\n        /* \"BigBank.sol\":3316:3326  top3donors */\n      0x03\n        /* \"BigBank.sol\":3327:3328  2 */\n      0x02\n        /* \"BigBank.sol\":3316:3329  top3donors[2] */\n      0x03\n      dup2\n      lt\n      tag_128\n      jumpi\n      tag_129\n      tag_97\n      jump\t// in\n    tag_129:\n    tag_128:\n      add\n      0x00\n      swap1\n      sload\n      swap1\n      0x0100\n      exp\n      swap1\n      div\n      0xffffffffffffffffffffffffffffffffffffffff\n      and\n        /* \"BigBank.sol\":3316:3343  top3donors[2] == address(0) */\n      0xffffffffffffffffffffffffffffffffffffffff\n      and\n      eq\n        /* \"BigBank.sol\":3316:3395  top3donors[2] == address(0) || addr2money[newDonor] > addr2money[top3donors[2]] */\n      dup1\n      tag_131\n      jumpi\n      pop\n        /* \"BigBank.sol\":3370:3380  addr2money */\n      0x02\n        /* \"BigBank.sol\":3370:3395  addr2money[top3donors[2]] */\n      0x00\n        /* \"BigBank.sol\":3381:3391  top3donors */\n      0x03\n        /* \"BigBank.sol\":3392:3393  2 */\n      0x02\n        /* \"BigBank.sol\":3381:3394  top3donors[2] */\n      0x03\n      dup2\n      lt\n      tag_132\n      jumpi\n      tag_133\n      tag_97\n      jump\t// in\n    tag_133:\n    tag_132:\n      add\n      0x00\n      swap1\n      sload\n      swap1\n      0x0100\n      exp\n      swap1\n      div\n      0xffffffffffffffffffffffffffffffffffffffff\n      and\n        /* \"BigBank.sol\":3370:3395  addr2money[top3donors[2]] */\n      0xffffffffffffffffffffffffffffffffffffffff\n      and\n      0xffffffffffffffffffffffffffffffffffffffff\n      and\n      dup2\n      mstore\n      0x20\n      add\n      swap1\n      dup2\n      mstore\n      0x20\n      add\n      0x00\n      keccak256\n      sload\n        /* \"BigBank.sol\":3347:3357  addr2money */\n      0x02\n        /* \"BigBank.sol\":3347:3367  addr2money[newDonor] */\n      0x00\n        /* \"BigBank.sol\":3358:3366  newDonor */\n      dup4\n        /* \"BigBank.sol\":3347:3367  addr2money[newDonor] */\n      0xffffffffffffffffffffffffffffffffffffffff\n      and\n      0xffffffffffffffffffffffffffffffffffffffff\n      and\n      dup2\n      mstore\n      0x20\n      add\n      swap1\n      dup2\n      mstore\n      0x20\n      add\n      0x00\n      keccak256\n      sload\n        /* \"BigBank.sol\":3347:3395  addr2money[newDonor] > addr2money[top3donors[2]] */\n      gt\n        /* \"BigBank.sol\":3316:3395  top3donors[2] == address(0) || addr2money[newDonor] > addr2money[top3donors[2]] */\n    tag_131:\n        /* \"BigBank.sol\":3312:3454  if (top3donors[2] == address(0) || addr2money[newDonor] > addr2money[top3donors[2]]) {... */\n      iszero\n      tag_135\n      jumpi\n        /* \"BigBank.sol\":3431:3439  newDonor */\n      dup1\n        /* \"BigBank.sol\":3415:3425  top3donors */\n      0x03\n        /* \"BigBank.sol\":3426:3427  2 */\n      0x02\n        /* \"BigBank.sol\":3415:3428  top3donors[2] */\n      0x03\n      dup2\n      lt\n      tag_136\n      jumpi\n      tag_137\n      tag_97\n      jump\t// in\n    tag_137:\n    tag_136:\n      add\n      0x00\n        /* \"BigBank.sol\":3415:3439  top3donors[2] = newDonor */\n      0x0100\n      exp\n      dup2\n      sload\n      dup2\n      0xffffffffffffffffffffffffffffffffffffffff\n      mul\n      not\n      and\n      swap1\n      dup4\n      0xffffffffffffffffffffffffffffffffffffffff\n      and\n      mul\n      or\n      swap1\n      sstore\n      pop\n        /* \"BigBank.sol\":3312:3454  if (top3donors[2] == address(0) || addr2money[newDonor] > addr2money[top3donors[2]]) {... */\n    tag_135:\n        /* \"BigBank.sol\":3555:3583  _sortTop3Donors(2, newDonor) */\n      tag_139\n        /* \"BigBank.sol\":3571:3572  2 */\n      0x02\n        /* \"BigBank.sol\":3574:3582  newDonor */\n      dup3\n        /* \"BigBank.sol\":3555:3570  _sortTop3Donors */\n      tag_101\n        /* \"BigBank.sol\":3555:3583  _sortTop3Donors(2, newDonor) */\n      jump\t// in\n    tag_139:\n        /* \"BigBank.sol\":2922:3594  if (top3donors[0] == address(0) ||... */\n    tag_127:\n        /* \"BigBank.sol\":2354:3600  function _updateTop3Donors(address newDonor) internal {... */\n    tag_91:\n      pop\n      jump\t// out\n        /* \"BigBank.sol\":3670:4801  function _sortTop3Donors(uint i, address newDonor) internal {... */\n    tag_101:\n        /* \"BigBank.sol\":3824:3825  0 */\n      0x00\n        /* \"BigBank.sol\":3819:3820  i */\n      dup3\n        /* \"BigBank.sol\":3819:3825  i == 0 */\n      sub\n        /* \"BigBank.sol\":3815:4795  if (i == 0) {... */\n      iszero\n        /* \"BigBank.sol\":3841:3848  return; */\n      tag_140\n        /* \"BigBank.sol\":3815:4795  if (i == 0) {... */\n      jumpi\n        /* \"BigBank.sol\":3945:3946  1 */\n      0x01\n        /* \"BigBank.sol\":3940:3941  i */\n      dup3\n        /* \"BigBank.sol\":3940:3946  i == 1 */\n      eq\n        /* \"BigBank.sol\":3940:3998  i == 1 && addr2money[newDonor] > addr2money[top3donors[0]] */\n      dup1\n      iszero\n      tag_143\n      jumpi\n      pop\n        /* \"BigBank.sol\":3973:3983  addr2money */\n      0x02\n        /* \"BigBank.sol\":3973:3998  addr2money[top3donors[0]] */\n      0x00\n        /* \"BigBank.sol\":3984:3994  top3donors */\n      0x03\n        /* \"BigBank.sol\":3995:3996  0 */\n      0x00\n        /* \"BigBank.sol\":3984:3997  top3donors[0] */\n      0x03\n      dup2\n      lt\n      tag_144\n      jumpi\n      tag_145\n      tag_97\n      jump\t// in\n    tag_145:\n    tag_144:\n      add\n      0x00\n      swap1\n      sload\n      swap1\n      0x0100\n      exp\n      swap1\n      div\n      0xffffffffffffffffffffffffffffffffffffffff\n      and\n        /* \"BigBank.sol\":3973:3998  addr2money[top3donors[0]] */\n      0xffffffffffffffffffffffffffffffffffffffff\n      and\n      0xffffffffffffffffffffffffffffffffffffffff\n      and\n      dup2\n      mstore\n      0x20\n      add\n      swap1\n      dup2\n      mstore\n      0x20\n      add\n      0x00\n      keccak256\n      sload\n        /* \"BigBank.sol\":3950:3960  addr2money */\n      0x02\n        /* \"BigBank.sol\":3950:3970  addr2money[newDonor] */\n      0x00\n        /* \"BigBank.sol\":3961:3969  newDonor */\n      dup4\n        /* \"BigBank.sol\":3950:3970  addr2money[newDonor] */\n      0xffffffffffffffffffffffffffffffffffffffff\n      and\n      0xffffffffffffffffffffffffffffffffffffffff\n      and\n      dup2\n      mstore\n      0x20\n      add\n      swap1\n      dup2\n      mstore\n      0x20\n      add\n      0x00\n      keccak256\n      sload\n        /* \"BigBank.sol\":3950:3998  addr2money[newDonor] > addr2money[top3donors[0]] */\n      gt\n        /* \"BigBank.sol\":3940:3998  i == 1 && addr2money[newDonor] > addr2money[top3donors[0]] */\n    tag_143:\n        /* \"BigBank.sol\":3936:4795  if (i == 1 && addr2money[newDonor] > addr2money[top3donors[0]]) {... */\n      iszero\n      tag_147\n      jumpi\n        /* \"BigBank.sol\":4030:4040  top3donors */\n      0x03\n        /* \"BigBank.sol\":4041:4042  0 */\n      0x00\n        /* \"BigBank.sol\":4030:4043  top3donors[0] */\n      0x03\n      dup2\n      lt\n      tag_148\n      jumpi\n      tag_149\n      tag_97\n      jump\t// in\n    tag_149:\n    tag_148:\n      add\n      0x00\n      swap1\n      sload\n      swap1\n      0x0100\n      exp\n      swap1\n      div\n      0xffffffffffffffffffffffffffffffffffffffff\n      and\n        /* \"BigBank.sol\":4014:4024  top3donors */\n      0x03\n        /* \"BigBank.sol\":4025:4026  1 */\n      0x01\n        /* \"BigBank.sol\":4014:4027  top3donors[1] */\n      0x03\n      dup2\n      lt\n      tag_151\n      jumpi\n      tag_152\n      tag_97\n      jump\t// in\n    tag_152:\n    tag_151:\n      add\n      0x00\n        /* \"BigBank.sol\":4014:4043  top3donors[1] = top3donors[0] */\n      0x0100\n      exp\n      dup2\n      sload\n      dup2\n      0xffffffffffffffffffffffffffffffffffffffff\n      mul\n      not\n      and\n      swap1\n      dup4\n      0xffffffffffffffffffffffffffffffffffffffff\n      and\n      mul\n      or\n      swap1\n      sstore\n      pop\n        /* \"BigBank.sol\":4073:4081  newDonor */\n      dup1\n        /* \"BigBank.sol\":4057:4067  top3donors */\n      0x03\n        /* \"BigBank.sol\":4068:4069  0 */\n      0x00\n        /* \"BigBank.sol\":4057:4070  top3donors[0] */\n      0x03\n      dup2\n      lt\n      tag_154\n      jumpi\n      tag_155\n      tag_97\n      jump\t// in\n    tag_155:\n    tag_154:\n      add\n      0x00\n        /* \"BigBank.sol\":4057:4081  top3donors[0] = newDonor */\n      0x0100\n      exp\n      dup2\n      sload\n      dup2\n      0xffffffffffffffffffffffffffffffffffffffff\n      mul\n      not\n      and\n      swap1\n      dup4\n      0xffffffffffffffffffffffffffffffffffffffff\n      and\n      mul\n      or\n      swap1\n      sstore\n      pop\n        /* \"BigBank.sol\":3936:4795  if (i == 1 && addr2money[newDonor] > addr2money[top3donors[0]]) {... */\n      jump(tag_157)\n    tag_147:\n        /* \"BigBank.sol\":4224:4225  2 */\n      0x02\n        /* \"BigBank.sol\":4219:4220  i */\n      dup3\n        /* \"BigBank.sol\":4219:4225  i == 2 */\n      eq\n        /* \"BigBank.sol\":4219:4277  i == 2 && addr2money[newDonor] > addr2money[top3donors[1]] */\n      dup1\n      iszero\n      tag_158\n      jumpi\n      pop\n        /* \"BigBank.sol\":4252:4262  addr2money */\n      0x02\n        /* \"BigBank.sol\":4252:4277  addr2money[top3donors[1]] */\n      0x00\n        /* \"BigBank.sol\":4263:4273  top3donors */\n      0x03\n        /* \"BigBank.sol\":4274:4275  1 */\n      0x01\n        /* \"BigBank.sol\":4263:4276  top3donors[1] */\n      0x03\n      dup2\n      lt\n      tag_159\n      jumpi\n      tag_160\n      tag_97\n      jump\t// in\n    tag_160:\n    tag_159:\n      add\n      0x00\n      swap1\n      sload\n      swap1\n      0x0100\n      exp\n      swap1\n      div\n      0xffffffffffffffffffffffffffffffffffffffff\n      and\n        /* \"BigBank.sol\":4252:4277  addr2money[top3donors[1]] */\n      0xffffffffffffffffffffffffffffffffffffffff\n      and\n      0xffffffffffffffffffffffffffffffffffffffff\n      and\n      dup2\n      mstore\n      0x20\n      add\n      swap1\n      dup2\n      mstore\n      0x20\n      add\n      0x00\n      keccak256\n      sload\n        /* \"BigBank.sol\":4229:4239  addr2money */\n      0x02\n        /* \"BigBank.sol\":4229:4249  addr2money[newDonor] */\n      0x00\n        /* \"BigBank.sol\":4240:4248  newDonor */\n      dup4\n        /* \"BigBank.sol\":4229:4249  addr2money[newDonor] */\n      0xffffffffffffffffffffffffffffffffffffffff\n      and\n      0xffffffffffffffffffffffffffffffffffffffff\n      and\n      dup2\n      mstore\n      0x20\n      add\n      swap1\n      dup2\n      mstore\n      0x20\n      add\n      0x00\n      keccak256\n      sload\n        /* \"BigBank.sol\":4229:4277  addr2money[newDonor] > addr2money[top3donors[1]] */\n      gt\n        /* \"BigBank.sol\":4219:4277  i == 2 && addr2money[newDonor] > addr2money[top3donors[1]] */\n    tag_158:\n        /* \"BigBank.sol\":4219:4349  i == 2 && addr2money[newDonor] > addr2money[top3donors[1]] && ... */\n      dup1\n      iszero\n      tag_162\n      jumpi\n      pop\n        /* \"BigBank.sol\":4324:4334  addr2money */\n      0x02\n        /* \"BigBank.sol\":4324:4349  addr2money[top3donors[0]] */\n      0x00\n        /* \"BigBank.sol\":4335:4345  top3donors */\n      0x03\n        /* \"BigBank.sol\":4346:4347  0 */\n      0x00\n        /* \"BigBank.sol\":4335:4348  top3donors[0] */\n      0x03\n      dup2\n      lt\n      tag_163\n      jumpi\n      tag_164\n      tag_97\n      jump\t// in\n    tag_164:\n    tag_163:\n      add\n      0x00\n      swap1\n      sload\n      swap1\n      0x0100\n      exp\n      swap1\n      div\n      0xffffffffffffffffffffffffffffffffffffffff\n      and\n        /* \"BigBank.sol\":4324:4349  addr2money[top3donors[0]] */\n      0xffffffffffffffffffffffffffffffffffffffff\n      and\n      0xffffffffffffffffffffffffffffffffffffffff\n      and\n      dup2\n      mstore\n      0x20\n      add\n      swap1\n      dup2\n      mstore\n      0x20\n      add\n      0x00\n      keccak256\n      sload\n        /* \"BigBank.sol\":4300:4310  addr2money */\n      0x02\n        /* \"BigBank.sol\":4300:4320  addr2money[newDonor] */\n      0x00\n        /* \"BigBank.sol\":4311:4319  newDonor */\n      dup4\n        /* \"BigBank.sol\":4300:4320  addr2money[newDonor] */\n      0xffffffffffffffffffffffffffffffffffffffff\n      and\n      0xffffffffffffffffffffffffffffffffffffffff\n      and\n      dup2\n      mstore\n      0x20\n      add\n      swap1\n      dup2\n      mstore\n      0x20\n      add\n      0x00\n      keccak256\n      sload\n        /* \"BigBank.sol\":4300:4349  addr2money[newDonor] <= addr2money[top3donors[0]] */\n      gt\n      iszero\n        /* \"BigBank.sol\":4219:4349  i == 2 && addr2money[newDonor] > addr2money[top3donors[1]] && ... */\n    tag_162:\n        /* \"BigBank.sol\":4215:4795  if (i == 2 && addr2money[newDonor] > addr2money[top3donors[1]] && ... */\n      iszero\n      tag_166\n      jumpi\n        /* \"BigBank.sol\":4381:4391  top3donors */\n      0x03\n        /* \"BigBank.sol\":4392:4393  1 */\n      0x01\n        /* \"BigBank.sol\":4381:4394  top3donors[1] */\n      0x03\n      dup2\n      lt\n      tag_167\n      jumpi\n      tag_168\n      tag_97\n      jump\t// in\n    tag_168:\n    tag_167:\n      add\n      0x00\n      swap1\n      sload\n      swap1\n      0x0100\n      exp\n      swap1\n      div\n      0xffffffffffffffffffffffffffffffffffffffff\n      and\n        /* \"BigBank.sol\":4365:4375  top3donors */\n      0x03\n        /* \"BigBank.sol\":4376:4377  2 */\n      0x02\n        /* \"BigBank.sol\":4365:4378  top3donors[2] */\n      0x03\n      dup2\n      lt\n      tag_170\n      jumpi\n      tag_171\n      tag_97\n      jump\t// in\n    tag_171:\n    tag_170:\n      add\n      0x00\n        /* \"BigBank.sol\":4365:4394  top3donors[2] = top3donors[1] */\n      0x0100\n      exp\n      dup2\n      sload\n      dup2\n      0xffffffffffffffffffffffffffffffffffffffff\n      mul\n      not\n      and\n      swap1\n      dup4\n      0xffffffffffffffffffffffffffffffffffffffff\n      and\n      mul\n      or\n      swap1\n      sstore\n      pop\n        /* \"BigBank.sol\":4424:4432  newDonor */\n      dup1\n        /* \"BigBank.sol\":4408:4418  top3donors */\n      0x03\n        /* \"BigBank.sol\":4419:4420  1 */\n      0x01\n        /* \"BigBank.sol\":4408:4421  top3donors[1] */\n      0x03\n      dup2\n      lt\n      tag_173\n      jumpi\n      tag_174\n      tag_97\n      jump\t// in\n    tag_174:\n    tag_173:\n      add\n      0x00\n        /* \"BigBank.sol\":4408:4432  top3donors[1] = newDonor */\n      0x0100\n      exp\n      dup2\n      sload\n      dup2\n      0xffffffffffffffffffffffffffffffffffffffff\n      mul\n      not\n      and\n      swap1\n      dup4\n      0xffffffffffffffffffffffffffffffffffffffff\n      and\n      mul\n      or\n      swap1\n      sstore\n      pop\n        /* \"BigBank.sol\":4215:4795  if (i == 2 && addr2money[newDonor] > addr2money[top3donors[1]] && ... */\n      jump(tag_176)\n    tag_166:\n        /* \"BigBank.sol\":4605:4606  2 */\n      0x02\n        /* \"BigBank.sol\":4600:4601  i */\n      dup3\n        /* \"BigBank.sol\":4600:4606  i == 2 */\n      eq\n        /* \"BigBank.sol\":4600:4658  i == 2 && addr2money[newDonor] > addr2money[top3donors[0]] */\n      dup1\n      iszero\n      tag_177\n      jumpi\n      pop\n        /* \"BigBank.sol\":4633:4643  addr2money */\n      0x02\n        /* \"BigBank.sol\":4633:4658  addr2money[top3donors[0]] */\n      0x00\n        /* \"BigBank.sol\":4644:4654  top3donors */\n      0x03\n        /* \"BigBank.sol\":4655:4656  0 */\n      0x00\n        /* \"BigBank.sol\":4644:4657  top3donors[0] */\n      0x03\n      dup2\n      lt\n      tag_178\n      jumpi\n      tag_179\n      tag_97\n      jump\t// in\n    tag_179:\n    tag_178:\n      add\n      0x00\n      swap1\n      sload\n      swap1\n      0x0100\n      exp\n      swap1\n      div\n      0xffffffffffffffffffffffffffffffffffffffff\n      and\n        /* \"BigBank.sol\":4633:4658  addr2money[top3donors[0]] */\n      0xffffffffffffffffffffffffffffffffffffffff\n      and\n      0xffffffffffffffffffffffffffffffffffffffff\n      and\n      dup2\n      mstore\n      0x20\n      add\n      swap1\n      dup2\n      mstore\n      0x20\n      add\n      0x00\n      keccak256\n      sload\n        /* \"BigBank.sol\":4610:4620  addr2money */\n      0x02\n        /* \"BigBank.sol\":4610:4630  addr2money[newDonor] */\n      0x00\n        /* \"BigBank.sol\":4621:4629  newDonor */\n      dup4\n        /* \"BigBank.sol\":4610:4630  addr2money[newDonor] */\n      0xffffffffffffffffffffffffffffffffffffffff\n      and\n      0xffffffffffffffffffffffffffffffffffffffff\n      and\n      dup2\n      mstore\n      0x20\n      add\n      swap1\n      dup2\n      mstore\n      0x20\n      add\n      0x00\n      keccak256\n      sload\n        /* \"BigBank.sol\":4610:4658  addr2money[newDonor] > addr2money[top3donors[0]] */\n      gt\n        /* \"BigBank.sol\":4600:4658  i == 2 && addr2money[newDonor] > addr2money[top3donors[0]] */\n    tag_177:\n        /* \"BigBank.sol\":4596:4795  if (i == 2 && addr2money[newDonor] > addr2money[top3donors[0]]) {... */\n      iszero\n      tag_181\n      jumpi\n        /* \"BigBank.sol\":4690:4700  top3donors */\n      0x03\n        /* \"BigBank.sol\":4701:4702  1 */\n      0x01\n        /* \"BigBank.sol\":4690:4703  top3donors[1] */\n      0x03\n      dup2\n      lt\n      tag_182\n      jumpi\n      tag_183\n      tag_97\n      jump\t// in\n    tag_183:\n    tag_182:\n      add\n      0x00\n      swap1\n      sload\n      swap1\n      0x0100\n      exp\n      swap1\n      div\n      0xffffffffffffffffffffffffffffffffffffffff\n      and\n        /* \"BigBank.sol\":4674:4684  top3donors */\n      0x03\n        /* \"BigBank.sol\":4685:4686  2 */\n      0x02\n        /* \"BigBank.sol\":4674:4687  top3donors[2] */\n      0x03\n      dup2\n      lt\n      tag_185\n      jumpi\n      tag_186\n      tag_97\n      jump\t// in\n    tag_186:\n    tag_185:\n      add\n      0x00\n        /* \"BigBank.sol\":4674:4703  top3donors[2] = top3donors[1] */\n      0x0100\n      exp\n      dup2\n      sload\n      dup2\n      0xffffffffffffffffffffffffffffffffffffffff\n      mul\n      not\n      and\n      swap1\n      dup4\n      0xffffffffffffffffffffffffffffffffffffffff\n      and\n      mul\n      or\n      swap1\n      sstore\n      pop\n        /* \"BigBank.sol\":4733:4743  top3donors */\n      0x03\n        /* \"BigBank.sol\":4744:4745  0 */\n      0x00\n        /* \"BigBank.sol\":4733:4746  top3donors[0] */\n      0x03\n      dup2\n      lt\n      tag_188\n      jumpi\n      tag_189\n      tag_97\n      jump\t// in\n    tag_189:\n    tag_188:\n      add\n      0x00\n      swap1\n      sload\n      swap1\n      0x0100\n      exp\n      swap1\n      div\n      0xffffffffffffffffffffffffffffffffffffffff\n      and\n        /* \"BigBank.sol\":4717:4727  top3donors */\n      0x03\n        /* \"BigBank.sol\":4728:4729  1 */\n      0x01\n        /* \"BigBank.sol\":4717:4730  top3donors[1] */\n      0x03\n      dup2\n      lt\n      tag_191\n      jumpi\n      tag_192\n      tag_97\n      jump\t// in\n    tag_192:\n    tag_191:\n      add\n      0x00\n        /* \"BigBank.sol\":4717:4746  top3donors[1] = top3donors[0] */\n      0x0100\n      exp\n      dup2\n      sload\n      dup2\n      0xffffffffffffffffffffffffffffffffffffffff\n      mul\n      not\n      and\n      swap1\n      dup4\n      0xffffffffffffffffffffffffffffffffffffffff\n      and\n      mul\n      or\n      swap1\n      sstore\n      pop\n        /* \"BigBank.sol\":4776:4784  newDonor */\n      dup1\n        /* \"BigBank.sol\":4760:4770  top3donors */\n      0x03\n        /* \"BigBank.sol\":4771:4772  0 */\n      0x00\n        /* \"BigBank.sol\":4760:4773  top3donors[0] */\n      0x03\n      dup2\n      lt\n      tag_194\n      jumpi\n      tag_195\n      tag_97\n      jump\t// in\n    tag_195:\n    tag_194:\n      add\n      0x00\n        /* \"BigBank.sol\":4760:4784  top3donors[0] = newDonor */\n      0x0100\n      exp\n      dup2\n      sload\n      dup2\n      0xffffffffffffffffffffffffffffffffffffffff\n      mul\n      not\n      and\n      swap1\n      dup4\n      0xffffffffffffffffffffffffffffffffffffffff\n      and\n      mul\n      or\n      swap1\n      sstore\n      pop\n        /* \"BigBank.sol\":4596:4795  if (i == 2 && addr2money[newDonor] > addr2money[top3donors[0]]) {... */\n    tag_181:\n        /* \"BigBank.sol\":4215:4795  if (i == 2 && addr2money[newDonor] > addr2money[top3donors[1]] && ... */\n    tag_176:\n        /* \"BigBank.sol\":3936:4795  if (i == 1 && addr2money[newDonor] > addr2money[top3donors[0]]) {... */\n    tag_157:\n        /* \"BigBank.sol\":3670:4801  function _sortTop3Donors(uint i, address newDonor) internal {... */\n    tag_140:\n      pop\n      pop\n      jump\t// out\n    tag_70:\n      mload(0x40)\n      dup1\n      0x60\n      add\n      0x40\n      mstore\n      dup1\n      0x03\n      swap1\n      0x20\n      dup3\n      mul\n      dup1\n      calldatasize\n      dup4\n      calldatacopy\n      dup1\n      dup3\n      add\n      swap2\n      pop\n      pop\n      swap1\n      pop\n      pop\n      swap1\n      jump\t// out\n        /* \"#utility.yul\":7:176   */\n    tag_197:\n        /* \"#utility.yul\":91:102   */\n      0x00\n        /* \"#utility.yul\":125:131   */\n      dup3\n        /* \"#utility.yul\":120:123   */\n      dup3\n        /* \"#utility.yul\":113:132   */\n      mstore\n        /* \"#utility.yul\":165:169   */\n      0x20\n        /* \"#utility.yul\":160:163   */\n      dup3\n        /* \"#utility.yul\":156:170   */\n      add\n        /* \"#utility.yul\":141:170   */\n      swap1\n      pop\n        /* \"#utility.yul\":7:176   */\n      swap3\n      swap2\n      pop\n      pop\n      jump\t// out\n        /* \"#utility.yul\":182:355   */\n    tag_198:\n        /* \"#utility.yul\":322:347   */\n      0x4d757374206d6f7265207468616e20302e303031657468000000000000000000\n        /* \"#utility.yul\":318:319   */\n      0x00\n        /* \"#utility.yul\":310:316   */\n      dup3\n        /* \"#utility.yul\":306:320   */\n      add\n        /* \"#utility.yul\":299:348   */\n      mstore\n        /* \"#utility.yul\":182:355   */\n      pop\n      jump\t// out\n        /* \"#utility.yul\":361:727   */\n    tag_199:\n        /* \"#utility.yul\":503:506   */\n      0x00\n        /* \"#utility.yul\":524:591   */\n      tag_226\n        /* \"#utility.yul\":588:590   */\n      0x17\n        /* \"#utility.yul\":583:586   */\n      dup4\n        /* \"#utility.yul\":524:591   */\n      tag_197\n      jump\t// in\n    tag_226:\n        /* \"#utility.yul\":517:591   */\n      swap2\n      pop\n        /* \"#utility.yul\":600:693   */\n      tag_227\n        /* \"#utility.yul\":689:692   */\n      dup3\n        /* \"#utility.yul\":600:693   */\n      tag_198\n      jump\t// in\n    tag_227:\n        /* \"#utility.yul\":718:720   */\n      0x20\n        /* \"#utility.yul\":713:716   */\n      dup3\n        /* \"#utility.yul\":709:721   */\n      add\n        /* \"#utility.yul\":702:721   */\n      swap1\n      pop\n        /* \"#utility.yul\":361:727   */\n      swap2\n      swap1\n      pop\n      jump\t// out\n        /* \"#utility.yul\":733:1152   */\n    tag_17:\n        /* \"#utility.yul\":899:903   */\n      0x00\n        /* \"#utility.yul\":937:939   */\n      0x20\n        /* \"#utility.yul\":926:935   */\n      dup3\n        /* \"#utility.yul\":922:940   */\n      add\n        /* \"#utility.yul\":914:940   */\n      swap1\n      pop\n        /* \"#utility.yul\":986:995   */\n      dup2\n        /* \"#utility.yul\":980:984   */\n      dup2\n        /* \"#utility.yul\":976:996   */\n      sub\n        /* \"#utility.yul\":972:973   */\n      0x00\n        /* \"#utility.yul\":961:970   */\n      dup4\n        /* \"#utility.yul\":957:974   */\n      add\n        /* \"#utility.yul\":950:997   */\n      mstore\n        /* \"#utility.yul\":1014:1145   */\n      tag_229\n        /* \"#utility.yul\":1140:1144   */\n      dup2\n        /* \"#utility.yul\":1014:1145   */\n      tag_199\n      jump\t// in\n    tag_229:\n        /* \"#utility.yul\":1006:1145   */\n      swap1\n      pop\n        /* \"#utility.yul\":733:1152   */\n      swap2\n      swap1\n      pop\n      jump\t// out\n        /* \"#utility.yul\":1158:1235   */\n    tag_200:\n        /* \"#utility.yul\":1195:1202   */\n      0x00\n        /* \"#utility.yul\":1224:1229   */\n      dup2\n        /* \"#utility.yul\":1213:1229   */\n      swap1\n      pop\n        /* \"#utility.yul\":1158:1235   */\n      swap2\n      swap1\n      pop\n      jump\t// out\n        /* \"#utility.yul\":1241:1359   */\n    tag_201:\n        /* \"#utility.yul\":1328:1352   */\n      tag_232\n        /* \"#utility.yul\":1346:1351   */\n      dup2\n        /* \"#utility.yul\":1328:1352   */\n      tag_200\n      jump\t// in\n    tag_232:\n        /* \"#utility.yul\":1323:1326   */\n      dup3\n        /* \"#utility.yul\":1316:1353   */\n      mstore\n        /* \"#utility.yul\":1241:1359   */\n      pop\n      pop\n      jump\t// out\n        /* \"#utility.yul\":1365:1587   */\n    tag_25:\n        /* \"#utility.yul\":1458:1462   */\n      0x00\n        /* \"#utility.yul\":1496:1498   */\n      0x20\n        /* \"#utility.yul\":1485:1494   */\n      dup3\n        /* \"#utility.yul\":1481:1499   */\n      add\n        /* \"#utility.yul\":1473:1499   */\n      swap1\n      pop\n        /* \"#utility.yul\":1509:1580   */\n      tag_234\n        /* \"#utility.yul\":1577:1578   */\n      0x00\n        /* \"#utility.yul\":1566:1575   */\n      dup4\n        /* \"#utility.yul\":1562:1579   */\n      add\n        /* \"#utility.yul\":1553:1559   */\n      dup5\n        /* \"#utility.yul\":1509:1580   */\n      tag_201\n      jump\t// in\n    tag_234:\n        /* \"#utility.yul\":1365:1587   */\n      swap3\n      swap2\n      pop\n      pop\n      jump\t// out\n        /* \"#utility.yul\":1593:1697   */\n    tag_202:\n        /* \"#utility.yul\":1658:1664   */\n      0x00\n        /* \"#utility.yul\":1686:1690   */\n      0x03\n        /* \"#utility.yul\":1676:1690   */\n      swap1\n      pop\n        /* \"#utility.yul\":1593:1697   */\n      swap2\n      swap1\n      pop\n      jump\t// out\n        /* \"#utility.yul\":1703:1846   */\n    tag_203:\n        /* \"#utility.yul\":1800:1811   */\n      0x00\n        /* \"#utility.yul\":1837:1840   */\n      dup2\n        /* \"#utility.yul\":1822:1840   */\n      swap1\n      pop\n        /* \"#utility.yul\":1703:1846   */\n      swap3\n      swap2\n      pop\n      pop\n      jump\t// out\n        /* \"#utility.yul\":1852:1950   */\n    tag_204:\n        /* \"#utility.yul\":1917:1921   */\n      0x00\n        /* \"#utility.yul\":1940:1943   */\n      dup2\n        /* \"#utility.yul\":1932:1943   */\n      swap1\n      pop\n        /* \"#utility.yul\":1852:1950   */\n      swap2\n      swap1\n      pop\n      jump\t// out\n        /* \"#utility.yul\":1956:2082   */\n    tag_205:\n        /* \"#utility.yul\":1993:2000   */\n      0x00\n        /* \"#utility.yul\":2033:2075   */\n      0xffffffffffffffffffffffffffffffffffffffff\n        /* \"#utility.yul\":2026:2031   */\n      dup3\n        /* \"#utility.yul\":2022:2076   */\n      and\n        /* \"#utility.yul\":2011:2076   */\n      swap1\n      pop\n        /* \"#utility.yul\":1956:2082   */\n      swap2\n      swap1\n      pop\n      jump\t// out\n        /* \"#utility.yul\":2088:2184   */\n    tag_206:\n        /* \"#utility.yul\":2125:2132   */\n      0x00\n        /* \"#utility.yul\":2154:2178   */\n      tag_240\n        /* \"#utility.yul\":2172:2177   */\n      dup3\n        /* \"#utility.yul\":2154:2178   */\n      tag_205\n      jump\t// in\n    tag_240:\n        /* \"#utility.yul\":2143:2178   */\n      swap1\n      pop\n        /* \"#utility.yul\":2088:2184   */\n      swap2\n      swap1\n      pop\n      jump\t// out\n        /* \"#utility.yul\":2190:2298   */\n    tag_207:\n        /* \"#utility.yul\":2267:2291   */\n      tag_242\n        /* \"#utility.yul\":2285:2290   */\n      dup2\n        /* \"#utility.yul\":2267:2291   */\n      tag_206\n      jump\t// in\n    tag_242:\n        /* \"#utility.yul\":2262:2265   */\n      dup3\n        /* \"#utility.yul\":2255:2292   */\n      mstore\n        /* \"#utility.yul\":2190:2298   */\n      pop\n      pop\n      jump\t// out\n        /* \"#utility.yul\":2304:2483   */\n    tag_208:\n        /* \"#utility.yul\":2373:2383   */\n      0x00\n        /* \"#utility.yul\":2394:2440   */\n      tag_244\n        /* \"#utility.yul\":2436:2439   */\n      dup4\n        /* \"#utility.yul\":2428:2434   */\n      dup4\n        /* \"#utility.yul\":2394:2440   */\n      tag_207\n      jump\t// in\n    tag_244:\n        /* \"#utility.yul\":2472:2476   */\n      0x20\n        /* \"#utility.yul\":2467:2470   */\n      dup4\n        /* \"#utility.yul\":2463:2477   */\n      add\n        /* \"#utility.yul\":2449:2477   */\n      swap1\n      pop\n        /* \"#utility.yul\":2304:2483   */\n      swap3\n      swap2\n      pop\n      pop\n      jump\t// out\n        /* \"#utility.yul\":2489:2600   */\n    tag_209:\n        /* \"#utility.yul\":2557:2561   */\n      0x00\n        /* \"#utility.yul\":2589:2593   */\n      0x20\n        /* \"#utility.yul\":2584:2587   */\n      dup3\n        /* \"#utility.yul\":2580:2594   */\n      add\n        /* \"#utility.yul\":2572:2594   */\n      swap1\n      pop\n        /* \"#utility.yul\":2489:2600   */\n      swap2\n      swap1\n      pop\n      jump\t// out\n        /* \"#utility.yul\":2638:3332   */\n    tag_210:\n        /* \"#utility.yul\":2774:2826   */\n      tag_247\n        /* \"#utility.yul\":2820:2825   */\n      dup2\n        /* \"#utility.yul\":2774:2826   */\n      tag_202\n      jump\t// in\n    tag_247:\n        /* \"#utility.yul\":2842:2926   */\n      tag_248\n        /* \"#utility.yul\":2919:2925   */\n      dup2\n        /* \"#utility.yul\":2914:2917   */\n      dup5\n        /* \"#utility.yul\":2842:2926   */\n      tag_203\n      jump\t// in\n    tag_248:\n        /* \"#utility.yul\":2835:2926   */\n      swap3\n      pop\n        /* \"#utility.yul\":2950:3004   */\n      tag_249\n        /* \"#utility.yul\":2998:3003   */\n      dup3\n        /* \"#utility.yul\":2950:3004   */\n      tag_204\n      jump\t// in\n    tag_249:\n        /* \"#utility.yul\":3027:3034   */\n      dup1\n        /* \"#utility.yul\":3058:3059   */\n      0x00\n        /* \"#utility.yul\":3043:3325   */\n    tag_250:\n        /* \"#utility.yul\":3068:3074   */\n      dup4\n        /* \"#utility.yul\":3065:3066   */\n      dup2\n        /* \"#utility.yul\":3062:3075   */\n      lt\n        /* \"#utility.yul\":3043:3325   */\n      iszero\n      tag_252\n      jumpi\n        /* \"#utility.yul\":3144:3150   */\n      dup2\n        /* \"#utility.yul\":3138:3151   */\n      mload\n        /* \"#utility.yul\":3171:3234   */\n      tag_253\n        /* \"#utility.yul\":3230:3233   */\n      dup8\n        /* \"#utility.yul\":3215:3228   */\n      dup3\n        /* \"#utility.yul\":3171:3234   */\n      tag_208\n      jump\t// in\n    tag_253:\n        /* \"#utility.yul\":3164:3234   */\n      swap7\n      pop\n        /* \"#utility.yul\":3257:3315   */\n      tag_254\n        /* \"#utility.yul\":3308:3314   */\n      dup4\n        /* \"#utility.yul\":3257:3315   */\n      tag_209\n      jump\t// in\n    tag_254:\n        /* \"#utility.yul\":3247:3315   */\n      swap3\n      pop\n        /* \"#utility.yul\":3103:3325   */\n      pop\n        /* \"#utility.yul\":3090:3091   */\n      0x01\n        /* \"#utility.yul\":3087:3088   */\n      dup2\n        /* \"#utility.yul\":3083:3092   */\n      add\n        /* \"#utility.yul\":3078:3092   */\n      swap1\n      pop\n        /* \"#utility.yul\":3043:3325   */\n      jump(tag_250)\n    tag_252:\n        /* \"#utility.yul\":3047:3061   */\n      pop\n        /* \"#utility.yul\":2750:3332   */\n      pop\n      pop\n      pop\n        /* \"#utility.yul\":2638:3332   */\n      pop\n      pop\n      jump\t// out\n        /* \"#utility.yul\":3338:3652   */\n    tag_30:\n        /* \"#utility.yul\":3477:3481   */\n      0x00\n        /* \"#utility.yul\":3515:3517   */\n      0x60\n        /* \"#utility.yul\":3504:3513   */\n      dup3\n        /* \"#utility.yul\":3500:3518   */\n      add\n        /* \"#utility.yul\":3492:3518   */\n      swap1\n      pop\n        /* \"#utility.yul\":3528:3645   */\n      tag_256\n        /* \"#utility.yul\":3642:3643   */\n      0x00\n        /* \"#utility.yul\":3631:3640   */\n      dup4\n        /* \"#utility.yul\":3627:3644   */\n      add\n        /* \"#utility.yul\":3618:3624   */\n      dup5\n        /* \"#utility.yul\":3528:3645   */\n      tag_210\n      jump\t// in\n    tag_256:\n        /* \"#utility.yul\":3338:3652   */\n      swap3\n      swap2\n      pop\n      pop\n      jump\t// out\n        /* \"#utility.yul\":3739:3856   */\n    tag_212:\n        /* \"#utility.yul\":3848:3849   */\n      0x00\n        /* \"#utility.yul\":3845:3846   */\n      dup1\n        /* \"#utility.yul\":3838:3850   */\n      revert\n        /* \"#utility.yul\":3985:4107   */\n    tag_214:\n        /* \"#utility.yul\":4058:4082   */\n      tag_261\n        /* \"#utility.yul\":4076:4081   */\n      dup2\n        /* \"#utility.yul\":4058:4082   */\n      tag_200\n      jump\t// in\n    tag_261:\n        /* \"#utility.yul\":4051:4056   */\n      dup2\n        /* \"#utility.yul\":4048:4083   */\n      eq\n        /* \"#utility.yul\":4038:4101   */\n      tag_262\n      jumpi\n        /* \"#utility.yul\":4097:4098   */\n      0x00\n        /* \"#utility.yul\":4094:4095   */\n      dup1\n        /* \"#utility.yul\":4087:4099   */\n      revert\n        /* \"#utility.yul\":4038:4101   */\n    tag_262:\n        /* \"#utility.yul\":3985:4107   */\n      pop\n      jump\t// out\n        /* \"#utility.yul\":4113:4252   */\n    tag_215:\n        /* \"#utility.yul\":4159:4164   */\n      0x00\n        /* \"#utility.yul\":4197:4203   */\n      dup2\n        /* \"#utility.yul\":4184:4204   */\n      calldataload\n        /* \"#utility.yul\":4175:4204   */\n      swap1\n      pop\n        /* \"#utility.yul\":4213:4246   */\n      tag_264\n        /* \"#utility.yul\":4240:4245   */\n      dup2\n        /* \"#utility.yul\":4213:4246   */\n      tag_214\n      jump\t// in\n    tag_264:\n        /* \"#utility.yul\":4113:4252   */\n      swap3\n      swap2\n      pop\n      pop\n      jump\t// out\n        /* \"#utility.yul\":4258:4587   */\n    tag_37:\n        /* \"#utility.yul\":4317:4323   */\n      0x00\n        /* \"#utility.yul\":4366:4368   */\n      0x20\n        /* \"#utility.yul\":4354:4363   */\n      dup3\n        /* \"#utility.yul\":4345:4352   */\n      dup5\n        /* \"#utility.yul\":4341:4364   */\n      sub\n        /* \"#utility.yul\":4337:4369   */\n      slt\n        /* \"#utility.yul\":4334:4453   */\n      iszero\n      tag_266\n      jumpi\n        /* \"#utility.yul\":4372:4451   */\n      tag_267\n      tag_212\n      jump\t// in\n    tag_267:\n        /* \"#utility.yul\":4334:4453   */\n    tag_266:\n        /* \"#utility.yul\":4492:4493   */\n      0x00\n        /* \"#utility.yul\":4517:4570   */\n      tag_268\n        /* \"#utility.yul\":4562:4569   */\n      dup5\n        /* \"#utility.yul\":4553:4559   */\n      dup3\n        /* \"#utility.yul\":4542:4551   */\n      dup6\n        /* \"#utility.yul\":4538:4560   */\n      add\n        /* \"#utility.yul\":4517:4570   */\n      tag_215\n      jump\t// in\n    tag_268:\n        /* \"#utility.yul\":4507:4570   */\n      swap2\n      pop\n        /* \"#utility.yul\":4463:4580   */\n      pop\n        /* \"#utility.yul\":4258:4587   */\n      swap3\n      swap2\n      pop\n      pop\n      jump\t// out\n        /* \"#utility.yul\":4593:4711   */\n    tag_216:\n        /* \"#utility.yul\":4680:4704   */\n      tag_270\n        /* \"#utility.yul\":4698:4703   */\n      dup2\n        /* \"#utility.yul\":4680:4704   */\n      tag_206\n      jump\t// in\n    tag_270:\n        /* \"#utility.yul\":4675:4678   */\n      dup3\n        /* \"#utility.yul\":4668:4705   */\n      mstore\n        /* \"#utility.yul\":4593:4711   */\n      pop\n      pop\n      jump\t// out\n        /* \"#utility.yul\":4717:4939   */\n    tag_40:\n        /* \"#utility.yul\":4810:4814   */\n      0x00\n        /* \"#utility.yul\":4848:4850   */\n      0x20\n        /* \"#utility.yul\":4837:4846   */\n      dup3\n        /* \"#utility.yul\":4833:4851   */\n      add\n        /* \"#utility.yul\":4825:4851   */\n      swap1\n      pop\n        /* \"#utility.yul\":4861:4932   */\n      tag_272\n        /* \"#utility.yul\":4929:4930   */\n      0x00\n        /* \"#utility.yul\":4918:4927   */\n      dup4\n        /* \"#utility.yul\":4914:4931   */\n      add\n        /* \"#utility.yul\":4905:4911   */\n      dup5\n        /* \"#utility.yul\":4861:4932   */\n      tag_216\n      jump\t// in\n    tag_272:\n        /* \"#utility.yul\":4717:4939   */\n      swap3\n      swap2\n      pop\n      pop\n      jump\t// out\n        /* \"#utility.yul\":4945:5067   */\n    tag_217:\n        /* \"#utility.yul\":5018:5042   */\n      tag_274\n        /* \"#utility.yul\":5036:5041   */\n      dup2\n        /* \"#utility.yul\":5018:5042   */\n      tag_206\n      jump\t// in\n    tag_274:\n        /* \"#utility.yul\":5011:5016   */\n      dup2\n        /* \"#utility.yul\":5008:5043   */\n      eq\n        /* \"#utility.yul\":4998:5061   */\n      tag_275\n      jumpi\n        /* \"#utility.yul\":5057:5058   */\n      0x00\n        /* \"#utility.yul\":5054:5055   */\n      dup1\n        /* \"#utility.yul\":5047:5059   */\n      revert\n        /* \"#utility.yul\":4998:5061   */\n    tag_275:\n        /* \"#utility.yul\":4945:5067   */\n      pop\n      jump\t// out\n        /* \"#utility.yul\":5073:5212   */\n    tag_218:\n        /* \"#utility.yul\":5119:5124   */\n      0x00\n        /* \"#utility.yul\":5157:5163   */\n      dup2\n        /* \"#utility.yul\":5144:5164   */\n      calldataload\n        /* \"#utility.yul\":5135:5164   */\n      swap1\n      pop\n        /* \"#utility.yul\":5173:5206   */\n      tag_277\n        /* \"#utility.yul\":5200:5205   */\n      dup2\n        /* \"#utility.yul\":5173:5206   */\n      tag_217\n      jump\t// in\n    tag_277:\n        /* \"#utility.yul\":5073:5212   */\n      swap3\n      swap2\n      pop\n      pop\n      jump\t// out\n        /* \"#utility.yul\":5218:5547   */\n    tag_54:\n        /* \"#utility.yul\":5277:5283   */\n      0x00\n        /* \"#utility.yul\":5326:5328   */\n      0x20\n        /* \"#utility.yul\":5314:5323   */\n      dup3\n        /* \"#utility.yul\":5305:5312   */\n      dup5\n        /* \"#utility.yul\":5301:5324   */\n      sub\n        /* \"#utility.yul\":5297:5329   */\n      slt\n        /* \"#utility.yul\":5294:5413   */\n      iszero\n      tag_279\n      jumpi\n        /* \"#utility.yul\":5332:5411   */\n      tag_280\n      tag_212\n      jump\t// in\n    tag_280:\n        /* \"#utility.yul\":5294:5413   */\n    tag_279:\n        /* \"#utility.yul\":5452:5453   */\n      0x00\n        /* \"#utility.yul\":5477:5530   */\n      tag_281\n        /* \"#utility.yul\":5522:5529   */\n      dup5\n        /* \"#utility.yul\":5513:5519   */\n      dup3\n        /* \"#utility.yul\":5502:5511   */\n      dup6\n        /* \"#utility.yul\":5498:5520   */\n      add\n        /* \"#utility.yul\":5477:5530   */\n      tag_218\n      jump\t// in\n    tag_281:\n        /* \"#utility.yul\":5467:5530   */\n      swap2\n      pop\n        /* \"#utility.yul\":5423:5540   */\n      pop\n        /* \"#utility.yul\":5218:5547   */\n      swap3\n      swap2\n      pop\n      pop\n      jump\t// out\n        /* \"#utility.yul\":5553:5733   */\n    tag_219:\n        /* \"#utility.yul\":5601:5678   */\n      0x4e487b7100000000000000000000000000000000000000000000000000000000\n        /* \"#utility.yul\":5598:5599   */\n      0x00\n        /* \"#utility.yul\":5591:5679   */\n      mstore\n        /* \"#utility.yul\":5698:5702   */\n      0x11\n        /* \"#utility.yul\":5695:5696   */\n      0x04\n        /* \"#utility.yul\":5688:5703   */\n      mstore\n        /* \"#utility.yul\":5722:5726   */\n      0x24\n        /* \"#utility.yul\":5719:5720   */\n      0x00\n        /* \"#utility.yul\":5712:5727   */\n      revert\n        /* \"#utility.yul\":5739:5930   */\n    tag_65:\n        /* \"#utility.yul\":5779:5782   */\n      0x00\n        /* \"#utility.yul\":5798:5818   */\n      tag_284\n        /* \"#utility.yul\":5816:5817   */\n      dup3\n        /* \"#utility.yul\":5798:5818   */\n      tag_200\n      jump\t// in\n    tag_284:\n        /* \"#utility.yul\":5793:5818   */\n      swap2\n      pop\n        /* \"#utility.yul\":5832:5852   */\n      tag_285\n        /* \"#utility.yul\":5850:5851   */\n      dup4\n        /* \"#utility.yul\":5832:5852   */\n      tag_200\n      jump\t// in\n    tag_285:\n        /* \"#utility.yul\":5827:5852   */\n      swap3\n      pop\n        /* \"#utility.yul\":5875:5876   */\n      dup3\n        /* \"#utility.yul\":5872:5873   */\n      dup3\n        /* \"#utility.yul\":5868:5877   */\n      add\n        /* \"#utility.yul\":5861:5877   */\n      swap1\n      pop\n        /* \"#utility.yul\":5896:5899   */\n      dup1\n        /* \"#utility.yul\":5893:5894   */\n      dup3\n        /* \"#utility.yul\":5890:5900   */\n      gt\n        /* \"#utility.yul\":5887:5923   */\n      iszero\n      tag_286\n      jumpi\n        /* \"#utility.yul\":5903:5921   */\n      tag_287\n      tag_219\n      jump\t// in\n    tag_287:\n        /* \"#utility.yul\":5887:5923   */\n    tag_286:\n        /* \"#utility.yul\":5739:5930   */\n      swap3\n      swap2\n      pop\n      pop\n      jump\t// out\n        /* \"#utility.yul\":5936:6095   */\n    tag_220:\n        /* \"#utility.yul\":6076:6087   */\n      0x6e6f74206f776e65720000000000000000000000000000000000000000000000\n        /* \"#utility.yul\":6072:6073   */\n      0x00\n        /* \"#utility.yul\":6064:6070   */\n      dup3\n        /* \"#utility.yul\":6060:6074   */\n      add\n        /* \"#utility.yul\":6053:6088   */\n      mstore\n        /* \"#utility.yul\":5936:6095   */\n      pop\n      jump\t// out\n        /* \"#utility.yul\":6101:6466   */\n    tag_221:\n        /* \"#utility.yul\":6243:6246   */\n      0x00\n        /* \"#utility.yul\":6264:6330   */\n      tag_290\n        /* \"#utility.yul\":6328:6329   */\n      0x09\n        /* \"#utility.yul\":6323:6326   */\n      dup4\n        /* \"#utility.yul\":6264:6330   */\n      tag_197\n      jump\t// in\n    tag_290:\n        /* \"#utility.yul\":6257:6330   */\n      swap2\n      pop\n        /* \"#utility.yul\":6339:6432   */\n      tag_291\n        /* \"#utility.yul\":6428:6431   */\n      dup3\n        /* \"#utility.yul\":6339:6432   */\n      tag_220\n      jump\t// in\n    tag_291:\n        /* \"#utility.yul\":6457:6459   */\n      0x20\n        /* \"#utility.yul\":6452:6455   */\n      dup3\n        /* \"#utility.yul\":6448:6460   */\n      add\n        /* \"#utility.yul\":6441:6460   */\n      swap1\n      pop\n        /* \"#utility.yul\":6101:6466   */\n      swap2\n      swap1\n      pop\n      jump\t// out\n        /* \"#utility.yul\":6472:6891   */\n    tag_77:\n        /* \"#utility.yul\":6638:6642   */\n      0x00\n        /* \"#utility.yul\":6676:6678   */\n      0x20\n        /* \"#utility.yul\":6665:6674   */\n      dup3\n        /* \"#utility.yul\":6661:6679   */\n      add\n        /* \"#utility.yul\":6653:6679   */\n      swap1\n      pop\n        /* \"#utility.yul\":6725:6734   */\n      dup2\n        /* \"#utility.yul\":6719:6723   */\n      dup2\n        /* \"#utility.yul\":6715:6735   */\n      sub\n        /* \"#utility.yul\":6711:6712   */\n      0x00\n        /* \"#utility.yul\":6700:6709   */\n      dup4\n        /* \"#utility.yul\":6696:6713   */\n      add\n        /* \"#utility.yul\":6689:6736   */\n      mstore\n        /* \"#utility.yul\":6753:6884   */\n      tag_293\n        /* \"#utility.yul\":6879:6883   */\n      dup2\n        /* \"#utility.yul\":6753:6884   */\n      tag_221\n      jump\t// in\n    tag_293:\n        /* \"#utility.yul\":6745:6884   */\n      swap1\n      pop\n        /* \"#utility.yul\":6472:6891   */\n      swap2\n      swap1\n      pop\n      jump\t// out\n        /* \"#utility.yul\":6897:7229   */\n    tag_80:\n        /* \"#utility.yul\":7018:7022   */\n      0x00\n        /* \"#utility.yul\":7056:7058   */\n      0x40\n        /* \"#utility.yul\":7045:7054   */\n      dup3\n        /* \"#utility.yul\":7041:7059   */\n      add\n        /* \"#utility.yul\":7033:7059   */\n      swap1\n      pop\n        /* \"#utility.yul\":7069:7140   */\n      tag_295\n        /* \"#utility.yul\":7137:7138   */\n      0x00\n        /* \"#utility.yul\":7126:7135   */\n      dup4\n        /* \"#utility.yul\":7122:7139   */\n      add\n        /* \"#utility.yul\":7113:7119   */\n      dup6\n        /* \"#utility.yul\":7069:7140   */\n      tag_216\n      jump\t// in\n    tag_295:\n        /* \"#utility.yul\":7150:7222   */\n      tag_296\n        /* \"#utility.yul\":7218:7220   */\n      0x20\n        /* \"#utility.yul\":7207:7216   */\n      dup4\n        /* \"#utility.yul\":7203:7221   */\n      add\n        /* \"#utility.yul\":7194:7200   */\n      dup5\n        /* \"#utility.yul\":7150:7222   */\n      tag_201\n      jump\t// in\n    tag_296:\n        /* \"#utility.yul\":6897:7229   */\n      swap4\n      swap3\n      pop\n      pop\n      pop\n      jump\t// out\n        /* \"#utility.yul\":7235:7415   */\n    tag_97:\n        /* \"#utility.yul\":7283:7360   */\n      0x4e487b7100000000000000000000000000000000000000000000000000000000\n        /* \"#utility.yul\":7280:7281   */\n      0x00\n        /* \"#utility.yul\":7273:7361   */\n      mstore\n        /* \"#utility.yul\":7380:7384   */\n      0x32\n        /* \"#utility.yul\":7377:7378   */\n      0x04\n        /* \"#utility.yul\":7370:7385   */\n      mstore\n        /* \"#utility.yul\":7404:7408   */\n      0x24\n        /* \"#utility.yul\":7401:7402   */\n      0x00\n        /* \"#utility.yul\":7394:7409   */\n      revert\n        /* \"#utility.yul\":7421:7654   */\n    tag_103:\n        /* \"#utility.yul\":7460:7463   */\n      0x00\n        /* \"#utility.yul\":7483:7507   */\n      tag_299\n        /* \"#utility.yul\":7501:7506   */\n      dup3\n        /* \"#utility.yul\":7483:7507   */\n      tag_200\n      jump\t// in\n    tag_299:\n        /* \"#utility.yul\":7474:7507   */\n      swap2\n      pop\n        /* \"#utility.yul\":7529:7595   */\n      0xffffffffffffffffffffffffffffffffffffffffffffffffffffffffffffffff\n        /* \"#utility.yul\":7522:7527   */\n      dup3\n        /* \"#utility.yul\":7519:7596   */\n      sub\n        /* \"#utility.yul\":7516:7619   */\n      tag_300\n      jumpi\n        /* \"#utility.yul\":7599:7617   */\n      tag_301\n      tag_219\n      jump\t// in\n    tag_301:\n        /* \"#utility.yul\":7516:7619   */\n    tag_300:\n        /* \"#utility.yul\":7646:7647   */\n      0x01\n        /* \"#utility.yul\":7639:7644   */\n      dup3\n        /* \"#utility.yul\":7635:7648   */\n      add\n        /* \"#utility.yul\":7628:7648   */\n      swap1\n      pop\n        /* \"#utility.yul\":7421:7654   */\n      swap2\n      swap1\n      pop\n      jump\t// out\n\n    auxdata: 0xa26469706673582212206a061cc12e0aeaa07731e5b072b01dbbe4b0c1756cce5e1aa7e845d43b68c1b964736f6c63430008140033\n}\n",
				"bytecode": {
					"linkReferences": {},
					"object": "608060405234801561000f575f80fd5b50335f806101000a81548173ffffffffffffffffffffffffffffffffffffffff021916908373ffffffffffffffffffffffffffffffffffffffff160217905550335f806101000a81548173ffffffffffffffffffffffffffffffffffffffff021916908373ffffffffffffffffffffffffffffffffffffffff16021790555061166e8061009b5f395ff3fe608060405260043610610089575f3560e01c80634f0f4bd3116100585780634f0f4bd31461018c5780638da5cb5b146101c85780638e708bca146101f2578063c89f8245146101fc578063f2fde38b14610238576100e2565b806328657aa5146100e65780632d1e2518146101105780633ccfd60b1461013a5780634abfa16314610150576100e2565b366100e25766038d7ea4c680003410156100d8576040517f08c379a00000000000000000000000000000000000000000000000000000000081526004016100cf906112c2565b60405180910390fd5b6100e0610260565b005b5f80fd5b3480156100f1575f80fd5b506100fa610363565b60405161010791906112f8565b60405180910390f35b34801561011b575f80fd5b5061012461036a565b60405161013191906113e6565b60405180910390f35b348015610145575f80fd5b5061014e6103e9565b005b34801561015b575f80fd5b506101766004803603810190610171919061142d565b610514565b6040516101839190611467565b60405180910390f35b348015610197575f80fd5b506101b260048036038101906101ad919061142d565b61054f565b6040516101bf9190611467565b60405180910390f35b3480156101d3575f80fd5b506101dc610583565b6040516101e99190611467565b60405180910390f35b6101fa610260565b005b348015610207575f80fd5b50610222600480360381019061021d91906114aa565b6105a6565b60405161022f91906112f8565b60405180910390f35b348015610243575f80fd5b5061025e600480360381019061025991906114aa565b6105bb565b005b5f60025f3373ffffffffffffffffffffffffffffffffffffffff1673ffffffffffffffffffffffffffffffffffffffff1681526020019081526020015f20540361030557600133908060018154018082558091505060019003905f5260205f20015f9091909190916101000a81548173ffffffffffffffffffffffffffffffffffffffff021916908373ffffffffffffffffffffffffffffffffffffffff1602179055505b3460025f3373ffffffffffffffffffffffffffffffffffffffff1673ffffffffffffffffffffffffffffffffffffffff1681526020019081526020015f205f8282546103519190611502565b925050819055506103613361068a565b565b5f47905090565b610372611246565b600380806020026040519081016040528092919082600380156103df576020028201915b815f9054906101000a900473ffffffffffffffffffffffffffffffffffffffff1673ffffffffffffffffffffffffffffffffffffffff1681526020019060010190808311610396575b5050505050905090565b5f8054906101000a900473ffffffffffffffffffffffffffffffffffffffff1673ffffffffffffffffffffffffffffffffffffffff163373ffffffffffffffffffffffffffffffffffffffff1614610476576040517f08c379a000000000000000000000000000000000000000000000000000000000815260040161046d9061157f565b60405180910390fd5b7f6cca423c6ffc06e62a0acc433965e074b11c28479b0449250ce3ff65ac9e39fe33476040516104a792919061159d565b60405180910390a15f8054906101000a900473ffffffffffffffffffffffffffffffffffffffff1673ffffffffffffffffffffffffffffffffffffffff166108fc4790811502906040515f60405180830381858888f19350505050158015610511573d5f803e3d5ffd5b50565b60018181548110610523575f80fd5b905f5260205f20015f915054906101000a900473ffffffffffffffffffffffffffffffffffffffff1681565b6003816003811061055e575f80fd5b015f915054906101000a900473ffffffffffffffffffffffffffffffffffffffff1681565b5f8054906101000a900473ffffffffffffffffffffffffffffffffffffffff1681565b6002602052805f5260405f205f915090505481565b5f8054906101000a900473ffffffffffffffffffffffffffffffffffffffff1673ffffffffffffffffffffffffffffffffffffffff163373ffffffffffffffffffffffffffffffffffffffff1614610648576040517f08c379a000000000000000000000000000000000000000000000000000000000815260040161063f9061157f565b60405180910390fd5b805f806101000a81548173ffffffffffffffffffffffffffffffffffffffff021916908373ffffffffffffffffffffffffffffffffffffffff16021790555050565b5f5b600381101561071f57600381600381106106a9576106a86115c4565b5b015f9054906101000a900473ffffffffffffffffffffffffffffffffffffffff1673ffffffffffffffffffffffffffffffffffffffff168273ffffffffffffffffffffffffffffffffffffffff160361070c576107068183610c0f565b50610c0c565b8080610717906115f1565b91505061068c565b505f73ffffffffffffffffffffffffffffffffffffffff1660035f6003811061074b5761074a6115c4565b5b015f9054906101000a900473ffffffffffffffffffffffffffffffffffffffff1673ffffffffffffffffffffffffffffffffffffffff1614806107ee57505f73ffffffffffffffffffffffffffffffffffffffff1660036001600381106107b5576107b46115c4565b5b015f9054906101000a900473ffffffffffffffffffffffffffffffffffffffff1673ffffffffffffffffffffffffffffffffffffffff16145b8061085957505f73ffffffffffffffffffffffffffffffffffffffff1660036002600381106108205761081f6115c4565b5b015f9054906101000a900473ffffffffffffffffffffffffffffffffffffffff1673ffffffffffffffffffffffffffffffffffffffff16145b80610911575060025f60035f60038110610876576108756115c4565b5b015f9054906101000a900473ffffffffffffffffffffffffffffffffffffffff1673ffffffffffffffffffffffffffffffffffffffff1673ffffffffffffffffffffffffffffffffffffffff1681526020019081526020015f205460025f8373ffffffffffffffffffffffffffffffffffffffff1673ffffffffffffffffffffffffffffffffffffffff1681526020019081526020015f2054115b806109ca575060025f600360016003811061092f5761092e6115c4565b5b015f9054906101000a900473ffffffffffffffffffffffffffffffffffffffff1673ffffffffffffffffffffffffffffffffffffffff1673ffffffffffffffffffffffffffffffffffffffff1681526020019081526020015f205460025f8373ffffffffffffffffffffffffffffffffffffffff1673ffffffffffffffffffffffffffffffffffffffff1681526020019081526020015f2054115b80610a83575060025f60036002600381106109e8576109e76115c4565b5b015f9054906101000a900473ffffffffffffffffffffffffffffffffffffffff1673ffffffffffffffffffffffffffffffffffffffff1673ffffffffffffffffffffffffffffffffffffffff1681526020019081526020015f205460025f8373ffffffffffffffffffffffffffffffffffffffff1673ffffffffffffffffffffffffffffffffffffffff1681526020019081526020015f2054115b15610c0b575f73ffffffffffffffffffffffffffffffffffffffff166003600260038110610ab457610ab36115c4565b5b015f9054906101000a900473ffffffffffffffffffffffffffffffffffffffff1673ffffffffffffffffffffffffffffffffffffffff161480610ba5575060025f6003600260038110610b0a57610b096115c4565b5b015f9054906101000a900473ffffffffffffffffffffffffffffffffffffffff1673ffffffffffffffffffffffffffffffffffffffff1673ffffffffffffffffffffffffffffffffffffffff1681526020019081526020015f205460025f8373ffffffffffffffffffffffffffffffffffffffff1673ffffffffffffffffffffffffffffffffffffffff1681526020019081526020015f2054115b15610bff57806003600260038110610bc057610bbf6115c4565b5b015f6101000a81548173ffffffffffffffffffffffffffffffffffffffff021916908373ffffffffffffffffffffffffffffffffffffffff1602179055505b610c0a600282610c0f565b5b5b50565b5f82031561124257600182148015610cd4575060025f60035f60038110610c3957610c386115c4565b5b015f9054906101000a900473ffffffffffffffffffffffffffffffffffffffff1673ffffffffffffffffffffffffffffffffffffffff1673ffffffffffffffffffffffffffffffffffffffff1681526020019081526020015f205460025f8373ffffffffffffffffffffffffffffffffffffffff1673ffffffffffffffffffffffffffffffffffffffff1681526020019081526020015f2054115b15610db95760035f60038110610ced57610cec6115c4565b5b015f9054906101000a900473ffffffffffffffffffffffffffffffffffffffff166003600160038110610d2357610d226115c4565b5b015f6101000a81548173ffffffffffffffffffffffffffffffffffffffff021916908373ffffffffffffffffffffffffffffffffffffffff1602179055508060035f60038110610d7657610d756115c4565b5b015f6101000a81548173ffffffffffffffffffffffffffffffffffffffff021916908373ffffffffffffffffffffffffffffffffffffffff160217905550611241565b600282148015610e77575060025f6003600160038110610ddc57610ddb6115c4565b5b015f9054906101000a900473ffffffffffffffffffffffffffffffffffffffff1673ffffffffffffffffffffffffffffffffffffffff1673ffffffffffffffffffffffffffffffffffffffff1681526020019081526020015f205460025f8373ffffffffffffffffffffffffffffffffffffffff1673ffffffffffffffffffffffffffffffffffffffff1681526020019081526020015f2054115b8015610f31575060025f60035f60038110610e9557610e946115c4565b5b015f9054906101000a900473ffffffffffffffffffffffffffffffffffffffff1673ffffffffffffffffffffffffffffffffffffffff1673ffffffffffffffffffffffffffffffffffffffff1681526020019081526020015f205460025f8373ffffffffffffffffffffffffffffffffffffffff1673ffffffffffffffffffffffffffffffffffffffff1681526020019081526020015f205411155b15611018576003600160038110610f4b57610f4a6115c4565b5b015f9054906101000a900473ffffffffffffffffffffffffffffffffffffffff166003600260038110610f8157610f806115c4565b5b015f6101000a81548173ffffffffffffffffffffffffffffffffffffffff021916908373ffffffffffffffffffffffffffffffffffffffff160217905550806003600160038110610fd557610fd46115c4565b5b015f6101000a81548173ffffffffffffffffffffffffffffffffffffffff021916908373ffffffffffffffffffffffffffffffffffffffff160217905550611240565b6002821480156110d5575060025f60035f6003811061103a576110396115c4565b5b015f9054906101000a900473ffffffffffffffffffffffffffffffffffffffff1673ffffffffffffffffffffffffffffffffffffffff1673ffffffffffffffffffffffffffffffffffffffff1681526020019081526020015f205460025f8373ffffffffffffffffffffffffffffffffffffffff1673ffffffffffffffffffffffffffffffffffffffff1681526020019081526020015f2054115b1561123f5760036001600381106110ef576110ee6115c4565b5b015f9054906101000a900473ffffffffffffffffffffffffffffffffffffffff166003600260038110611125576111246115c4565b5b015f6101000a81548173ffffffffffffffffffffffffffffffffffffffff021916908373ffffffffffffffffffffffffffffffffffffffff16021790555060035f60038110611177576111766115c4565b5b015f9054906101000a900473ffffffffffffffffffffffffffffffffffffffff1660036001600381106111ad576111ac6115c4565b5b015f6101000a81548173ffffffffffffffffffffffffffffffffffffffff021916908373ffffffffffffffffffffffffffffffffffffffff1602179055508060035f60038110611200576111ff6115c4565b5b015f6101000a81548173ffffffffffffffffffffffffffffffffffffffff021916908373ffffffffffffffffffffffffffffffffffffffff1602179055505b5b5b5b5050565b6040518060600160405280600390602082028036833780820191505090505090565b5f82825260208201905092915050565b7f4d757374206d6f7265207468616e20302e3030316574680000000000000000005f82015250565b5f6112ac601783611268565b91506112b782611278565b602082019050919050565b5f6020820190508181035f8301526112d9816112a0565b9050919050565b5f819050919050565b6112f2816112e0565b82525050565b5f60208201905061130b5f8301846112e9565b92915050565b5f60039050919050565b5f81905092915050565b5f819050919050565b5f73ffffffffffffffffffffffffffffffffffffffff82169050919050565b5f6113578261132e565b9050919050565b6113678161134d565b82525050565b5f611378838361135e565b60208301905092915050565b5f602082019050919050565b61139981611311565b6113a3818461131b565b92506113ae82611325565b805f5b838110156113de5781516113c5878261136d565b96506113d083611384565b9250506001810190506113b1565b505050505050565b5f6060820190506113f95f830184611390565b92915050565b5f80fd5b61140c816112e0565b8114611416575f80fd5b50565b5f8135905061142781611403565b92915050565b5f60208284031215611442576114416113ff565b5b5f61144f84828501611419565b91505092915050565b6114618161134d565b82525050565b5f60208201905061147a5f830184611458565b92915050565b6114898161134d565b8114611493575f80fd5b50565b5f813590506114a481611480565b92915050565b5f602082840312156114bf576114be6113ff565b5b5f6114cc84828501611496565b91505092915050565b7f4e487b71000000000000000000000000000000000000000000000000000000005f52601160045260245ffd5b5f61150c826112e0565b9150611517836112e0565b925082820190508082111561152f5761152e6114d5565b5b92915050565b7f6e6f74206f776e657200000000000000000000000000000000000000000000005f82015250565b5f611569600983611268565b915061157482611535565b602082019050919050565b5f6020820190508181035f8301526115968161155d565b9050919050565b5f6040820190506115b05f830185611458565b6115bd60208301846112e9565b9392505050565b7f4e487b71000000000000000000000000000000000000000000000000000000005f52603260045260245ffd5b5f6115fb826112e0565b91507fffffffffffffffffffffffffffffffffffffffffffffffffffffffffffffffff820361162d5761162c6114d5565b5b60018201905091905056fea26469706673582212206a061cc12e0aeaa07731e5b072b01dbbe4b0c1756cce5e1aa7e845d43b68c1b964736f6c63430008140033",
					"opcodes": "PUSH1 0x80 PUSH1 0x40 MSTORE CALLVALUE DUP1 ISZERO PUSH2 0xF JUMPI PUSH0 DUP1 REVERT JUMPDEST POP CALLER PUSH0 DUP1 PUSH2 0x100 EXP DUP2 SLOAD DUP2 PUSH20 0xFFFFFFFFFFFFFFFFFFFFFFFFFFFFFFFFFFFFFFFF MUL NOT AND SWAP1 DUP4 PUSH20 0xFFFFFFFFFFFFFFFFFFFFFFFFFFFFFFFFFFFFFFFF AND MUL OR SWAP1 SSTORE POP CALLER PUSH0 DUP1 PUSH2 0x100 EXP DUP2 SLOAD DUP2 PUSH20 0xFFFFFFFFFFFFFFFFFFFFFFFFFFFFFFFFFFFFFFFF MUL NOT AND SWAP1 DUP4 PUSH20 0xFFFFFFFFFFFFFFFFFFFFFFFFFFFFFFFFFFFFFFFF AND MUL OR SWAP1 SSTORE POP PUSH2 0x166E DUP1 PUSH2 0x9B PUSH0 CODECOPY PUSH0 RETURN INVALID PUSH1 0x80 PUSH1 0x40 MSTORE PUSH1 0x4 CALLDATASIZE LT PUSH2 0x89 JUMPI PUSH0 CALLDATALOAD PUSH1 0xE0 SHR DUP1 PUSH4 0x4F0F4BD3 GT PUSH2 0x58 JUMPI DUP1 PUSH4 0x4F0F4BD3 EQ PUSH2 0x18C JUMPI DUP1 PUSH4 0x8DA5CB5B EQ PUSH2 0x1C8 JUMPI DUP1 PUSH4 0x8E708BCA EQ PUSH2 0x1F2 JUMPI DUP1 PUSH4 0xC89F8245 EQ PUSH2 0x1FC JUMPI DUP1 PUSH4 0xF2FDE38B EQ PUSH2 0x238 JUMPI PUSH2 0xE2 JUMP JUMPDEST DUP1 PUSH4 0x28657AA5 EQ PUSH2 0xE6 JUMPI DUP1 PUSH4 0x2D1E2518 EQ PUSH2 0x110 JUMPI DUP1 PUSH4 0x3CCFD60B EQ PUSH2 0x13A JUMPI DUP1 PUSH4 0x4ABFA163 EQ PUSH2 0x150 JUMPI PUSH2 0xE2 JUMP JUMPDEST CALLDATASIZE PUSH2 0xE2 JUMPI PUSH7 0x38D7EA4C68000 CALLVALUE LT ISZERO PUSH2 0xD8 JUMPI PUSH1 0x40 MLOAD PUSH32 0x8C379A000000000000000000000000000000000000000000000000000000000 DUP2 MSTORE PUSH1 0x4 ADD PUSH2 0xCF SWAP1 PUSH2 0x12C2 JUMP JUMPDEST PUSH1 0x40 MLOAD DUP1 SWAP2 SUB SWAP1 REVERT JUMPDEST PUSH2 0xE0 PUSH2 0x260 JUMP JUMPDEST STOP JUMPDEST PUSH0 DUP1 REVERT JUMPDEST CALLVALUE DUP1 ISZERO PUSH2 0xF1 JUMPI PUSH0 DUP1 REVERT JUMPDEST POP PUSH2 0xFA PUSH2 0x363 JUMP JUMPDEST PUSH1 0x40 MLOAD PUSH2 0x107 SWAP2 SWAP1 PUSH2 0x12F8 JUMP JUMPDEST PUSH1 0x40 MLOAD DUP1 SWAP2 SUB SWAP1 RETURN JUMPDEST CALLVALUE DUP1 ISZERO PUSH2 0x11B JUMPI PUSH0 DUP1 REVERT JUMPDEST POP PUSH2 0x124 PUSH2 0x36A JUMP JUMPDEST PUSH1 0x40 MLOAD PUSH2 0x131 SWAP2 SWAP1 PUSH2 0x13E6 JUMP JUMPDEST PUSH1 0x40 MLOAD DUP1 SWAP2 SUB SWAP1 RETURN JUMPDEST CALLVALUE DUP1 ISZERO PUSH2 0x145 JUMPI PUSH0 DUP1 REVERT JUMPDEST POP PUSH2 0x14E PUSH2 0x3E9 JUMP JUMPDEST STOP JUMPDEST CALLVALUE DUP1 ISZERO PUSH2 0x15B JUMPI PUSH0 DUP1 REVERT JUMPDEST POP PUSH2 0x176 PUSH1 0x4 DUP1 CALLDATASIZE SUB DUP2 ADD SWAP1 PUSH2 0x171 SWAP2 SWAP1 PUSH2 0x142D JUMP JUMPDEST PUSH2 0x514 JUMP JUMPDEST PUSH1 0x40 MLOAD PUSH2 0x183 SWAP2 SWAP1 PUSH2 0x1467 JUMP JUMPDEST PUSH1 0x40 MLOAD DUP1 SWAP2 SUB SWAP1 RETURN JUMPDEST CALLVALUE DUP1 ISZERO PUSH2 0x197 JUMPI PUSH0 DUP1 REVERT JUMPDEST POP PUSH2 0x1B2 PUSH1 0x4 DUP1 CALLDATASIZE SUB DUP2 ADD SWAP1 PUSH2 0x1AD SWAP2 SWAP1 PUSH2 0x142D JUMP JUMPDEST PUSH2 0x54F JUMP JUMPDEST PUSH1 0x40 MLOAD PUSH2 0x1BF SWAP2 SWAP1 PUSH2 0x1467 JUMP JUMPDEST PUSH1 0x40 MLOAD DUP1 SWAP2 SUB SWAP1 RETURN JUMPDEST CALLVALUE DUP1 ISZERO PUSH2 0x1D3 JUMPI PUSH0 DUP1 REVERT JUMPDEST POP PUSH2 0x1DC PUSH2 0x583 JUMP JUMPDEST PUSH1 0x40 MLOAD PUSH2 0x1E9 SWAP2 SWAP1 PUSH2 0x1467 JUMP JUMPDEST PUSH1 0x40 MLOAD DUP1 SWAP2 SUB SWAP1 RETURN JUMPDEST PUSH2 0x1FA PUSH2 0x260 JUMP JUMPDEST STOP JUMPDEST CALLVALUE DUP1 ISZERO PUSH2 0x207 JUMPI PUSH0 DUP1 REVERT JUMPDEST POP PUSH2 0x222 PUSH1 0x4 DUP1 CALLDATASIZE SUB DUP2 ADD SWAP1 PUSH2 0x21D SWAP2 SWAP1 PUSH2 0x14AA JUMP JUMPDEST PUSH2 0x5A6 JUMP JUMPDEST PUSH1 0x40 MLOAD PUSH2 0x22F SWAP2 SWAP1 PUSH2 0x12F8 JUMP JUMPDEST PUSH1 0x40 MLOAD DUP1 SWAP2 SUB SWAP1 RETURN JUMPDEST CALLVALUE DUP1 ISZERO PUSH2 0x243 JUMPI PUSH0 DUP1 REVERT JUMPDEST POP PUSH2 0x25E PUSH1 0x4 DUP1 CALLDATASIZE SUB DUP2 ADD SWAP1 PUSH2 0x259 SWAP2 SWAP1 PUSH2 0x14AA JUMP JUMPDEST PUSH2 0x5BB JUMP JUMPDEST STOP JUMPDEST PUSH0 PUSH1 0x2 PUSH0 CALLER PUSH20 0xFFFFFFFFFFFFFFFFFFFFFFFFFFFFFFFFFFFFFFFF AND PUSH20 0xFFFFFFFFFFFFFFFFFFFFFFFFFFFFFFFFFFFFFFFF AND DUP2 MSTORE PUSH1 0x20 ADD SWAP1 DUP2 MSTORE PUSH1 0x20 ADD PUSH0 KECCAK256 SLOAD SUB PUSH2 0x305 JUMPI PUSH1 0x1 CALLER SWAP1 DUP1 PUSH1 0x1 DUP2 SLOAD ADD DUP1 DUP3 SSTORE DUP1 SWAP2 POP POP PUSH1 0x1 SWAP1 SUB SWAP1 PUSH0 MSTORE PUSH1 0x20 PUSH0 KECCAK256 ADD PUSH0 SWAP1 SWAP2 SWAP1 SWAP2 SWAP1 SWAP2 PUSH2 0x100 EXP DUP2 SLOAD DUP2 PUSH20 0xFFFFFFFFFFFFFFFFFFFFFFFFFFFFFFFFFFFFFFFF MUL NOT AND SWAP1 DUP4 PUSH20 0xFFFFFFFFFFFFFFFFFFFFFFFFFFFFFFFFFFFFFFFF AND MUL OR SWAP1 SSTORE POP JUMPDEST CALLVALUE PUSH1 0x2 PUSH0 CALLER PUSH20 0xFFFFFFFFFFFFFFFFFFFFFFFFFFFFFFFFFFFFFFFF AND PUSH20 0xFFFFFFFFFFFFFFFFFFFFFFFFFFFFFFFFFFFFFFFF AND DUP2 MSTORE PUSH1 0x20 ADD SWAP1 DUP2 MSTORE PUSH1 0x20 ADD PUSH0 KECCAK256 PUSH0 DUP3 DUP3 SLOAD PUSH2 0x351 SWAP2 SWAP1 PUSH2 0x1502 JUMP JUMPDEST SWAP3 POP POP DUP2 SWAP1 SSTORE POP PUSH2 0x361 CALLER PUSH2 0x68A JUMP JUMPDEST JUMP JUMPDEST PUSH0 SELFBALANCE SWAP1 POP SWAP1 JUMP JUMPDEST PUSH2 0x372 PUSH2 0x1246 JUMP JUMPDEST PUSH1 0x3 DUP1 DUP1 PUSH1 0x20 MUL PUSH1 0x40 MLOAD SWAP1 DUP2 ADD PUSH1 0x40 MSTORE DUP1 SWAP3 SWAP2 SWAP1 DUP3 PUSH1 0x3 DUP1 ISZERO PUSH2 0x3DF JUMPI PUSH1 0x20 MUL DUP3 ADD SWAP2 JUMPDEST DUP2 PUSH0 SWAP1 SLOAD SWAP1 PUSH2 0x100 EXP SWAP1 DIV PUSH20 0xFFFFFFFFFFFFFFFFFFFFFFFFFFFFFFFFFFFFFFFF AND PUSH20 0xFFFFFFFFFFFFFFFFFFFFFFFFFFFFFFFFFFFFFFFF AND DUP2 MSTORE PUSH1 0x20 ADD SWAP1 PUSH1 0x1 ADD SWAP1 DUP1 DUP4 GT PUSH2 0x396 JUMPI JUMPDEST POP POP POP POP POP SWAP1 POP SWAP1 JUMP JUMPDEST PUSH0 DUP1 SLOAD SWAP1 PUSH2 0x100 EXP SWAP1 DIV PUSH20 0xFFFFFFFFFFFFFFFFFFFFFFFFFFFFFFFFFFFFFFFF AND PUSH20 0xFFFFFFFFFFFFFFFFFFFFFFFFFFFFFFFFFFFFFFFF AND CALLER PUSH20 0xFFFFFFFFFFFFFFFFFFFFFFFFFFFFFFFFFFFFFFFF AND EQ PUSH2 0x476 JUMPI PUSH1 0x40 MLOAD PUSH32 0x8C379A000000000000000000000000000000000000000000000000000000000 DUP2 MSTORE PUSH1 0x4 ADD PUSH2 0x46D SWAP1 PUSH2 0x157F JUMP JUMPDEST PUSH1 0x40 MLOAD DUP1 SWAP2 SUB SWAP1 REVERT JUMPDEST PUSH32 0x6CCA423C6FFC06E62A0ACC433965E074B11C28479B0449250CE3FF65AC9E39FE CALLER SELFBALANCE PUSH1 0x40 MLOAD PUSH2 0x4A7 SWAP3 SWAP2 SWAP1 PUSH2 0x159D JUMP JUMPDEST PUSH1 0x40 MLOAD DUP1 SWAP2 SUB SWAP1 LOG1 PUSH0 DUP1 SLOAD SWAP1 PUSH2 0x100 EXP SWAP1 DIV PUSH20 0xFFFFFFFFFFFFFFFFFFFFFFFFFFFFFFFFFFFFFFFF AND PUSH20 0xFFFFFFFFFFFFFFFFFFFFFFFFFFFFFFFFFFFFFFFF AND PUSH2 0x8FC SELFBALANCE SWAP1 DUP2 ISZERO MUL SWAP1 PUSH1 0x40 MLOAD PUSH0 PUSH1 0x40 MLOAD DUP1 DUP4 SUB DUP2 DUP6 DUP9 DUP9 CALL SWAP4 POP POP POP POP ISZERO DUP1 ISZERO PUSH2 0x511 JUMPI RETURNDATASIZE PUSH0 DUP1 RETURNDATACOPY RETURNDATASIZE PUSH0 REVERT JUMPDEST POP JUMP JUMPDEST PUSH1 0x1 DUP2 DUP2 SLOAD DUP2 LT PUSH2 0x523 JUMPI PUSH0 DUP1 REVERT JUMPDEST SWAP1 PUSH0 MSTORE PUSH1 0x20 PUSH0 KECCAK256 ADD PUSH0 SWAP2 POP SLOAD SWAP1 PUSH2 0x100 EXP SWAP1 DIV PUSH20 0xFFFFFFFFFFFFFFFFFFFFFFFFFFFFFFFFFFFFFFFF AND DUP2 JUMP JUMPDEST PUSH1 0x3 DUP2 PUSH1 0x3 DUP2 LT PUSH2 0x55E JUMPI PUSH0 DUP1 REVERT JUMPDEST ADD PUSH0 SWAP2 POP SLOAD SWAP1 PUSH2 0x100 EXP SWAP1 DIV PUSH20 0xFFFFFFFFFFFFFFFFFFFFFFFFFFFFFFFFFFFFFFFF AND DUP2 JUMP JUMPDEST PUSH0 DUP1 SLOAD SWAP1 PUSH2 0x100 EXP SWAP1 DIV PUSH20 0xFFFFFFFFFFFFFFFFFFFFFFFFFFFFFFFFFFFFFFFF AND DUP2 JUMP JUMPDEST PUSH1 0x2 PUSH1 0x20 MSTORE DUP1 PUSH0 MSTORE PUSH1 0x40 PUSH0 KECCAK256 PUSH0 SWAP2 POP SWAP1 POP SLOAD DUP2 JUMP JUMPDEST PUSH0 DUP1 SLOAD SWAP1 PUSH2 0x100 EXP SWAP1 DIV PUSH20 0xFFFFFFFFFFFFFFFFFFFFFFFFFFFFFFFFFFFFFFFF AND PUSH20 0xFFFFFFFFFFFFFFFFFFFFFFFFFFFFFFFFFFFFFFFF AND CALLER PUSH20 0xFFFFFFFFFFFFFFFFFFFFFFFFFFFFFFFFFFFFFFFF AND EQ PUSH2 0x648 JUMPI PUSH1 0x40 MLOAD PUSH32 0x8C379A000000000000000000000000000000000000000000000000000000000 DUP2 MSTORE PUSH1 0x4 ADD PUSH2 0x63F SWAP1 PUSH2 0x157F JUMP JUMPDEST PUSH1 0x40 MLOAD DUP1 SWAP2 SUB SWAP1 REVERT JUMPDEST DUP1 PUSH0 DUP1 PUSH2 0x100 EXP DUP2 SLOAD DUP2 PUSH20 0xFFFFFFFFFFFFFFFFFFFFFFFFFFFFFFFFFFFFFFFF MUL NOT AND SWAP1 DUP4 PUSH20 0xFFFFFFFFFFFFFFFFFFFFFFFFFFFFFFFFFFFFFFFF AND MUL OR SWAP1 SSTORE POP POP JUMP JUMPDEST PUSH0 JUMPDEST PUSH1 0x3 DUP2 LT ISZERO PUSH2 0x71F JUMPI PUSH1 0x3 DUP2 PUSH1 0x3 DUP2 LT PUSH2 0x6A9 JUMPI PUSH2 0x6A8 PUSH2 0x15C4 JUMP JUMPDEST JUMPDEST ADD PUSH0 SWAP1 SLOAD SWAP1 PUSH2 0x100 EXP SWAP1 DIV PUSH20 0xFFFFFFFFFFFFFFFFFFFFFFFFFFFFFFFFFFFFFFFF AND PUSH20 0xFFFFFFFFFFFFFFFFFFFFFFFFFFFFFFFFFFFFFFFF AND DUP3 PUSH20 0xFFFFFFFFFFFFFFFFFFFFFFFFFFFFFFFFFFFFFFFF AND SUB PUSH2 0x70C JUMPI PUSH2 0x706 DUP2 DUP4 PUSH2 0xC0F JUMP JUMPDEST POP PUSH2 0xC0C JUMP JUMPDEST DUP1 DUP1 PUSH2 0x717 SWAP1 PUSH2 0x15F1 JUMP JUMPDEST SWAP2 POP POP PUSH2 0x68C JUMP JUMPDEST POP PUSH0 PUSH20 0xFFFFFFFFFFFFFFFFFFFFFFFFFFFFFFFFFFFFFFFF AND PUSH1 0x3 PUSH0 PUSH1 0x3 DUP2 LT PUSH2 0x74B JUMPI PUSH2 0x74A PUSH2 0x15C4 JUMP JUMPDEST JUMPDEST ADD PUSH0 SWAP1 SLOAD SWAP1 PUSH2 0x100 EXP SWAP1 DIV PUSH20 0xFFFFFFFFFFFFFFFFFFFFFFFFFFFFFFFFFFFFFFFF AND PUSH20 0xFFFFFFFFFFFFFFFFFFFFFFFFFFFFFFFFFFFFFFFF AND EQ DUP1 PUSH2 0x7EE JUMPI POP PUSH0 PUSH20 0xFFFFFFFFFFFFFFFFFFFFFFFFFFFFFFFFFFFFFFFF AND PUSH1 0x3 PUSH1 0x1 PUSH1 0x3 DUP2 LT PUSH2 0x7B5 JUMPI PUSH2 0x7B4 PUSH2 0x15C4 JUMP JUMPDEST JUMPDEST ADD PUSH0 SWAP1 SLOAD SWAP1 PUSH2 0x100 EXP SWAP1 DIV PUSH20 0xFFFFFFFFFFFFFFFFFFFFFFFFFFFFFFFFFFFFFFFF AND PUSH20 0xFFFFFFFFFFFFFFFFFFFFFFFFFFFFFFFFFFFFFFFF AND EQ JUMPDEST DUP1 PUSH2 0x859 JUMPI POP PUSH0 PUSH20 0xFFFFFFFFFFFFFFFFFFFFFFFFFFFFFFFFFFFFFFFF AND PUSH1 0x3 PUSH1 0x2 PUSH1 0x3 DUP2 LT PUSH2 0x820 JUMPI PUSH2 0x81F PUSH2 0x15C4 JUMP JUMPDEST JUMPDEST ADD PUSH0 SWAP1 SLOAD SWAP1 PUSH2 0x100 EXP SWAP1 DIV PUSH20 0xFFFFFFFFFFFFFFFFFFFFFFFFFFFFFFFFFFFFFFFF AND PUSH20 0xFFFFFFFFFFFFFFFFFFFFFFFFFFFFFFFFFFFFFFFF AND EQ JUMPDEST DUP1 PUSH2 0x911 JUMPI POP PUSH1 0x2 PUSH0 PUSH1 0x3 PUSH0 PUSH1 0x3 DUP2 LT PUSH2 0x876 JUMPI PUSH2 0x875 PUSH2 0x15C4 JUMP JUMPDEST JUMPDEST ADD PUSH0 SWAP1 SLOAD SWAP1 PUSH2 0x100 EXP SWAP1 DIV PUSH20 0xFFFFFFFFFFFFFFFFFFFFFFFFFFFFFFFFFFFFFFFF AND PUSH20 0xFFFFFFFFFFFFFFFFFFFFFFFFFFFFFFFFFFFFFFFF AND PUSH20 0xFFFFFFFFFFFFFFFFFFFFFFFFFFFFFFFFFFFFFFFF AND DUP2 MSTORE PUSH1 0x20 ADD SWAP1 DUP2 MSTORE PUSH1 0x20 ADD PUSH0 KECCAK256 SLOAD PUSH1 0x2 PUSH0 DUP4 PUSH20 0xFFFFFFFFFFFFFFFFFFFFFFFFFFFFFFFFFFFFFFFF AND PUSH20 0xFFFFFFFFFFFFFFFFFFFFFFFFFFFFFFFFFFFFFFFF AND DUP2 MSTORE PUSH1 0x20 ADD SWAP1 DUP2 MSTORE PUSH1 0x20 ADD PUSH0 KECCAK256 SLOAD GT JUMPDEST DUP1 PUSH2 0x9CA JUMPI POP PUSH1 0x2 PUSH0 PUSH1 0x3 PUSH1 0x1 PUSH1 0x3 DUP2 LT PUSH2 0x92F JUMPI PUSH2 0x92E PUSH2 0x15C4 JUMP JUMPDEST JUMPDEST ADD PUSH0 SWAP1 SLOAD SWAP1 PUSH2 0x100 EXP SWAP1 DIV PUSH20 0xFFFFFFFFFFFFFFFFFFFFFFFFFFFFFFFFFFFFFFFF AND PUSH20 0xFFFFFFFFFFFFFFFFFFFFFFFFFFFFFFFFFFFFFFFF AND PUSH20 0xFFFFFFFFFFFFFFFFFFFFFFFFFFFFFFFFFFFFFFFF AND DUP2 MSTORE PUSH1 0x20 ADD SWAP1 DUP2 MSTORE PUSH1 0x20 ADD PUSH0 KECCAK256 SLOAD PUSH1 0x2 PUSH0 DUP4 PUSH20 0xFFFFFFFFFFFFFFFFFFFFFFFFFFFFFFFFFFFFFFFF AND PUSH20 0xFFFFFFFFFFFFFFFFFFFFFFFFFFFFFFFFFFFFFFFF AND DUP2 MSTORE PUSH1 0x20 ADD SWAP1 DUP2 MSTORE PUSH1 0x20 ADD PUSH0 KECCAK256 SLOAD GT JUMPDEST DUP1 PUSH2 0xA83 JUMPI POP PUSH1 0x2 PUSH0 PUSH1 0x3 PUSH1 0x2 PUSH1 0x3 DUP2 LT PUSH2 0x9E8 JUMPI PUSH2 0x9E7 PUSH2 0x15C4 JUMP JUMPDEST JUMPDEST ADD PUSH0 SWAP1 SLOAD SWAP1 PUSH2 0x100 EXP SWAP1 DIV PUSH20 0xFFFFFFFFFFFFFFFFFFFFFFFFFFFFFFFFFFFFFFFF AND PUSH20 0xFFFFFFFFFFFFFFFFFFFFFFFFFFFFFFFFFFFFFFFF AND PUSH20 0xFFFFFFFFFFFFFFFFFFFFFFFFFFFFFFFFFFFFFFFF AND DUP2 MSTORE PUSH1 0x20 ADD SWAP1 DUP2 MSTORE PUSH1 0x20 ADD PUSH0 KECCAK256 SLOAD PUSH1 0x2 PUSH0 DUP4 PUSH20 0xFFFFFFFFFFFFFFFFFFFFFFFFFFFFFFFFFFFFFFFF AND PUSH20 0xFFFFFFFFFFFFFFFFFFFFFFFFFFFFFFFFFFFFFFFF AND DUP2 MSTORE PUSH1 0x20 ADD SWAP1 DUP2 MSTORE PUSH1 0x20 ADD PUSH0 KECCAK256 SLOAD GT JUMPDEST ISZERO PUSH2 0xC0B JUMPI PUSH0 PUSH20 0xFFFFFFFFFFFFFFFFFFFFFFFFFFFFFFFFFFFFFFFF AND PUSH1 0x3 PUSH1 0x2 PUSH1 0x3 DUP2 LT PUSH2 0xAB4 JUMPI PUSH2 0xAB3 PUSH2 0x15C4 JUMP JUMPDEST JUMPDEST ADD PUSH0 SWAP1 SLOAD SWAP1 PUSH2 0x100 EXP SWAP1 DIV PUSH20 0xFFFFFFFFFFFFFFFFFFFFFFFFFFFFFFFFFFFFFFFF AND PUSH20 0xFFFFFFFFFFFFFFFFFFFFFFFFFFFFFFFFFFFFFFFF AND EQ DUP1 PUSH2 0xBA5 JUMPI POP PUSH1 0x2 PUSH0 PUSH1 0x3 PUSH1 0x2 PUSH1 0x3 DUP2 LT PUSH2 0xB0A JUMPI PUSH2 0xB09 PUSH2 0x15C4 JUMP JUMPDEST JUMPDEST ADD PUSH0 SWAP1 SLOAD SWAP1 PUSH2 0x100 EXP SWAP1 DIV PUSH20 0xFFFFFFFFFFFFFFFFFFFFFFFFFFFFFFFFFFFFFFFF AND PUSH20 0xFFFFFFFFFFFFFFFFFFFFFFFFFFFFFFFFFFFFFFFF AND PUSH20 0xFFFFFFFFFFFFFFFFFFFFFFFFFFFFFFFFFFFFFFFF AND DUP2 MSTORE PUSH1 0x20 ADD SWAP1 DUP2 MSTORE PUSH1 0x20 ADD PUSH0 KECCAK256 SLOAD PUSH1 0x2 PUSH0 DUP4 PUSH20 0xFFFFFFFFFFFFFFFFFFFFFFFFFFFFFFFFFFFFFFFF AND PUSH20 0xFFFFFFFFFFFFFFFFFFFFFFFFFFFFFFFFFFFFFFFF AND DUP2 MSTORE PUSH1 0x20 ADD SWAP1 DUP2 MSTORE PUSH1 0x20 ADD PUSH0 KECCAK256 SLOAD GT JUMPDEST ISZERO PUSH2 0xBFF JUMPI DUP1 PUSH1 0x3 PUSH1 0x2 PUSH1 0x3 DUP2 LT PUSH2 0xBC0 JUMPI PUSH2 0xBBF PUSH2 0x15C4 JUMP JUMPDEST JUMPDEST ADD PUSH0 PUSH2 0x100 EXP DUP2 SLOAD DUP2 PUSH20 0xFFFFFFFFFFFFFFFFFFFFFFFFFFFFFFFFFFFFFFFF MUL NOT AND SWAP1 DUP4 PUSH20 0xFFFFFFFFFFFFFFFFFFFFFFFFFFFFFFFFFFFFFFFF AND MUL OR SWAP1 SSTORE POP JUMPDEST PUSH2 0xC0A PUSH1 0x2 DUP3 PUSH2 0xC0F JUMP JUMPDEST JUMPDEST JUMPDEST POP JUMP JUMPDEST PUSH0 DUP3 SUB ISZERO PUSH2 0x1242 JUMPI PUSH1 0x1 DUP3 EQ DUP1 ISZERO PUSH2 0xCD4 JUMPI POP PUSH1 0x2 PUSH0 PUSH1 0x3 PUSH0 PUSH1 0x3 DUP2 LT PUSH2 0xC39 JUMPI PUSH2 0xC38 PUSH2 0x15C4 JUMP JUMPDEST JUMPDEST ADD PUSH0 SWAP1 SLOAD SWAP1 PUSH2 0x100 EXP SWAP1 DIV PUSH20 0xFFFFFFFFFFFFFFFFFFFFFFFFFFFFFFFFFFFFFFFF AND PUSH20 0xFFFFFFFFFFFFFFFFFFFFFFFFFFFFFFFFFFFFFFFF AND PUSH20 0xFFFFFFFFFFFFFFFFFFFFFFFFFFFFFFFFFFFFFFFF AND DUP2 MSTORE PUSH1 0x20 ADD SWAP1 DUP2 MSTORE PUSH1 0x20 ADD PUSH0 KECCAK256 SLOAD PUSH1 0x2 PUSH0 DUP4 PUSH20 0xFFFFFFFFFFFFFFFFFFFFFFFFFFFFFFFFFFFFFFFF AND PUSH20 0xFFFFFFFFFFFFFFFFFFFFFFFFFFFFFFFFFFFFFFFF AND DUP2 MSTORE PUSH1 0x20 ADD SWAP1 DUP2 MSTORE PUSH1 0x20 ADD PUSH0 KECCAK256 SLOAD GT JUMPDEST ISZERO PUSH2 0xDB9 JUMPI PUSH1 0x3 PUSH0 PUSH1 0x3 DUP2 LT PUSH2 0xCED JUMPI PUSH2 0xCEC PUSH2 0x15C4 JUMP JUMPDEST JUMPDEST ADD PUSH0 SWAP1 SLOAD SWAP1 PUSH2 0x100 EXP SWAP1 DIV PUSH20 0xFFFFFFFFFFFFFFFFFFFFFFFFFFFFFFFFFFFFFFFF AND PUSH1 0x3 PUSH1 0x1 PUSH1 0x3 DUP2 LT PUSH2 0xD23 JUMPI PUSH2 0xD22 PUSH2 0x15C4 JUMP JUMPDEST JUMPDEST ADD PUSH0 PUSH2 0x100 EXP DUP2 SLOAD DUP2 PUSH20 0xFFFFFFFFFFFFFFFFFFFFFFFFFFFFFFFFFFFFFFFF MUL NOT AND SWAP1 DUP4 PUSH20 0xFFFFFFFFFFFFFFFFFFFFFFFFFFFFFFFFFFFFFFFF AND MUL OR SWAP1 SSTORE POP DUP1 PUSH1 0x3 PUSH0 PUSH1 0x3 DUP2 LT PUSH2 0xD76 JUMPI PUSH2 0xD75 PUSH2 0x15C4 JUMP JUMPDEST JUMPDEST ADD PUSH0 PUSH2 0x100 EXP DUP2 SLOAD DUP2 PUSH20 0xFFFFFFFFFFFFFFFFFFFFFFFFFFFFFFFFFFFFFFFF MUL NOT AND SWAP1 DUP4 PUSH20 0xFFFFFFFFFFFFFFFFFFFFFFFFFFFFFFFFFFFFFFFF AND MUL OR SWAP1 SSTORE POP PUSH2 0x1241 JUMP JUMPDEST PUSH1 0x2 DUP3 EQ DUP1 ISZERO PUSH2 0xE77 JUMPI POP PUSH1 0x2 PUSH0 PUSH1 0x3 PUSH1 0x1 PUSH1 0x3 DUP2 LT PUSH2 0xDDC JUMPI PUSH2 0xDDB PUSH2 0x15C4 JUMP JUMPDEST JUMPDEST ADD PUSH0 SWAP1 SLOAD SWAP1 PUSH2 0x100 EXP SWAP1 DIV PUSH20 0xFFFFFFFFFFFFFFFFFFFFFFFFFFFFFFFFFFFFFFFF AND PUSH20 0xFFFFFFFFFFFFFFFFFFFFFFFFFFFFFFFFFFFFFFFF AND PUSH20 0xFFFFFFFFFFFFFFFFFFFFFFFFFFFFFFFFFFFFFFFF AND DUP2 MSTORE PUSH1 0x20 ADD SWAP1 DUP2 MSTORE PUSH1 0x20 ADD PUSH0 KECCAK256 SLOAD PUSH1 0x2 PUSH0 DUP4 PUSH20 0xFFFFFFFFFFFFFFFFFFFFFFFFFFFFFFFFFFFFFFFF AND PUSH20 0xFFFFFFFFFFFFFFFFFFFFFFFFFFFFFFFFFFFFFFFF AND DUP2 MSTORE PUSH1 0x20 ADD SWAP1 DUP2 MSTORE PUSH1 0x20 ADD PUSH0 KECCAK256 SLOAD GT JUMPDEST DUP1 ISZERO PUSH2 0xF31 JUMPI POP PUSH1 0x2 PUSH0 PUSH1 0x3 PUSH0 PUSH1 0x3 DUP2 LT PUSH2 0xE95 JUMPI PUSH2 0xE94 PUSH2 0x15C4 JUMP JUMPDEST JUMPDEST ADD PUSH0 SWAP1 SLOAD SWAP1 PUSH2 0x100 EXP SWAP1 DIV PUSH20 0xFFFFFFFFFFFFFFFFFFFFFFFFFFFFFFFFFFFFFFFF AND PUSH20 0xFFFFFFFFFFFFFFFFFFFFFFFFFFFFFFFFFFFFFFFF AND PUSH20 0xFFFFFFFFFFFFFFFFFFFFFFFFFFFFFFFFFFFFFFFF AND DUP2 MSTORE PUSH1 0x20 ADD SWAP1 DUP2 MSTORE PUSH1 0x20 ADD PUSH0 KECCAK256 SLOAD PUSH1 0x2 PUSH0 DUP4 PUSH20 0xFFFFFFFFFFFFFFFFFFFFFFFFFFFFFFFFFFFFFFFF AND PUSH20 0xFFFFFFFFFFFFFFFFFFFFFFFFFFFFFFFFFFFFFFFF AND DUP2 MSTORE PUSH1 0x20 ADD SWAP1 DUP2 MSTORE PUSH1 0x20 ADD PUSH0 KECCAK256 SLOAD GT ISZERO JUMPDEST ISZERO PUSH2 0x1018 JUMPI PUSH1 0x3 PUSH1 0x1 PUSH1 0x3 DUP2 LT PUSH2 0xF4B JUMPI PUSH2 0xF4A PUSH2 0x15C4 JUMP JUMPDEST JUMPDEST ADD PUSH0 SWAP1 SLOAD SWAP1 PUSH2 0x100 EXP SWAP1 DIV PUSH20 0xFFFFFFFFFFFFFFFFFFFFFFFFFFFFFFFFFFFFFFFF AND PUSH1 0x3 PUSH1 0x2 PUSH1 0x3 DUP2 LT PUSH2 0xF81 JUMPI PUSH2 0xF80 PUSH2 0x15C4 JUMP JUMPDEST JUMPDEST ADD PUSH0 PUSH2 0x100 EXP DUP2 SLOAD DUP2 PUSH20 0xFFFFFFFFFFFFFFFFFFFFFFFFFFFFFFFFFFFFFFFF MUL NOT AND SWAP1 DUP4 PUSH20 0xFFFFFFFFFFFFFFFFFFFFFFFFFFFFFFFFFFFFFFFF AND MUL OR SWAP1 SSTORE POP DUP1 PUSH1 0x3 PUSH1 0x1 PUSH1 0x3 DUP2 LT PUSH2 0xFD5 JUMPI PUSH2 0xFD4 PUSH2 0x15C4 JUMP JUMPDEST JUMPDEST ADD PUSH0 PUSH2 0x100 EXP DUP2 SLOAD DUP2 PUSH20 0xFFFFFFFFFFFFFFFFFFFFFFFFFFFFFFFFFFFFFFFF MUL NOT AND SWAP1 DUP4 PUSH20 0xFFFFFFFFFFFFFFFFFFFFFFFFFFFFFFFFFFFFFFFF AND MUL OR SWAP1 SSTORE POP PUSH2 0x1240 JUMP JUMPDEST PUSH1 0x2 DUP3 EQ DUP1 ISZERO PUSH2 0x10D5 JUMPI POP PUSH1 0x2 PUSH0 PUSH1 0x3 PUSH0 PUSH1 0x3 DUP2 LT PUSH2 0x103A JUMPI PUSH2 0x1039 PUSH2 0x15C4 JUMP JUMPDEST JUMPDEST ADD PUSH0 SWAP1 SLOAD SWAP1 PUSH2 0x100 EXP SWAP1 DIV PUSH20 0xFFFFFFFFFFFFFFFFFFFFFFFFFFFFFFFFFFFFFFFF AND PUSH20 0xFFFFFFFFFFFFFFFFFFFFFFFFFFFFFFFFFFFFFFFF AND PUSH20 0xFFFFFFFFFFFFFFFFFFFFFFFFFFFFFFFFFFFFFFFF AND DUP2 MSTORE PUSH1 0x20 ADD SWAP1 DUP2 MSTORE PUSH1 0x20 ADD PUSH0 KECCAK256 SLOAD PUSH1 0x2 PUSH0 DUP4 PUSH20 0xFFFFFFFFFFFFFFFFFFFFFFFFFFFFFFFFFFFFFFFF AND PUSH20 0xFFFFFFFFFFFFFFFFFFFFFFFFFFFFFFFFFFFFFFFF AND DUP2 MSTORE PUSH1 0x20 ADD SWAP1 DUP2 MSTORE PUSH1 0x20 ADD PUSH0 KECCAK256 SLOAD GT JUMPDEST ISZERO PUSH2 0x123F JUMPI PUSH1 0x3 PUSH1 0x1 PUSH1 0x3 DUP2 LT PUSH2 0x10EF JUMPI PUSH2 0x10EE PUSH2 0x15C4 JUMP JUMPDEST JUMPDEST ADD PUSH0 SWAP1 SLOAD SWAP1 PUSH2 0x100 EXP SWAP1 DIV PUSH20 0xFFFFFFFFFFFFFFFFFFFFFFFFFFFFFFFFFFFFFFFF AND PUSH1 0x3 PUSH1 0x2 PUSH1 0x3 DUP2 LT PUSH2 0x1125 JUMPI PUSH2 0x1124 PUSH2 0x15C4 JUMP JUMPDEST JUMPDEST ADD PUSH0 PUSH2 0x100 EXP DUP2 SLOAD DUP2 PUSH20 0xFFFFFFFFFFFFFFFFFFFFFFFFFFFFFFFFFFFFFFFF MUL NOT AND SWAP1 DUP4 PUSH20 0xFFFFFFFFFFFFFFFFFFFFFFFFFFFFFFFFFFFFFFFF AND MUL OR SWAP1 SSTORE POP PUSH1 0x3 PUSH0 PUSH1 0x3 DUP2 LT PUSH2 0x1177 JUMPI PUSH2 0x1176 PUSH2 0x15C4 JUMP JUMPDEST JUMPDEST ADD PUSH0 SWAP1 SLOAD SWAP1 PUSH2 0x100 EXP SWAP1 DIV PUSH20 0xFFFFFFFFFFFFFFFFFFFFFFFFFFFFFFFFFFFFFFFF AND PUSH1 0x3 PUSH1 0x1 PUSH1 0x3 DUP2 LT PUSH2 0x11AD JUMPI PUSH2 0x11AC PUSH2 0x15C4 JUMP JUMPDEST JUMPDEST ADD PUSH0 PUSH2 0x100 EXP DUP2 SLOAD DUP2 PUSH20 0xFFFFFFFFFFFFFFFFFFFFFFFFFFFFFFFFFFFFFFFF MUL NOT AND SWAP1 DUP4 PUSH20 0xFFFFFFFFFFFFFFFFFFFFFFFFFFFFFFFFFFFFFFFF AND MUL OR SWAP1 SSTORE POP DUP1 PUSH1 0x3 PUSH0 PUSH1 0x3 DUP2 LT PUSH2 0x1200 JUMPI PUSH2 0x11FF PUSH2 0x15C4 JUMP JUMPDEST JUMPDEST ADD PUSH0 PUSH2 0x100 EXP DUP2 SLOAD DUP2 PUSH20 0xFFFFFFFFFFFFFFFFFFFFFFFFFFFFFFFFFFFFFFFF MUL NOT AND SWAP1 DUP4 PUSH20 0xFFFFFFFFFFFFFFFFFFFFFFFFFFFFFFFFFFFFFFFF AND MUL OR SWAP1 SSTORE POP JUMPDEST JUMPDEST JUMPDEST JUMPDEST POP POP JUMP JUMPDEST PUSH1 0x40 MLOAD DUP1 PUSH1 0x60 ADD PUSH1 0x40 MSTORE DUP1 PUSH1 0x3 SWAP1 PUSH1 0x20 DUP3 MUL DUP1 CALLDATASIZE DUP4 CALLDATACOPY DUP1 DUP3 ADD SWAP2 POP POP SWAP1 POP POP SWAP1 JUMP JUMPDEST PUSH0 DUP3 DUP3 MSTORE PUSH1 0x20 DUP3 ADD SWAP1 POP SWAP3 SWAP2 POP POP JUMP JUMPDEST PUSH32 0x4D757374206D6F7265207468616E20302E303031657468000000000000000000 PUSH0 DUP3 ADD MSTORE POP JUMP JUMPDEST PUSH0 PUSH2 0x12AC PUSH1 0x17 DUP4 PUSH2 0x1268 JUMP JUMPDEST SWAP2 POP PUSH2 0x12B7 DUP3 PUSH2 0x1278 JUMP JUMPDEST PUSH1 0x20 DUP3 ADD SWAP1 POP SWAP2 SWAP1 POP JUMP JUMPDEST PUSH0 PUSH1 0x20 DUP3 ADD SWAP1 POP DUP2 DUP2 SUB PUSH0 DUP4 ADD MSTORE PUSH2 0x12D9 DUP2 PUSH2 0x12A0 JUMP JUMPDEST SWAP1 POP SWAP2 SWAP1 POP JUMP JUMPDEST PUSH0 DUP2 SWAP1 POP SWAP2 SWAP1 POP JUMP JUMPDEST PUSH2 0x12F2 DUP2 PUSH2 0x12E0 JUMP JUMPDEST DUP3 MSTORE POP POP JUMP JUMPDEST PUSH0 PUSH1 0x20 DUP3 ADD SWAP1 POP PUSH2 0x130B PUSH0 DUP4 ADD DUP5 PUSH2 0x12E9 JUMP JUMPDEST SWAP3 SWAP2 POP POP JUMP JUMPDEST PUSH0 PUSH1 0x3 SWAP1 POP SWAP2 SWAP1 POP JUMP JUMPDEST PUSH0 DUP2 SWAP1 POP SWAP3 SWAP2 POP POP JUMP JUMPDEST PUSH0 DUP2 SWAP1 POP SWAP2 SWAP1 POP JUMP JUMPDEST PUSH0 PUSH20 0xFFFFFFFFFFFFFFFFFFFFFFFFFFFFFFFFFFFFFFFF DUP3 AND SWAP1 POP SWAP2 SWAP1 POP JUMP JUMPDEST PUSH0 PUSH2 0x1357 DUP3 PUSH2 0x132E JUMP JUMPDEST SWAP1 POP SWAP2 SWAP1 POP JUMP JUMPDEST PUSH2 0x1367 DUP2 PUSH2 0x134D JUMP JUMPDEST DUP3 MSTORE POP POP JUMP JUMPDEST PUSH0 PUSH2 0x1378 DUP4 DUP4 PUSH2 0x135E JUMP JUMPDEST PUSH1 0x20 DUP4 ADD SWAP1 POP SWAP3 SWAP2 POP POP JUMP JUMPDEST PUSH0 PUSH1 0x20 DUP3 ADD SWAP1 POP SWAP2 SWAP1 POP JUMP JUMPDEST PUSH2 0x1399 DUP2 PUSH2 0x1311 JUMP JUMPDEST PUSH2 0x13A3 DUP2 DUP5 PUSH2 0x131B JUMP JUMPDEST SWAP3 POP PUSH2 0x13AE DUP3 PUSH2 0x1325 JUMP JUMPDEST DUP1 PUSH0 JUMPDEST DUP4 DUP2 LT ISZERO PUSH2 0x13DE JUMPI DUP2 MLOAD PUSH2 0x13C5 DUP8 DUP3 PUSH2 0x136D JUMP JUMPDEST SWAP7 POP PUSH2 0x13D0 DUP4 PUSH2 0x1384 JUMP JUMPDEST SWAP3 POP POP PUSH1 0x1 DUP2 ADD SWAP1 POP PUSH2 0x13B1 JUMP JUMPDEST POP POP POP POP POP POP JUMP JUMPDEST PUSH0 PUSH1 0x60 DUP3 ADD SWAP1 POP PUSH2 0x13F9 PUSH0 DUP4 ADD DUP5 PUSH2 0x1390 JUMP JUMPDEST SWAP3 SWAP2 POP POP JUMP JUMPDEST PUSH0 DUP1 REVERT JUMPDEST PUSH2 0x140C DUP2 PUSH2 0x12E0 JUMP JUMPDEST DUP2 EQ PUSH2 0x1416 JUMPI PUSH0 DUP1 REVERT JUMPDEST POP JUMP JUMPDEST PUSH0 DUP2 CALLDATALOAD SWAP1 POP PUSH2 0x1427 DUP2 PUSH2 0x1403 JUMP JUMPDEST SWAP3 SWAP2 POP POP JUMP JUMPDEST PUSH0 PUSH1 0x20 DUP3 DUP5 SUB SLT ISZERO PUSH2 0x1442 JUMPI PUSH2 0x1441 PUSH2 0x13FF JUMP JUMPDEST JUMPDEST PUSH0 PUSH2 0x144F DUP5 DUP3 DUP6 ADD PUSH2 0x1419 JUMP JUMPDEST SWAP2 POP POP SWAP3 SWAP2 POP POP JUMP JUMPDEST PUSH2 0x1461 DUP2 PUSH2 0x134D JUMP JUMPDEST DUP3 MSTORE POP POP JUMP JUMPDEST PUSH0 PUSH1 0x20 DUP3 ADD SWAP1 POP PUSH2 0x147A PUSH0 DUP4 ADD DUP5 PUSH2 0x1458 JUMP JUMPDEST SWAP3 SWAP2 POP POP JUMP JUMPDEST PUSH2 0x1489 DUP2 PUSH2 0x134D JUMP JUMPDEST DUP2 EQ PUSH2 0x1493 JUMPI PUSH0 DUP1 REVERT JUMPDEST POP JUMP JUMPDEST PUSH0 DUP2 CALLDATALOAD SWAP1 POP PUSH2 0x14A4 DUP2 PUSH2 0x1480 JUMP JUMPDEST SWAP3 SWAP2 POP POP JUMP JUMPDEST PUSH0 PUSH1 0x20 DUP3 DUP5 SUB SLT ISZERO PUSH2 0x14BF JUMPI PUSH2 0x14BE PUSH2 0x13FF JUMP JUMPDEST JUMPDEST PUSH0 PUSH2 0x14CC DUP5 DUP3 DUP6 ADD PUSH2 0x1496 JUMP JUMPDEST SWAP2 POP POP SWAP3 SWAP2 POP POP JUMP JUMPDEST PUSH32 0x4E487B7100000000000000000000000000000000000000000000000000000000 PUSH0 MSTORE PUSH1 0x11 PUSH1 0x4 MSTORE PUSH1 0x24 PUSH0 REVERT JUMPDEST PUSH0 PUSH2 0x150C DUP3 PUSH2 0x12E0 JUMP JUMPDEST SWAP2 POP PUSH2 0x1517 DUP4 PUSH2 0x12E0 JUMP JUMPDEST SWAP3 POP DUP3 DUP3 ADD SWAP1 POP DUP1 DUP3 GT ISZERO PUSH2 0x152F JUMPI PUSH2 0x152E PUSH2 0x14D5 JUMP JUMPDEST JUMPDEST SWAP3 SWAP2 POP POP JUMP JUMPDEST PUSH32 0x6E6F74206F776E65720000000000000000000000000000000000000000000000 PUSH0 DUP3 ADD MSTORE POP JUMP JUMPDEST PUSH0 PUSH2 0x1569 PUSH1 0x9 DUP4 PUSH2 0x1268 JUMP JUMPDEST SWAP2 POP PUSH2 0x1574 DUP3 PUSH2 0x1535 JUMP JUMPDEST PUSH1 0x20 DUP3 ADD SWAP1 POP SWAP2 SWAP1 POP JUMP JUMPDEST PUSH0 PUSH1 0x20 DUP3 ADD SWAP1 POP DUP2 DUP2 SUB PUSH0 DUP4 ADD MSTORE PUSH2 0x1596 DUP2 PUSH2 0x155D JUMP JUMPDEST SWAP1 POP SWAP2 SWAP1 POP JUMP JUMPDEST PUSH0 PUSH1 0x40 DUP3 ADD SWAP1 POP PUSH2 0x15B0 PUSH0 DUP4 ADD DUP6 PUSH2 0x1458 JUMP JUMPDEST PUSH2 0x15BD PUSH1 0x20 DUP4 ADD DUP5 PUSH2 0x12E9 JUMP JUMPDEST SWAP4 SWAP3 POP POP POP JUMP JUMPDEST PUSH32 0x4E487B7100000000000000000000000000000000000000000000000000000000 PUSH0 MSTORE PUSH1 0x32 PUSH1 0x4 MSTORE PUSH1 0x24 PUSH0 REVERT JUMPDEST PUSH0 PUSH2 0x15FB DUP3 PUSH2 0x12E0 JUMP JUMPDEST SWAP2 POP PUSH32 0xFFFFFFFFFFFFFFFFFFFFFFFFFFFFFFFFFFFFFFFFFFFFFFFFFFFFFFFFFFFFFFFF DUP3 SUB PUSH2 0x162D JUMPI PUSH2 0x162C PUSH2 0x14D5 JUMP JUMPDEST JUMPDEST PUSH1 0x1 DUP3 ADD SWAP1 POP SWAP2 SWAP1 POP JUMP INVALID LOG2 PUSH5 0x6970667358 0x22 SLT KECCAK256 PUSH11 0x61CC12E0AEAA07731E5B0 PUSH19 0xB01DBBE4B0C1756CCE5E1AA7E845D43B68C1B9 PUSH5 0x736F6C6343 STOP ADDMOD EQ STOP CALLER "
				},
				"gasEstimates": {
					"creation": {
						"codeDepositCost": "1148400",
						"executionCost": "49722",
						"totalCost": "1198122"
					},
					"external": {
						"addr2money(address)": "2868",
						"bankBalance()": "335",
						"donors(uint256)": "5011",
						"getTop3Donors()": "infinite",
						"onReceive()": "infinite",
						"owner()": "2527",
						"top3donors(uint256)": "2795",
						"transferOwnership(address)": "26969",
						"withdraw()": "infinite"
					}
				},
				"methodIdentifiers": {
					"addr2money(address)": "c89f8245",
					"bankBalance()": "28657aa5",
					"donors(uint256)": "4abfa163",
					"getTop3Donors()": "2d1e2518",
					"onReceive()": "8e708bca",
					"owner()": "8da5cb5b",
					"top3donors(uint256)": "4f0f4bd3",
					"transferOwnership(address)": "f2fde38b",
					"withdraw()": "3ccfd60b"
				}
			},
			"storageLayout": {
				"storage": [
					{
						"astId": 47,
						"contract": "BigBank.sol:BigBank",
						"label": "owner",
						"offset": 0,
						"slot": "0",
						"type": "t_address"
					},
					{
						"astId": 50,
						"contract": "BigBank.sol:BigBank",
						"label": "donors",
						"offset": 0,
						"slot": "1",
						"type": "t_array(t_address)dyn_storage"
					},
					{
						"astId": 54,
						"contract": "BigBank.sol:BigBank",
						"label": "addr2money",
						"offset": 0,
						"slot": "2",
						"type": "t_mapping(t_address,t_uint256)"
					},
					{
						"astId": 58,
						"contract": "BigBank.sol:BigBank",
						"label": "top3donors",
						"offset": 0,
						"slot": "3",
						"type": "t_array(t_address)3_storage"
					}
				],
				"types": {
					"t_address": {
						"encoding": "inplace",
						"label": "address",
						"numberOfBytes": "20"
					},
					"t_array(t_address)3_storage": {
						"base": "t_address",
						"encoding": "inplace",
						"label": "address[3]",
						"numberOfBytes": "96"
					},
					"t_array(t_address)dyn_storage": {
						"base": "t_address",
						"encoding": "dynamic_array",
						"label": "address[]",
						"numberOfBytes": "32"
					},
					"t_mapping(t_address,t_uint256)": {
						"encoding": "mapping",
						"key": "t_address",
						"label": "mapping(address => uint256)",
						"numberOfBytes": "32",
						"value": "t_uint256"
					},
					"t_uint256": {
						"encoding": "inplace",
						"label": "uint256",
						"numberOfBytes": "32"
					}
				}
			},
			"userdoc": {
				"kind": "user",
				"methods": {},
				"version": 1
			}
		}
	}
}