{
	"BigBank.sol": {
		"Bank": {
			"abi": [
				{
					"inputs": [],
					"stateMutability": "nonpayable",
					"type": "constructor"
				},
				{
					"anonymous": false,
					"inputs": [
						{
							"indexed": false,
							"internalType": "address",
							"name": "",
							"type": "address"
						},
						{
							"indexed": false,
							"internalType": "uint256",
							"name": "",
							"type": "uint256"
						}
					],
					"name": "Received",
					"type": "event"
				},
				{
					"anonymous": false,
					"inputs": [
						{
							"indexed": false,
							"internalType": "address",
							"name": "",
							"type": "address"
						},
						{
							"indexed": false,
							"internalType": "uint256",
							"name": "",
							"type": "uint256"
						}
					],
					"name": "Withdrawed",
					"type": "event"
				},
				{
					"inputs": [
						{
							"internalType": "address",
							"name": "",
							"type": "address"
						}
					],
					"name": "addr2money",
					"outputs": [
						{
							"internalType": "uint256",
							"name": "",
							"type": "uint256"
						}
					],
					"stateMutability": "view",
					"type": "function"
				},
				{
					"inputs": [],
					"name": "bankBalance",
					"outputs": [
						{
							"internalType": "uint256",
							"name": "",
							"type": "uint256"
						}
					],
					"stateMutability": "view",
					"type": "function"
				},
				{
					"inputs": [
						{
							"internalType": "uint256",
							"name": "",
							"type": "uint256"
						}
					],
					"name": "donors",
					"outputs": [
						{
							"internalType": "address",
							"name": "",
							"type": "address"
						}
					],
					"stateMutability": "view",
					"type": "function"
				},
				{
					"inputs": [],
					"name": "getTop3Donors",
					"outputs": [
						{
							"internalType": "address[3]",
							"name": "",
							"type": "address[3]"
						}
					],
					"stateMutability": "view",
					"type": "function"
				},
				{
					"inputs": [],
					"name": "onReceive",
					"outputs": [],
					"stateMutability": "payable",
					"type": "function"
				},
				{
					"inputs": [],
					"name": "owner",
					"outputs": [
						{
							"internalType": "address",
							"name": "",
							"type": "address"
						}
					],
					"stateMutability": "view",
					"type": "function"
				},
				{
					"inputs": [
						{
							"internalType": "uint256",
							"name": "",
							"type": "uint256"
						}
					],
					"name": "top3donors",
					"outputs": [
						{
							"internalType": "address",
							"name": "",
							"type": "address"
						}
					],
					"stateMutability": "view",
					"type": "function"
				},
				{
					"inputs": [],
					"name": "withdraw",
					"outputs": [],
					"stateMutability": "nonpayable",
					"type": "function"
				},
				{
					"stateMutability": "payable",
					"type": "receive"
				}
			],
			"devdoc": {
				"kind": "dev",
				"methods": {},
				"version": 1
			},
			"evm": {
				"assembly": "    /* \"BigBank.sol\":721:4803  contract Bank is IBank {... */\n  mstore(0x40, 0x80)\n    /* \"BigBank.sol\":938:987  constructor() {... */\n  callvalue\n  dup1\n  iszero\n  tag_1\n  jumpi\n  0x00\n  dup1\n  revert\ntag_1:\n  pop\n    /* \"BigBank.sol\":970:980  msg.sender */\n  caller\n    /* \"BigBank.sol\":962:967  owner */\n  0x00\n  dup1\n    /* \"BigBank.sol\":962:980  owner = msg.sender */\n  0x0100\n  exp\n  dup2\n  sload\n  dup2\n  0xffffffffffffffffffffffffffffffffffffffff\n  mul\n  not\n  and\n  swap1\n  dup4\n  0xffffffffffffffffffffffffffffffffffffffff\n  and\n  mul\n  or\n  swap1\n  sstore\n  pop\n    /* \"BigBank.sol\":721:4803  contract Bank is IBank {... */\n  dataSize(sub_0)\n  dup1\n  dataOffset(sub_0)\n  0x00\n  codecopy\n  0x00\n  return\nstop\n\nsub_0: assembly {\n        /* \"BigBank.sol\":721:4803  contract Bank is IBank {... */\n      mstore(0x40, 0x80)\n      jumpi(tag_1, lt(calldatasize, 0x04))\n      shr(0xe0, calldataload(0x00))\n      dup1\n      0x4f0f4bd3\n      gt\n      tag_11\n      jumpi\n      dup1\n      0x4f0f4bd3\n      eq\n      tag_7\n      jumpi\n      dup1\n      0x8da5cb5b\n      eq\n      tag_8\n      jumpi\n      dup1\n      0x8e708bca\n      eq\n      tag_9\n      jumpi\n      dup1\n      0xc89f8245\n      eq\n      tag_10\n      jumpi\n      jump(tag_2)\n    tag_11:\n      dup1\n      0x28657aa5\n      eq\n      tag_3\n      jumpi\n      dup1\n      0x2d1e2518\n      eq\n      tag_4\n      jumpi\n      dup1\n      0x3ccfd60b\n      eq\n      tag_5\n      jumpi\n      dup1\n      0x4abfa163\n      eq\n      tag_6\n      jumpi\n      jump(tag_2)\n    tag_1:\n      jumpi(tag_2, calldatasize)\n        /* \"BigBank.sol\":1683:1714  Received(msg.sender, msg.value) */\n      0x88a5966d370b9919b20f3e2c13ff65706f196a4e32cc2c12bf57088f88525874\n        /* \"BigBank.sol\":1692:1702  msg.sender */\n      caller\n        /* \"BigBank.sol\":1704:1713  msg.value */\n      callvalue\n        /* \"BigBank.sol\":1683:1714  Received(msg.sender, msg.value) */\n      mload(0x40)\n      tag_14\n      swap3\n      swap2\n      swap1\n      tag_15\n      jump\t// in\n    tag_14:\n      mload(0x40)\n      dup1\n      swap2\n      sub\n      swap1\n      log1\n        /* \"BigBank.sol\":1724:1735  onReceive() */\n      tag_16\n        /* \"BigBank.sol\":1724:1733  onReceive */\n      tag_17\n        /* \"BigBank.sol\":1724:1735  onReceive() */\n      jump\t// in\n    tag_16:\n        /* \"BigBank.sol\":721:4803  contract Bank is IBank {... */\n      stop\n    tag_2:\n      0x00\n      dup1\n      revert\n        /* \"BigBank.sol\":1800:1895  function bankBalance() public view returns (uint) {... */\n    tag_3:\n      callvalue\n      dup1\n      iszero\n      tag_18\n      jumpi\n      0x00\n      dup1\n      revert\n    tag_18:\n      pop\n      tag_19\n      tag_20\n      jump\t// in\n    tag_19:\n      mload(0x40)\n      tag_21\n      swap2\n      swap1\n      tag_22\n      jump\t// in\n    tag_21:\n      mload(0x40)\n      dup1\n      swap2\n      sub\n      swap1\n      return\n        /* \"BigBank.sol\":2210:2309  function getTop3Donors() public view returns (address[3] memory) {... */\n    tag_4:\n      callvalue\n      dup1\n      iszero\n      tag_23\n      jumpi\n      0x00\n      dup1\n      revert\n    tag_23:\n      pop\n      tag_24\n      tag_25\n      jump\t// in\n    tag_24:\n      mload(0x40)\n      tag_26\n      swap2\n      swap1\n      tag_27\n      jump\t// in\n    tag_26:\n      mload(0x40)\n      dup1\n      swap2\n      sub\n      swap1\n      return\n        /* \"BigBank.sol\":1996:2156  function withdraw() public onlyOwner {... */\n    tag_5:\n      callvalue\n      dup1\n      iszero\n      tag_28\n      jumpi\n      0x00\n      dup1\n      revert\n    tag_28:\n      pop\n      tag_29\n      tag_30\n      jump\t// in\n    tag_29:\n      stop\n        /* \"BigBank.sol\":776:799  address[] public donors */\n    tag_6:\n      callvalue\n      dup1\n      iszero\n      tag_31\n      jumpi\n      0x00\n      dup1\n      revert\n    tag_31:\n      pop\n      tag_32\n      0x04\n      dup1\n      calldatasize\n      sub\n      dup2\n      add\n      swap1\n      tag_33\n      swap2\n      swap1\n      tag_34\n      jump\t// in\n    tag_33:\n      tag_35\n      jump\t// in\n    tag_32:\n      mload(0x40)\n      tag_36\n      swap2\n      swap1\n      tag_37\n      jump\t// in\n    tag_36:\n      mload(0x40)\n      dup1\n      swap2\n      sub\n      swap1\n      return\n        /* \"BigBank.sol\":853:881  address[3] public top3donors */\n    tag_7:\n      callvalue\n      dup1\n      iszero\n      tag_38\n      jumpi\n      0x00\n      dup1\n      revert\n    tag_38:\n      pop\n      tag_39\n      0x04\n      dup1\n      calldatasize\n      sub\n      dup2\n      add\n      swap1\n      tag_40\n      swap2\n      swap1\n      tag_34\n      jump\t// in\n    tag_40:\n      tag_41\n      jump\t// in\n    tag_39:\n      mload(0x40)\n      tag_42\n      swap2\n      swap1\n      tag_37\n      jump\t// in\n    tag_42:\n      mload(0x40)\n      dup1\n      swap2\n      sub\n      swap1\n      return\n        /* \"BigBank.sol\":750:770  address public owner */\n    tag_8:\n      callvalue\n      dup1\n      iszero\n      tag_43\n      jumpi\n      0x00\n      dup1\n      revert\n    tag_43:\n      pop\n      tag_44\n      tag_45\n      jump\t// in\n    tag_44:\n      mload(0x40)\n      tag_46\n      swap2\n      swap1\n      tag_37\n      jump\t// in\n    tag_46:\n      mload(0x40)\n      dup1\n      swap2\n      sub\n      swap1\n      return\n        /* \"BigBank.sol\":1215:1627  function onReceive() public payable virtual {... */\n    tag_9:\n      tag_47\n      tag_17\n      jump\t// in\n    tag_47:\n      stop\n        /* \"BigBank.sol\":805:847  mapping(address => uint) public addr2money */\n    tag_10:\n      callvalue\n      dup1\n      iszero\n      tag_48\n      jumpi\n      0x00\n      dup1\n      revert\n    tag_48:\n      pop\n      tag_49\n      0x04\n      dup1\n      calldatasize\n      sub\n      dup2\n      add\n      swap1\n      tag_50\n      swap2\n      swap1\n      tag_51\n      jump\t// in\n    tag_50:\n      tag_52\n      jump\t// in\n    tag_49:\n      mload(0x40)\n      tag_53\n      swap2\n      swap1\n      tag_22\n      jump\t// in\n    tag_53:\n      mload(0x40)\n      dup1\n      swap2\n      sub\n      swap1\n      return\n        /* \"BigBank.sol\":1215:1627  function onReceive() public payable virtual {... */\n    tag_17:\n        /* \"BigBank.sol\":1370:1371  0 */\n      0x00\n        /* \"BigBank.sol\":1344:1354  addr2money */\n      0x02\n        /* \"BigBank.sol\":1344:1366  addr2money[msg.sender] */\n      0x00\n        /* \"BigBank.sol\":1355:1365  msg.sender */\n      caller\n        /* \"BigBank.sol\":1344:1366  addr2money[msg.sender] */\n      0xffffffffffffffffffffffffffffffffffffffff\n      and\n      0xffffffffffffffffffffffffffffffffffffffff\n      and\n      dup2\n      mstore\n      0x20\n      add\n      swap1\n      dup2\n      mstore\n      0x20\n      add\n      0x00\n      keccak256\n      sload\n        /* \"BigBank.sol\":1344:1371  addr2money[msg.sender] == 0 */\n      sub\n        /* \"BigBank.sol\":1341:1420  if(addr2money[msg.sender] == 0){... */\n      tag_55\n      jumpi\n        /* \"BigBank.sol\":1386:1392  donors */\n      0x01\n        /* \"BigBank.sol\":1398:1408  msg.sender */\n      caller\n        /* \"BigBank.sol\":1386:1409  donors.push(msg.sender) */\n      swap1\n      dup1\n      0x01\n      dup2\n      sload\n      add\n      dup1\n      dup3\n      sstore\n      dup1\n      swap2\n      pop\n      pop\n      0x01\n      swap1\n      sub\n      swap1\n      0x00\n      mstore\n      keccak256(0x00, 0x20)\n      add\n      0x00\n      swap1\n      swap2\n      swap1\n      swap2\n      swap1\n      swap2\n      0x0100\n      exp\n      dup2\n      sload\n      dup2\n      0xffffffffffffffffffffffffffffffffffffffff\n      mul\n      not\n      and\n      swap1\n      dup4\n      0xffffffffffffffffffffffffffffffffffffffff\n      and\n      mul\n      or\n      swap1\n      sstore\n      pop\n        /* \"BigBank.sol\":1341:1420  if(addr2money[msg.sender] == 0){... */\n    tag_55:\n        /* \"BigBank.sol\":1485:1494  msg.value */\n      callvalue\n        /* \"BigBank.sol\":1459:1469  addr2money */\n      0x02\n        /* \"BigBank.sol\":1459:1481  addr2money[msg.sender] */\n      0x00\n        /* \"BigBank.sol\":1470:1480  msg.sender */\n      caller\n        /* \"BigBank.sol\":1459:1481  addr2money[msg.sender] */\n      0xffffffffffffffffffffffffffffffffffffffff\n      and\n      0xffffffffffffffffffffffffffffffffffffffff\n      and\n      dup2\n      mstore\n      0x20\n      add\n      swap1\n      dup2\n      mstore\n      0x20\n      add\n      0x00\n      keccak256\n      0x00\n        /* \"BigBank.sol\":1459:1494  addr2money[msg.sender] += msg.value */\n      dup3\n      dup3\n      sload\n      tag_57\n      swap2\n      swap1\n      tag_58\n      jump\t// in\n    tag_57:\n      swap3\n      pop\n      pop\n      dup2\n      swap1\n      sstore\n      pop\n        /* \"BigBank.sol\":1591:1620  _updateTop3Donors(msg.sender) */\n      tag_59\n        /* \"BigBank.sol\":1609:1619  msg.sender */\n      caller\n        /* \"BigBank.sol\":1591:1608  _updateTop3Donors */\n      tag_60\n        /* \"BigBank.sol\":1591:1620  _updateTop3Donors(msg.sender) */\n      jump\t// in\n    tag_59:\n        /* \"BigBank.sol\":1215:1627  function onReceive() public payable virtual {... */\n      jump\t// out\n        /* \"BigBank.sol\":1800:1895  function bankBalance() public view returns (uint) {... */\n    tag_20:\n        /* \"BigBank.sol\":1844:1848  uint */\n      0x00\n        /* \"BigBank.sol\":1867:1888  address(this).balance */\n      selfbalance\n        /* \"BigBank.sol\":1860:1888  return address(this).balance */\n      swap1\n      pop\n        /* \"BigBank.sol\":1800:1895  function bankBalance() public view returns (uint) {... */\n      swap1\n      jump\t// out\n        /* \"BigBank.sol\":2210:2309  function getTop3Donors() public view returns (address[3] memory) {... */\n    tag_25:\n        /* \"BigBank.sol\":2256:2273  address[3] memory */\n      tag_62\n      tag_63\n      jump\t// in\n    tag_62:\n        /* \"BigBank.sol\":2292:2302  top3donors */\n      0x03\n        /* \"BigBank.sol\":2285:2302  return top3donors */\n      dup1\n      dup1\n      0x20\n      mul\n      mload(0x40)\n      swap1\n      dup2\n      add\n      0x40\n      mstore\n      dup1\n      swap3\n      swap2\n      swap1\n      dup3\n      0x03\n      dup1\n      iszero\n      tag_65\n      jumpi\n      0x20\n      mul\n      dup3\n      add\n      swap2\n    tag_66:\n      dup2\n      0x00\n      swap1\n      sload\n      swap1\n      0x0100\n      exp\n      swap1\n      div\n      0xffffffffffffffffffffffffffffffffffffffff\n      and\n      0xffffffffffffffffffffffffffffffffffffffff\n      and\n      dup2\n      mstore\n      0x20\n      add\n      swap1\n      0x01\n      add\n      swap1\n      dup1\n      dup4\n      gt\n      tag_66\n      jumpi\n    tag_65:\n      pop\n      pop\n      pop\n      pop\n      pop\n      swap1\n      pop\n        /* \"BigBank.sol\":2210:2309  function getTop3Donors() public view returns (address[3] memory) {... */\n      swap1\n      jump\t// out\n        /* \"BigBank.sol\":1996:2156  function withdraw() public onlyOwner {... */\n    tag_30:\n        /* \"BigBank.sol\":1085:1090  owner */\n      0x00\n      dup1\n      sload\n      swap1\n      0x0100\n      exp\n      swap1\n      div\n      0xffffffffffffffffffffffffffffffffffffffff\n      and\n        /* \"BigBank.sol\":1071:1090  msg.sender == owner */\n      0xffffffffffffffffffffffffffffffffffffffff\n      and\n        /* \"BigBank.sol\":1071:1081  msg.sender */\n      caller\n        /* \"BigBank.sol\":1071:1090  msg.sender == owner */\n      0xffffffffffffffffffffffffffffffffffffffff\n      and\n      eq\n        /* \"BigBank.sol\":1063:1104  require(msg.sender == owner, \"not owner\") */\n      tag_68\n      jumpi\n      mload(0x40)\n      0x08c379a000000000000000000000000000000000000000000000000000000000\n      dup2\n      mstore\n      0x04\n      add\n      tag_69\n      swap1\n      tag_70\n      jump\t// in\n    tag_69:\n      mload(0x40)\n      dup1\n      swap2\n      sub\n      swap1\n      revert\n    tag_68:\n        /* \"BigBank.sol\":2048:2093  Withdrawed(msg.sender, address(this).balance) */\n      0x6cca423c6ffc06e62a0acc433965e074b11c28479b0449250ce3ff65ac9e39fe\n        /* \"BigBank.sol\":2059:2069  msg.sender */\n      caller\n        /* \"BigBank.sol\":2071:2092  address(this).balance */\n      selfbalance\n        /* \"BigBank.sol\":2048:2093  Withdrawed(msg.sender, address(this).balance) */\n      mload(0x40)\n      tag_72\n      swap3\n      swap2\n      swap1\n      tag_15\n      jump\t// in\n    tag_72:\n      mload(0x40)\n      dup1\n      swap2\n      sub\n      swap1\n      log1\n        /* \"BigBank.sol\":2111:2116  owner */\n      0x00\n      dup1\n      sload\n      swap1\n      0x0100\n      exp\n      swap1\n      div\n      0xffffffffffffffffffffffffffffffffffffffff\n      and\n        /* \"BigBank.sol\":2103:2126  payable(owner).transfer */\n      0xffffffffffffffffffffffffffffffffffffffff\n      and\n        /* \"BigBank.sol\":2103:2149  payable(owner).transfer(address(this).balance) */\n      0x08fc\n        /* \"BigBank.sol\":2127:2148  address(this).balance */\n      selfbalance\n        /* \"BigBank.sol\":2103:2149  payable(owner).transfer(address(this).balance) */\n      swap1\n      dup2\n      iszero\n      mul\n      swap1\n      mload(0x40)\n      0x00\n      mload(0x40)\n      dup1\n      dup4\n      sub\n      dup2\n      dup6\n      dup9\n      dup9\n      call\n      swap4\n      pop\n      pop\n      pop\n      pop\n      iszero\n      dup1\n      iszero\n      tag_74\n      jumpi\n      returndatasize\n      0x00\n      dup1\n      returndatacopy\n      revert(0x00, returndatasize)\n    tag_74:\n      pop\n        /* \"BigBank.sol\":1996:2156  function withdraw() public onlyOwner {... */\n      jump\t// out\n        /* \"BigBank.sol\":776:799  address[] public donors */\n    tag_35:\n      0x01\n      dup2\n      dup2\n      sload\n      dup2\n      lt\n      tag_75\n      jumpi\n      0x00\n      dup1\n      revert\n    tag_75:\n      swap1\n      0x00\n      mstore\n      keccak256(0x00, 0x20)\n      add\n      0x00\n      swap2\n      pop\n      sload\n      swap1\n      0x0100\n      exp\n      swap1\n      div\n      0xffffffffffffffffffffffffffffffffffffffff\n      and\n      dup2\n      jump\t// out\n        /* \"BigBank.sol\":853:881  address[3] public top3donors */\n    tag_41:\n      0x03\n      dup2\n      0x03\n      dup2\n      lt\n      tag_77\n      jumpi\n      0x00\n      dup1\n      revert\n    tag_77:\n      add\n      0x00\n      swap2\n      pop\n      sload\n      swap1\n      0x0100\n      exp\n      swap1\n      div\n      0xffffffffffffffffffffffffffffffffffffffff\n      and\n      dup2\n      jump\t// out\n        /* \"BigBank.sol\":750:770  address public owner */\n    tag_45:\n      0x00\n      dup1\n      sload\n      swap1\n      0x0100\n      exp\n      swap1\n      div\n      0xffffffffffffffffffffffffffffffffffffffff\n      and\n      dup2\n      jump\t// out\n        /* \"BigBank.sol\":805:847  mapping(address => uint) public addr2money */\n    tag_52:\n      mstore(0x20, 0x02)\n      dup1\n      0x00\n      mstore\n      keccak256(0x00, 0x40)\n      0x00\n      swap2\n      pop\n      swap1\n      pop\n      sload\n      dup2\n      jump\t// out\n        /* \"BigBank.sol\":2354:3600  function _updateTop3Donors(address newDonor) internal {... */\n    tag_60:\n        /* \"BigBank.sol\":2484:2490  uint i */\n      0x00\n        /* \"BigBank.sol\":2479:2754  for (uint i = 0; i < 3; i++) {... */\n    tag_80:\n        /* \"BigBank.sol\":2500:2501  3 */\n      0x03\n        /* \"BigBank.sol\":2496:2497  i */\n      dup2\n        /* \"BigBank.sol\":2496:2501  i < 3 */\n      lt\n        /* \"BigBank.sol\":2479:2754  for (uint i = 0; i < 3; i++) {... */\n      iszero\n      tag_81\n      jumpi\n        /* \"BigBank.sol\":2538:2548  top3donors */\n      0x03\n        /* \"BigBank.sol\":2549:2550  i */\n      dup2\n        /* \"BigBank.sol\":2538:2551  top3donors[i] */\n      0x03\n      dup2\n      lt\n      tag_83\n      jumpi\n      tag_84\n      tag_85\n      jump\t// in\n    tag_84:\n    tag_83:\n      add\n      0x00\n      swap1\n      sload\n      swap1\n      0x0100\n      exp\n      swap1\n      div\n      0xffffffffffffffffffffffffffffffffffffffff\n      and\n        /* \"BigBank.sol\":2526:2551  newDonor == top3donors[i] */\n      0xffffffffffffffffffffffffffffffffffffffff\n      and\n        /* \"BigBank.sol\":2526:2534  newDonor */\n      dup3\n        /* \"BigBank.sol\":2526:2551  newDonor == top3donors[i] */\n      0xffffffffffffffffffffffffffffffffffffffff\n      and\n      sub\n        /* \"BigBank.sol\":2522:2744  if (newDonor == top3donors[i]) {... */\n      tag_87\n      jumpi\n        /* \"BigBank.sol\":2677:2705  _sortTop3Donors(i, newDonor) */\n      tag_88\n        /* \"BigBank.sol\":2693:2694  i */\n      dup2\n        /* \"BigBank.sol\":2696:2704  newDonor */\n      dup4\n        /* \"BigBank.sol\":2677:2692  _sortTop3Donors */\n      tag_89\n        /* \"BigBank.sol\":2677:2705  _sortTop3Donors(i, newDonor) */\n      jump\t// in\n    tag_88:\n        /* \"BigBank.sol\":2723:2730  return; */\n      pop\n      jump(tag_79)\n        /* \"BigBank.sol\":2522:2744  if (newDonor == top3donors[i]) {... */\n    tag_87:\n        /* \"BigBank.sol\":2503:2506  i++ */\n      dup1\n      dup1\n      tag_90\n      swap1\n      tag_91\n      jump\t// in\n    tag_90:\n      swap2\n      pop\n      pop\n        /* \"BigBank.sol\":2479:2754  for (uint i = 0; i < 3; i++) {... */\n      jump(tag_80)\n    tag_81:\n      pop\n        /* \"BigBank.sol\":2951:2952  0 */\n      0x00\n        /* \"BigBank.sol\":2926:2953  top3donors[0] == address(0) */\n      0xffffffffffffffffffffffffffffffffffffffff\n      and\n        /* \"BigBank.sol\":2926:2936  top3donors */\n      0x03\n        /* \"BigBank.sol\":2937:2938  0 */\n      0x00\n        /* \"BigBank.sol\":2926:2939  top3donors[0] */\n      0x03\n      dup2\n      lt\n      tag_92\n      jumpi\n      tag_93\n      tag_85\n      jump\t// in\n    tag_93:\n    tag_92:\n      add\n      0x00\n      swap1\n      sload\n      swap1\n      0x0100\n      exp\n      swap1\n      div\n      0xffffffffffffffffffffffffffffffffffffffff\n      and\n        /* \"BigBank.sol\":2926:2953  top3donors[0] == address(0) */\n      0xffffffffffffffffffffffffffffffffffffffff\n      and\n      eq\n        /* \"BigBank.sol\":2926:2996  top3donors[0] == address(0) ||... */\n      dup1\n      tag_95\n      jumpi\n      pop\n        /* \"BigBank.sol\":2994:2995  0 */\n      0x00\n        /* \"BigBank.sol\":2969:2996  top3donors[1] == address(0) */\n      0xffffffffffffffffffffffffffffffffffffffff\n      and\n        /* \"BigBank.sol\":2969:2979  top3donors */\n      0x03\n        /* \"BigBank.sol\":2980:2981  1 */\n      0x01\n        /* \"BigBank.sol\":2969:2982  top3donors[1] */\n      0x03\n      dup2\n      lt\n      tag_96\n      jumpi\n      tag_97\n      tag_85\n      jump\t// in\n    tag_97:\n    tag_96:\n      add\n      0x00\n      swap1\n      sload\n      swap1\n      0x0100\n      exp\n      swap1\n      div\n      0xffffffffffffffffffffffffffffffffffffffff\n      and\n        /* \"BigBank.sol\":2969:2996  top3donors[1] == address(0) */\n      0xffffffffffffffffffffffffffffffffffffffff\n      and\n      eq\n        /* \"BigBank.sol\":2926:2996  top3donors[0] == address(0) ||... */\n    tag_95:\n        /* \"BigBank.sol\":2926:3039  top3donors[0] == address(0) ||... */\n      dup1\n      tag_99\n      jumpi\n      pop\n        /* \"BigBank.sol\":3037:3038  0 */\n      0x00\n        /* \"BigBank.sol\":3012:3039  top3donors[2] == address(0) */\n      0xffffffffffffffffffffffffffffffffffffffff\n      and\n        /* \"BigBank.sol\":3012:3022  top3donors */\n      0x03\n        /* \"BigBank.sol\":3023:3024  2 */\n      0x02\n        /* \"BigBank.sol\":3012:3025  top3donors[2] */\n      0x03\n      dup2\n      lt\n      tag_100\n      jumpi\n      tag_101\n      tag_85\n      jump\t// in\n    tag_101:\n    tag_100:\n      add\n      0x00\n      swap1\n      sload\n      swap1\n      0x0100\n      exp\n      swap1\n      div\n      0xffffffffffffffffffffffffffffffffffffffff\n      and\n        /* \"BigBank.sol\":3012:3039  top3donors[2] == address(0) */\n      0xffffffffffffffffffffffffffffffffffffffff\n      and\n      eq\n        /* \"BigBank.sol\":2926:3039  top3donors[0] == address(0) ||... */\n    tag_99:\n        /* \"BigBank.sol\":2926:3103  top3donors[0] == address(0) ||... */\n      dup1\n      tag_103\n      jumpi\n      pop\n        /* \"BigBank.sol\":3078:3088  addr2money */\n      0x02\n        /* \"BigBank.sol\":3078:3103  addr2money[top3donors[0]] */\n      0x00\n        /* \"BigBank.sol\":3089:3099  top3donors */\n      0x03\n        /* \"BigBank.sol\":3100:3101  0 */\n      0x00\n        /* \"BigBank.sol\":3089:3102  top3donors[0] */\n      0x03\n      dup2\n      lt\n      tag_104\n      jumpi\n      tag_105\n      tag_85\n      jump\t// in\n    tag_105:\n    tag_104:\n      add\n      0x00\n      swap1\n      sload\n      swap1\n      0x0100\n      exp\n      swap1\n      div\n      0xffffffffffffffffffffffffffffffffffffffff\n      and\n        /* \"BigBank.sol\":3078:3103  addr2money[top3donors[0]] */\n      0xffffffffffffffffffffffffffffffffffffffff\n      and\n      0xffffffffffffffffffffffffffffffffffffffff\n      and\n      dup2\n      mstore\n      0x20\n      add\n      swap1\n      dup2\n      mstore\n      0x20\n      add\n      0x00\n      keccak256\n      sload\n        /* \"BigBank.sol\":3055:3065  addr2money */\n      0x02\n        /* \"BigBank.sol\":3055:3075  addr2money[newDonor] */\n      0x00\n        /* \"BigBank.sol\":3066:3074  newDonor */\n      dup4\n        /* \"BigBank.sol\":3055:3075  addr2money[newDonor] */\n      0xffffffffffffffffffffffffffffffffffffffff\n      and\n      0xffffffffffffffffffffffffffffffffffffffff\n      and\n      dup2\n      mstore\n      0x20\n      add\n      swap1\n      dup2\n      mstore\n      0x20\n      add\n      0x00\n      keccak256\n      sload\n        /* \"BigBank.sol\":3055:3103  addr2money[newDonor] > addr2money[top3donors[0]] */\n      gt\n        /* \"BigBank.sol\":2926:3103  top3donors[0] == address(0) ||... */\n    tag_103:\n        /* \"BigBank.sol\":2926:3167  top3donors[0] == address(0) ||... */\n      dup1\n      tag_107\n      jumpi\n      pop\n        /* \"BigBank.sol\":3142:3152  addr2money */\n      0x02\n        /* \"BigBank.sol\":3142:3167  addr2money[top3donors[1]] */\n      0x00\n        /* \"BigBank.sol\":3153:3163  top3donors */\n      0x03\n        /* \"BigBank.sol\":3164:3165  1 */\n      0x01\n        /* \"BigBank.sol\":3153:3166  top3donors[1] */\n      0x03\n      dup2\n      lt\n      tag_108\n      jumpi\n      tag_109\n      tag_85\n      jump\t// in\n    tag_109:\n    tag_108:\n      add\n      0x00\n      swap1\n      sload\n      swap1\n      0x0100\n      exp\n      swap1\n      div\n      0xffffffffffffffffffffffffffffffffffffffff\n      and\n        /* \"BigBank.sol\":3142:3167  addr2money[top3donors[1]] */\n      0xffffffffffffffffffffffffffffffffffffffff\n      and\n      0xffffffffffffffffffffffffffffffffffffffff\n      and\n      dup2\n      mstore\n      0x20\n      add\n      swap1\n      dup2\n      mstore\n      0x20\n      add\n      0x00\n      keccak256\n      sload\n        /* \"BigBank.sol\":3119:3129  addr2money */\n      0x02\n        /* \"BigBank.sol\":3119:3139  addr2money[newDonor] */\n      0x00\n        /* \"BigBank.sol\":3130:3138  newDonor */\n      dup4\n        /* \"BigBank.sol\":3119:3139  addr2money[newDonor] */\n      0xffffffffffffffffffffffffffffffffffffffff\n      and\n      0xffffffffffffffffffffffffffffffffffffffff\n      and\n      dup2\n      mstore\n      0x20\n      add\n      swap1\n      dup2\n      mstore\n      0x20\n      add\n      0x00\n      keccak256\n      sload\n        /* \"BigBank.sol\":3119:3167  addr2money[newDonor] > addr2money[top3donors[1]] */\n      gt\n        /* \"BigBank.sol\":2926:3167  top3donors[0] == address(0) ||... */\n    tag_107:\n        /* \"BigBank.sol\":2926:3231  top3donors[0] == address(0) ||... */\n      dup1\n      tag_111\n      jumpi\n      pop\n        /* \"BigBank.sol\":3206:3216  addr2money */\n      0x02\n        /* \"BigBank.sol\":3206:3231  addr2money[top3donors[2]] */\n      0x00\n        /* \"BigBank.sol\":3217:3227  top3donors */\n      0x03\n        /* \"BigBank.sol\":3228:3229  2 */\n      0x02\n        /* \"BigBank.sol\":3217:3230  top3donors[2] */\n      0x03\n      dup2\n      lt\n      tag_112\n      jumpi\n      tag_113\n      tag_85\n      jump\t// in\n    tag_113:\n    tag_112:\n      add\n      0x00\n      swap1\n      sload\n      swap1\n      0x0100\n      exp\n      swap1\n      div\n      0xffffffffffffffffffffffffffffffffffffffff\n      and\n        /* \"BigBank.sol\":3206:3231  addr2money[top3donors[2]] */\n      0xffffffffffffffffffffffffffffffffffffffff\n      and\n      0xffffffffffffffffffffffffffffffffffffffff\n      and\n      dup2\n      mstore\n      0x20\n      add\n      swap1\n      dup2\n      mstore\n      0x20\n      add\n      0x00\n      keccak256\n      sload\n        /* \"BigBank.sol\":3183:3193  addr2money */\n      0x02\n        /* \"BigBank.sol\":3183:3203  addr2money[newDonor] */\n      0x00\n        /* \"BigBank.sol\":3194:3202  newDonor */\n      dup4\n        /* \"BigBank.sol\":3183:3203  addr2money[newDonor] */\n      0xffffffffffffffffffffffffffffffffffffffff\n      and\n      0xffffffffffffffffffffffffffffffffffffffff\n      and\n      dup2\n      mstore\n      0x20\n      add\n      swap1\n      dup2\n      mstore\n      0x20\n      add\n      0x00\n      keccak256\n      sload\n        /* \"BigBank.sol\":3183:3231  addr2money[newDonor] > addr2money[top3donors[2]] */\n      gt\n        /* \"BigBank.sol\":2926:3231  top3donors[0] == address(0) ||... */\n    tag_111:\n        /* \"BigBank.sol\":2922:3594  if (top3donors[0] == address(0) ||... */\n      iszero\n      tag_115\n      jumpi\n        /* \"BigBank.sol\":3341:3342  0 */\n      0x00\n        /* \"BigBank.sol\":3316:3343  top3donors[2] == address(0) */\n      0xffffffffffffffffffffffffffffffffffffffff\n      and\n        /* \"BigBank.sol\":3316:3326  top3donors */\n      0x03\n        /* \"BigBank.sol\":3327:3328  2 */\n      0x02\n        /* \"BigBank.sol\":3316:3329  top3donors[2] */\n      0x03\n      dup2\n      lt\n      tag_116\n      jumpi\n      tag_117\n      tag_85\n      jump\t// in\n    tag_117:\n    tag_116:\n      add\n      0x00\n      swap1\n      sload\n      swap1\n      0x0100\n      exp\n      swap1\n      div\n      0xffffffffffffffffffffffffffffffffffffffff\n      and\n        /* \"BigBank.sol\":3316:3343  top3donors[2] == address(0) */\n      0xffffffffffffffffffffffffffffffffffffffff\n      and\n      eq\n        /* \"BigBank.sol\":3316:3395  top3donors[2] == address(0) || addr2money[newDonor] > addr2money[top3donors[2]] */\n      dup1\n      tag_119\n      jumpi\n      pop\n        /* \"BigBank.sol\":3370:3380  addr2money */\n      0x02\n        /* \"BigBank.sol\":3370:3395  addr2money[top3donors[2]] */\n      0x00\n        /* \"BigBank.sol\":3381:3391  top3donors */\n      0x03\n        /* \"BigBank.sol\":3392:3393  2 */\n      0x02\n        /* \"BigBank.sol\":3381:3394  top3donors[2] */\n      0x03\n      dup2\n      lt\n      tag_120\n      jumpi\n      tag_121\n      tag_85\n      jump\t// in\n    tag_121:\n    tag_120:\n      add\n      0x00\n      swap1\n      sload\n      swap1\n      0x0100\n      exp\n      swap1\n      div\n      0xffffffffffffffffffffffffffffffffffffffff\n      and\n        /* \"BigBank.sol\":3370:3395  addr2money[top3donors[2]] */\n      0xffffffffffffffffffffffffffffffffffffffff\n      and\n      0xffffffffffffffffffffffffffffffffffffffff\n      and\n      dup2\n      mstore\n      0x20\n      add\n      swap1\n      dup2\n      mstore\n      0x20\n      add\n      0x00\n      keccak256\n      sload\n        /* \"BigBank.sol\":3347:3357  addr2money */\n      0x02\n        /* \"BigBank.sol\":3347:3367  addr2money[newDonor] */\n      0x00\n        /* \"BigBank.sol\":3358:3366  newDonor */\n      dup4\n        /* \"BigBank.sol\":3347:3367  addr2money[newDonor] */\n      0xffffffffffffffffffffffffffffffffffffffff\n      and\n      0xffffffffffffffffffffffffffffffffffffffff\n      and\n      dup2\n      mstore\n      0x20\n      add\n      swap1\n      dup2\n      mstore\n      0x20\n      add\n      0x00\n      keccak256\n      sload\n        /* \"BigBank.sol\":3347:3395  addr2money[newDonor] > addr2money[top3donors[2]] */\n      gt\n        /* \"BigBank.sol\":3316:3395  top3donors[2] == address(0) || addr2money[newDonor] > addr2money[top3donors[2]] */\n    tag_119:\n        /* \"BigBank.sol\":3312:3454  if (top3donors[2] == address(0) || addr2money[newDonor] > addr2money[top3donors[2]]) {... */\n      iszero\n      tag_123\n      jumpi\n        /* \"BigBank.sol\":3431:3439  newDonor */\n      dup1\n        /* \"BigBank.sol\":3415:3425  top3donors */\n      0x03\n        /* \"BigBank.sol\":3426:3427  2 */\n      0x02\n        /* \"BigBank.sol\":3415:3428  top3donors[2] */\n      0x03\n      dup2\n      lt\n      tag_124\n      jumpi\n      tag_125\n      tag_85\n      jump\t// in\n    tag_125:\n    tag_124:\n      add\n      0x00\n        /* \"BigBank.sol\":3415:3439  top3donors[2] = newDonor */\n      0x0100\n      exp\n      dup2\n      sload\n      dup2\n      0xffffffffffffffffffffffffffffffffffffffff\n      mul\n      not\n      and\n      swap1\n      dup4\n      0xffffffffffffffffffffffffffffffffffffffff\n      and\n      mul\n      or\n      swap1\n      sstore\n      pop\n        /* \"BigBank.sol\":3312:3454  if (top3donors[2] == address(0) || addr2money[newDonor] > addr2money[top3donors[2]]) {... */\n    tag_123:\n        /* \"BigBank.sol\":3555:3583  _sortTop3Donors(2, newDonor) */\n      tag_127\n        /* \"BigBank.sol\":3571:3572  2 */\n      0x02\n        /* \"BigBank.sol\":3574:3582  newDonor */\n      dup3\n        /* \"BigBank.sol\":3555:3570  _sortTop3Donors */\n      tag_89\n        /* \"BigBank.sol\":3555:3583  _sortTop3Donors(2, newDonor) */\n      jump\t// in\n    tag_127:\n        /* \"BigBank.sol\":2922:3594  if (top3donors[0] == address(0) ||... */\n    tag_115:\n        /* \"BigBank.sol\":2354:3600  function _updateTop3Donors(address newDonor) internal {... */\n    tag_79:\n      pop\n      jump\t// out\n        /* \"BigBank.sol\":3670:4801  function _sortTop3Donors(uint i, address newDonor) internal {... */\n    tag_89:\n        /* \"BigBank.sol\":3824:3825  0 */\n      0x00\n        /* \"BigBank.sol\":3819:3820  i */\n      dup3\n        /* \"BigBank.sol\":3819:3825  i == 0 */\n      sub\n        /* \"BigBank.sol\":3815:4795  if (i == 0) {... */\n      iszero\n        /* \"BigBank.sol\":3841:3848  return; */\n      tag_128\n        /* \"BigBank.sol\":3815:4795  if (i == 0) {... */\n      jumpi\n        /* \"BigBank.sol\":3945:3946  1 */\n      0x01\n        /* \"BigBank.sol\":3940:3941  i */\n      dup3\n        /* \"BigBank.sol\":3940:3946  i == 1 */\n      eq\n        /* \"BigBank.sol\":3940:3998  i == 1 && addr2money[newDonor] > addr2money[top3donors[0]] */\n      dup1\n      iszero\n      tag_131\n      jumpi\n      pop\n        /* \"BigBank.sol\":3973:3983  addr2money */\n      0x02\n        /* \"BigBank.sol\":3973:3998  addr2money[top3donors[0]] */\n      0x00\n        /* \"BigBank.sol\":3984:3994  top3donors */\n      0x03\n        /* \"BigBank.sol\":3995:3996  0 */\n      0x00\n        /* \"BigBank.sol\":3984:3997  top3donors[0] */\n      0x03\n      dup2\n      lt\n      tag_132\n      jumpi\n      tag_133\n      tag_85\n      jump\t// in\n    tag_133:\n    tag_132:\n      add\n      0x00\n      swap1\n      sload\n      swap1\n      0x0100\n      exp\n      swap1\n      div\n      0xffffffffffffffffffffffffffffffffffffffff\n      and\n        /* \"BigBank.sol\":3973:3998  addr2money[top3donors[0]] */\n      0xffffffffffffffffffffffffffffffffffffffff\n      and\n      0xffffffffffffffffffffffffffffffffffffffff\n      and\n      dup2\n      mstore\n      0x20\n      add\n      swap1\n      dup2\n      mstore\n      0x20\n      add\n      0x00\n      keccak256\n      sload\n        /* \"BigBank.sol\":3950:3960  addr2money */\n      0x02\n        /* \"BigBank.sol\":3950:3970  addr2money[newDonor] */\n      0x00\n        /* \"BigBank.sol\":3961:3969  newDonor */\n      dup4\n        /* \"BigBank.sol\":3950:3970  addr2money[newDonor] */\n      0xffffffffffffffffffffffffffffffffffffffff\n      and\n      0xffffffffffffffffffffffffffffffffffffffff\n      and\n      dup2\n      mstore\n      0x20\n      add\n      swap1\n      dup2\n      mstore\n      0x20\n      add\n      0x00\n      keccak256\n      sload\n        /* \"BigBank.sol\":3950:3998  addr2money[newDonor] > addr2money[top3donors[0]] */\n      gt\n        /* \"BigBank.sol\":3940:3998  i == 1 && addr2money[newDonor] > addr2money[top3donors[0]] */\n    tag_131:\n        /* \"BigBank.sol\":3936:4795  if (i == 1 && addr2money[newDonor] > addr2money[top3donors[0]]) {... */\n      iszero\n      tag_135\n      jumpi\n        /* \"BigBank.sol\":4030:4040  top3donors */\n      0x03\n        /* \"BigBank.sol\":4041:4042  0 */\n      0x00\n        /* \"BigBank.sol\":4030:4043  top3donors[0] */\n      0x03\n      dup2\n      lt\n      tag_136\n      jumpi\n      tag_137\n      tag_85\n      jump\t// in\n    tag_137:\n    tag_136:\n      add\n      0x00\n      swap1\n      sload\n      swap1\n      0x0100\n      exp\n      swap1\n      div\n      0xffffffffffffffffffffffffffffffffffffffff\n      and\n        /* \"BigBank.sol\":4014:4024  top3donors */\n      0x03\n        /* \"BigBank.sol\":4025:4026  1 */\n      0x01\n        /* \"BigBank.sol\":4014:4027  top3donors[1] */\n      0x03\n      dup2\n      lt\n      tag_139\n      jumpi\n      tag_140\n      tag_85\n      jump\t// in\n    tag_140:\n    tag_139:\n      add\n      0x00\n        /* \"BigBank.sol\":4014:4043  top3donors[1] = top3donors[0] */\n      0x0100\n      exp\n      dup2\n      sload\n      dup2\n      0xffffffffffffffffffffffffffffffffffffffff\n      mul\n      not\n      and\n      swap1\n      dup4\n      0xffffffffffffffffffffffffffffffffffffffff\n      and\n      mul\n      or\n      swap1\n      sstore\n      pop\n        /* \"BigBank.sol\":4073:4081  newDonor */\n      dup1\n        /* \"BigBank.sol\":4057:4067  top3donors */\n      0x03\n        /* \"BigBank.sol\":4068:4069  0 */\n      0x00\n        /* \"BigBank.sol\":4057:4070  top3donors[0] */\n      0x03\n      dup2\n      lt\n      tag_142\n      jumpi\n      tag_143\n      tag_85\n      jump\t// in\n    tag_143:\n    tag_142:\n      add\n      0x00\n        /* \"BigBank.sol\":4057:4081  top3donors[0] = newDonor */\n      0x0100\n      exp\n      dup2\n      sload\n      dup2\n      0xffffffffffffffffffffffffffffffffffffffff\n      mul\n      not\n      and\n      swap1\n      dup4\n      0xffffffffffffffffffffffffffffffffffffffff\n      and\n      mul\n      or\n      swap1\n      sstore\n      pop\n        /* \"BigBank.sol\":3936:4795  if (i == 1 && addr2money[newDonor] > addr2money[top3donors[0]]) {... */\n      jump(tag_145)\n    tag_135:\n        /* \"BigBank.sol\":4224:4225  2 */\n      0x02\n        /* \"BigBank.sol\":4219:4220  i */\n      dup3\n        /* \"BigBank.sol\":4219:4225  i == 2 */\n      eq\n        /* \"BigBank.sol\":4219:4277  i == 2 && addr2money[newDonor] > addr2money[top3donors[1]] */\n      dup1\n      iszero\n      tag_146\n      jumpi\n      pop\n        /* \"BigBank.sol\":4252:4262  addr2money */\n      0x02\n        /* \"BigBank.sol\":4252:4277  addr2money[top3donors[1]] */\n      0x00\n        /* \"BigBank.sol\":4263:4273  top3donors */\n      0x03\n        /* \"BigBank.sol\":4274:4275  1 */\n      0x01\n        /* \"BigBank.sol\":4263:4276  top3donors[1] */\n      0x03\n      dup2\n      lt\n      tag_147\n      jumpi\n      tag_148\n      tag_85\n      jump\t// in\n    tag_148:\n    tag_147:\n      add\n      0x00\n      swap1\n      sload\n      swap1\n      0x0100\n      exp\n      swap1\n      div\n      0xffffffffffffffffffffffffffffffffffffffff\n      and\n        /* \"BigBank.sol\":4252:4277  addr2money[top3donors[1]] */\n      0xffffffffffffffffffffffffffffffffffffffff\n      and\n      0xffffffffffffffffffffffffffffffffffffffff\n      and\n      dup2\n      mstore\n      0x20\n      add\n      swap1\n      dup2\n      mstore\n      0x20\n      add\n      0x00\n      keccak256\n      sload\n        /* \"BigBank.sol\":4229:4239  addr2money */\n      0x02\n        /* \"BigBank.sol\":4229:4249  addr2money[newDonor] */\n      0x00\n        /* \"BigBank.sol\":4240:4248  newDonor */\n      dup4\n        /* \"BigBank.sol\":4229:4249  addr2money[newDonor] */\n      0xffffffffffffffffffffffffffffffffffffffff\n      and\n      0xffffffffffffffffffffffffffffffffffffffff\n      and\n      dup2\n      mstore\n      0x20\n      add\n      swap1\n      dup2\n      mstore\n      0x20\n      add\n      0x00\n      keccak256\n      sload\n        /* \"BigBank.sol\":4229:4277  addr2money[newDonor] > addr2money[top3donors[1]] */\n      gt\n        /* \"BigBank.sol\":4219:4277  i == 2 && addr2money[newDonor] > addr2money[top3donors[1]] */\n    tag_146:\n        /* \"BigBank.sol\":4219:4349  i == 2 && addr2money[newDonor] > addr2money[top3donors[1]] && ... */\n      dup1\n      iszero\n      tag_150\n      jumpi\n      pop\n        /* \"BigBank.sol\":4324:4334  addr2money */\n      0x02\n        /* \"BigBank.sol\":4324:4349  addr2money[top3donors[0]] */\n      0x00\n        /* \"BigBank.sol\":4335:4345  top3donors */\n      0x03\n        /* \"BigBank.sol\":4346:4347  0 */\n      0x00\n        /* \"BigBank.sol\":4335:4348  top3donors[0] */\n      0x03\n      dup2\n      lt\n      tag_151\n      jumpi\n      tag_152\n      tag_85\n      jump\t// in\n    tag_152:\n    tag_151:\n      add\n      0x00\n      swap1\n      sload\n      swap1\n      0x0100\n      exp\n      swap1\n      div\n      0xffffffffffffffffffffffffffffffffffffffff\n      and\n        /* \"BigBank.sol\":4324:4349  addr2money[top3donors[0]] */\n      0xffffffffffffffffffffffffffffffffffffffff\n      and\n      0xffffffffffffffffffffffffffffffffffffffff\n      and\n      dup2\n      mstore\n      0x20\n      add\n      swap1\n      dup2\n      mstore\n      0x20\n      add\n      0x00\n      keccak256\n      sload\n        /* \"BigBank.sol\":4300:4310  addr2money */\n      0x02\n        /* \"BigBank.sol\":4300:4320  addr2money[newDonor] */\n      0x00\n        /* \"BigBank.sol\":4311:4319  newDonor */\n      dup4\n        /* \"BigBank.sol\":4300:4320  addr2money[newDonor] */\n      0xffffffffffffffffffffffffffffffffffffffff\n      and\n      0xffffffffffffffffffffffffffffffffffffffff\n      and\n      dup2\n      mstore\n      0x20\n      add\n      swap1\n      dup2\n      mstore\n      0x20\n      add\n      0x00\n      keccak256\n      sload\n        /* \"BigBank.sol\":4300:4349  addr2money[newDonor] <= addr2money[top3donors[0]] */\n      gt\n      iszero\n        /* \"BigBank.sol\":4219:4349  i == 2 && addr2money[newDonor] > addr2money[top3donors[1]] && ... */\n    tag_150:\n        /* \"BigBank.sol\":4215:4795  if (i == 2 && addr2money[newDonor] > addr2money[top3donors[1]] && ... */\n      iszero\n      tag_154\n      jumpi\n        /* \"BigBank.sol\":4381:4391  top3donors */\n      0x03\n        /* \"BigBank.sol\":4392:4393  1 */\n      0x01\n        /* \"BigBank.sol\":4381:4394  top3donors[1] */\n      0x03\n      dup2\n      lt\n      tag_155\n      jumpi\n      tag_156\n      tag_85\n      jump\t// in\n    tag_156:\n    tag_155:\n      add\n      0x00\n      swap1\n      sload\n      swap1\n      0x0100\n      exp\n      swap1\n      div\n      0xffffffffffffffffffffffffffffffffffffffff\n      and\n        /* \"BigBank.sol\":4365:4375  top3donors */\n      0x03\n        /* \"BigBank.sol\":4376:4377  2 */\n      0x02\n        /* \"BigBank.sol\":4365:4378  top3donors[2] */\n      0x03\n      dup2\n      lt\n      tag_158\n      jumpi\n      tag_159\n      tag_85\n      jump\t// in\n    tag_159:\n    tag_158:\n      add\n      0x00\n        /* \"BigBank.sol\":4365:4394  top3donors[2] = top3donors[1] */\n      0x0100\n      exp\n      dup2\n      sload\n      dup2\n      0xffffffffffffffffffffffffffffffffffffffff\n      mul\n      not\n      and\n      swap1\n      dup4\n      0xffffffffffffffffffffffffffffffffffffffff\n      and\n      mul\n      or\n      swap1\n      sstore\n      pop\n        /* \"BigBank.sol\":4424:4432  newDonor */\n      dup1\n        /* \"BigBank.sol\":4408:4418  top3donors */\n      0x03\n        /* \"BigBank.sol\":4419:4420  1 */\n      0x01\n        /* \"BigBank.sol\":4408:4421  top3donors[1] */\n      0x03\n      dup2\n      lt\n      tag_161\n      jumpi\n      tag_162\n      tag_85\n      jump\t// in\n    tag_162:\n    tag_161:\n      add\n      0x00\n        /* \"BigBank.sol\":4408:4432  top3donors[1] = newDonor */\n      0x0100\n      exp\n      dup2\n      sload\n      dup2\n      0xffffffffffffffffffffffffffffffffffffffff\n      mul\n      not\n      and\n      swap1\n      dup4\n      0xffffffffffffffffffffffffffffffffffffffff\n      and\n      mul\n      or\n      swap1\n      sstore\n      pop\n        /* \"BigBank.sol\":4215:4795  if (i == 2 && addr2money[newDonor] > addr2money[top3donors[1]] && ... */\n      jump(tag_164)\n    tag_154:\n        /* \"BigBank.sol\":4605:4606  2 */\n      0x02\n        /* \"BigBank.sol\":4600:4601  i */\n      dup3\n        /* \"BigBank.sol\":4600:4606  i == 2 */\n      eq\n        /* \"BigBank.sol\":4600:4658  i == 2 && addr2money[newDonor] > addr2money[top3donors[0]] */\n      dup1\n      iszero\n      tag_165\n      jumpi\n      pop\n        /* \"BigBank.sol\":4633:4643  addr2money */\n      0x02\n        /* \"BigBank.sol\":4633:4658  addr2money[top3donors[0]] */\n      0x00\n        /* \"BigBank.sol\":4644:4654  top3donors */\n      0x03\n        /* \"BigBank.sol\":4655:4656  0 */\n      0x00\n        /* \"BigBank.sol\":4644:4657  top3donors[0] */\n      0x03\n      dup2\n      lt\n      tag_166\n      jumpi\n      tag_167\n      tag_85\n      jump\t// in\n    tag_167:\n    tag_166:\n      add\n      0x00\n      swap1\n      sload\n      swap1\n      0x0100\n      exp\n      swap1\n      div\n      0xffffffffffffffffffffffffffffffffffffffff\n      and\n        /* \"BigBank.sol\":4633:4658  addr2money[top3donors[0]] */\n      0xffffffffffffffffffffffffffffffffffffffff\n      and\n      0xffffffffffffffffffffffffffffffffffffffff\n      and\n      dup2\n      mstore\n      0x20\n      add\n      swap1\n      dup2\n      mstore\n      0x20\n      add\n      0x00\n      keccak256\n      sload\n        /* \"BigBank.sol\":4610:4620  addr2money */\n      0x02\n        /* \"BigBank.sol\":4610:4630  addr2money[newDonor] */\n      0x00\n        /* \"BigBank.sol\":4621:4629  newDonor */\n      dup4\n        /* \"BigBank.sol\":4610:4630  addr2money[newDonor] */\n      0xffffffffffffffffffffffffffffffffffffffff\n      and\n      0xffffffffffffffffffffffffffffffffffffffff\n      and\n      dup2\n      mstore\n      0x20\n      add\n      swap1\n      dup2\n      mstore\n      0x20\n      add\n      0x00\n      keccak256\n      sload\n        /* \"BigBank.sol\":4610:4658  addr2money[newDonor] > addr2money[top3donors[0]] */\n      gt\n        /* \"BigBank.sol\":4600:4658  i == 2 && addr2money[newDonor] > addr2money[top3donors[0]] */\n    tag_165:\n        /* \"BigBank.sol\":4596:4795  if (i == 2 && addr2money[newDonor] > addr2money[top3donors[0]]) {... */\n      iszero\n      tag_169\n      jumpi\n        /* \"BigBank.sol\":4690:4700  top3donors */\n      0x03\n        /* \"BigBank.sol\":4701:4702  1 */\n      0x01\n        /* \"BigBank.sol\":4690:4703  top3donors[1] */\n      0x03\n      dup2\n      lt\n      tag_170\n      jumpi\n      tag_171\n      tag_85\n      jump\t// in\n    tag_171:\n    tag_170:\n      add\n      0x00\n      swap1\n      sload\n      swap1\n      0x0100\n      exp\n      swap1\n      div\n      0xffffffffffffffffffffffffffffffffffffffff\n      and\n        /* \"BigBank.sol\":4674:4684  top3donors */\n      0x03\n        /* \"BigBank.sol\":4685:4686  2 */\n      0x02\n        /* \"BigBank.sol\":4674:4687  top3donors[2] */\n      0x03\n      dup2\n      lt\n      tag_173\n      jumpi\n      tag_174\n      tag_85\n      jump\t// in\n    tag_174:\n    tag_173:\n      add\n      0x00\n        /* \"BigBank.sol\":4674:4703  top3donors[2] = top3donors[1] */\n      0x0100\n      exp\n      dup2\n      sload\n      dup2\n      0xffffffffffffffffffffffffffffffffffffffff\n      mul\n      not\n      and\n      swap1\n      dup4\n      0xffffffffffffffffffffffffffffffffffffffff\n      and\n      mul\n      or\n      swap1\n      sstore\n      pop\n        /* \"BigBank.sol\":4733:4743  top3donors */\n      0x03\n        /* \"BigBank.sol\":4744:4745  0 */\n      0x00\n        /* \"BigBank.sol\":4733:4746  top3donors[0] */\n      0x03\n      dup2\n      lt\n      tag_176\n      jumpi\n      tag_177\n      tag_85\n      jump\t// in\n    tag_177:\n    tag_176:\n      add\n      0x00\n      swap1\n      sload\n      swap1\n      0x0100\n      exp\n      swap1\n      div\n      0xffffffffffffffffffffffffffffffffffffffff\n      and\n        /* \"BigBank.sol\":4717:4727  top3donors */\n      0x03\n        /* \"BigBank.sol\":4728:4729  1 */\n      0x01\n        /* \"BigBank.sol\":4717:4730  top3donors[1] */\n      0x03\n      dup2\n      lt\n      tag_179\n      jumpi\n      tag_180\n      tag_85\n      jump\t// in\n    tag_180:\n    tag_179:\n      add\n      0x00\n        /* \"BigBank.sol\":4717:4746  top3donors[1] = top3donors[0] */\n      0x0100\n      exp\n      dup2\n      sload\n      dup2\n      0xffffffffffffffffffffffffffffffffffffffff\n      mul\n      not\n      and\n      swap1\n      dup4\n      0xffffffffffffffffffffffffffffffffffffffff\n      and\n      mul\n      or\n      swap1\n      sstore\n      pop\n        /* \"BigBank.sol\":4776:4784  newDonor */\n      dup1\n        /* \"BigBank.sol\":4760:4770  top3donors */\n      0x03\n        /* \"BigBank.sol\":4771:4772  0 */\n      0x00\n        /* \"BigBank.sol\":4760:4773  top3donors[0] */\n      0x03\n      dup2\n      lt\n      tag_182\n      jumpi\n      tag_183\n      tag_85\n      jump\t// in\n    tag_183:\n    tag_182:\n      add\n      0x00\n        /* \"BigBank.sol\":4760:4784  top3donors[0] = newDonor */\n      0x0100\n      exp\n      dup2\n      sload\n      dup2\n      0xffffffffffffffffffffffffffffffffffffffff\n      mul\n      not\n      and\n      swap1\n      dup4\n      0xffffffffffffffffffffffffffffffffffffffff\n      and\n      mul\n      or\n      swap1\n      sstore\n      pop\n        /* \"BigBank.sol\":4596:4795  if (i == 2 && addr2money[newDonor] > addr2money[top3donors[0]]) {... */\n    tag_169:\n        /* \"BigBank.sol\":4215:4795  if (i == 2 && addr2money[newDonor] > addr2money[top3donors[1]] && ... */\n    tag_164:\n        /* \"BigBank.sol\":3936:4795  if (i == 1 && addr2money[newDonor] > addr2money[top3donors[0]]) {... */\n    tag_145:\n        /* \"BigBank.sol\":3670:4801  function _sortTop3Donors(uint i, address newDonor) internal {... */\n    tag_128:\n      pop\n      pop\n      jump\t// out\n    tag_63:\n      mload(0x40)\n      dup1\n      0x60\n      add\n      0x40\n      mstore\n      dup1\n      0x03\n      swap1\n      0x20\n      dup3\n      mul\n      dup1\n      calldatasize\n      dup4\n      calldatacopy\n      dup1\n      dup3\n      add\n      swap2\n      pop\n      pop\n      swap1\n      pop\n      pop\n      swap1\n      jump\t// out\n        /* \"#utility.yul\":7:133   */\n    tag_185:\n        /* \"#utility.yul\":44:51   */\n      0x00\n        /* \"#utility.yul\":84:126   */\n      0xffffffffffffffffffffffffffffffffffffffff\n        /* \"#utility.yul\":77:82   */\n      dup3\n        /* \"#utility.yul\":73:127   */\n      and\n        /* \"#utility.yul\":62:127   */\n      swap1\n      pop\n        /* \"#utility.yul\":7:133   */\n      swap2\n      swap1\n      pop\n      jump\t// out\n        /* \"#utility.yul\":139:235   */\n    tag_186:\n        /* \"#utility.yul\":176:183   */\n      0x00\n        /* \"#utility.yul\":205:229   */\n      tag_211\n        /* \"#utility.yul\":223:228   */\n      dup3\n        /* \"#utility.yul\":205:229   */\n      tag_185\n      jump\t// in\n    tag_211:\n        /* \"#utility.yul\":194:229   */\n      swap1\n      pop\n        /* \"#utility.yul\":139:235   */\n      swap2\n      swap1\n      pop\n      jump\t// out\n        /* \"#utility.yul\":241:359   */\n    tag_187:\n        /* \"#utility.yul\":328:352   */\n      tag_213\n        /* \"#utility.yul\":346:351   */\n      dup2\n        /* \"#utility.yul\":328:352   */\n      tag_186\n      jump\t// in\n    tag_213:\n        /* \"#utility.yul\":323:326   */\n      dup3\n        /* \"#utility.yul\":316:353   */\n      mstore\n        /* \"#utility.yul\":241:359   */\n      pop\n      pop\n      jump\t// out\n        /* \"#utility.yul\":365:442   */\n    tag_188:\n        /* \"#utility.yul\":402:409   */\n      0x00\n        /* \"#utility.yul\":431:436   */\n      dup2\n        /* \"#utility.yul\":420:436   */\n      swap1\n      pop\n        /* \"#utility.yul\":365:442   */\n      swap2\n      swap1\n      pop\n      jump\t// out\n        /* \"#utility.yul\":448:566   */\n    tag_189:\n        /* \"#utility.yul\":535:559   */\n      tag_216\n        /* \"#utility.yul\":553:558   */\n      dup2\n        /* \"#utility.yul\":535:559   */\n      tag_188\n      jump\t// in\n    tag_216:\n        /* \"#utility.yul\":530:533   */\n      dup3\n        /* \"#utility.yul\":523:560   */\n      mstore\n        /* \"#utility.yul\":448:566   */\n      pop\n      pop\n      jump\t// out\n        /* \"#utility.yul\":572:904   */\n    tag_15:\n        /* \"#utility.yul\":693:697   */\n      0x00\n        /* \"#utility.yul\":731:733   */\n      0x40\n        /* \"#utility.yul\":720:729   */\n      dup3\n        /* \"#utility.yul\":716:734   */\n      add\n        /* \"#utility.yul\":708:734   */\n      swap1\n      pop\n        /* \"#utility.yul\":744:815   */\n      tag_218\n        /* \"#utility.yul\":812:813   */\n      0x00\n        /* \"#utility.yul\":801:810   */\n      dup4\n        /* \"#utility.yul\":797:814   */\n      add\n        /* \"#utility.yul\":788:794   */\n      dup6\n        /* \"#utility.yul\":744:815   */\n      tag_187\n      jump\t// in\n    tag_218:\n        /* \"#utility.yul\":825:897   */\n      tag_219\n        /* \"#utility.yul\":893:895   */\n      0x20\n        /* \"#utility.yul\":882:891   */\n      dup4\n        /* \"#utility.yul\":878:896   */\n      add\n        /* \"#utility.yul\":869:875   */\n      dup5\n        /* \"#utility.yul\":825:897   */\n      tag_189\n      jump\t// in\n    tag_219:\n        /* \"#utility.yul\":572:904   */\n      swap4\n      swap3\n      pop\n      pop\n      pop\n      jump\t// out\n        /* \"#utility.yul\":910:1132   */\n    tag_22:\n        /* \"#utility.yul\":1003:1007   */\n      0x00\n        /* \"#utility.yul\":1041:1043   */\n      0x20\n        /* \"#utility.yul\":1030:1039   */\n      dup3\n        /* \"#utility.yul\":1026:1044   */\n      add\n        /* \"#utility.yul\":1018:1044   */\n      swap1\n      pop\n        /* \"#utility.yul\":1054:1125   */\n      tag_221\n        /* \"#utility.yul\":1122:1123   */\n      0x00\n        /* \"#utility.yul\":1111:1120   */\n      dup4\n        /* \"#utility.yul\":1107:1124   */\n      add\n        /* \"#utility.yul\":1098:1104   */\n      dup5\n        /* \"#utility.yul\":1054:1125   */\n      tag_189\n      jump\t// in\n    tag_221:\n        /* \"#utility.yul\":910:1132   */\n      swap3\n      swap2\n      pop\n      pop\n      jump\t// out\n        /* \"#utility.yul\":1138:1242   */\n    tag_190:\n        /* \"#utility.yul\":1203:1209   */\n      0x00\n        /* \"#utility.yul\":1231:1235   */\n      0x03\n        /* \"#utility.yul\":1221:1235   */\n      swap1\n      pop\n        /* \"#utility.yul\":1138:1242   */\n      swap2\n      swap1\n      pop\n      jump\t// out\n        /* \"#utility.yul\":1248:1391   */\n    tag_191:\n        /* \"#utility.yul\":1345:1356   */\n      0x00\n        /* \"#utility.yul\":1382:1385   */\n      dup2\n        /* \"#utility.yul\":1367:1385   */\n      swap1\n      pop\n        /* \"#utility.yul\":1248:1391   */\n      swap3\n      swap2\n      pop\n      pop\n      jump\t// out\n        /* \"#utility.yul\":1397:1495   */\n    tag_192:\n        /* \"#utility.yul\":1462:1466   */\n      0x00\n        /* \"#utility.yul\":1485:1488   */\n      dup2\n        /* \"#utility.yul\":1477:1488   */\n      swap1\n      pop\n        /* \"#utility.yul\":1397:1495   */\n      swap2\n      swap1\n      pop\n      jump\t// out\n        /* \"#utility.yul\":1501:1609   */\n    tag_193:\n        /* \"#utility.yul\":1578:1602   */\n      tag_226\n        /* \"#utility.yul\":1596:1601   */\n      dup2\n        /* \"#utility.yul\":1578:1602   */\n      tag_186\n      jump\t// in\n    tag_226:\n        /* \"#utility.yul\":1573:1576   */\n      dup3\n        /* \"#utility.yul\":1566:1603   */\n      mstore\n        /* \"#utility.yul\":1501:1609   */\n      pop\n      pop\n      jump\t// out\n        /* \"#utility.yul\":1615:1794   */\n    tag_194:\n        /* \"#utility.yul\":1684:1694   */\n      0x00\n        /* \"#utility.yul\":1705:1751   */\n      tag_228\n        /* \"#utility.yul\":1747:1750   */\n      dup4\n        /* \"#utility.yul\":1739:1745   */\n      dup4\n        /* \"#utility.yul\":1705:1751   */\n      tag_193\n      jump\t// in\n    tag_228:\n        /* \"#utility.yul\":1783:1787   */\n      0x20\n        /* \"#utility.yul\":1778:1781   */\n      dup4\n        /* \"#utility.yul\":1774:1788   */\n      add\n        /* \"#utility.yul\":1760:1788   */\n      swap1\n      pop\n        /* \"#utility.yul\":1615:1794   */\n      swap3\n      swap2\n      pop\n      pop\n      jump\t// out\n        /* \"#utility.yul\":1800:1911   */\n    tag_195:\n        /* \"#utility.yul\":1868:1872   */\n      0x00\n        /* \"#utility.yul\":1900:1904   */\n      0x20\n        /* \"#utility.yul\":1895:1898   */\n      dup3\n        /* \"#utility.yul\":1891:1905   */\n      add\n        /* \"#utility.yul\":1883:1905   */\n      swap1\n      pop\n        /* \"#utility.yul\":1800:1911   */\n      swap2\n      swap1\n      pop\n      jump\t// out\n        /* \"#utility.yul\":1949:2643   */\n    tag_196:\n        /* \"#utility.yul\":2085:2137   */\n      tag_231\n        /* \"#utility.yul\":2131:2136   */\n      dup2\n        /* \"#utility.yul\":2085:2137   */\n      tag_190\n      jump\t// in\n    tag_231:\n        /* \"#utility.yul\":2153:2237   */\n      tag_232\n        /* \"#utility.yul\":2230:2236   */\n      dup2\n        /* \"#utility.yul\":2225:2228   */\n      dup5\n        /* \"#utility.yul\":2153:2237   */\n      tag_191\n      jump\t// in\n    tag_232:\n        /* \"#utility.yul\":2146:2237   */\n      swap3\n      pop\n        /* \"#utility.yul\":2261:2315   */\n      tag_233\n        /* \"#utility.yul\":2309:2314   */\n      dup3\n        /* \"#utility.yul\":2261:2315   */\n      tag_192\n      jump\t// in\n    tag_233:\n        /* \"#utility.yul\":2338:2345   */\n      dup1\n        /* \"#utility.yul\":2369:2370   */\n      0x00\n        /* \"#utility.yul\":2354:2636   */\n    tag_234:\n        /* \"#utility.yul\":2379:2385   */\n      dup4\n        /* \"#utility.yul\":2376:2377   */\n      dup2\n        /* \"#utility.yul\":2373:2386   */\n      lt\n        /* \"#utility.yul\":2354:2636   */\n      iszero\n      tag_236\n      jumpi\n        /* \"#utility.yul\":2455:2461   */\n      dup2\n        /* \"#utility.yul\":2449:2462   */\n      mload\n        /* \"#utility.yul\":2482:2545   */\n      tag_237\n        /* \"#utility.yul\":2541:2544   */\n      dup8\n        /* \"#utility.yul\":2526:2539   */\n      dup3\n        /* \"#utility.yul\":2482:2545   */\n      tag_194\n      jump\t// in\n    tag_237:\n        /* \"#utility.yul\":2475:2545   */\n      swap7\n      pop\n        /* \"#utility.yul\":2568:2626   */\n      tag_238\n        /* \"#utility.yul\":2619:2625   */\n      dup4\n        /* \"#utility.yul\":2568:2626   */\n      tag_195\n      jump\t// in\n    tag_238:\n        /* \"#utility.yul\":2558:2626   */\n      swap3\n      pop\n        /* \"#utility.yul\":2414:2636   */\n      pop\n        /* \"#utility.yul\":2401:2402   */\n      0x01\n        /* \"#utility.yul\":2398:2399   */\n      dup2\n        /* \"#utility.yul\":2394:2403   */\n      add\n        /* \"#utility.yul\":2389:2403   */\n      swap1\n      pop\n        /* \"#utility.yul\":2354:2636   */\n      jump(tag_234)\n    tag_236:\n        /* \"#utility.yul\":2358:2372   */\n      pop\n        /* \"#utility.yul\":2061:2643   */\n      pop\n      pop\n      pop\n        /* \"#utility.yul\":1949:2643   */\n      pop\n      pop\n      jump\t// out\n        /* \"#utility.yul\":2649:2963   */\n    tag_27:\n        /* \"#utility.yul\":2788:2792   */\n      0x00\n        /* \"#utility.yul\":2826:2828   */\n      0x60\n        /* \"#utility.yul\":2815:2824   */\n      dup3\n        /* \"#utility.yul\":2811:2829   */\n      add\n        /* \"#utility.yul\":2803:2829   */\n      swap1\n      pop\n        /* \"#utility.yul\":2839:2956   */\n      tag_240\n        /* \"#utility.yul\":2953:2954   */\n      0x00\n        /* \"#utility.yul\":2942:2951   */\n      dup4\n        /* \"#utility.yul\":2938:2955   */\n      add\n        /* \"#utility.yul\":2929:2935   */\n      dup5\n        /* \"#utility.yul\":2839:2956   */\n      tag_196\n      jump\t// in\n    tag_240:\n        /* \"#utility.yul\":2649:2963   */\n      swap3\n      swap2\n      pop\n      pop\n      jump\t// out\n        /* \"#utility.yul\":3050:3167   */\n    tag_198:\n        /* \"#utility.yul\":3159:3160   */\n      0x00\n        /* \"#utility.yul\":3156:3157   */\n      dup1\n        /* \"#utility.yul\":3149:3161   */\n      revert\n        /* \"#utility.yul\":3296:3418   */\n    tag_200:\n        /* \"#utility.yul\":3369:3393   */\n      tag_245\n        /* \"#utility.yul\":3387:3392   */\n      dup2\n        /* \"#utility.yul\":3369:3393   */\n      tag_188\n      jump\t// in\n    tag_245:\n        /* \"#utility.yul\":3362:3367   */\n      dup2\n        /* \"#utility.yul\":3359:3394   */\n      eq\n        /* \"#utility.yul\":3349:3412   */\n      tag_246\n      jumpi\n        /* \"#utility.yul\":3408:3409   */\n      0x00\n        /* \"#utility.yul\":3405:3406   */\n      dup1\n        /* \"#utility.yul\":3398:3410   */\n      revert\n        /* \"#utility.yul\":3349:3412   */\n    tag_246:\n        /* \"#utility.yul\":3296:3418   */\n      pop\n      jump\t// out\n        /* \"#utility.yul\":3424:3563   */\n    tag_201:\n        /* \"#utility.yul\":3470:3475   */\n      0x00\n        /* \"#utility.yul\":3508:3514   */\n      dup2\n        /* \"#utility.yul\":3495:3515   */\n      calldataload\n        /* \"#utility.yul\":3486:3515   */\n      swap1\n      pop\n        /* \"#utility.yul\":3524:3557   */\n      tag_248\n        /* \"#utility.yul\":3551:3556   */\n      dup2\n        /* \"#utility.yul\":3524:3557   */\n      tag_200\n      jump\t// in\n    tag_248:\n        /* \"#utility.yul\":3424:3563   */\n      swap3\n      swap2\n      pop\n      pop\n      jump\t// out\n        /* \"#utility.yul\":3569:3898   */\n    tag_34:\n        /* \"#utility.yul\":3628:3634   */\n      0x00\n        /* \"#utility.yul\":3677:3679   */\n      0x20\n        /* \"#utility.yul\":3665:3674   */\n      dup3\n        /* \"#utility.yul\":3656:3663   */\n      dup5\n        /* \"#utility.yul\":3652:3675   */\n      sub\n        /* \"#utility.yul\":3648:3680   */\n      slt\n        /* \"#utility.yul\":3645:3764   */\n      iszero\n      tag_250\n      jumpi\n        /* \"#utility.yul\":3683:3762   */\n      tag_251\n      tag_198\n      jump\t// in\n    tag_251:\n        /* \"#utility.yul\":3645:3764   */\n    tag_250:\n        /* \"#utility.yul\":3803:3804   */\n      0x00\n        /* \"#utility.yul\":3828:3881   */\n      tag_252\n        /* \"#utility.yul\":3873:3880   */\n      dup5\n        /* \"#utility.yul\":3864:3870   */\n      dup3\n        /* \"#utility.yul\":3853:3862   */\n      dup6\n        /* \"#utility.yul\":3849:3871   */\n      add\n        /* \"#utility.yul\":3828:3881   */\n      tag_201\n      jump\t// in\n    tag_252:\n        /* \"#utility.yul\":3818:3881   */\n      swap2\n      pop\n        /* \"#utility.yul\":3774:3891   */\n      pop\n        /* \"#utility.yul\":3569:3898   */\n      swap3\n      swap2\n      pop\n      pop\n      jump\t// out\n        /* \"#utility.yul\":3904:4126   */\n    tag_37:\n        /* \"#utility.yul\":3997:4001   */\n      0x00\n        /* \"#utility.yul\":4035:4037   */\n      0x20\n        /* \"#utility.yul\":4024:4033   */\n      dup3\n        /* \"#utility.yul\":4020:4038   */\n      add\n        /* \"#utility.yul\":4012:4038   */\n      swap1\n      pop\n        /* \"#utility.yul\":4048:4119   */\n      tag_254\n        /* \"#utility.yul\":4116:4117   */\n      0x00\n        /* \"#utility.yul\":4105:4114   */\n      dup4\n        /* \"#utility.yul\":4101:4118   */\n      add\n        /* \"#utility.yul\":4092:4098   */\n      dup5\n        /* \"#utility.yul\":4048:4119   */\n      tag_187\n      jump\t// in\n    tag_254:\n        /* \"#utility.yul\":3904:4126   */\n      swap3\n      swap2\n      pop\n      pop\n      jump\t// out\n        /* \"#utility.yul\":4132:4254   */\n    tag_202:\n        /* \"#utility.yul\":4205:4229   */\n      tag_256\n        /* \"#utility.yul\":4223:4228   */\n      dup2\n        /* \"#utility.yul\":4205:4229   */\n      tag_186\n      jump\t// in\n    tag_256:\n        /* \"#utility.yul\":4198:4203   */\n      dup2\n        /* \"#utility.yul\":4195:4230   */\n      eq\n        /* \"#utility.yul\":4185:4248   */\n      tag_257\n      jumpi\n        /* \"#utility.yul\":4244:4245   */\n      0x00\n        /* \"#utility.yul\":4241:4242   */\n      dup1\n        /* \"#utility.yul\":4234:4246   */\n      revert\n        /* \"#utility.yul\":4185:4248   */\n    tag_257:\n        /* \"#utility.yul\":4132:4254   */\n      pop\n      jump\t// out\n        /* \"#utility.yul\":4260:4399   */\n    tag_203:\n        /* \"#utility.yul\":4306:4311   */\n      0x00\n        /* \"#utility.yul\":4344:4350   */\n      dup2\n        /* \"#utility.yul\":4331:4351   */\n      calldataload\n        /* \"#utility.yul\":4322:4351   */\n      swap1\n      pop\n        /* \"#utility.yul\":4360:4393   */\n      tag_259\n        /* \"#utility.yul\":4387:4392   */\n      dup2\n        /* \"#utility.yul\":4360:4393   */\n      tag_202\n      jump\t// in\n    tag_259:\n        /* \"#utility.yul\":4260:4399   */\n      swap3\n      swap2\n      pop\n      pop\n      jump\t// out\n        /* \"#utility.yul\":4405:4734   */\n    tag_51:\n        /* \"#utility.yul\":4464:4470   */\n      0x00\n        /* \"#utility.yul\":4513:4515   */\n      0x20\n        /* \"#utility.yul\":4501:4510   */\n      dup3\n        /* \"#utility.yul\":4492:4499   */\n      dup5\n        /* \"#utility.yul\":4488:4511   */\n      sub\n        /* \"#utility.yul\":4484:4516   */\n      slt\n        /* \"#utility.yul\":4481:4600   */\n      iszero\n      tag_261\n      jumpi\n        /* \"#utility.yul\":4519:4598   */\n      tag_262\n      tag_198\n      jump\t// in\n    tag_262:\n        /* \"#utility.yul\":4481:4600   */\n    tag_261:\n        /* \"#utility.yul\":4639:4640   */\n      0x00\n        /* \"#utility.yul\":4664:4717   */\n      tag_263\n        /* \"#utility.yul\":4709:4716   */\n      dup5\n        /* \"#utility.yul\":4700:4706   */\n      dup3\n        /* \"#utility.yul\":4689:4698   */\n      dup6\n        /* \"#utility.yul\":4685:4707   */\n      add\n        /* \"#utility.yul\":4664:4717   */\n      tag_203\n      jump\t// in\n    tag_263:\n        /* \"#utility.yul\":4654:4717   */\n      swap2\n      pop\n        /* \"#utility.yul\":4610:4727   */\n      pop\n        /* \"#utility.yul\":4405:4734   */\n      swap3\n      swap2\n      pop\n      pop\n      jump\t// out\n        /* \"#utility.yul\":4740:4920   */\n    tag_204:\n        /* \"#utility.yul\":4788:4865   */\n      0x4e487b7100000000000000000000000000000000000000000000000000000000\n        /* \"#utility.yul\":4785:4786   */\n      0x00\n        /* \"#utility.yul\":4778:4866   */\n      mstore\n        /* \"#utility.yul\":4885:4889   */\n      0x11\n        /* \"#utility.yul\":4882:4883   */\n      0x04\n        /* \"#utility.yul\":4875:4890   */\n      mstore\n        /* \"#utility.yul\":4909:4913   */\n      0x24\n        /* \"#utility.yul\":4906:4907   */\n      0x00\n        /* \"#utility.yul\":4899:4914   */\n      revert\n        /* \"#utility.yul\":4926:5117   */\n    tag_58:\n        /* \"#utility.yul\":4966:4969   */\n      0x00\n        /* \"#utility.yul\":4985:5005   */\n      tag_266\n        /* \"#utility.yul\":5003:5004   */\n      dup3\n        /* \"#utility.yul\":4985:5005   */\n      tag_188\n      jump\t// in\n    tag_266:\n        /* \"#utility.yul\":4980:5005   */\n      swap2\n      pop\n        /* \"#utility.yul\":5019:5039   */\n      tag_267\n        /* \"#utility.yul\":5037:5038   */\n      dup4\n        /* \"#utility.yul\":5019:5039   */\n      tag_188\n      jump\t// in\n    tag_267:\n        /* \"#utility.yul\":5014:5039   */\n      swap3\n      pop\n        /* \"#utility.yul\":5062:5063   */\n      dup3\n        /* \"#utility.yul\":5059:5060   */\n      dup3\n        /* \"#utility.yul\":5055:5064   */\n      add\n        /* \"#utility.yul\":5048:5064   */\n      swap1\n      pop\n        /* \"#utility.yul\":5083:5086   */\n      dup1\n        /* \"#utility.yul\":5080:5081   */\n      dup3\n        /* \"#utility.yul\":5077:5087   */\n      gt\n        /* \"#utility.yul\":5074:5110   */\n      iszero\n      tag_268\n      jumpi\n        /* \"#utility.yul\":5090:5108   */\n      tag_269\n      tag_204\n      jump\t// in\n    tag_269:\n        /* \"#utility.yul\":5074:5110   */\n    tag_268:\n        /* \"#utility.yul\":4926:5117   */\n      swap3\n      swap2\n      pop\n      pop\n      jump\t// out\n        /* \"#utility.yul\":5123:5292   */\n    tag_205:\n        /* \"#utility.yul\":5207:5218   */\n      0x00\n        /* \"#utility.yul\":5241:5247   */\n      dup3\n        /* \"#utility.yul\":5236:5239   */\n      dup3\n        /* \"#utility.yul\":5229:5248   */\n      mstore\n        /* \"#utility.yul\":5281:5285   */\n      0x20\n        /* \"#utility.yul\":5276:5279   */\n      dup3\n        /* \"#utility.yul\":5272:5286   */\n      add\n        /* \"#utility.yul\":5257:5286   */\n      swap1\n      pop\n        /* \"#utility.yul\":5123:5292   */\n      swap3\n      swap2\n      pop\n      pop\n      jump\t// out\n        /* \"#utility.yul\":5298:5457   */\n    tag_206:\n        /* \"#utility.yul\":5438:5449   */\n      0x6e6f74206f776e65720000000000000000000000000000000000000000000000\n        /* \"#utility.yul\":5434:5435   */\n      0x00\n        /* \"#utility.yul\":5426:5432   */\n      dup3\n        /* \"#utility.yul\":5422:5436   */\n      add\n        /* \"#utility.yul\":5415:5450   */\n      mstore\n        /* \"#utility.yul\":5298:5457   */\n      pop\n      jump\t// out\n        /* \"#utility.yul\":5463:5828   */\n    tag_207:\n        /* \"#utility.yul\":5605:5608   */\n      0x00\n        /* \"#utility.yul\":5626:5692   */\n      tag_273\n        /* \"#utility.yul\":5690:5691   */\n      0x09\n        /* \"#utility.yul\":5685:5688   */\n      dup4\n        /* \"#utility.yul\":5626:5692   */\n      tag_205\n      jump\t// in\n    tag_273:\n        /* \"#utility.yul\":5619:5692   */\n      swap2\n      pop\n        /* \"#utility.yul\":5701:5794   */\n      tag_274\n        /* \"#utility.yul\":5790:5793   */\n      dup3\n        /* \"#utility.yul\":5701:5794   */\n      tag_206\n      jump\t// in\n    tag_274:\n        /* \"#utility.yul\":5819:5821   */\n      0x20\n        /* \"#utility.yul\":5814:5817   */\n      dup3\n        /* \"#utility.yul\":5810:5822   */\n      add\n        /* \"#utility.yul\":5803:5822   */\n      swap1\n      pop\n        /* \"#utility.yul\":5463:5828   */\n      swap2\n      swap1\n      pop\n      jump\t// out\n        /* \"#utility.yul\":5834:6253   */\n    tag_70:\n        /* \"#utility.yul\":6000:6004   */\n      0x00\n        /* \"#utility.yul\":6038:6040   */\n      0x20\n        /* \"#utility.yul\":6027:6036   */\n      dup3\n        /* \"#utility.yul\":6023:6041   */\n      add\n        /* \"#utility.yul\":6015:6041   */\n      swap1\n      pop\n        /* \"#utility.yul\":6087:6096   */\n      dup2\n        /* \"#utility.yul\":6081:6085   */\n      dup2\n        /* \"#utility.yul\":6077:6097   */\n      sub\n        /* \"#utility.yul\":6073:6074   */\n      0x00\n        /* \"#utility.yul\":6062:6071   */\n      dup4\n        /* \"#utility.yul\":6058:6075   */\n      add\n        /* \"#utility.yul\":6051:6098   */\n      mstore\n        /* \"#utility.yul\":6115:6246   */\n      tag_276\n        /* \"#utility.yul\":6241:6245   */\n      dup2\n        /* \"#utility.yul\":6115:6246   */\n      tag_207\n      jump\t// in\n    tag_276:\n        /* \"#utility.yul\":6107:6246   */\n      swap1\n      pop\n        /* \"#utility.yul\":5834:6253   */\n      swap2\n      swap1\n      pop\n      jump\t// out\n        /* \"#utility.yul\":6259:6439   */\n    tag_85:\n        /* \"#utility.yul\":6307:6384   */\n      0x4e487b7100000000000000000000000000000000000000000000000000000000\n        /* \"#utility.yul\":6304:6305   */\n      0x00\n        /* \"#utility.yul\":6297:6385   */\n      mstore\n        /* \"#utility.yul\":6404:6408   */\n      0x32\n        /* \"#utility.yul\":6401:6402   */\n      0x04\n        /* \"#utility.yul\":6394:6409   */\n      mstore\n        /* \"#utility.yul\":6428:6432   */\n      0x24\n        /* \"#utility.yul\":6425:6426   */\n      0x00\n        /* \"#utility.yul\":6418:6433   */\n      revert\n        /* \"#utility.yul\":6445:6678   */\n    tag_91:\n        /* \"#utility.yul\":6484:6487   */\n      0x00\n        /* \"#utility.yul\":6507:6531   */\n      tag_279\n        /* \"#utility.yul\":6525:6530   */\n      dup3\n        /* \"#utility.yul\":6507:6531   */\n      tag_188\n      jump\t// in\n    tag_279:\n        /* \"#utility.yul\":6498:6531   */\n      swap2\n      pop\n        /* \"#utility.yul\":6553:6619   */\n      0xffffffffffffffffffffffffffffffffffffffffffffffffffffffffffffffff\n        /* \"#utility.yul\":6546:6551   */\n      dup3\n        /* \"#utility.yul\":6543:6620   */\n      sub\n        /* \"#utility.yul\":6540:6643   */\n      tag_280\n      jumpi\n        /* \"#utility.yul\":6623:6641   */\n      tag_281\n      tag_204\n      jump\t// in\n    tag_281:\n        /* \"#utility.yul\":6540:6643   */\n    tag_280:\n        /* \"#utility.yul\":6670:6671   */\n      0x01\n        /* \"#utility.yul\":6663:6668   */\n      dup3\n        /* \"#utility.yul\":6659:6672   */\n      add\n        /* \"#utility.yul\":6652:6672   */\n      swap1\n      pop\n        /* \"#utility.yul\":6445:6678   */\n      swap2\n      swap1\n      pop\n      jump\t// out\n\n    auxdata: 0xa264697066735822122062a961a5c168165e8bf0901b0a37d5028e2582cf7abf80a34370864e62c7f5df64736f6c63430008140033\n}\n",
				"bytecode": {
					"linkReferences": {},
					"object": "608060405234801561000f575f80fd5b50335f806101000a81548173ffffffffffffffffffffffffffffffffffffffff021916908373ffffffffffffffffffffffffffffffffffffffff1602179055506114f38061005c5f395ff3fe60806040526004361061007e575f3560e01c80634f0f4bd31161004d5780634f0f4bd3146101705780638da5cb5b146101ac5780638e708bca146101d6578063c89f8245146101e0576100c6565b806328657aa5146100ca5780632d1e2518146100f45780633ccfd60b1461011e5780634abfa16314610134576100c6565b366100c6577f88a5966d370b9919b20f3e2c13ff65706f196a4e32cc2c12bf57088f8852587433346040516100b49291906111ac565b60405180910390a16100c461021c565b005b5f80fd5b3480156100d5575f80fd5b506100de61031f565b6040516100eb91906111d3565b60405180910390f35b3480156100ff575f80fd5b50610108610326565b6040516101159190611291565b60405180910390f35b348015610129575f80fd5b506101326103a5565b005b34801561013f575f80fd5b5061015a600480360381019061015591906112d8565b6104d0565b6040516101679190611303565b60405180910390f35b34801561017b575f80fd5b50610196600480360381019061019191906112d8565b61050b565b6040516101a39190611303565b60405180910390f35b3480156101b7575f80fd5b506101c061053f565b6040516101cd9190611303565b60405180910390f35b6101de61021c565b005b3480156101eb575f80fd5b5061020660048036038101906102019190611346565b610562565b60405161021391906111d3565b60405180910390f35b5f60025f3373ffffffffffffffffffffffffffffffffffffffff1673ffffffffffffffffffffffffffffffffffffffff1681526020019081526020015f2054036102c157600133908060018154018082558091505060019003905f5260205f20015f9091909190916101000a81548173ffffffffffffffffffffffffffffffffffffffff021916908373ffffffffffffffffffffffffffffffffffffffff1602179055505b3460025f3373ffffffffffffffffffffffffffffffffffffffff1673ffffffffffffffffffffffffffffffffffffffff1681526020019081526020015f205f82825461030d919061139e565b9250508190555061031d33610577565b565b5f47905090565b61032e611133565b6003808060200260405190810160405280929190826003801561039b576020028201915b815f9054906101000a900473ffffffffffffffffffffffffffffffffffffffff1673ffffffffffffffffffffffffffffffffffffffff1681526020019060010190808311610352575b5050505050905090565b5f8054906101000a900473ffffffffffffffffffffffffffffffffffffffff1673ffffffffffffffffffffffffffffffffffffffff163373ffffffffffffffffffffffffffffffffffffffff1614610432576040517f08c379a00000000000000000000000000000000000000000000000000000000081526004016104299061142b565b60405180910390fd5b7f6cca423c6ffc06e62a0acc433965e074b11c28479b0449250ce3ff65ac9e39fe33476040516104639291906111ac565b60405180910390a15f8054906101000a900473ffffffffffffffffffffffffffffffffffffffff1673ffffffffffffffffffffffffffffffffffffffff166108fc4790811502906040515f60405180830381858888f193505050501580156104cd573d5f803e3d5ffd5b50565b600181815481106104df575f80fd5b905f5260205f20015f915054906101000a900473ffffffffffffffffffffffffffffffffffffffff1681565b6003816003811061051a575f80fd5b015f915054906101000a900473ffffffffffffffffffffffffffffffffffffffff1681565b5f8054906101000a900473ffffffffffffffffffffffffffffffffffffffff1681565b6002602052805f5260405f205f915090505481565b5f5b600381101561060c576003816003811061059657610595611449565b5b015f9054906101000a900473ffffffffffffffffffffffffffffffffffffffff1673ffffffffffffffffffffffffffffffffffffffff168273ffffffffffffffffffffffffffffffffffffffff16036105f9576105f38183610afc565b50610af9565b808061060490611476565b915050610579565b505f73ffffffffffffffffffffffffffffffffffffffff1660035f6003811061063857610637611449565b5b015f9054906101000a900473ffffffffffffffffffffffffffffffffffffffff1673ffffffffffffffffffffffffffffffffffffffff1614806106db57505f73ffffffffffffffffffffffffffffffffffffffff1660036001600381106106a2576106a1611449565b5b015f9054906101000a900473ffffffffffffffffffffffffffffffffffffffff1673ffffffffffffffffffffffffffffffffffffffff16145b8061074657505f73ffffffffffffffffffffffffffffffffffffffff16600360026003811061070d5761070c611449565b5b015f9054906101000a900473ffffffffffffffffffffffffffffffffffffffff1673ffffffffffffffffffffffffffffffffffffffff16145b806107fe575060025f60035f6003811061076357610762611449565b5b015f9054906101000a900473ffffffffffffffffffffffffffffffffffffffff1673ffffffffffffffffffffffffffffffffffffffff1673ffffffffffffffffffffffffffffffffffffffff1681526020019081526020015f205460025f8373ffffffffffffffffffffffffffffffffffffffff1673ffffffffffffffffffffffffffffffffffffffff1681526020019081526020015f2054115b806108b7575060025f600360016003811061081c5761081b611449565b5b015f9054906101000a900473ffffffffffffffffffffffffffffffffffffffff1673ffffffffffffffffffffffffffffffffffffffff1673ffffffffffffffffffffffffffffffffffffffff1681526020019081526020015f205460025f8373ffffffffffffffffffffffffffffffffffffffff1673ffffffffffffffffffffffffffffffffffffffff1681526020019081526020015f2054115b80610970575060025f60036002600381106108d5576108d4611449565b5b015f9054906101000a900473ffffffffffffffffffffffffffffffffffffffff1673ffffffffffffffffffffffffffffffffffffffff1673ffffffffffffffffffffffffffffffffffffffff1681526020019081526020015f205460025f8373ffffffffffffffffffffffffffffffffffffffff1673ffffffffffffffffffffffffffffffffffffffff1681526020019081526020015f2054115b15610af8575f73ffffffffffffffffffffffffffffffffffffffff1660036002600381106109a1576109a0611449565b5b015f9054906101000a900473ffffffffffffffffffffffffffffffffffffffff1673ffffffffffffffffffffffffffffffffffffffff161480610a92575060025f60036002600381106109f7576109f6611449565b5b015f9054906101000a900473ffffffffffffffffffffffffffffffffffffffff1673ffffffffffffffffffffffffffffffffffffffff1673ffffffffffffffffffffffffffffffffffffffff1681526020019081526020015f205460025f8373ffffffffffffffffffffffffffffffffffffffff1673ffffffffffffffffffffffffffffffffffffffff1681526020019081526020015f2054115b15610aec57806003600260038110610aad57610aac611449565b5b015f6101000a81548173ffffffffffffffffffffffffffffffffffffffff021916908373ffffffffffffffffffffffffffffffffffffffff1602179055505b610af7600282610afc565b5b5b50565b5f82031561112f57600182148015610bc1575060025f60035f60038110610b2657610b25611449565b5b015f9054906101000a900473ffffffffffffffffffffffffffffffffffffffff1673ffffffffffffffffffffffffffffffffffffffff1673ffffffffffffffffffffffffffffffffffffffff1681526020019081526020015f205460025f8373ffffffffffffffffffffffffffffffffffffffff1673ffffffffffffffffffffffffffffffffffffffff1681526020019081526020015f2054115b15610ca65760035f60038110610bda57610bd9611449565b5b015f9054906101000a900473ffffffffffffffffffffffffffffffffffffffff166003600160038110610c1057610c0f611449565b5b015f6101000a81548173ffffffffffffffffffffffffffffffffffffffff021916908373ffffffffffffffffffffffffffffffffffffffff1602179055508060035f60038110610c6357610c62611449565b5b015f6101000a81548173ffffffffffffffffffffffffffffffffffffffff021916908373ffffffffffffffffffffffffffffffffffffffff16021790555061112e565b600282148015610d64575060025f6003600160038110610cc957610cc8611449565b5b015f9054906101000a900473ffffffffffffffffffffffffffffffffffffffff1673ffffffffffffffffffffffffffffffffffffffff1673ffffffffffffffffffffffffffffffffffffffff1681526020019081526020015f205460025f8373ffffffffffffffffffffffffffffffffffffffff1673ffffffffffffffffffffffffffffffffffffffff1681526020019081526020015f2054115b8015610e1e575060025f60035f60038110610d8257610d81611449565b5b015f9054906101000a900473ffffffffffffffffffffffffffffffffffffffff1673ffffffffffffffffffffffffffffffffffffffff1673ffffffffffffffffffffffffffffffffffffffff1681526020019081526020015f205460025f8373ffffffffffffffffffffffffffffffffffffffff1673ffffffffffffffffffffffffffffffffffffffff1681526020019081526020015f205411155b15610f05576003600160038110610e3857610e37611449565b5b015f9054906101000a900473ffffffffffffffffffffffffffffffffffffffff166003600260038110610e6e57610e6d611449565b5b015f6101000a81548173ffffffffffffffffffffffffffffffffffffffff021916908373ffffffffffffffffffffffffffffffffffffffff160217905550806003600160038110610ec257610ec1611449565b5b015f6101000a81548173ffffffffffffffffffffffffffffffffffffffff021916908373ffffffffffffffffffffffffffffffffffffffff16021790555061112d565b600282148015610fc2575060025f60035f60038110610f2757610f26611449565b5b015f9054906101000a900473ffffffffffffffffffffffffffffffffffffffff1673ffffffffffffffffffffffffffffffffffffffff1673ffffffffffffffffffffffffffffffffffffffff1681526020019081526020015f205460025f8373ffffffffffffffffffffffffffffffffffffffff1673ffffffffffffffffffffffffffffffffffffffff1681526020019081526020015f2054115b1561112c576003600160038110610fdc57610fdb611449565b5b015f9054906101000a900473ffffffffffffffffffffffffffffffffffffffff16600360026003811061101257611011611449565b5b015f6101000a81548173ffffffffffffffffffffffffffffffffffffffff021916908373ffffffffffffffffffffffffffffffffffffffff16021790555060035f6003811061106457611063611449565b5b015f9054906101000a900473ffffffffffffffffffffffffffffffffffffffff16600360016003811061109a57611099611449565b5b015f6101000a81548173ffffffffffffffffffffffffffffffffffffffff021916908373ffffffffffffffffffffffffffffffffffffffff1602179055508060035f600381106110ed576110ec611449565b5b015f6101000a81548173ffffffffffffffffffffffffffffffffffffffff021916908373ffffffffffffffffffffffffffffffffffffffff1602179055505b5b5b5b5050565b6040518060600160405280600390602082028036833780820191505090505090565b5f73ffffffffffffffffffffffffffffffffffffffff82169050919050565b5f61117e82611155565b9050919050565b61118e81611174565b82525050565b5f819050919050565b6111a681611194565b82525050565b5f6040820190506111bf5f830185611185565b6111cc602083018461119d565b9392505050565b5f6020820190506111e65f83018461119d565b92915050565b5f60039050919050565b5f81905092915050565b5f819050919050565b61121281611174565b82525050565b5f6112238383611209565b60208301905092915050565b5f602082019050919050565b611244816111ec565b61124e81846111f6565b925061125982611200565b805f5b838110156112895781516112708782611218565b965061127b8361122f565b92505060018101905061125c565b505050505050565b5f6060820190506112a45f83018461123b565b92915050565b5f80fd5b6112b781611194565b81146112c1575f80fd5b50565b5f813590506112d2816112ae565b92915050565b5f602082840312156112ed576112ec6112aa565b5b5f6112fa848285016112c4565b91505092915050565b5f6020820190506113165f830184611185565b92915050565b61132581611174565b811461132f575f80fd5b50565b5f813590506113408161131c565b92915050565b5f6020828403121561135b5761135a6112aa565b5b5f61136884828501611332565b91505092915050565b7f4e487b71000000000000000000000000000000000000000000000000000000005f52601160045260245ffd5b5f6113a882611194565b91506113b383611194565b92508282019050808211156113cb576113ca611371565b5b92915050565b5f82825260208201905092915050565b7f6e6f74206f776e657200000000000000000000000000000000000000000000005f82015250565b5f6114156009836113d1565b9150611420826113e1565b602082019050919050565b5f6020820190508181035f83015261144281611409565b9050919050565b7f4e487b71000000000000000000000000000000000000000000000000000000005f52603260045260245ffd5b5f61148082611194565b91507fffffffffffffffffffffffffffffffffffffffffffffffffffffffffffffffff82036114b2576114b1611371565b5b60018201905091905056fea264697066735822122062a961a5c168165e8bf0901b0a37d5028e2582cf7abf80a34370864e62c7f5df64736f6c63430008140033",
					"opcodes": "PUSH1 0x80 PUSH1 0x40 MSTORE CALLVALUE DUP1 ISZERO PUSH2 0xF JUMPI PUSH0 DUP1 REVERT JUMPDEST POP CALLER PUSH0 DUP1 PUSH2 0x100 EXP DUP2 SLOAD DUP2 PUSH20 0xFFFFFFFFFFFFFFFFFFFFFFFFFFFFFFFFFFFFFFFF MUL NOT AND SWAP1 DUP4 PUSH20 0xFFFFFFFFFFFFFFFFFFFFFFFFFFFFFFFFFFFFFFFF AND MUL OR SWAP1 SSTORE POP PUSH2 0x14F3 DUP1 PUSH2 0x5C PUSH0 CODECOPY PUSH0 RETURN INVALID PUSH1 0x80 PUSH1 0x40 MSTORE PUSH1 0x4 CALLDATASIZE LT PUSH2 0x7E JUMPI PUSH0 CALLDATALOAD PUSH1 0xE0 SHR DUP1 PUSH4 0x4F0F4BD3 GT PUSH2 0x4D JUMPI DUP1 PUSH4 0x4F0F4BD3 EQ PUSH2 0x170 JUMPI DUP1 PUSH4 0x8DA5CB5B EQ PUSH2 0x1AC JUMPI DUP1 PUSH4 0x8E708BCA EQ PUSH2 0x1D6 JUMPI DUP1 PUSH4 0xC89F8245 EQ PUSH2 0x1E0 JUMPI PUSH2 0xC6 JUMP JUMPDEST DUP1 PUSH4 0x28657AA5 EQ PUSH2 0xCA JUMPI DUP1 PUSH4 0x2D1E2518 EQ PUSH2 0xF4 JUMPI DUP1 PUSH4 0x3CCFD60B EQ PUSH2 0x11E JUMPI DUP1 PUSH4 0x4ABFA163 EQ PUSH2 0x134 JUMPI PUSH2 0xC6 JUMP JUMPDEST CALLDATASIZE PUSH2 0xC6 JUMPI PUSH32 0x88A5966D370B9919B20F3E2C13FF65706F196A4E32CC2C12BF57088F88525874 CALLER CALLVALUE PUSH1 0x40 MLOAD PUSH2 0xB4 SWAP3 SWAP2 SWAP1 PUSH2 0x11AC JUMP JUMPDEST PUSH1 0x40 MLOAD DUP1 SWAP2 SUB SWAP1 LOG1 PUSH2 0xC4 PUSH2 0x21C JUMP JUMPDEST STOP JUMPDEST PUSH0 DUP1 REVERT JUMPDEST CALLVALUE DUP1 ISZERO PUSH2 0xD5 JUMPI PUSH0 DUP1 REVERT JUMPDEST POP PUSH2 0xDE PUSH2 0x31F JUMP JUMPDEST PUSH1 0x40 MLOAD PUSH2 0xEB SWAP2 SWAP1 PUSH2 0x11D3 JUMP JUMPDEST PUSH1 0x40 MLOAD DUP1 SWAP2 SUB SWAP1 RETURN JUMPDEST CALLVALUE DUP1 ISZERO PUSH2 0xFF JUMPI PUSH0 DUP1 REVERT JUMPDEST POP PUSH2 0x108 PUSH2 0x326 JUMP JUMPDEST PUSH1 0x40 MLOAD PUSH2 0x115 SWAP2 SWAP1 PUSH2 0x1291 JUMP JUMPDEST PUSH1 0x40 MLOAD DUP1 SWAP2 SUB SWAP1 RETURN JUMPDEST CALLVALUE DUP1 ISZERO PUSH2 0x129 JUMPI PUSH0 DUP1 REVERT JUMPDEST POP PUSH2 0x132 PUSH2 0x3A5 JUMP JUMPDEST STOP JUMPDEST CALLVALUE DUP1 ISZERO PUSH2 0x13F JUMPI PUSH0 DUP1 REVERT JUMPDEST POP PUSH2 0x15A PUSH1 0x4 DUP1 CALLDATASIZE SUB DUP2 ADD SWAP1 PUSH2 0x155 SWAP2 SWAP1 PUSH2 0x12D8 JUMP JUMPDEST PUSH2 0x4D0 JUMP JUMPDEST PUSH1 0x40 MLOAD PUSH2 0x167 SWAP2 SWAP1 PUSH2 0x1303 JUMP JUMPDEST PUSH1 0x40 MLOAD DUP1 SWAP2 SUB SWAP1 RETURN JUMPDEST CALLVALUE DUP1 ISZERO PUSH2 0x17B JUMPI PUSH0 DUP1 REVERT JUMPDEST POP PUSH2 0x196 PUSH1 0x4 DUP1 CALLDATASIZE SUB DUP2 ADD SWAP1 PUSH2 0x191 SWAP2 SWAP1 PUSH2 0x12D8 JUMP JUMPDEST PUSH2 0x50B JUMP JUMPDEST PUSH1 0x40 MLOAD PUSH2 0x1A3 SWAP2 SWAP1 PUSH2 0x1303 JUMP JUMPDEST PUSH1 0x40 MLOAD DUP1 SWAP2 SUB SWAP1 RETURN JUMPDEST CALLVALUE DUP1 ISZERO PUSH2 0x1B7 JUMPI PUSH0 DUP1 REVERT JUMPDEST POP PUSH2 0x1C0 PUSH2 0x53F JUMP JUMPDEST PUSH1 0x40 MLOAD PUSH2 0x1CD SWAP2 SWAP1 PUSH2 0x1303 JUMP JUMPDEST PUSH1 0x40 MLOAD DUP1 SWAP2 SUB SWAP1 RETURN JUMPDEST PUSH2 0x1DE PUSH2 0x21C JUMP JUMPDEST STOP JUMPDEST CALLVALUE DUP1 ISZERO PUSH2 0x1EB JUMPI PUSH0 DUP1 REVERT JUMPDEST POP PUSH2 0x206 PUSH1 0x4 DUP1 CALLDATASIZE SUB DUP2 ADD SWAP1 PUSH2 0x201 SWAP2 SWAP1 PUSH2 0x1346 JUMP JUMPDEST PUSH2 0x562 JUMP JUMPDEST PUSH1 0x40 MLOAD PUSH2 0x213 SWAP2 SWAP1 PUSH2 0x11D3 JUMP JUMPDEST PUSH1 0x40 MLOAD DUP1 SWAP2 SUB SWAP1 RETURN JUMPDEST PUSH0 PUSH1 0x2 PUSH0 CALLER PUSH20 0xFFFFFFFFFFFFFFFFFFFFFFFFFFFFFFFFFFFFFFFF AND PUSH20 0xFFFFFFFFFFFFFFFFFFFFFFFFFFFFFFFFFFFFFFFF AND DUP2 MSTORE PUSH1 0x20 ADD SWAP1 DUP2 MSTORE PUSH1 0x20 ADD PUSH0 KECCAK256 SLOAD SUB PUSH2 0x2C1 JUMPI PUSH1 0x1 CALLER SWAP1 DUP1 PUSH1 0x1 DUP2 SLOAD ADD DUP1 DUP3 SSTORE DUP1 SWAP2 POP POP PUSH1 0x1 SWAP1 SUB SWAP1 PUSH0 MSTORE PUSH1 0x20 PUSH0 KECCAK256 ADD PUSH0 SWAP1 SWAP2 SWAP1 SWAP2 SWAP1 SWAP2 PUSH2 0x100 EXP DUP2 SLOAD DUP2 PUSH20 0xFFFFFFFFFFFFFFFFFFFFFFFFFFFFFFFFFFFFFFFF MUL NOT AND SWAP1 DUP4 PUSH20 0xFFFFFFFFFFFFFFFFFFFFFFFFFFFFFFFFFFFFFFFF AND MUL OR SWAP1 SSTORE POP JUMPDEST CALLVALUE PUSH1 0x2 PUSH0 CALLER PUSH20 0xFFFFFFFFFFFFFFFFFFFFFFFFFFFFFFFFFFFFFFFF AND PUSH20 0xFFFFFFFFFFFFFFFFFFFFFFFFFFFFFFFFFFFFFFFF AND DUP2 MSTORE PUSH1 0x20 ADD SWAP1 DUP2 MSTORE PUSH1 0x20 ADD PUSH0 KECCAK256 PUSH0 DUP3 DUP3 SLOAD PUSH2 0x30D SWAP2 SWAP1 PUSH2 0x139E JUMP JUMPDEST SWAP3 POP POP DUP2 SWAP1 SSTORE POP PUSH2 0x31D CALLER PUSH2 0x577 JUMP JUMPDEST JUMP JUMPDEST PUSH0 SELFBALANCE SWAP1 POP SWAP1 JUMP JUMPDEST PUSH2 0x32E PUSH2 0x1133 JUMP JUMPDEST PUSH1 0x3 DUP1 DUP1 PUSH1 0x20 MUL PUSH1 0x40 MLOAD SWAP1 DUP2 ADD PUSH1 0x40 MSTORE DUP1 SWAP3 SWAP2 SWAP1 DUP3 PUSH1 0x3 DUP1 ISZERO PUSH2 0x39B JUMPI PUSH1 0x20 MUL DUP3 ADD SWAP2 JUMPDEST DUP2 PUSH0 SWAP1 SLOAD SWAP1 PUSH2 0x100 EXP SWAP1 DIV PUSH20 0xFFFFFFFFFFFFFFFFFFFFFFFFFFFFFFFFFFFFFFFF AND PUSH20 0xFFFFFFFFFFFFFFFFFFFFFFFFFFFFFFFFFFFFFFFF AND DUP2 MSTORE PUSH1 0x20 ADD SWAP1 PUSH1 0x1 ADD SWAP1 DUP1 DUP4 GT PUSH2 0x352 JUMPI JUMPDEST POP POP POP POP POP SWAP1 POP SWAP1 JUMP JUMPDEST PUSH0 DUP1 SLOAD SWAP1 PUSH2 0x100 EXP SWAP1 DIV PUSH20 0xFFFFFFFFFFFFFFFFFFFFFFFFFFFFFFFFFFFFFFFF AND PUSH20 0xFFFFFFFFFFFFFFFFFFFFFFFFFFFFFFFFFFFFFFFF AND CALLER PUSH20 0xFFFFFFFFFFFFFFFFFFFFFFFFFFFFFFFFFFFFFFFF AND EQ PUSH2 0x432 JUMPI PUSH1 0x40 MLOAD PUSH32 0x8C379A000000000000000000000000000000000000000000000000000000000 DUP2 MSTORE PUSH1 0x4 ADD PUSH2 0x429 SWAP1 PUSH2 0x142B JUMP JUMPDEST PUSH1 0x40 MLOAD DUP1 SWAP2 SUB SWAP1 REVERT JUMPDEST PUSH32 0x6CCA423C6FFC06E62A0ACC433965E074B11C28479B0449250CE3FF65AC9E39FE CALLER SELFBALANCE PUSH1 0x40 MLOAD PUSH2 0x463 SWAP3 SWAP2 SWAP1 PUSH2 0x11AC JUMP JUMPDEST PUSH1 0x40 MLOAD DUP1 SWAP2 SUB SWAP1 LOG1 PUSH0 DUP1 SLOAD SWAP1 PUSH2 0x100 EXP SWAP1 DIV PUSH20 0xFFFFFFFFFFFFFFFFFFFFFFFFFFFFFFFFFFFFFFFF AND PUSH20 0xFFFFFFFFFFFFFFFFFFFFFFFFFFFFFFFFFFFFFFFF AND PUSH2 0x8FC SELFBALANCE SWAP1 DUP2 ISZERO MUL SWAP1 PUSH1 0x40 MLOAD PUSH0 PUSH1 0x40 MLOAD DUP1 DUP4 SUB DUP2 DUP6 DUP9 DUP9 CALL SWAP4 POP POP POP POP ISZERO DUP1 ISZERO PUSH2 0x4CD JUMPI RETURNDATASIZE PUSH0 DUP1 RETURNDATACOPY RETURNDATASIZE PUSH0 REVERT JUMPDEST POP JUMP JUMPDEST PUSH1 0x1 DUP2 DUP2 SLOAD DUP2 LT PUSH2 0x4DF JUMPI PUSH0 DUP1 REVERT JUMPDEST SWAP1 PUSH0 MSTORE PUSH1 0x20 PUSH0 KECCAK256 ADD PUSH0 SWAP2 POP SLOAD SWAP1 PUSH2 0x100 EXP SWAP1 DIV PUSH20 0xFFFFFFFFFFFFFFFFFFFFFFFFFFFFFFFFFFFFFFFF AND DUP2 JUMP JUMPDEST PUSH1 0x3 DUP2 PUSH1 0x3 DUP2 LT PUSH2 0x51A JUMPI PUSH0 DUP1 REVERT JUMPDEST ADD PUSH0 SWAP2 POP SLOAD SWAP1 PUSH2 0x100 EXP SWAP1 DIV PUSH20 0xFFFFFFFFFFFFFFFFFFFFFFFFFFFFFFFFFFFFFFFF AND DUP2 JUMP JUMPDEST PUSH0 DUP1 SLOAD SWAP1 PUSH2 0x100 EXP SWAP1 DIV PUSH20 0xFFFFFFFFFFFFFFFFFFFFFFFFFFFFFFFFFFFFFFFF AND DUP2 JUMP JUMPDEST PUSH1 0x2 PUSH1 0x20 MSTORE DUP1 PUSH0 MSTORE PUSH1 0x40 PUSH0 KECCAK256 PUSH0 SWAP2 POP SWAP1 POP SLOAD DUP2 JUMP JUMPDEST PUSH0 JUMPDEST PUSH1 0x3 DUP2 LT ISZERO PUSH2 0x60C JUMPI PUSH1 0x3 DUP2 PUSH1 0x3 DUP2 LT PUSH2 0x596 JUMPI PUSH2 0x595 PUSH2 0x1449 JUMP JUMPDEST JUMPDEST ADD PUSH0 SWAP1 SLOAD SWAP1 PUSH2 0x100 EXP SWAP1 DIV PUSH20 0xFFFFFFFFFFFFFFFFFFFFFFFFFFFFFFFFFFFFFFFF AND PUSH20 0xFFFFFFFFFFFFFFFFFFFFFFFFFFFFFFFFFFFFFFFF AND DUP3 PUSH20 0xFFFFFFFFFFFFFFFFFFFFFFFFFFFFFFFFFFFFFFFF AND SUB PUSH2 0x5F9 JUMPI PUSH2 0x5F3 DUP2 DUP4 PUSH2 0xAFC JUMP JUMPDEST POP PUSH2 0xAF9 JUMP JUMPDEST DUP1 DUP1 PUSH2 0x604 SWAP1 PUSH2 0x1476 JUMP JUMPDEST SWAP2 POP POP PUSH2 0x579 JUMP JUMPDEST POP PUSH0 PUSH20 0xFFFFFFFFFFFFFFFFFFFFFFFFFFFFFFFFFFFFFFFF AND PUSH1 0x3 PUSH0 PUSH1 0x3 DUP2 LT PUSH2 0x638 JUMPI PUSH2 0x637 PUSH2 0x1449 JUMP JUMPDEST JUMPDEST ADD PUSH0 SWAP1 SLOAD SWAP1 PUSH2 0x100 EXP SWAP1 DIV PUSH20 0xFFFFFFFFFFFFFFFFFFFFFFFFFFFFFFFFFFFFFFFF AND PUSH20 0xFFFFFFFFFFFFFFFFFFFFFFFFFFFFFFFFFFFFFFFF AND EQ DUP1 PUSH2 0x6DB JUMPI POP PUSH0 PUSH20 0xFFFFFFFFFFFFFFFFFFFFFFFFFFFFFFFFFFFFFFFF AND PUSH1 0x3 PUSH1 0x1 PUSH1 0x3 DUP2 LT PUSH2 0x6A2 JUMPI PUSH2 0x6A1 PUSH2 0x1449 JUMP JUMPDEST JUMPDEST ADD PUSH0 SWAP1 SLOAD SWAP1 PUSH2 0x100 EXP SWAP1 DIV PUSH20 0xFFFFFFFFFFFFFFFFFFFFFFFFFFFFFFFFFFFFFFFF AND PUSH20 0xFFFFFFFFFFFFFFFFFFFFFFFFFFFFFFFFFFFFFFFF AND EQ JUMPDEST DUP1 PUSH2 0x746 JUMPI POP PUSH0 PUSH20 0xFFFFFFFFFFFFFFFFFFFFFFFFFFFFFFFFFFFFFFFF AND PUSH1 0x3 PUSH1 0x2 PUSH1 0x3 DUP2 LT PUSH2 0x70D JUMPI PUSH2 0x70C PUSH2 0x1449 JUMP JUMPDEST JUMPDEST ADD PUSH0 SWAP1 SLOAD SWAP1 PUSH2 0x100 EXP SWAP1 DIV PUSH20 0xFFFFFFFFFFFFFFFFFFFFFFFFFFFFFFFFFFFFFFFF AND PUSH20 0xFFFFFFFFFFFFFFFFFFFFFFFFFFFFFFFFFFFFFFFF AND EQ JUMPDEST DUP1 PUSH2 0x7FE JUMPI POP PUSH1 0x2 PUSH0 PUSH1 0x3 PUSH0 PUSH1 0x3 DUP2 LT PUSH2 0x763 JUMPI PUSH2 0x762 PUSH2 0x1449 JUMP JUMPDEST JUMPDEST ADD PUSH0 SWAP1 SLOAD SWAP1 PUSH2 0x100 EXP SWAP1 DIV PUSH20 0xFFFFFFFFFFFFFFFFFFFFFFFFFFFFFFFFFFFFFFFF AND PUSH20 0xFFFFFFFFFFFFFFFFFFFFFFFFFFFFFFFFFFFFFFFF AND PUSH20 0xFFFFFFFFFFFFFFFFFFFFFFFFFFFFFFFFFFFFFFFF AND DUP2 MSTORE PUSH1 0x20 ADD SWAP1 DUP2 MSTORE PUSH1 0x20 ADD PUSH0 KECCAK256 SLOAD PUSH1 0x2 PUSH0 DUP4 PUSH20 0xFFFFFFFFFFFFFFFFFFFFFFFFFFFFFFFFFFFFFFFF AND PUSH20 0xFFFFFFFFFFFFFFFFFFFFFFFFFFFFFFFFFFFFFFFF AND DUP2 MSTORE PUSH1 0x20 ADD SWAP1 DUP2 MSTORE PUSH1 0x20 ADD PUSH0 KECCAK256 SLOAD GT JUMPDEST DUP1 PUSH2 0x8B7 JUMPI POP PUSH1 0x2 PUSH0 PUSH1 0x3 PUSH1 0x1 PUSH1 0x3 DUP2 LT PUSH2 0x81C JUMPI PUSH2 0x81B PUSH2 0x1449 JUMP JUMPDEST JUMPDEST ADD PUSH0 SWAP1 SLOAD SWAP1 PUSH2 0x100 EXP SWAP1 DIV PUSH20 0xFFFFFFFFFFFFFFFFFFFFFFFFFFFFFFFFFFFFFFFF AND PUSH20 0xFFFFFFFFFFFFFFFFFFFFFFFFFFFFFFFFFFFFFFFF AND PUSH20 0xFFFFFFFFFFFFFFFFFFFFFFFFFFFFFFFFFFFFFFFF AND DUP2 MSTORE PUSH1 0x20 ADD SWAP1 DUP2 MSTORE PUSH1 0x20 ADD PUSH0 KECCAK256 SLOAD PUSH1 0x2 PUSH0 DUP4 PUSH20 0xFFFFFFFFFFFFFFFFFFFFFFFFFFFFFFFFFFFFFFFF AND PUSH20 0xFFFFFFFFFFFFFFFFFFFFFFFFFFFFFFFFFFFFFFFF AND DUP2 MSTORE PUSH1 0x20 ADD SWAP1 DUP2 MSTORE PUSH1 0x20 ADD PUSH0 KECCAK256 SLOAD GT JUMPDEST DUP1 PUSH2 0x970 JUMPI POP PUSH1 0x2 PUSH0 PUSH1 0x3 PUSH1 0x2 PUSH1 0x3 DUP2 LT PUSH2 0x8D5 JUMPI PUSH2 0x8D4 PUSH2 0x1449 JUMP JUMPDEST JUMPDEST ADD PUSH0 SWAP1 SLOAD SWAP1 PUSH2 0x100 EXP SWAP1 DIV PUSH20 0xFFFFFFFFFFFFFFFFFFFFFFFFFFFFFFFFFFFFFFFF AND PUSH20 0xFFFFFFFFFFFFFFFFFFFFFFFFFFFFFFFFFFFFFFFF AND PUSH20 0xFFFFFFFFFFFFFFFFFFFFFFFFFFFFFFFFFFFFFFFF AND DUP2 MSTORE PUSH1 0x20 ADD SWAP1 DUP2 MSTORE PUSH1 0x20 ADD PUSH0 KECCAK256 SLOAD PUSH1 0x2 PUSH0 DUP4 PUSH20 0xFFFFFFFFFFFFFFFFFFFFFFFFFFFFFFFFFFFFFFFF AND PUSH20 0xFFFFFFFFFFFFFFFFFFFFFFFFFFFFFFFFFFFFFFFF AND DUP2 MSTORE PUSH1 0x20 ADD SWAP1 DUP2 MSTORE PUSH1 0x20 ADD PUSH0 KECCAK256 SLOAD GT JUMPDEST ISZERO PUSH2 0xAF8 JUMPI PUSH0 PUSH20 0xFFFFFFFFFFFFFFFFFFFFFFFFFFFFFFFFFFFFFFFF AND PUSH1 0x3 PUSH1 0x2 PUSH1 0x3 DUP2 LT PUSH2 0x9A1 JUMPI PUSH2 0x9A0 PUSH2 0x1449 JUMP JUMPDEST JUMPDEST ADD PUSH0 SWAP1 SLOAD SWAP1 PUSH2 0x100 EXP SWAP1 DIV PUSH20 0xFFFFFFFFFFFFFFFFFFFFFFFFFFFFFFFFFFFFFFFF AND PUSH20 0xFFFFFFFFFFFFFFFFFFFFFFFFFFFFFFFFFFFFFFFF AND EQ DUP1 PUSH2 0xA92 JUMPI POP PUSH1 0x2 PUSH0 PUSH1 0x3 PUSH1 0x2 PUSH1 0x3 DUP2 LT PUSH2 0x9F7 JUMPI PUSH2 0x9F6 PUSH2 0x1449 JUMP JUMPDEST JUMPDEST ADD PUSH0 SWAP1 SLOAD SWAP1 PUSH2 0x100 EXP SWAP1 DIV PUSH20 0xFFFFFFFFFFFFFFFFFFFFFFFFFFFFFFFFFFFFFFFF AND PUSH20 0xFFFFFFFFFFFFFFFFFFFFFFFFFFFFFFFFFFFFFFFF AND PUSH20 0xFFFFFFFFFFFFFFFFFFFFFFFFFFFFFFFFFFFFFFFF AND DUP2 MSTORE PUSH1 0x20 ADD SWAP1 DUP2 MSTORE PUSH1 0x20 ADD PUSH0 KECCAK256 SLOAD PUSH1 0x2 PUSH0 DUP4 PUSH20 0xFFFFFFFFFFFFFFFFFFFFFFFFFFFFFFFFFFFFFFFF AND PUSH20 0xFFFFFFFFFFFFFFFFFFFFFFFFFFFFFFFFFFFFFFFF AND DUP2 MSTORE PUSH1 0x20 ADD SWAP1 DUP2 MSTORE PUSH1 0x20 ADD PUSH0 KECCAK256 SLOAD GT JUMPDEST ISZERO PUSH2 0xAEC JUMPI DUP1 PUSH1 0x3 PUSH1 0x2 PUSH1 0x3 DUP2 LT PUSH2 0xAAD JUMPI PUSH2 0xAAC PUSH2 0x1449 JUMP JUMPDEST JUMPDEST ADD PUSH0 PUSH2 0x100 EXP DUP2 SLOAD DUP2 PUSH20 0xFFFFFFFFFFFFFFFFFFFFFFFFFFFFFFFFFFFFFFFF MUL NOT AND SWAP1 DUP4 PUSH20 0xFFFFFFFFFFFFFFFFFFFFFFFFFFFFFFFFFFFFFFFF AND MUL OR SWAP1 SSTORE POP JUMPDEST PUSH2 0xAF7 PUSH1 0x2 DUP3 PUSH2 0xAFC JUMP JUMPDEST JUMPDEST JUMPDEST POP JUMP JUMPDEST PUSH0 DUP3 SUB ISZERO PUSH2 0x112F JUMPI PUSH1 0x1 DUP3 EQ DUP1 ISZERO PUSH2 0xBC1 JUMPI POP PUSH1 0x2 PUSH0 PUSH1 0x3 PUSH0 PUSH1 0x3 DUP2 LT PUSH2 0xB26 JUMPI PUSH2 0xB25 PUSH2 0x1449 JUMP JUMPDEST JUMPDEST ADD PUSH0 SWAP1 SLOAD SWAP1 PUSH2 0x100 EXP SWAP1 DIV PUSH20 0xFFFFFFFFFFFFFFFFFFFFFFFFFFFFFFFFFFFFFFFF AND PUSH20 0xFFFFFFFFFFFFFFFFFFFFFFFFFFFFFFFFFFFFFFFF AND PUSH20 0xFFFFFFFFFFFFFFFFFFFFFFFFFFFFFFFFFFFFFFFF AND DUP2 MSTORE PUSH1 0x20 ADD SWAP1 DUP2 MSTORE PUSH1 0x20 ADD PUSH0 KECCAK256 SLOAD PUSH1 0x2 PUSH0 DUP4 PUSH20 0xFFFFFFFFFFFFFFFFFFFFFFFFFFFFFFFFFFFFFFFF AND PUSH20 0xFFFFFFFFFFFFFFFFFFFFFFFFFFFFFFFFFFFFFFFF AND DUP2 MSTORE PUSH1 0x20 ADD SWAP1 DUP2 MSTORE PUSH1 0x20 ADD PUSH0 KECCAK256 SLOAD GT JUMPDEST ISZERO PUSH2 0xCA6 JUMPI PUSH1 0x3 PUSH0 PUSH1 0x3 DUP2 LT PUSH2 0xBDA JUMPI PUSH2 0xBD9 PUSH2 0x1449 JUMP JUMPDEST JUMPDEST ADD PUSH0 SWAP1 SLOAD SWAP1 PUSH2 0x100 EXP SWAP1 DIV PUSH20 0xFFFFFFFFFFFFFFFFFFFFFFFFFFFFFFFFFFFFFFFF AND PUSH1 0x3 PUSH1 0x1 PUSH1 0x3 DUP2 LT PUSH2 0xC10 JUMPI PUSH2 0xC0F PUSH2 0x1449 JUMP JUMPDEST JUMPDEST ADD PUSH0 PUSH2 0x100 EXP DUP2 SLOAD DUP2 PUSH20 0xFFFFFFFFFFFFFFFFFFFFFFFFFFFFFFFFFFFFFFFF MUL NOT AND SWAP1 DUP4 PUSH20 0xFFFFFFFFFFFFFFFFFFFFFFFFFFFFFFFFFFFFFFFF AND MUL OR SWAP1 SSTORE POP DUP1 PUSH1 0x3 PUSH0 PUSH1 0x3 DUP2 LT PUSH2 0xC63 JUMPI PUSH2 0xC62 PUSH2 0x1449 JUMP JUMPDEST JUMPDEST ADD PUSH0 PUSH2 0x100 EXP DUP2 SLOAD DUP2 PUSH20 0xFFFFFFFFFFFFFFFFFFFFFFFFFFFFFFFFFFFFFFFF MUL NOT AND SWAP1 DUP4 PUSH20 0xFFFFFFFFFFFFFFFFFFFFFFFFFFFFFFFFFFFFFFFF AND MUL OR SWAP1 SSTORE POP PUSH2 0x112E JUMP JUMPDEST PUSH1 0x2 DUP3 EQ DUP1 ISZERO PUSH2 0xD64 JUMPI POP PUSH1 0x2 PUSH0 PUSH1 0x3 PUSH1 0x1 PUSH1 0x3 DUP2 LT PUSH2 0xCC9 JUMPI PUSH2 0xCC8 PUSH2 0x1449 JUMP JUMPDEST JUMPDEST ADD PUSH0 SWAP1 SLOAD SWAP1 PUSH2 0x100 EXP SWAP1 DIV PUSH20 0xFFFFFFFFFFFFFFFFFFFFFFFFFFFFFFFFFFFFFFFF AND PUSH20 0xFFFFFFFFFFFFFFFFFFFFFFFFFFFFFFFFFFFFFFFF AND PUSH20 0xFFFFFFFFFFFFFFFFFFFFFFFFFFFFFFFFFFFFFFFF AND DUP2 MSTORE PUSH1 0x20 ADD SWAP1 DUP2 MSTORE PUSH1 0x20 ADD PUSH0 KECCAK256 SLOAD PUSH1 0x2 PUSH0 DUP4 PUSH20 0xFFFFFFFFFFFFFFFFFFFFFFFFFFFFFFFFFFFFFFFF AND PUSH20 0xFFFFFFFFFFFFFFFFFFFFFFFFFFFFFFFFFFFFFFFF AND DUP2 MSTORE PUSH1 0x20 ADD SWAP1 DUP2 MSTORE PUSH1 0x20 ADD PUSH0 KECCAK256 SLOAD GT JUMPDEST DUP1 ISZERO PUSH2 0xE1E JUMPI POP PUSH1 0x2 PUSH0 PUSH1 0x3 PUSH0 PUSH1 0x3 DUP2 LT PUSH2 0xD82 JUMPI PUSH2 0xD81 PUSH2 0x1449 JUMP JUMPDEST JUMPDEST ADD PUSH0 SWAP1 SLOAD SWAP1 PUSH2 0x100 EXP SWAP1 DIV PUSH20 0xFFFFFFFFFFFFFFFFFFFFFFFFFFFFFFFFFFFFFFFF AND PUSH20 0xFFFFFFFFFFFFFFFFFFFFFFFFFFFFFFFFFFFFFFFF AND PUSH20 0xFFFFFFFFFFFFFFFFFFFFFFFFFFFFFFFFFFFFFFFF AND DUP2 MSTORE PUSH1 0x20 ADD SWAP1 DUP2 MSTORE PUSH1 0x20 ADD PUSH0 KECCAK256 SLOAD PUSH1 0x2 PUSH0 DUP4 PUSH20 0xFFFFFFFFFFFFFFFFFFFFFFFFFFFFFFFFFFFFFFFF AND PUSH20 0xFFFFFFFFFFFFFFFFFFFFFFFFFFFFFFFFFFFFFFFF AND DUP2 MSTORE PUSH1 0x20 ADD SWAP1 DUP2 MSTORE PUSH1 0x20 ADD PUSH0 KECCAK256 SLOAD GT ISZERO JUMPDEST ISZERO PUSH2 0xF05 JUMPI PUSH1 0x3 PUSH1 0x1 PUSH1 0x3 DUP2 LT PUSH2 0xE38 JUMPI PUSH2 0xE37 PUSH2 0x1449 JUMP JUMPDEST JUMPDEST ADD PUSH0 SWAP1 SLOAD SWAP1 PUSH2 0x100 EXP SWAP1 DIV PUSH20 0xFFFFFFFFFFFFFFFFFFFFFFFFFFFFFFFFFFFFFFFF AND PUSH1 0x3 PUSH1 0x2 PUSH1 0x3 DUP2 LT PUSH2 0xE6E JUMPI PUSH2 0xE6D PUSH2 0x1449 JUMP JUMPDEST JUMPDEST ADD PUSH0 PUSH2 0x100 EXP DUP2 SLOAD DUP2 PUSH20 0xFFFFFFFFFFFFFFFFFFFFFFFFFFFFFFFFFFFFFFFF MUL NOT AND SWAP1 DUP4 PUSH20 0xFFFFFFFFFFFFFFFFFFFFFFFFFFFFFFFFFFFFFFFF AND MUL OR SWAP1 SSTORE POP DUP1 PUSH1 0x3 PUSH1 0x1 PUSH1 0x3 DUP2 LT PUSH2 0xEC2 JUMPI PUSH2 0xEC1 PUSH2 0x1449 JUMP JUMPDEST JUMPDEST ADD PUSH0 PUSH2 0x100 EXP DUP2 SLOAD DUP2 PUSH20 0xFFFFFFFFFFFFFFFFFFFFFFFFFFFFFFFFFFFFFFFF MUL NOT AND SWAP1 DUP4 PUSH20 0xFFFFFFFFFFFFFFFFFFFFFFFFFFFFFFFFFFFFFFFF AND MUL OR SWAP1 SSTORE POP PUSH2 0x112D JUMP JUMPDEST PUSH1 0x2 DUP3 EQ DUP1 ISZERO PUSH2 0xFC2 JUMPI POP PUSH1 0x2 PUSH0 PUSH1 0x3 PUSH0 PUSH1 0x3 DUP2 LT PUSH2 0xF27 JUMPI PUSH2 0xF26 PUSH2 0x1449 JUMP JUMPDEST JUMPDEST ADD PUSH0 SWAP1 SLOAD SWAP1 PUSH2 0x100 EXP SWAP1 DIV PUSH20 0xFFFFFFFFFFFFFFFFFFFFFFFFFFFFFFFFFFFFFFFF AND PUSH20 0xFFFFFFFFFFFFFFFFFFFFFFFFFFFFFFFFFFFFFFFF AND PUSH20 0xFFFFFFFFFFFFFFFFFFFFFFFFFFFFFFFFFFFFFFFF AND DUP2 MSTORE PUSH1 0x20 ADD SWAP1 DUP2 MSTORE PUSH1 0x20 ADD PUSH0 KECCAK256 SLOAD PUSH1 0x2 PUSH0 DUP4 PUSH20 0xFFFFFFFFFFFFFFFFFFFFFFFFFFFFFFFFFFFFFFFF AND PUSH20 0xFFFFFFFFFFFFFFFFFFFFFFFFFFFFFFFFFFFFFFFF AND DUP2 MSTORE PUSH1 0x20 ADD SWAP1 DUP2 MSTORE PUSH1 0x20 ADD PUSH0 KECCAK256 SLOAD GT JUMPDEST ISZERO PUSH2 0x112C JUMPI PUSH1 0x3 PUSH1 0x1 PUSH1 0x3 DUP2 LT PUSH2 0xFDC JUMPI PUSH2 0xFDB PUSH2 0x1449 JUMP JUMPDEST JUMPDEST ADD PUSH0 SWAP1 SLOAD SWAP1 PUSH2 0x100 EXP SWAP1 DIV PUSH20 0xFFFFFFFFFFFFFFFFFFFFFFFFFFFFFFFFFFFFFFFF AND PUSH1 0x3 PUSH1 0x2 PUSH1 0x3 DUP2 LT PUSH2 0x1012 JUMPI PUSH2 0x1011 PUSH2 0x1449 JUMP JUMPDEST JUMPDEST ADD PUSH0 PUSH2 0x100 EXP DUP2 SLOAD DUP2 PUSH20 0xFFFFFFFFFFFFFFFFFFFFFFFFFFFFFFFFFFFFFFFF MUL NOT AND SWAP1 DUP4 PUSH20 0xFFFFFFFFFFFFFFFFFFFFFFFFFFFFFFFFFFFFFFFF AND MUL OR SWAP1 SSTORE POP PUSH1 0x3 PUSH0 PUSH1 0x3 DUP2 LT PUSH2 0x1064 JUMPI PUSH2 0x1063 PUSH2 0x1449 JUMP JUMPDEST JUMPDEST ADD PUSH0 SWAP1 SLOAD SWAP1 PUSH2 0x100 EXP SWAP1 DIV PUSH20 0xFFFFFFFFFFFFFFFFFFFFFFFFFFFFFFFFFFFFFFFF AND PUSH1 0x3 PUSH1 0x1 PUSH1 0x3 DUP2 LT PUSH2 0x109A JUMPI PUSH2 0x1099 PUSH2 0x1449 JUMP JUMPDEST JUMPDEST ADD PUSH0 PUSH2 0x100 EXP DUP2 SLOAD DUP2 PUSH20 0xFFFFFFFFFFFFFFFFFFFFFFFFFFFFFFFFFFFFFFFF MUL NOT AND SWAP1 DUP4 PUSH20 0xFFFFFFFFFFFFFFFFFFFFFFFFFFFFFFFFFFFFFFFF AND MUL OR SWAP1 SSTORE POP DUP1 PUSH1 0x3 PUSH0 PUSH1 0x3 DUP2 LT PUSH2 0x10ED JUMPI PUSH2 0x10EC PUSH2 0x1449 JUMP JUMPDEST JUMPDEST ADD PUSH0 PUSH2 0x100 EXP DUP2 SLOAD DUP2 PUSH20 0xFFFFFFFFFFFFFFFFFFFFFFFFFFFFFFFFFFFFFFFF MUL NOT AND SWAP1 DUP4 PUSH20 0xFFFFFFFFFFFFFFFFFFFFFFFFFFFFFFFFFFFFFFFF AND MUL OR SWAP1 SSTORE POP JUMPDEST JUMPDEST JUMPDEST JUMPDEST POP POP JUMP JUMPDEST PUSH1 0x40 MLOAD DUP1 PUSH1 0x60 ADD PUSH1 0x40 MSTORE DUP1 PUSH1 0x3 SWAP1 PUSH1 0x20 DUP3 MUL DUP1 CALLDATASIZE DUP4 CALLDATACOPY DUP1 DUP3 ADD SWAP2 POP POP SWAP1 POP POP SWAP1 JUMP JUMPDEST PUSH0 PUSH20 0xFFFFFFFFFFFFFFFFFFFFFFFFFFFFFFFFFFFFFFFF DUP3 AND SWAP1 POP SWAP2 SWAP1 POP JUMP JUMPDEST PUSH0 PUSH2 0x117E DUP3 PUSH2 0x1155 JUMP JUMPDEST SWAP1 POP SWAP2 SWAP1 POP JUMP JUMPDEST PUSH2 0x118E DUP2 PUSH2 0x1174 JUMP JUMPDEST DUP3 MSTORE POP POP JUMP JUMPDEST PUSH0 DUP2 SWAP1 POP SWAP2 SWAP1 POP JUMP JUMPDEST PUSH2 0x11A6 DUP2 PUSH2 0x1194 JUMP JUMPDEST DUP3 MSTORE POP POP JUMP JUMPDEST PUSH0 PUSH1 0x40 DUP3 ADD SWAP1 POP PUSH2 0x11BF PUSH0 DUP4 ADD DUP6 PUSH2 0x1185 JUMP JUMPDEST PUSH2 0x11CC PUSH1 0x20 DUP4 ADD DUP5 PUSH2 0x119D JUMP JUMPDEST SWAP4 SWAP3 POP POP POP JUMP JUMPDEST PUSH0 PUSH1 0x20 DUP3 ADD SWAP1 POP PUSH2 0x11E6 PUSH0 DUP4 ADD DUP5 PUSH2 0x119D JUMP JUMPDEST SWAP3 SWAP2 POP POP JUMP JUMPDEST PUSH0 PUSH1 0x3 SWAP1 POP SWAP2 SWAP1 POP JUMP JUMPDEST PUSH0 DUP2 SWAP1 POP SWAP3 SWAP2 POP POP JUMP JUMPDEST PUSH0 DUP2 SWAP1 POP SWAP2 SWAP1 POP JUMP JUMPDEST PUSH2 0x1212 DUP2 PUSH2 0x1174 JUMP JUMPDEST DUP3 MSTORE POP POP JUMP JUMPDEST PUSH0 PUSH2 0x1223 DUP4 DUP4 PUSH2 0x1209 JUMP JUMPDEST PUSH1 0x20 DUP4 ADD SWAP1 POP SWAP3 SWAP2 POP POP JUMP JUMPDEST PUSH0 PUSH1 0x20 DUP3 ADD SWAP1 POP SWAP2 SWAP1 POP JUMP JUMPDEST PUSH2 0x1244 DUP2 PUSH2 0x11EC JUMP JUMPDEST PUSH2 0x124E DUP2 DUP5 PUSH2 0x11F6 JUMP JUMPDEST SWAP3 POP PUSH2 0x1259 DUP3 PUSH2 0x1200 JUMP JUMPDEST DUP1 PUSH0 JUMPDEST DUP4 DUP2 LT ISZERO PUSH2 0x1289 JUMPI DUP2 MLOAD PUSH2 0x1270 DUP8 DUP3 PUSH2 0x1218 JUMP JUMPDEST SWAP7 POP PUSH2 0x127B DUP4 PUSH2 0x122F JUMP JUMPDEST SWAP3 POP POP PUSH1 0x1 DUP2 ADD SWAP1 POP PUSH2 0x125C JUMP JUMPDEST POP POP POP POP POP POP JUMP JUMPDEST PUSH0 PUSH1 0x60 DUP3 ADD SWAP1 POP PUSH2 0x12A4 PUSH0 DUP4 ADD DUP5 PUSH2 0x123B JUMP JUMPDEST SWAP3 SWAP2 POP POP JUMP JUMPDEST PUSH0 DUP1 REVERT JUMPDEST PUSH2 0x12B7 DUP2 PUSH2 0x1194 JUMP JUMPDEST DUP2 EQ PUSH2 0x12C1 JUMPI PUSH0 DUP1 REVERT JUMPDEST POP JUMP JUMPDEST PUSH0 DUP2 CALLDATALOAD SWAP1 POP PUSH2 0x12D2 DUP2 PUSH2 0x12AE JUMP JUMPDEST SWAP3 SWAP2 POP POP JUMP JUMPDEST PUSH0 PUSH1 0x20 DUP3 DUP5 SUB SLT ISZERO PUSH2 0x12ED JUMPI PUSH2 0x12EC PUSH2 0x12AA JUMP JUMPDEST JUMPDEST PUSH0 PUSH2 0x12FA DUP5 DUP3 DUP6 ADD PUSH2 0x12C4 JUMP JUMPDEST SWAP2 POP POP SWAP3 SWAP2 POP POP JUMP JUMPDEST PUSH0 PUSH1 0x20 DUP3 ADD SWAP1 POP PUSH2 0x1316 PUSH0 DUP4 ADD DUP5 PUSH2 0x1185 JUMP JUMPDEST SWAP3 SWAP2 POP POP JUMP JUMPDEST PUSH2 0x1325 DUP2 PUSH2 0x1174 JUMP JUMPDEST DUP2 EQ PUSH2 0x132F JUMPI PUSH0 DUP1 REVERT JUMPDEST POP JUMP JUMPDEST PUSH0 DUP2 CALLDATALOAD SWAP1 POP PUSH2 0x1340 DUP2 PUSH2 0x131C JUMP JUMPDEST SWAP3 SWAP2 POP POP JUMP JUMPDEST PUSH0 PUSH1 0x20 DUP3 DUP5 SUB SLT ISZERO PUSH2 0x135B JUMPI PUSH2 0x135A PUSH2 0x12AA JUMP JUMPDEST JUMPDEST PUSH0 PUSH2 0x1368 DUP5 DUP3 DUP6 ADD PUSH2 0x1332 JUMP JUMPDEST SWAP2 POP POP SWAP3 SWAP2 POP POP JUMP JUMPDEST PUSH32 0x4E487B7100000000000000000000000000000000000000000000000000000000 PUSH0 MSTORE PUSH1 0x11 PUSH1 0x4 MSTORE PUSH1 0x24 PUSH0 REVERT JUMPDEST PUSH0 PUSH2 0x13A8 DUP3 PUSH2 0x1194 JUMP JUMPDEST SWAP2 POP PUSH2 0x13B3 DUP4 PUSH2 0x1194 JUMP JUMPDEST SWAP3 POP DUP3 DUP3 ADD SWAP1 POP DUP1 DUP3 GT ISZERO PUSH2 0x13CB JUMPI PUSH2 0x13CA PUSH2 0x1371 JUMP JUMPDEST JUMPDEST SWAP3 SWAP2 POP POP JUMP JUMPDEST PUSH0 DUP3 DUP3 MSTORE PUSH1 0x20 DUP3 ADD SWAP1 POP SWAP3 SWAP2 POP POP JUMP JUMPDEST PUSH32 0x6E6F74206F776E65720000000000000000000000000000000000000000000000 PUSH0 DUP3 ADD MSTORE POP JUMP JUMPDEST PUSH0 PUSH2 0x1415 PUSH1 0x9 DUP4 PUSH2 0x13D1 JUMP JUMPDEST SWAP2 POP PUSH2 0x1420 DUP3 PUSH2 0x13E1 JUMP JUMPDEST PUSH1 0x20 DUP3 ADD SWAP1 POP SWAP2 SWAP1 POP JUMP JUMPDEST PUSH0 PUSH1 0x20 DUP3 ADD SWAP1 POP DUP2 DUP2 SUB PUSH0 DUP4 ADD MSTORE PUSH2 0x1442 DUP2 PUSH2 0x1409 JUMP JUMPDEST SWAP1 POP SWAP2 SWAP1 POP JUMP JUMPDEST PUSH32 0x4E487B7100000000000000000000000000000000000000000000000000000000 PUSH0 MSTORE PUSH1 0x32 PUSH1 0x4 MSTORE PUSH1 0x24 PUSH0 REVERT JUMPDEST PUSH0 PUSH2 0x1480 DUP3 PUSH2 0x1194 JUMP JUMPDEST SWAP2 POP PUSH32 0xFFFFFFFFFFFFFFFFFFFFFFFFFFFFFFFFFFFFFFFFFFFFFFFFFFFFFFFFFFFFFFFF DUP3 SUB PUSH2 0x14B2 JUMPI PUSH2 0x14B1 PUSH2 0x1371 JUMP JUMPDEST JUMPDEST PUSH1 0x1 DUP3 ADD SWAP1 POP SWAP2 SWAP1 POP JUMP INVALID LOG2 PUSH5 0x6970667358 0x22 SLT KECCAK256 PUSH3 0xA961A5 0xC1 PUSH9 0x165E8BF0901B0A37D5 MUL DUP15 0x25 DUP3 0xCF PUSH27 0xBF80A34370864E62C7F5DF64736F6C634300081400330000000000 "
				},
				"gasEstimates": {
					"creation": {
						"codeDepositCost": "1072600",
						"executionCost": "25377",
						"totalCost": "1097977"
					},
					"external": {
						"addr2money(address)": "2868",
						"bankBalance()": "335",
						"donors(uint256)": "5011",
						"getTop3Donors()": "infinite",
						"onReceive()": "infinite",
						"owner()": "2527",
						"top3donors(uint256)": "2795",
						"withdraw()": "infinite"
					},
					"internal": {
						"_sortTop3Donors(uint256,address)": "103619",
						"_updateTop3Donors(address)": "infinite"
					}
				},
				"methodIdentifiers": {
					"addr2money(address)": "c89f8245",
					"bankBalance()": "28657aa5",
					"donors(uint256)": "4abfa163",
					"getTop3Donors()": "2d1e2518",
					"onReceive()": "8e708bca",
					"owner()": "8da5cb5b",
					"top3donors(uint256)": "4f0f4bd3",
					"withdraw()": "3ccfd60b"
				}
			},
			"storageLayout": {
				"storage": [
					{
						"astId": 47,
						"contract": "BigBank.sol:Bank",
						"label": "owner",
						"offset": 0,
						"slot": "0",
						"type": "t_address"
					},
					{
						"astId": 50,
						"contract": "BigBank.sol:Bank",
						"label": "donors",
						"offset": 0,
						"slot": "1",
						"type": "t_array(t_address)dyn_storage"
					},
					{
						"astId": 54,
						"contract": "BigBank.sol:Bank",
						"label": "addr2money",
						"offset": 0,
						"slot": "2",
						"type": "t_mapping(t_address,t_uint256)"
					},
					{
						"astId": 58,
						"contract": "BigBank.sol:Bank",
						"label": "top3donors",
						"offset": 0,
						"slot": "3",
						"type": "t_array(t_address)3_storage"
					}
				],
				"types": {
					"t_address": {
						"encoding": "inplace",
						"label": "address",
						"numberOfBytes": "20"
					},
					"t_array(t_address)3_storage": {
						"base": "t_address",
						"encoding": "inplace",
						"label": "address[3]",
						"numberOfBytes": "96"
					},
					"t_array(t_address)dyn_storage": {
						"base": "t_address",
						"encoding": "dynamic_array",
						"label": "address[]",
						"numberOfBytes": "32"
					},
					"t_mapping(t_address,t_uint256)": {
						"encoding": "mapping",
						"key": "t_address",
						"label": "mapping(address => uint256)",
						"numberOfBytes": "32",
						"value": "t_uint256"
					},
					"t_uint256": {
						"encoding": "inplace",
						"label": "uint256",
						"numberOfBytes": "32"
					}
				}
			},
			"userdoc": {
				"kind": "user",
				"methods": {},
				"version": 1
			}
		}
	}
}