{
	"0502receiveAndFallback.sol": {
		"ReceiveAndFallBack": {
			"abi": [
				{
					"anonymous": false,
					"inputs": [
						{
							"indexed": false,
							"internalType": "address",
							"name": "",
							"type": "address"
						}
					],
					"name": "FallbackCall",
					"type": "event"
				},
				{
					"anonymous": false,
					"inputs": [
						{
							"indexed": false,
							"internalType": "address",
							"name": "",
							"type": "address"
						}
					],
					"name": "ReceiveCall",
					"type": "event"
				},
				{
					"stateMutability": "payable",
					"type": "fallback"
				},
				{
					"inputs": [],
					"name": "fbCall",
					"outputs": [
						{
							"internalType": "uint256",
							"name": "",
							"type": "uint256"
						}
					],
					"stateMutability": "view",
					"type": "function"
				},
				{
					"inputs": [],
					"name": "rcCall",
					"outputs": [
						{
							"internalType": "uint256",
							"name": "",
							"type": "uint256"
						}
					],
					"stateMutability": "view",
					"type": "function"
				},
				{
					"inputs": [],
					"name": "showBalance",
					"outputs": [
						{
							"internalType": "uint256",
							"name": "",
							"type": "uint256"
						}
					],
					"stateMutability": "view",
					"type": "function"
				},
				{
					"inputs": [],
					"name": "withdraw",
					"outputs": [],
					"stateMutability": "nonpayable",
					"type": "function"
				},
				{
					"stateMutability": "payable",
					"type": "receive"
				}
			],
			"devdoc": {
				"kind": "dev",
				"methods": {},
				"version": 1
			},
			"evm": {
				"assembly": "    /* \"0502receiveAndFallback.sol\":57:827  contract ReceiveAndFallBack {... */\n  mstore(0x40, 0x80)\n    /* \"0502receiveAndFallback.sol\":327:328  0 */\n  0x00\n    /* \"0502receiveAndFallback.sol\":306:328  uint public fbCall = 0 */\n  0x00\n  sstore\n    /* \"0502receiveAndFallback.sol\":355:356  0 */\n  0x00\n    /* \"0502receiveAndFallback.sol\":334:356  uint public rcCall = 0 */\n  0x01\n  sstore\n    /* \"0502receiveAndFallback.sol\":57:827  contract ReceiveAndFallBack {... */\n  callvalue\n  dup1\n  iszero\n  tag_1\n  jumpi\n  revert(0x00, 0x00)\ntag_1:\n  pop\n  dataSize(sub_0)\n  dup1\n  dataOffset(sub_0)\n  0x00\n  codecopy\n  0x00\n  return\nstop\n\nsub_0: assembly {\n        /* \"0502receiveAndFallback.sol\":57:827  contract ReceiveAndFallBack {... */\n      mstore(0x40, 0x80)\n      jumpi(tag_1, lt(calldatasize, 0x04))\n      shr(0xe0, calldataload(0x00))\n      dup1\n      0x3a87eccb\n      eq\n      tag_3\n      jumpi\n      dup1\n      0x3ccfd60b\n      eq\n      tag_4\n      jumpi\n      dup1\n      0x81b2d07b\n      eq\n      tag_5\n      jumpi\n      dup1\n      0xe0394dc5\n      eq\n      tag_6\n      jumpi\n      jump(tag_2)\n    tag_1:\n      jumpi(tag_2, calldatasize)\n        /* \"0502receiveAndFallback.sol\":438:461  ReceiveCall(msg.sender) */\n      0x33b987fda1d9c9debecb7f8d1c803c9683a2f978c02ea5265167431a62b4a53c\n        /* \"0502receiveAndFallback.sol\":450:460  msg.sender */\n      caller\n        /* \"0502receiveAndFallback.sol\":438:461  ReceiveCall(msg.sender) */\n      mload(0x40)\n      tag_9\n      swap2\n      swap1\n      tag_10\n      jump\t// in\n    tag_9:\n      mload(0x40)\n      dup1\n      swap2\n      sub\n      swap1\n      log1\n        /* \"0502receiveAndFallback.sol\":481:482  1 */\n      0x01\n        /* \"0502receiveAndFallback.sol\":471:477  rcCall */\n      dup1\n      0x00\n        /* \"0502receiveAndFallback.sol\":471:482  rcCall += 1 */\n      dup3\n      dup3\n      sload\n      tag_11\n      swap2\n      swap1\n      tag_12\n      jump\t// in\n    tag_11:\n      swap3\n      pop\n      pop\n      dup2\n      swap1\n      sstore\n      stop\n        /* \"0502receiveAndFallback.sol\":57:827  contract ReceiveAndFallBack {... */\n    tag_2:\n        /* \"0502receiveAndFallback.sol\":572:596  FallbackCall(msg.sender) */\n      0xd5639332bb3bba2f1c329cf41aa9ac95c61759c8f34e014a6a57ecd4a7abdf44\n        /* \"0502receiveAndFallback.sol\":585:595  msg.sender */\n      caller\n        /* \"0502receiveAndFallback.sol\":572:596  FallbackCall(msg.sender) */\n      mload(0x40)\n      tag_15\n      swap2\n      swap1\n      tag_10\n      jump\t// in\n    tag_15:\n      mload(0x40)\n      dup1\n      swap2\n      sub\n      swap1\n      log1\n        /* \"0502receiveAndFallback.sol\":616:617  1 */\n      0x01\n        /* \"0502receiveAndFallback.sol\":606:612  fbCall */\n      0x00\n      0x00\n        /* \"0502receiveAndFallback.sol\":606:617  fbCall += 1 */\n      dup3\n      dup3\n      sload\n      tag_16\n      swap2\n      swap1\n      tag_12\n      jump\t// in\n    tag_16:\n      swap3\n      pop\n      pop\n      dup2\n      swap1\n      sstore\n      stop\n        /* \"0502receiveAndFallback.sol\":334:356  uint public rcCall = 0 */\n    tag_3:\n      callvalue\n      dup1\n      iszero\n      tag_17\n      jumpi\n      revert(0x00, 0x00)\n    tag_17:\n      pop\n      tag_18\n      tag_19\n      jump\t// in\n    tag_18:\n      mload(0x40)\n      tag_20\n      swap2\n      swap1\n      tag_21\n      jump\t// in\n    tag_20:\n      mload(0x40)\n      dup1\n      swap2\n      sub\n      swap1\n      return\n        /* \"0502receiveAndFallback.sol\":630:725  function withdraw() public {... */\n    tag_4:\n      callvalue\n      dup1\n      iszero\n      tag_22\n      jumpi\n      revert(0x00, 0x00)\n    tag_22:\n      pop\n      tag_23\n      tag_24\n      jump\t// in\n    tag_23:\n      stop\n        /* \"0502receiveAndFallback.sol\":731:825  function showBalance() public view returns(uint) {... */\n    tag_5:\n      callvalue\n      dup1\n      iszero\n      tag_25\n      jumpi\n      revert(0x00, 0x00)\n    tag_25:\n      pop\n      tag_26\n      tag_27\n      jump\t// in\n    tag_26:\n      mload(0x40)\n      tag_28\n      swap2\n      swap1\n      tag_21\n      jump\t// in\n    tag_28:\n      mload(0x40)\n      dup1\n      swap2\n      sub\n      swap1\n      return\n        /* \"0502receiveAndFallback.sol\":306:328  uint public fbCall = 0 */\n    tag_6:\n      callvalue\n      dup1\n      iszero\n      tag_29\n      jumpi\n      revert(0x00, 0x00)\n    tag_29:\n      pop\n      tag_30\n      tag_31\n      jump\t// in\n    tag_30:\n      mload(0x40)\n      tag_32\n      swap2\n      swap1\n      tag_21\n      jump\t// in\n    tag_32:\n      mload(0x40)\n      dup1\n      swap2\n      sub\n      swap1\n      return\n        /* \"0502receiveAndFallback.sol\":334:356  uint public rcCall = 0 */\n    tag_19:\n      sload(0x01)\n      dup2\n      jump\t// out\n        /* \"0502receiveAndFallback.sol\":630:725  function withdraw() public {... */\n    tag_24:\n        /* \"0502receiveAndFallback.sol\":675:685  msg.sender */\n      caller\n        /* \"0502receiveAndFallback.sol\":667:695  payable(msg.sender).transfer */\n      0xffffffffffffffffffffffffffffffffffffffff\n      and\n        /* \"0502receiveAndFallback.sol\":667:718  payable(msg.sender).transfer(address(this).balance) */\n      0x08fc\n        /* \"0502receiveAndFallback.sol\":696:717  address(this).balance */\n      selfbalance\n        /* \"0502receiveAndFallback.sol\":667:718  payable(msg.sender).transfer(address(this).balance) */\n      swap1\n      dup2\n      iszero\n      mul\n      swap1\n      mload(0x40)\n      0x00\n      mload(0x40)\n      dup1\n      dup4\n      sub\n      dup2\n      dup6\n      dup9\n      dup9\n      call\n      swap4\n      pop\n      pop\n      pop\n      pop\n      iszero\n      dup1\n      iszero\n      tag_35\n      jumpi\n      returndatacopy(0x00, 0x00, returndatasize)\n      revert(0x00, returndatasize)\n    tag_35:\n      pop\n        /* \"0502receiveAndFallback.sol\":630:725  function withdraw() public {... */\n      jump\t// out\n        /* \"0502receiveAndFallback.sol\":731:825  function showBalance() public view returns(uint) {... */\n    tag_27:\n        /* \"0502receiveAndFallback.sol\":774:778  uint */\n      0x00\n        /* \"0502receiveAndFallback.sol\":797:818  address(this).balance */\n      selfbalance\n        /* \"0502receiveAndFallback.sol\":790:818  return address(this).balance */\n      swap1\n      pop\n        /* \"0502receiveAndFallback.sol\":731:825  function showBalance() public view returns(uint) {... */\n      swap1\n      jump\t// out\n        /* \"0502receiveAndFallback.sol\":306:328  uint public fbCall = 0 */\n    tag_31:\n      sload(0x00)\n      dup2\n      jump\t// out\n        /* \"#utility.yul\":7:133   */\n    tag_37:\n        /* \"#utility.yul\":44:51   */\n      0x00\n        /* \"#utility.yul\":84:126   */\n      0xffffffffffffffffffffffffffffffffffffffff\n        /* \"#utility.yul\":77:82   */\n      dup3\n        /* \"#utility.yul\":73:127   */\n      and\n        /* \"#utility.yul\":62:127   */\n      swap1\n      pop\n        /* \"#utility.yul\":7:133   */\n      swap2\n      swap1\n      pop\n      jump\t// out\n        /* \"#utility.yul\":139:235   */\n    tag_38:\n        /* \"#utility.yul\":176:183   */\n      0x00\n        /* \"#utility.yul\":205:229   */\n      tag_46\n        /* \"#utility.yul\":223:228   */\n      dup3\n        /* \"#utility.yul\":205:229   */\n      tag_37\n      jump\t// in\n    tag_46:\n        /* \"#utility.yul\":194:229   */\n      swap1\n      pop\n        /* \"#utility.yul\":139:235   */\n      swap2\n      swap1\n      pop\n      jump\t// out\n        /* \"#utility.yul\":241:359   */\n    tag_39:\n        /* \"#utility.yul\":328:352   */\n      tag_48\n        /* \"#utility.yul\":346:351   */\n      dup2\n        /* \"#utility.yul\":328:352   */\n      tag_38\n      jump\t// in\n    tag_48:\n        /* \"#utility.yul\":323:326   */\n      dup3\n        /* \"#utility.yul\":316:353   */\n      mstore\n        /* \"#utility.yul\":241:359   */\n      pop\n      pop\n      jump\t// out\n        /* \"#utility.yul\":365:587   */\n    tag_10:\n        /* \"#utility.yul\":458:462   */\n      0x00\n        /* \"#utility.yul\":496:498   */\n      0x20\n        /* \"#utility.yul\":485:494   */\n      dup3\n        /* \"#utility.yul\":481:499   */\n      add\n        /* \"#utility.yul\":473:499   */\n      swap1\n      pop\n        /* \"#utility.yul\":509:580   */\n      tag_50\n        /* \"#utility.yul\":577:578   */\n      0x00\n        /* \"#utility.yul\":566:575   */\n      dup4\n        /* \"#utility.yul\":562:579   */\n      add\n        /* \"#utility.yul\":553:559   */\n      dup5\n        /* \"#utility.yul\":509:580   */\n      tag_39\n      jump\t// in\n    tag_50:\n        /* \"#utility.yul\":365:587   */\n      swap3\n      swap2\n      pop\n      pop\n      jump\t// out\n        /* \"#utility.yul\":593:670   */\n    tag_40:\n        /* \"#utility.yul\":630:637   */\n      0x00\n        /* \"#utility.yul\":659:664   */\n      dup2\n        /* \"#utility.yul\":648:664   */\n      swap1\n      pop\n        /* \"#utility.yul\":593:670   */\n      swap2\n      swap1\n      pop\n      jump\t// out\n        /* \"#utility.yul\":676:856   */\n    tag_41:\n        /* \"#utility.yul\":724:801   */\n      0x4e487b7100000000000000000000000000000000000000000000000000000000\n        /* \"#utility.yul\":721:722   */\n      0x00\n        /* \"#utility.yul\":714:802   */\n      mstore\n        /* \"#utility.yul\":821:825   */\n      0x11\n        /* \"#utility.yul\":818:819   */\n      0x04\n        /* \"#utility.yul\":811:826   */\n      mstore\n        /* \"#utility.yul\":845:849   */\n      0x24\n        /* \"#utility.yul\":842:843   */\n      0x00\n        /* \"#utility.yul\":835:850   */\n      revert\n        /* \"#utility.yul\":862:1053   */\n    tag_12:\n        /* \"#utility.yul\":902:905   */\n      0x00\n        /* \"#utility.yul\":921:941   */\n      tag_54\n        /* \"#utility.yul\":939:940   */\n      dup3\n        /* \"#utility.yul\":921:941   */\n      tag_40\n      jump\t// in\n    tag_54:\n        /* \"#utility.yul\":916:941   */\n      swap2\n      pop\n        /* \"#utility.yul\":955:975   */\n      tag_55\n        /* \"#utility.yul\":973:974   */\n      dup4\n        /* \"#utility.yul\":955:975   */\n      tag_40\n      jump\t// in\n    tag_55:\n        /* \"#utility.yul\":950:975   */\n      swap3\n      pop\n        /* \"#utility.yul\":998:999   */\n      dup3\n        /* \"#utility.yul\":995:996   */\n      dup3\n        /* \"#utility.yul\":991:1000   */\n      add\n        /* \"#utility.yul\":984:1000   */\n      swap1\n      pop\n        /* \"#utility.yul\":1019:1022   */\n      dup1\n        /* \"#utility.yul\":1016:1017   */\n      dup3\n        /* \"#utility.yul\":1013:1023   */\n      gt\n        /* \"#utility.yul\":1010:1046   */\n      iszero\n      tag_56\n      jumpi\n        /* \"#utility.yul\":1026:1044   */\n      tag_57\n      tag_41\n      jump\t// in\n    tag_57:\n        /* \"#utility.yul\":1010:1046   */\n    tag_56:\n        /* \"#utility.yul\":862:1053   */\n      swap3\n      swap2\n      pop\n      pop\n      jump\t// out\n        /* \"#utility.yul\":1059:1177   */\n    tag_42:\n        /* \"#utility.yul\":1146:1170   */\n      tag_59\n        /* \"#utility.yul\":1164:1169   */\n      dup2\n        /* \"#utility.yul\":1146:1170   */\n      tag_40\n      jump\t// in\n    tag_59:\n        /* \"#utility.yul\":1141:1144   */\n      dup3\n        /* \"#utility.yul\":1134:1171   */\n      mstore\n        /* \"#utility.yul\":1059:1177   */\n      pop\n      pop\n      jump\t// out\n        /* \"#utility.yul\":1183:1405   */\n    tag_21:\n        /* \"#utility.yul\":1276:1280   */\n      0x00\n        /* \"#utility.yul\":1314:1316   */\n      0x20\n        /* \"#utility.yul\":1303:1312   */\n      dup3\n        /* \"#utility.yul\":1299:1317   */\n      add\n        /* \"#utility.yul\":1291:1317   */\n      swap1\n      pop\n        /* \"#utility.yul\":1327:1398   */\n      tag_61\n        /* \"#utility.yul\":1395:1396   */\n      0x00\n        /* \"#utility.yul\":1384:1393   */\n      dup4\n        /* \"#utility.yul\":1380:1397   */\n      add\n        /* \"#utility.yul\":1371:1377   */\n      dup5\n        /* \"#utility.yul\":1327:1398   */\n      tag_42\n      jump\t// in\n    tag_61:\n        /* \"#utility.yul\":1183:1405   */\n      swap3\n      swap2\n      pop\n      pop\n      jump\t// out\n\n    auxdata: 0xa2646970667358221220f4e7c8baefd929011e0f1371352500ca5627b42fdae18fae68fe2e2c7705720064736f6c634300081d0033\n}\n",
				"bytecode": {
					"linkReferences": {},
					"object": "60806040525f5f555f6001553480156015575f5ffd5b506102f2806100235f395ff3fe608060405260043610610042575f3560e01c80633a87eccb146100e75780633ccfd60b1461011157806381b2d07b14610127578063e0394dc51461015157610097565b36610097577f33b987fda1d9c9debecb7f8d1c803c9683a2f978c02ea5265167431a62b4a53c336040516100769190610212565b60405180910390a16001805f82825461008f9190610261565b925050819055005b7fd5639332bb3bba2f1c329cf41aa9ac95c61759c8f34e014a6a57ecd4a7abdf44336040516100c69190610212565b60405180910390a160015f5f8282546100df9190610261565b925050819055005b3480156100f2575f5ffd5b506100fb61017b565b60405161010891906102a3565b60405180910390f35b34801561011c575f5ffd5b50610125610181565b005b348015610132575f5ffd5b5061013b6101c7565b60405161014891906102a3565b60405180910390f35b34801561015c575f5ffd5b506101656101ce565b60405161017291906102a3565b60405180910390f35b60015481565b3373ffffffffffffffffffffffffffffffffffffffff166108fc4790811502906040515f60405180830381858888f193505050501580156101c4573d5f5f3e3d5ffd5b50565b5f47905090565b5f5481565b5f73ffffffffffffffffffffffffffffffffffffffff82169050919050565b5f6101fc826101d3565b9050919050565b61020c816101f2565b82525050565b5f6020820190506102255f830184610203565b92915050565b5f819050919050565b7f4e487b71000000000000000000000000000000000000000000000000000000005f52601160045260245ffd5b5f61026b8261022b565b91506102768361022b565b925082820190508082111561028e5761028d610234565b5b92915050565b61029d8161022b565b82525050565b5f6020820190506102b65f830184610294565b9291505056fea2646970667358221220f4e7c8baefd929011e0f1371352500ca5627b42fdae18fae68fe2e2c7705720064736f6c634300081d0033",
					"opcodes": "PUSH1 0x80 PUSH1 0x40 MSTORE PUSH0 PUSH0 SSTORE PUSH0 PUSH1 0x1 SSTORE CALLVALUE DUP1 ISZERO PUSH1 0x15 JUMPI PUSH0 PUSH0 REVERT JUMPDEST POP PUSH2 0x2F2 DUP1 PUSH2 0x23 PUSH0 CODECOPY PUSH0 RETURN INVALID PUSH1 0x80 PUSH1 0x40 MSTORE PUSH1 0x4 CALLDATASIZE LT PUSH2 0x42 JUMPI PUSH0 CALLDATALOAD PUSH1 0xE0 SHR DUP1 PUSH4 0x3A87ECCB EQ PUSH2 0xE7 JUMPI DUP1 PUSH4 0x3CCFD60B EQ PUSH2 0x111 JUMPI DUP1 PUSH4 0x81B2D07B EQ PUSH2 0x127 JUMPI DUP1 PUSH4 0xE0394DC5 EQ PUSH2 0x151 JUMPI PUSH2 0x97 JUMP JUMPDEST CALLDATASIZE PUSH2 0x97 JUMPI PUSH32 0x33B987FDA1D9C9DEBECB7F8D1C803C9683A2F978C02EA5265167431A62B4A53C CALLER PUSH1 0x40 MLOAD PUSH2 0x76 SWAP2 SWAP1 PUSH2 0x212 JUMP JUMPDEST PUSH1 0x40 MLOAD DUP1 SWAP2 SUB SWAP1 LOG1 PUSH1 0x1 DUP1 PUSH0 DUP3 DUP3 SLOAD PUSH2 0x8F SWAP2 SWAP1 PUSH2 0x261 JUMP JUMPDEST SWAP3 POP POP DUP2 SWAP1 SSTORE STOP JUMPDEST PUSH32 0xD5639332BB3BBA2F1C329CF41AA9AC95C61759C8F34E014A6A57ECD4A7ABDF44 CALLER PUSH1 0x40 MLOAD PUSH2 0xC6 SWAP2 SWAP1 PUSH2 0x212 JUMP JUMPDEST PUSH1 0x40 MLOAD DUP1 SWAP2 SUB SWAP1 LOG1 PUSH1 0x1 PUSH0 PUSH0 DUP3 DUP3 SLOAD PUSH2 0xDF SWAP2 SWAP1 PUSH2 0x261 JUMP JUMPDEST SWAP3 POP POP DUP2 SWAP1 SSTORE STOP JUMPDEST CALLVALUE DUP1 ISZERO PUSH2 0xF2 JUMPI PUSH0 PUSH0 REVERT JUMPDEST POP PUSH2 0xFB PUSH2 0x17B JUMP JUMPDEST PUSH1 0x40 MLOAD PUSH2 0x108 SWAP2 SWAP1 PUSH2 0x2A3 JUMP JUMPDEST PUSH1 0x40 MLOAD DUP1 SWAP2 SUB SWAP1 RETURN JUMPDEST CALLVALUE DUP1 ISZERO PUSH2 0x11C JUMPI PUSH0 PUSH0 REVERT JUMPDEST POP PUSH2 0x125 PUSH2 0x181 JUMP JUMPDEST STOP JUMPDEST CALLVALUE DUP1 ISZERO PUSH2 0x132 JUMPI PUSH0 PUSH0 REVERT JUMPDEST POP PUSH2 0x13B PUSH2 0x1C7 JUMP JUMPDEST PUSH1 0x40 MLOAD PUSH2 0x148 SWAP2 SWAP1 PUSH2 0x2A3 JUMP JUMPDEST PUSH1 0x40 MLOAD DUP1 SWAP2 SUB SWAP1 RETURN JUMPDEST CALLVALUE DUP1 ISZERO PUSH2 0x15C JUMPI PUSH0 PUSH0 REVERT JUMPDEST POP PUSH2 0x165 PUSH2 0x1CE JUMP JUMPDEST PUSH1 0x40 MLOAD PUSH2 0x172 SWAP2 SWAP1 PUSH2 0x2A3 JUMP JUMPDEST PUSH1 0x40 MLOAD DUP1 SWAP2 SUB SWAP1 RETURN JUMPDEST PUSH1 0x1 SLOAD DUP2 JUMP JUMPDEST CALLER PUSH20 0xFFFFFFFFFFFFFFFFFFFFFFFFFFFFFFFFFFFFFFFF AND PUSH2 0x8FC SELFBALANCE SWAP1 DUP2 ISZERO MUL SWAP1 PUSH1 0x40 MLOAD PUSH0 PUSH1 0x40 MLOAD DUP1 DUP4 SUB DUP2 DUP6 DUP9 DUP9 CALL SWAP4 POP POP POP POP ISZERO DUP1 ISZERO PUSH2 0x1C4 JUMPI RETURNDATASIZE PUSH0 PUSH0 RETURNDATACOPY RETURNDATASIZE PUSH0 REVERT JUMPDEST POP JUMP JUMPDEST PUSH0 SELFBALANCE SWAP1 POP SWAP1 JUMP JUMPDEST PUSH0 SLOAD DUP2 JUMP JUMPDEST PUSH0 PUSH20 0xFFFFFFFFFFFFFFFFFFFFFFFFFFFFFFFFFFFFFFFF DUP3 AND SWAP1 POP SWAP2 SWAP1 POP JUMP JUMPDEST PUSH0 PUSH2 0x1FC DUP3 PUSH2 0x1D3 JUMP JUMPDEST SWAP1 POP SWAP2 SWAP1 POP JUMP JUMPDEST PUSH2 0x20C DUP2 PUSH2 0x1F2 JUMP JUMPDEST DUP3 MSTORE POP POP JUMP JUMPDEST PUSH0 PUSH1 0x20 DUP3 ADD SWAP1 POP PUSH2 0x225 PUSH0 DUP4 ADD DUP5 PUSH2 0x203 JUMP JUMPDEST SWAP3 SWAP2 POP POP JUMP JUMPDEST PUSH0 DUP2 SWAP1 POP SWAP2 SWAP1 POP JUMP JUMPDEST PUSH32 0x4E487B7100000000000000000000000000000000000000000000000000000000 PUSH0 MSTORE PUSH1 0x11 PUSH1 0x4 MSTORE PUSH1 0x24 PUSH0 REVERT JUMPDEST PUSH0 PUSH2 0x26B DUP3 PUSH2 0x22B JUMP JUMPDEST SWAP2 POP PUSH2 0x276 DUP4 PUSH2 0x22B JUMP JUMPDEST SWAP3 POP DUP3 DUP3 ADD SWAP1 POP DUP1 DUP3 GT ISZERO PUSH2 0x28E JUMPI PUSH2 0x28D PUSH2 0x234 JUMP JUMPDEST JUMPDEST SWAP3 SWAP2 POP POP JUMP JUMPDEST PUSH2 0x29D DUP2 PUSH2 0x22B JUMP JUMPDEST DUP3 MSTORE POP POP JUMP JUMPDEST PUSH0 PUSH1 0x20 DUP3 ADD SWAP1 POP PUSH2 0x2B6 PUSH0 DUP4 ADD DUP5 PUSH2 0x294 JUMP JUMPDEST SWAP3 SWAP2 POP POP JUMP INVALID LOG2 PUSH5 0x6970667358 0x22 SLT KECCAK256 DELEGATECALL SWAPN 0xC8 0xBA 0xEF 0xD9 0x29 ADD 0x1E 0xF SGT PUSH18 0x352500CA5627B42FDAE18FAE68FE2E2C7705 PUSH19 0x64736F6C634300081D003300000000000000 "
				},
				"gasEstimates": {
					"creation": {
						"codeDepositCost": "150800",
						"executionCost": "10203",
						"totalCost": "161003"
					},
					"external": {
						"": "infinite",
						"fbCall()": "2468",
						"rcCall()": "2403",
						"showBalance()": "356",
						"withdraw()": "infinite"
					}
				},
				"methodIdentifiers": {
					"fbCall()": "e0394dc5",
					"rcCall()": "3a87eccb",
					"showBalance()": "81b2d07b",
					"withdraw()": "3ccfd60b"
				}
			},
			"storageLayout": {
				"storage": [
					{
						"astId": 4,
						"contract": "0502receiveAndFallback.sol:ReceiveAndFallBack",
						"label": "fbCall",
						"offset": 0,
						"slot": "0",
						"type": "t_uint256"
					},
					{
						"astId": 7,
						"contract": "0502receiveAndFallback.sol:ReceiveAndFallBack",
						"label": "rcCall",
						"offset": 0,
						"slot": "1",
						"type": "t_uint256"
					}
				],
				"types": {
					"t_uint256": {
						"encoding": "inplace",
						"label": "uint256",
						"numberOfBytes": "32"
					}
				}
			},
			"userdoc": {
				"kind": "user",
				"methods": {},
				"version": 1
			}
		}
	}
}