{
	"Bank.sol": {
		"Bank": {
			"abi": [
				{
					"inputs": [],
					"stateMutability": "nonpayable",
					"type": "constructor"
				},
				{
					"anonymous": false,
					"inputs": [
						{
							"indexed": false,
							"internalType": "address",
							"name": "",
							"type": "address"
						},
						{
							"indexed": false,
							"internalType": "uint256",
							"name": "",
							"type": "uint256"
						}
					],
					"name": "Received",
					"type": "event"
				},
				{
					"anonymous": false,
					"inputs": [
						{
							"indexed": false,
							"internalType": "address",
							"name": "",
							"type": "address"
						},
						{
							"indexed": false,
							"internalType": "uint256",
							"name": "",
							"type": "uint256"
						}
					],
					"name": "Withdrawed",
					"type": "event"
				},
				{
					"inputs": [
						{
							"internalType": "address",
							"name": "",
							"type": "address"
						}
					],
					"name": "addr2money",
					"outputs": [
						{
							"internalType": "uint256",
							"name": "",
							"type": "uint256"
						}
					],
					"stateMutability": "view",
					"type": "function"
				},
				{
					"inputs": [],
					"name": "bankBalance",
					"outputs": [
						{
							"internalType": "uint256",
							"name": "",
							"type": "uint256"
						}
					],
					"stateMutability": "view",
					"type": "function"
				},
				{
					"inputs": [
						{
							"internalType": "uint256",
							"name": "",
							"type": "uint256"
						}
					],
					"name": "donors",
					"outputs": [
						{
							"internalType": "address",
							"name": "",
							"type": "address"
						}
					],
					"stateMutability": "view",
					"type": "function"
				},
				{
					"inputs": [],
					"name": "getTop3Donors",
					"outputs": [
						{
							"internalType": "address[3]",
							"name": "",
							"type": "address[3]"
						}
					],
					"stateMutability": "view",
					"type": "function"
				},
				{
					"inputs": [],
					"name": "owner",
					"outputs": [
						{
							"internalType": "address",
							"name": "",
							"type": "address"
						}
					],
					"stateMutability": "view",
					"type": "function"
				},
				{
					"inputs": [],
					"name": "withdraw",
					"outputs": [],
					"stateMutability": "nonpayable",
					"type": "function"
				},
				{
					"stateMutability": "payable",
					"type": "receive"
				}
			],
			"devdoc": {
				"kind": "dev",
				"methods": {},
				"version": 1
			},
			"evm": {
				"assembly": "    /* \"Bank.sol\":58:1958  contract Bank {... */\n  mstore(0x40, 0x80)\n    /* \"Bank.sol\":205:254  constructor() {... */\n  callvalue\n  dup1\n  iszero\n  tag_1\n  jumpi\n  revert(0x00, 0x00)\ntag_1:\n  pop\n    /* \"Bank.sol\":237:247  msg.sender */\n  caller\n    /* \"Bank.sol\":229:234  owner */\n  0x00\n  0x00\n    /* \"Bank.sol\":229:247  owner = msg.sender */\n  0x0100\n  exp\n  dup2\n  sload\n  dup2\n  0xffffffffffffffffffffffffffffffffffffffff\n  mul\n  not\n  and\n  swap1\n  dup4\n  0xffffffffffffffffffffffffffffffffffffffff\n  and\n  mul\n  or\n  swap1\n  sstore\n  pop\n    /* \"Bank.sol\":58:1958  contract Bank {... */\n  dataSize(sub_0)\n  dup1\n  dataOffset(sub_0)\n  0x00\n  codecopy\n  0x00\n  return\nstop\n\nsub_0: assembly {\n        /* \"Bank.sol\":58:1958  contract Bank {... */\n      mstore(0x40, 0x80)\n      jumpi(tag_1, lt(calldatasize, 0x04))\n      shr(0xe0, calldataload(0x00))\n      dup1\n      0x28657aa5\n      eq\n      tag_3\n      jumpi\n      dup1\n      0x2d1e2518\n      eq\n      tag_4\n      jumpi\n      dup1\n      0x3ccfd60b\n      eq\n      tag_5\n      jumpi\n      dup1\n      0x4abfa163\n      eq\n      tag_6\n      jumpi\n      dup1\n      0x8da5cb5b\n      eq\n      tag_7\n      jumpi\n      dup1\n      0xc89f8245\n      eq\n      tag_8\n      jumpi\n      jump(tag_2)\n    tag_1:\n      jumpi(tag_2, calldatasize)\n        /* \"Bank.sol\":517:548  Received(msg.sender, msg.value) */\n      0x88a5966d370b9919b20f3e2c13ff65706f196a4e32cc2c12bf57088f88525874\n        /* \"Bank.sol\":526:536  msg.sender */\n      caller\n        /* \"Bank.sol\":538:547  msg.value */\n      callvalue\n        /* \"Bank.sol\":517:548  Received(msg.sender, msg.value) */\n      mload(0x40)\n      tag_11\n      swap3\n      swap2\n      swap1\n      tag_12\n      jump\t// in\n    tag_11:\n      mload(0x40)\n      dup1\n      swap2\n      sub\n      swap1\n      log1\n        /* \"Bank.sol\":664:665  0 */\n      0x00\n        /* \"Bank.sol\":638:648  addr2money */\n      0x02\n        /* \"Bank.sol\":638:660  addr2money[msg.sender] */\n      0x00\n        /* \"Bank.sol\":649:659  msg.sender */\n      caller\n        /* \"Bank.sol\":638:660  addr2money[msg.sender] */\n      0xffffffffffffffffffffffffffffffffffffffff\n      and\n      0xffffffffffffffffffffffffffffffffffffffff\n      and\n      dup2\n      mstore\n      0x20\n      add\n      swap1\n      dup2\n      mstore\n      0x20\n      add\n      0x00\n      keccak256\n      sload\n        /* \"Bank.sol\":638:665  addr2money[msg.sender] == 0 */\n      sub\n        /* \"Bank.sol\":635:714  if(addr2money[msg.sender] == 0){... */\n      tag_13\n      jumpi\n        /* \"Bank.sol\":680:686  donors */\n      0x01\n        /* \"Bank.sol\":692:702  msg.sender */\n      caller\n        /* \"Bank.sol\":680:703  donors.push(msg.sender) */\n      swap1\n      dup1\n      0x01\n      dup2\n      sload\n      add\n      dup1\n      dup3\n      sstore\n      dup1\n      swap2\n      pop\n      pop\n      0x01\n      swap1\n      sub\n      swap1\n      0x00\n      mstore\n      keccak256(0x00, 0x20)\n      add\n      0x00\n      swap1\n      swap2\n      swap1\n      swap2\n      swap1\n      swap2\n      0x0100\n      exp\n      dup2\n      sload\n      dup2\n      0xffffffffffffffffffffffffffffffffffffffff\n      mul\n      not\n      and\n      swap1\n      dup4\n      0xffffffffffffffffffffffffffffffffffffffff\n      and\n      mul\n      or\n      swap1\n      sstore\n      pop\n        /* \"Bank.sol\":635:714  if(addr2money[msg.sender] == 0){... */\n    tag_13:\n        /* \"Bank.sol\":750:759  msg.value */\n      callvalue\n        /* \"Bank.sol\":724:734  addr2money */\n      0x02\n        /* \"Bank.sol\":724:746  addr2money[msg.sender] */\n      0x00\n        /* \"Bank.sol\":735:745  msg.sender */\n      caller\n        /* \"Bank.sol\":724:746  addr2money[msg.sender] */\n      0xffffffffffffffffffffffffffffffffffffffff\n      and\n      0xffffffffffffffffffffffffffffffffffffffff\n      and\n      dup2\n      mstore\n      0x20\n      add\n      swap1\n      dup2\n      mstore\n      0x20\n      add\n      0x00\n      keccak256\n      0x00\n        /* \"Bank.sol\":724:759  addr2money[msg.sender] += msg.value */\n      dup3\n      dup3\n      sload\n      tag_15\n      swap2\n      swap1\n      tag_16\n      jump\t// in\n    tag_15:\n      swap3\n      pop\n      pop\n      dup2\n      swap1\n      sstore\n      stop\n        /* \"Bank.sol\":58:1958  contract Bank {... */\n    tag_2:\n      revert(0x00, 0x00)\n        /* \"Bank.sol\":820:915  function bankBalance() public view returns (uint) {... */\n    tag_3:\n      callvalue\n      dup1\n      iszero\n      tag_17\n      jumpi\n      revert(0x00, 0x00)\n    tag_17:\n      pop\n      tag_18\n      tag_19\n      jump\t// in\n    tag_18:\n      mload(0x40)\n      tag_20\n      swap2\n      swap1\n      tag_21\n      jump\t// in\n    tag_20:\n      mload(0x40)\n      dup1\n      swap2\n      sub\n      swap1\n      return\n        /* \"Bank.sol\":1220:1955  function getTop3Donors() public view returns (address[3] memory) {... */\n    tag_4:\n      callvalue\n      dup1\n      iszero\n      tag_22\n      jumpi\n      revert(0x00, 0x00)\n    tag_22:\n      pop\n      tag_23\n      tag_24\n      jump\t// in\n    tag_23:\n      mload(0x40)\n      tag_25\n      swap2\n      swap1\n      tag_26\n      jump\t// in\n    tag_25:\n      mload(0x40)\n      dup1\n      swap2\n      sub\n      swap1\n      return\n        /* \"Bank.sol\":1012:1170  function withdraw()public onlyOwner{... */\n    tag_5:\n      callvalue\n      dup1\n      iszero\n      tag_27\n      jumpi\n      revert(0x00, 0x00)\n    tag_27:\n      pop\n      tag_28\n      tag_29\n      jump\t// in\n    tag_28:\n      stop\n        /* \"Bank.sol\":104:127  address[] public donors */\n    tag_6:\n      callvalue\n      dup1\n      iszero\n      tag_30\n      jumpi\n      revert(0x00, 0x00)\n    tag_30:\n      pop\n      tag_31\n      0x04\n      dup1\n      calldatasize\n      sub\n      dup2\n      add\n      swap1\n      tag_32\n      swap2\n      swap1\n      tag_33\n      jump\t// in\n    tag_32:\n      tag_34\n      jump\t// in\n    tag_31:\n      mload(0x40)\n      tag_35\n      swap2\n      swap1\n      tag_36\n      jump\t// in\n    tag_35:\n      mload(0x40)\n      dup1\n      swap2\n      sub\n      swap1\n      return\n        /* \"Bank.sol\":78:98  address public owner */\n    tag_7:\n      callvalue\n      dup1\n      iszero\n      tag_37\n      jumpi\n      revert(0x00, 0x00)\n    tag_37:\n      pop\n      tag_38\n      tag_39\n      jump\t// in\n    tag_38:\n      mload(0x40)\n      tag_40\n      swap2\n      swap1\n      tag_36\n      jump\t// in\n    tag_40:\n      mload(0x40)\n      dup1\n      swap2\n      sub\n      swap1\n      return\n        /* \"Bank.sol\":133:175  mapping(address => uint) public addr2money */\n    tag_8:\n      callvalue\n      dup1\n      iszero\n      tag_41\n      jumpi\n      revert(0x00, 0x00)\n    tag_41:\n      pop\n      tag_42\n      0x04\n      dup1\n      calldatasize\n      sub\n      dup2\n      add\n      swap1\n      tag_43\n      swap2\n      swap1\n      tag_44\n      jump\t// in\n    tag_43:\n      tag_45\n      jump\t// in\n    tag_42:\n      mload(0x40)\n      tag_46\n      swap2\n      swap1\n      tag_21\n      jump\t// in\n    tag_46:\n      mload(0x40)\n      dup1\n      swap2\n      sub\n      swap1\n      return\n        /* \"Bank.sol\":820:915  function bankBalance() public view returns (uint) {... */\n    tag_19:\n        /* \"Bank.sol\":864:868  uint */\n      0x00\n        /* \"Bank.sol\":887:908  address(this).balance */\n      selfbalance\n        /* \"Bank.sol\":880:908  return address(this).balance */\n      swap1\n      pop\n        /* \"Bank.sol\":820:915  function bankBalance() public view returns (uint) {... */\n      swap1\n      jump\t// out\n        /* \"Bank.sol\":1220:1955  function getTop3Donors() public view returns (address[3] memory) {... */\n    tag_24:\n        /* \"Bank.sol\":1266:1283  address[3] memory */\n      tag_48\n      tag_49\n      jump\t// in\n    tag_48:\n        /* \"Bank.sol\":1295:1316  address[] memory temp */\n      0x00\n        /* \"Bank.sol\":1319:1325  donors */\n      0x01\n        /* \"Bank.sol\":1295:1325  address[] memory temp = donors */\n      dup1\n      sload\n      dup1\n      0x20\n      mul\n      0x20\n      add\n      mload(0x40)\n      swap1\n      dup2\n      add\n      0x40\n      mstore\n      dup1\n      swap3\n      swap2\n      swap1\n      dup2\n      dup2\n      mstore\n      0x20\n      add\n      dup3\n      dup1\n      sload\n      dup1\n      iszero\n      tag_51\n      jumpi\n      0x20\n      mul\n      dup3\n      add\n      swap2\n      swap1\n      0x00\n      mstore\n      keccak256(0x00, 0x20)\n      swap1\n    tag_52:\n      dup2\n      0x00\n      swap1\n      sload\n      swap1\n      0x0100\n      exp\n      swap1\n      div\n      0xffffffffffffffffffffffffffffffffffffffff\n      and\n      0xffffffffffffffffffffffffffffffffffffffff\n      and\n      dup2\n      mstore\n      0x20\n      add\n      swap1\n      0x01\n      add\n      swap1\n      dup1\n      dup4\n      gt\n      tag_52\n      jumpi\n    tag_51:\n      pop\n      pop\n      pop\n      pop\n      pop\n      swap1\n      pop\n        /* \"Bank.sol\":1397:1403  uint n */\n      0x00\n        /* \"Bank.sol\":1406:1410  temp */\n      dup2\n        /* \"Bank.sol\":1406:1417  temp.length */\n      mload\n        /* \"Bank.sol\":1397:1417  uint n = temp.length */\n      swap1\n      pop\n        /* \"Bank.sol\":1487:1493  uint i */\n      0x00\n        /* \"Bank.sol\":1496:1497  0 */\n      0x00\n        /* \"Bank.sol\":1487:1497  uint i = 0 */\n      swap1\n      pop\n        /* \"Bank.sol\":1482:1743  for (uint i = 0; i < n; i++) {... */\n    tag_53:\n        /* \"Bank.sol\":1503:1504  n */\n      dup2\n        /* \"Bank.sol\":1499:1500  i */\n      dup2\n        /* \"Bank.sol\":1499:1504  i < n */\n      lt\n        /* \"Bank.sol\":1482:1743  for (uint i = 0; i < n; i++) {... */\n      iszero\n      tag_54\n      jumpi\n        /* \"Bank.sol\":1530:1536  uint j */\n      0x00\n        /* \"Bank.sol\":1539:1540  0 */\n      0x00\n        /* \"Bank.sol\":1530:1540  uint j = 0 */\n      swap1\n      pop\n        /* \"Bank.sol\":1525:1733  for (uint j = 0; j < n - 1 - i; j++) {... */\n    tag_56:\n        /* \"Bank.sol\":1554:1555  i */\n      dup2\n        /* \"Bank.sol\":1550:1551  1 */\n      0x01\n        /* \"Bank.sol\":1546:1547  n */\n      dup5\n        /* \"Bank.sol\":1546:1551  n - 1 */\n      tag_59\n      swap2\n      swap1\n      tag_60\n      jump\t// in\n    tag_59:\n        /* \"Bank.sol\":1546:1555  n - 1 - i */\n      tag_61\n      swap2\n      swap1\n      tag_60\n      jump\t// in\n    tag_61:\n        /* \"Bank.sol\":1542:1543  j */\n      dup2\n        /* \"Bank.sol\":1542:1555  j < n - 1 - i */\n      lt\n        /* \"Bank.sol\":1525:1733  for (uint j = 0; j < n - 1 - i; j++) {... */\n      iszero\n      tag_57\n      jumpi\n        /* \"Bank.sol\":1606:1616  addr2money */\n      0x02\n        /* \"Bank.sol\":1606:1629  addr2money[temp[j + 1]] */\n      0x00\n        /* \"Bank.sol\":1617:1621  temp */\n      dup6\n        /* \"Bank.sol\":1626:1627  1 */\n      0x01\n        /* \"Bank.sol\":1622:1623  j */\n      dup5\n        /* \"Bank.sol\":1622:1627  j + 1 */\n      tag_62\n      swap2\n      swap1\n      tag_16\n      jump\t// in\n    tag_62:\n        /* \"Bank.sol\":1617:1628  temp[j + 1] */\n      dup2\n      mload\n      dup2\n      lt\n      tag_63\n      jumpi\n      tag_64\n      tag_65\n      jump\t// in\n    tag_64:\n    tag_63:\n      0x20\n      mul\n      0x20\n      add\n      add\n      mload\n        /* \"Bank.sol\":1606:1629  addr2money[temp[j + 1]] */\n      0xffffffffffffffffffffffffffffffffffffffff\n      and\n      0xffffffffffffffffffffffffffffffffffffffff\n      and\n      dup2\n      mstore\n      0x20\n      add\n      swap1\n      dup2\n      mstore\n      0x20\n      add\n      0x00\n      keccak256\n      sload\n        /* \"Bank.sol\":1584:1594  addr2money */\n      0x02\n        /* \"Bank.sol\":1584:1603  addr2money[temp[j]] */\n      0x00\n        /* \"Bank.sol\":1595:1599  temp */\n      dup7\n        /* \"Bank.sol\":1600:1601  j */\n      dup5\n        /* \"Bank.sol\":1595:1602  temp[j] */\n      dup2\n      mload\n      dup2\n      lt\n      tag_66\n      jumpi\n      tag_67\n      tag_65\n      jump\t// in\n    tag_67:\n    tag_66:\n      0x20\n      mul\n      0x20\n      add\n      add\n      mload\n        /* \"Bank.sol\":1584:1603  addr2money[temp[j]] */\n      0xffffffffffffffffffffffffffffffffffffffff\n      and\n      0xffffffffffffffffffffffffffffffffffffffff\n      and\n      dup2\n      mstore\n      0x20\n      add\n      swap1\n      dup2\n      mstore\n      0x20\n      add\n      0x00\n      keccak256\n      sload\n        /* \"Bank.sol\":1584:1629  addr2money[temp[j]] < addr2money[temp[j + 1]] */\n      lt\n        /* \"Bank.sol\":1580:1719  if (addr2money[temp[j]] < addr2money[temp[j + 1]]) {... */\n      iszero\n      tag_68\n      jumpi\n        /* \"Bank.sol\":1679:1683  temp */\n      dup4\n        /* \"Bank.sol\":1688:1689  1 */\n      0x01\n        /* \"Bank.sol\":1684:1685  j */\n      dup3\n        /* \"Bank.sol\":1684:1689  j + 1 */\n      tag_69\n      swap2\n      swap1\n      tag_16\n      jump\t// in\n    tag_69:\n        /* \"Bank.sol\":1679:1690  temp[j + 1] */\n      dup2\n      mload\n      dup2\n      lt\n      tag_70\n      jumpi\n      tag_71\n      tag_65\n      jump\t// in\n    tag_71:\n    tag_70:\n      0x20\n      mul\n      0x20\n      add\n      add\n      mload\n        /* \"Bank.sol\":1692:1696  temp */\n      dup5\n        /* \"Bank.sol\":1697:1698  j */\n      dup3\n        /* \"Bank.sol\":1692:1699  temp[j] */\n      dup2\n      mload\n      dup2\n      lt\n      tag_72\n      jumpi\n      tag_73\n      tag_65\n      jump\t// in\n    tag_73:\n    tag_72:\n      0x20\n      mul\n      0x20\n      add\n      add\n      mload\n        /* \"Bank.sol\":1654:1658  temp */\n      dup6\n        /* \"Bank.sol\":1659:1660  j */\n      dup4\n        /* \"Bank.sol\":1654:1661  temp[j] */\n      dup2\n      mload\n      dup2\n      lt\n      tag_74\n      jumpi\n      tag_75\n      tag_65\n      jump\t// in\n    tag_75:\n    tag_74:\n      0x20\n      mul\n      0x20\n      add\n      add\n        /* \"Bank.sol\":1663:1667  temp */\n      dup7\n        /* \"Bank.sol\":1672:1673  1 */\n      0x01\n        /* \"Bank.sol\":1668:1669  j */\n      dup6\n        /* \"Bank.sol\":1668:1673  j + 1 */\n      tag_76\n      swap2\n      swap1\n      tag_16\n      jump\t// in\n    tag_76:\n        /* \"Bank.sol\":1663:1674  temp[j + 1] */\n      dup2\n      mload\n      dup2\n      lt\n      tag_77\n      jumpi\n      tag_78\n      tag_65\n      jump\t// in\n    tag_78:\n    tag_77:\n      0x20\n      mul\n      0x20\n      add\n      add\n        /* \"Bank.sol\":1653:1700  (temp[j], temp[j + 1]) = (temp[j + 1], temp[j]) */\n      dup3\n      0xffffffffffffffffffffffffffffffffffffffff\n      and\n      0xffffffffffffffffffffffffffffffffffffffff\n      and\n      dup2\n      mstore\n      pop\n      dup3\n      0xffffffffffffffffffffffffffffffffffffffff\n      and\n      0xffffffffffffffffffffffffffffffffffffffff\n      and\n      dup2\n      mstore\n      pop\n      pop\n      pop\n        /* \"Bank.sol\":1580:1719  if (addr2money[temp[j]] < addr2money[temp[j + 1]]) {... */\n    tag_68:\n        /* \"Bank.sol\":1557:1560  j++ */\n      dup1\n      dup1\n      0x01\n      add\n      swap2\n      pop\n      pop\n        /* \"Bank.sol\":1525:1733  for (uint j = 0; j < n - 1 - i; j++) {... */\n      jump(tag_56)\n    tag_57:\n      pop\n        /* \"Bank.sol\":1506:1509  i++ */\n      dup1\n      dup1\n      0x01\n      add\n      swap2\n      pop\n      pop\n        /* \"Bank.sol\":1482:1743  for (uint i = 0; i < n; i++) {... */\n      jump(tag_53)\n    tag_54:\n      pop\n        /* \"Bank.sol\":1809:1830  address[3] memory top */\n      tag_79\n      tag_49\n      jump\t// in\n    tag_79:\n        /* \"Bank.sol\":1845:1851  uint i */\n      0x00\n        /* \"Bank.sol\":1854:1855  0 */\n      0x00\n        /* \"Bank.sol\":1845:1855  uint i = 0 */\n      swap1\n      pop\n        /* \"Bank.sol\":1840:1929  for (uint i = 0; i < 3 && i < temp.length; i++) {... */\n    tag_80:\n        /* \"Bank.sol\":1861:1862  3 */\n      0x03\n        /* \"Bank.sol\":1857:1858  i */\n      dup2\n        /* \"Bank.sol\":1857:1862  i < 3 */\n      lt\n        /* \"Bank.sol\":1857:1881  i < 3 && i < temp.length */\n      dup1\n      iszero\n      tag_83\n      jumpi\n      pop\n        /* \"Bank.sol\":1870:1874  temp */\n      dup4\n        /* \"Bank.sol\":1870:1881  temp.length */\n      mload\n        /* \"Bank.sol\":1866:1867  i */\n      dup2\n        /* \"Bank.sol\":1866:1881  i < temp.length */\n      lt\n        /* \"Bank.sol\":1857:1881  i < 3 && i < temp.length */\n    tag_83:\n        /* \"Bank.sol\":1840:1929  for (uint i = 0; i < 3 && i < temp.length; i++) {... */\n      iszero\n      tag_81\n      jumpi\n        /* \"Bank.sol\":1911:1915  temp */\n      dup4\n        /* \"Bank.sol\":1916:1917  i */\n      dup2\n        /* \"Bank.sol\":1911:1918  temp[i] */\n      dup2\n      mload\n      dup2\n      lt\n      tag_84\n      jumpi\n      tag_85\n      tag_65\n      jump\t// in\n    tag_85:\n    tag_84:\n      0x20\n      mul\n      0x20\n      add\n      add\n      mload\n        /* \"Bank.sol\":1902:1905  top */\n      dup3\n        /* \"Bank.sol\":1906:1907  i */\n      dup3\n        /* \"Bank.sol\":1902:1908  top[i] */\n      0x03\n      dup2\n      lt\n      tag_86\n      jumpi\n      tag_87\n      tag_65\n      jump\t// in\n    tag_87:\n    tag_86:\n      0x20\n      mul\n      add\n        /* \"Bank.sol\":1902:1918  top[i] = temp[i] */\n      swap1\n      0xffffffffffffffffffffffffffffffffffffffff\n      and\n      swap1\n      dup2\n      0xffffffffffffffffffffffffffffffffffffffff\n      and\n      dup2\n      mstore\n      pop\n      pop\n        /* \"Bank.sol\":1883:1886  i++ */\n      dup1\n      dup1\n      tag_88\n      swap1\n      tag_89\n      jump\t// in\n    tag_88:\n      swap2\n      pop\n      pop\n        /* \"Bank.sol\":1840:1929  for (uint i = 0; i < 3 && i < temp.length; i++) {... */\n      jump(tag_80)\n    tag_81:\n      pop\n        /* \"Bank.sol\":1945:1948  top */\n      dup1\n        /* \"Bank.sol\":1938:1948  return top */\n      swap4\n      pop\n      pop\n      pop\n      pop\n        /* \"Bank.sol\":1220:1955  function getTop3Donors() public view returns (address[3] memory) {... */\n      swap1\n      jump\t// out\n        /* \"Bank.sol\":1012:1170  function withdraw()public onlyOwner{... */\n    tag_29:\n        /* \"Bank.sol\":348:353  owner */\n      0x00\n      0x00\n      swap1\n      sload\n      swap1\n      0x0100\n      exp\n      swap1\n      div\n      0xffffffffffffffffffffffffffffffffffffffff\n      and\n        /* \"Bank.sol\":334:353  msg.sender == owner */\n      0xffffffffffffffffffffffffffffffffffffffff\n      and\n        /* \"Bank.sol\":334:344  msg.sender */\n      caller\n        /* \"Bank.sol\":334:353  msg.sender == owner */\n      0xffffffffffffffffffffffffffffffffffffffff\n      and\n      eq\n        /* \"Bank.sol\":326:367  require(msg.sender == owner, \"not owner\") */\n      tag_91\n      jumpi\n      mload(0x40)\n      0x08c379a000000000000000000000000000000000000000000000000000000000\n      dup2\n      mstore\n      0x04\n      add\n      tag_92\n      swap1\n      tag_93\n      jump\t// in\n    tag_92:\n      mload(0x40)\n      dup1\n      swap2\n      sub\n      swap1\n      revert\n    tag_91:\n        /* \"Bank.sol\":1062:1107  Withdrawed(msg.sender, address(this).balance) */\n      0x6cca423c6ffc06e62a0acc433965e074b11c28479b0449250ce3ff65ac9e39fe\n        /* \"Bank.sol\":1073:1083  msg.sender */\n      caller\n        /* \"Bank.sol\":1085:1106  address(this).balance */\n      selfbalance\n        /* \"Bank.sol\":1062:1107  Withdrawed(msg.sender, address(this).balance) */\n      mload(0x40)\n      tag_95\n      swap3\n      swap2\n      swap1\n      tag_12\n      jump\t// in\n    tag_95:\n      mload(0x40)\n      dup1\n      swap2\n      sub\n      swap1\n      log1\n        /* \"Bank.sol\":1125:1130  owner */\n      0x00\n      0x00\n      swap1\n      sload\n      swap1\n      0x0100\n      exp\n      swap1\n      div\n      0xffffffffffffffffffffffffffffffffffffffff\n      and\n        /* \"Bank.sol\":1117:1140  payable(owner).transfer */\n      0xffffffffffffffffffffffffffffffffffffffff\n      and\n        /* \"Bank.sol\":1117:1163  payable(owner).transfer(address(this).balance) */\n      0x08fc\n        /* \"Bank.sol\":1141:1162  address(this).balance */\n      selfbalance\n        /* \"Bank.sol\":1117:1163  payable(owner).transfer(address(this).balance) */\n      swap1\n      dup2\n      iszero\n      mul\n      swap1\n      mload(0x40)\n      0x00\n      mload(0x40)\n      dup1\n      dup4\n      sub\n      dup2\n      dup6\n      dup9\n      dup9\n      call\n      swap4\n      pop\n      pop\n      pop\n      pop\n      iszero\n      dup1\n      iszero\n      tag_97\n      jumpi\n      returndatacopy(0x00, 0x00, returndatasize)\n      revert(0x00, returndatasize)\n    tag_97:\n      pop\n        /* \"Bank.sol\":1012:1170  function withdraw()public onlyOwner{... */\n      jump\t// out\n        /* \"Bank.sol\":104:127  address[] public donors */\n    tag_34:\n      0x01\n      dup2\n      dup2\n      sload\n      dup2\n      lt\n      tag_98\n      jumpi\n      0x00\n      dup1\n      revert\n    tag_98:\n      swap1\n      0x00\n      mstore\n      keccak256(0x00, 0x20)\n      add\n      0x00\n      swap2\n      pop\n      sload\n      swap1\n      0x0100\n      exp\n      swap1\n      div\n      0xffffffffffffffffffffffffffffffffffffffff\n      and\n      dup2\n      jump\t// out\n        /* \"Bank.sol\":78:98  address public owner */\n    tag_39:\n      0x00\n      0x00\n      swap1\n      sload\n      swap1\n      0x0100\n      exp\n      swap1\n      div\n      0xffffffffffffffffffffffffffffffffffffffff\n      and\n      dup2\n      jump\t// out\n        /* \"Bank.sol\":133:175  mapping(address => uint) public addr2money */\n    tag_45:\n      mstore(0x20, 0x02)\n      dup1\n      0x00\n      mstore\n      keccak256(0x00, 0x40)\n      0x00\n      swap2\n      pop\n      swap1\n      pop\n      sload\n      dup2\n      jump\t// out\n    tag_49:\n      mload(0x40)\n      dup1\n      0x60\n      add\n      0x40\n      mstore\n      dup1\n      0x03\n      swap1\n      0x20\n      dup3\n      mul\n      dup1\n      calldatasize\n      dup4\n      calldatacopy\n      dup1\n      dup3\n      add\n      swap2\n      pop\n      pop\n      swap1\n      pop\n      pop\n      swap1\n      jump\t// out\n        /* \"#utility.yul\":7:133   */\n    tag_100:\n        /* \"#utility.yul\":44:51   */\n      0x00\n        /* \"#utility.yul\":84:126   */\n      0xffffffffffffffffffffffffffffffffffffffff\n        /* \"#utility.yul\":77:82   */\n      dup3\n        /* \"#utility.yul\":73:127   */\n      and\n        /* \"#utility.yul\":62:127   */\n      swap1\n      pop\n        /* \"#utility.yul\":7:133   */\n      swap2\n      swap1\n      pop\n      jump\t// out\n        /* \"#utility.yul\":139:235   */\n    tag_101:\n        /* \"#utility.yul\":176:183   */\n      0x00\n        /* \"#utility.yul\":205:229   */\n      tag_126\n        /* \"#utility.yul\":223:228   */\n      dup3\n        /* \"#utility.yul\":205:229   */\n      tag_100\n      jump\t// in\n    tag_126:\n        /* \"#utility.yul\":194:229   */\n      swap1\n      pop\n        /* \"#utility.yul\":139:235   */\n      swap2\n      swap1\n      pop\n      jump\t// out\n        /* \"#utility.yul\":241:359   */\n    tag_102:\n        /* \"#utility.yul\":328:352   */\n      tag_128\n        /* \"#utility.yul\":346:351   */\n      dup2\n        /* \"#utility.yul\":328:352   */\n      tag_101\n      jump\t// in\n    tag_128:\n        /* \"#utility.yul\":323:326   */\n      dup3\n        /* \"#utility.yul\":316:353   */\n      mstore\n        /* \"#utility.yul\":241:359   */\n      pop\n      pop\n      jump\t// out\n        /* \"#utility.yul\":365:442   */\n    tag_103:\n        /* \"#utility.yul\":402:409   */\n      0x00\n        /* \"#utility.yul\":431:436   */\n      dup2\n        /* \"#utility.yul\":420:436   */\n      swap1\n      pop\n        /* \"#utility.yul\":365:442   */\n      swap2\n      swap1\n      pop\n      jump\t// out\n        /* \"#utility.yul\":448:566   */\n    tag_104:\n        /* \"#utility.yul\":535:559   */\n      tag_131\n        /* \"#utility.yul\":553:558   */\n      dup2\n        /* \"#utility.yul\":535:559   */\n      tag_103\n      jump\t// in\n    tag_131:\n        /* \"#utility.yul\":530:533   */\n      dup3\n        /* \"#utility.yul\":523:560   */\n      mstore\n        /* \"#utility.yul\":448:566   */\n      pop\n      pop\n      jump\t// out\n        /* \"#utility.yul\":572:904   */\n    tag_12:\n        /* \"#utility.yul\":693:697   */\n      0x00\n        /* \"#utility.yul\":731:733   */\n      0x40\n        /* \"#utility.yul\":720:729   */\n      dup3\n        /* \"#utility.yul\":716:734   */\n      add\n        /* \"#utility.yul\":708:734   */\n      swap1\n      pop\n        /* \"#utility.yul\":744:815   */\n      tag_133\n        /* \"#utility.yul\":812:813   */\n      0x00\n        /* \"#utility.yul\":801:810   */\n      dup4\n        /* \"#utility.yul\":797:814   */\n      add\n        /* \"#utility.yul\":788:794   */\n      dup6\n        /* \"#utility.yul\":744:815   */\n      tag_102\n      jump\t// in\n    tag_133:\n        /* \"#utility.yul\":825:897   */\n      tag_134\n        /* \"#utility.yul\":893:895   */\n      0x20\n        /* \"#utility.yul\":882:891   */\n      dup4\n        /* \"#utility.yul\":878:896   */\n      add\n        /* \"#utility.yul\":869:875   */\n      dup5\n        /* \"#utility.yul\":825:897   */\n      tag_104\n      jump\t// in\n    tag_134:\n        /* \"#utility.yul\":572:904   */\n      swap4\n      swap3\n      pop\n      pop\n      pop\n      jump\t// out\n        /* \"#utility.yul\":910:1090   */\n    tag_105:\n        /* \"#utility.yul\":958:1035   */\n      0x4e487b7100000000000000000000000000000000000000000000000000000000\n        /* \"#utility.yul\":955:956   */\n      0x00\n        /* \"#utility.yul\":948:1036   */\n      mstore\n        /* \"#utility.yul\":1055:1059   */\n      0x11\n        /* \"#utility.yul\":1052:1053   */\n      0x04\n        /* \"#utility.yul\":1045:1060   */\n      mstore\n        /* \"#utility.yul\":1079:1083   */\n      0x24\n        /* \"#utility.yul\":1076:1077   */\n      0x00\n        /* \"#utility.yul\":1069:1084   */\n      revert\n        /* \"#utility.yul\":1096:1287   */\n    tag_16:\n        /* \"#utility.yul\":1136:1139   */\n      0x00\n        /* \"#utility.yul\":1155:1175   */\n      tag_137\n        /* \"#utility.yul\":1173:1174   */\n      dup3\n        /* \"#utility.yul\":1155:1175   */\n      tag_103\n      jump\t// in\n    tag_137:\n        /* \"#utility.yul\":1150:1175   */\n      swap2\n      pop\n        /* \"#utility.yul\":1189:1209   */\n      tag_138\n        /* \"#utility.yul\":1207:1208   */\n      dup4\n        /* \"#utility.yul\":1189:1209   */\n      tag_103\n      jump\t// in\n    tag_138:\n        /* \"#utility.yul\":1184:1209   */\n      swap3\n      pop\n        /* \"#utility.yul\":1232:1233   */\n      dup3\n        /* \"#utility.yul\":1229:1230   */\n      dup3\n        /* \"#utility.yul\":1225:1234   */\n      add\n        /* \"#utility.yul\":1218:1234   */\n      swap1\n      pop\n        /* \"#utility.yul\":1253:1256   */\n      dup1\n        /* \"#utility.yul\":1250:1251   */\n      dup3\n        /* \"#utility.yul\":1247:1257   */\n      gt\n        /* \"#utility.yul\":1244:1280   */\n      iszero\n      tag_139\n      jumpi\n        /* \"#utility.yul\":1260:1278   */\n      tag_140\n      tag_105\n      jump\t// in\n    tag_140:\n        /* \"#utility.yul\":1244:1280   */\n    tag_139:\n        /* \"#utility.yul\":1096:1287   */\n      swap3\n      swap2\n      pop\n      pop\n      jump\t// out\n        /* \"#utility.yul\":1293:1515   */\n    tag_21:\n        /* \"#utility.yul\":1386:1390   */\n      0x00\n        /* \"#utility.yul\":1424:1426   */\n      0x20\n        /* \"#utility.yul\":1413:1422   */\n      dup3\n        /* \"#utility.yul\":1409:1427   */\n      add\n        /* \"#utility.yul\":1401:1427   */\n      swap1\n      pop\n        /* \"#utility.yul\":1437:1508   */\n      tag_142\n        /* \"#utility.yul\":1505:1506   */\n      0x00\n        /* \"#utility.yul\":1494:1503   */\n      dup4\n        /* \"#utility.yul\":1490:1507   */\n      add\n        /* \"#utility.yul\":1481:1487   */\n      dup5\n        /* \"#utility.yul\":1437:1508   */\n      tag_104\n      jump\t// in\n    tag_142:\n        /* \"#utility.yul\":1293:1515   */\n      swap3\n      swap2\n      pop\n      pop\n      jump\t// out\n        /* \"#utility.yul\":1521:1625   */\n    tag_106:\n        /* \"#utility.yul\":1586:1592   */\n      0x00\n        /* \"#utility.yul\":1614:1618   */\n      0x03\n        /* \"#utility.yul\":1604:1618   */\n      swap1\n      pop\n        /* \"#utility.yul\":1521:1625   */\n      swap2\n      swap1\n      pop\n      jump\t// out\n        /* \"#utility.yul\":1631:1774   */\n    tag_107:\n        /* \"#utility.yul\":1728:1739   */\n      0x00\n        /* \"#utility.yul\":1765:1768   */\n      dup2\n        /* \"#utility.yul\":1750:1768   */\n      swap1\n      pop\n        /* \"#utility.yul\":1631:1774   */\n      swap3\n      swap2\n      pop\n      pop\n      jump\t// out\n        /* \"#utility.yul\":1780:1878   */\n    tag_108:\n        /* \"#utility.yul\":1845:1849   */\n      0x00\n        /* \"#utility.yul\":1868:1871   */\n      dup2\n        /* \"#utility.yul\":1860:1871   */\n      swap1\n      pop\n        /* \"#utility.yul\":1780:1878   */\n      swap2\n      swap1\n      pop\n      jump\t// out\n        /* \"#utility.yul\":1884:1992   */\n    tag_109:\n        /* \"#utility.yul\":1961:1985   */\n      tag_147\n        /* \"#utility.yul\":1979:1984   */\n      dup2\n        /* \"#utility.yul\":1961:1985   */\n      tag_101\n      jump\t// in\n    tag_147:\n        /* \"#utility.yul\":1956:1959   */\n      dup3\n        /* \"#utility.yul\":1949:1986   */\n      mstore\n        /* \"#utility.yul\":1884:1992   */\n      pop\n      pop\n      jump\t// out\n        /* \"#utility.yul\":1998:2177   */\n    tag_110:\n        /* \"#utility.yul\":2067:2077   */\n      0x00\n        /* \"#utility.yul\":2088:2134   */\n      tag_149\n        /* \"#utility.yul\":2130:2133   */\n      dup4\n        /* \"#utility.yul\":2122:2128   */\n      dup4\n        /* \"#utility.yul\":2088:2134   */\n      tag_109\n      jump\t// in\n    tag_149:\n        /* \"#utility.yul\":2166:2170   */\n      0x20\n        /* \"#utility.yul\":2161:2164   */\n      dup4\n        /* \"#utility.yul\":2157:2171   */\n      add\n        /* \"#utility.yul\":2143:2171   */\n      swap1\n      pop\n        /* \"#utility.yul\":1998:2177   */\n      swap3\n      swap2\n      pop\n      pop\n      jump\t// out\n        /* \"#utility.yul\":2183:2294   */\n    tag_111:\n        /* \"#utility.yul\":2251:2255   */\n      0x00\n        /* \"#utility.yul\":2283:2287   */\n      0x20\n        /* \"#utility.yul\":2278:2281   */\n      dup3\n        /* \"#utility.yul\":2274:2288   */\n      add\n        /* \"#utility.yul\":2266:2288   */\n      swap1\n      pop\n        /* \"#utility.yul\":2183:2294   */\n      swap2\n      swap1\n      pop\n      jump\t// out\n        /* \"#utility.yul\":2332:3026   */\n    tag_112:\n        /* \"#utility.yul\":2468:2520   */\n      tag_152\n        /* \"#utility.yul\":2514:2519   */\n      dup2\n        /* \"#utility.yul\":2468:2520   */\n      tag_106\n      jump\t// in\n    tag_152:\n        /* \"#utility.yul\":2536:2620   */\n      tag_153\n        /* \"#utility.yul\":2613:2619   */\n      dup2\n        /* \"#utility.yul\":2608:2611   */\n      dup5\n        /* \"#utility.yul\":2536:2620   */\n      tag_107\n      jump\t// in\n    tag_153:\n        /* \"#utility.yul\":2529:2620   */\n      swap3\n      pop\n        /* \"#utility.yul\":2644:2698   */\n      tag_154\n        /* \"#utility.yul\":2692:2697   */\n      dup3\n        /* \"#utility.yul\":2644:2698   */\n      tag_108\n      jump\t// in\n    tag_154:\n        /* \"#utility.yul\":2721:2728   */\n      dup1\n        /* \"#utility.yul\":2752:2753   */\n      0x00\n        /* \"#utility.yul\":2737:3019   */\n    tag_155:\n        /* \"#utility.yul\":2762:2768   */\n      dup4\n        /* \"#utility.yul\":2759:2760   */\n      dup2\n        /* \"#utility.yul\":2756:2769   */\n      lt\n        /* \"#utility.yul\":2737:3019   */\n      iszero\n      tag_157\n      jumpi\n        /* \"#utility.yul\":2838:2844   */\n      dup2\n        /* \"#utility.yul\":2832:2845   */\n      mload\n        /* \"#utility.yul\":2865:2928   */\n      tag_158\n        /* \"#utility.yul\":2924:2927   */\n      dup8\n        /* \"#utility.yul\":2909:2922   */\n      dup3\n        /* \"#utility.yul\":2865:2928   */\n      tag_110\n      jump\t// in\n    tag_158:\n        /* \"#utility.yul\":2858:2928   */\n      swap7\n      pop\n        /* \"#utility.yul\":2951:3009   */\n      tag_159\n        /* \"#utility.yul\":3002:3008   */\n      dup4\n        /* \"#utility.yul\":2951:3009   */\n      tag_111\n      jump\t// in\n    tag_159:\n        /* \"#utility.yul\":2941:3009   */\n      swap3\n      pop\n        /* \"#utility.yul\":2797:3019   */\n      pop\n        /* \"#utility.yul\":2784:2785   */\n      0x01\n        /* \"#utility.yul\":2781:2782   */\n      dup2\n        /* \"#utility.yul\":2777:2786   */\n      add\n        /* \"#utility.yul\":2772:2786   */\n      swap1\n      pop\n        /* \"#utility.yul\":2737:3019   */\n      jump(tag_155)\n    tag_157:\n        /* \"#utility.yul\":2741:2755   */\n      pop\n        /* \"#utility.yul\":2444:3026   */\n      pop\n      pop\n      pop\n        /* \"#utility.yul\":2332:3026   */\n      pop\n      pop\n      jump\t// out\n        /* \"#utility.yul\":3032:3346   */\n    tag_26:\n        /* \"#utility.yul\":3171:3175   */\n      0x00\n        /* \"#utility.yul\":3209:3211   */\n      0x60\n        /* \"#utility.yul\":3198:3207   */\n      dup3\n        /* \"#utility.yul\":3194:3212   */\n      add\n        /* \"#utility.yul\":3186:3212   */\n      swap1\n      pop\n        /* \"#utility.yul\":3222:3339   */\n      tag_161\n        /* \"#utility.yul\":3336:3337   */\n      0x00\n        /* \"#utility.yul\":3325:3334   */\n      dup4\n        /* \"#utility.yul\":3321:3338   */\n      add\n        /* \"#utility.yul\":3312:3318   */\n      dup5\n        /* \"#utility.yul\":3222:3339   */\n      tag_112\n      jump\t// in\n    tag_161:\n        /* \"#utility.yul\":3032:3346   */\n      swap3\n      swap2\n      pop\n      pop\n      jump\t// out\n        /* \"#utility.yul\":3433:3550   */\n    tag_114:\n        /* \"#utility.yul\":3542:3543   */\n      0x00\n        /* \"#utility.yul\":3539:3540   */\n      0x00\n        /* \"#utility.yul\":3532:3544   */\n      revert\n        /* \"#utility.yul\":3679:3801   */\n    tag_116:\n        /* \"#utility.yul\":3752:3776   */\n      tag_166\n        /* \"#utility.yul\":3770:3775   */\n      dup2\n        /* \"#utility.yul\":3752:3776   */\n      tag_103\n      jump\t// in\n    tag_166:\n        /* \"#utility.yul\":3745:3750   */\n      dup2\n        /* \"#utility.yul\":3742:3777   */\n      eq\n        /* \"#utility.yul\":3732:3795   */\n      tag_167\n      jumpi\n        /* \"#utility.yul\":3791:3792   */\n      0x00\n        /* \"#utility.yul\":3788:3789   */\n      0x00\n        /* \"#utility.yul\":3781:3793   */\n      revert\n        /* \"#utility.yul\":3732:3795   */\n    tag_167:\n        /* \"#utility.yul\":3679:3801   */\n      pop\n      jump\t// out\n        /* \"#utility.yul\":3807:3946   */\n    tag_117:\n        /* \"#utility.yul\":3853:3858   */\n      0x00\n        /* \"#utility.yul\":3891:3897   */\n      dup2\n        /* \"#utility.yul\":3878:3898   */\n      calldataload\n        /* \"#utility.yul\":3869:3898   */\n      swap1\n      pop\n        /* \"#utility.yul\":3907:3940   */\n      tag_169\n        /* \"#utility.yul\":3934:3939   */\n      dup2\n        /* \"#utility.yul\":3907:3940   */\n      tag_116\n      jump\t// in\n    tag_169:\n        /* \"#utility.yul\":3807:3946   */\n      swap3\n      swap2\n      pop\n      pop\n      jump\t// out\n        /* \"#utility.yul\":3952:4281   */\n    tag_33:\n        /* \"#utility.yul\":4011:4017   */\n      0x00\n        /* \"#utility.yul\":4060:4062   */\n      0x20\n        /* \"#utility.yul\":4048:4057   */\n      dup3\n        /* \"#utility.yul\":4039:4046   */\n      dup5\n        /* \"#utility.yul\":4035:4058   */\n      sub\n        /* \"#utility.yul\":4031:4063   */\n      slt\n        /* \"#utility.yul\":4028:4147   */\n      iszero\n      tag_171\n      jumpi\n        /* \"#utility.yul\":4066:4145   */\n      tag_172\n      tag_114\n      jump\t// in\n    tag_172:\n        /* \"#utility.yul\":4028:4147   */\n    tag_171:\n        /* \"#utility.yul\":4186:4187   */\n      0x00\n        /* \"#utility.yul\":4211:4264   */\n      tag_173\n        /* \"#utility.yul\":4256:4263   */\n      dup5\n        /* \"#utility.yul\":4247:4253   */\n      dup3\n        /* \"#utility.yul\":4236:4245   */\n      dup6\n        /* \"#utility.yul\":4232:4254   */\n      add\n        /* \"#utility.yul\":4211:4264   */\n      tag_117\n      jump\t// in\n    tag_173:\n        /* \"#utility.yul\":4201:4264   */\n      swap2\n      pop\n        /* \"#utility.yul\":4157:4274   */\n      pop\n        /* \"#utility.yul\":3952:4281   */\n      swap3\n      swap2\n      pop\n      pop\n      jump\t// out\n        /* \"#utility.yul\":4287:4509   */\n    tag_36:\n        /* \"#utility.yul\":4380:4384   */\n      0x00\n        /* \"#utility.yul\":4418:4420   */\n      0x20\n        /* \"#utility.yul\":4407:4416   */\n      dup3\n        /* \"#utility.yul\":4403:4421   */\n      add\n        /* \"#utility.yul\":4395:4421   */\n      swap1\n      pop\n        /* \"#utility.yul\":4431:4502   */\n      tag_175\n        /* \"#utility.yul\":4499:4500   */\n      0x00\n        /* \"#utility.yul\":4488:4497   */\n      dup4\n        /* \"#utility.yul\":4484:4501   */\n      add\n        /* \"#utility.yul\":4475:4481   */\n      dup5\n        /* \"#utility.yul\":4431:4502   */\n      tag_102\n      jump\t// in\n    tag_175:\n        /* \"#utility.yul\":4287:4509   */\n      swap3\n      swap2\n      pop\n      pop\n      jump\t// out\n        /* \"#utility.yul\":4515:4637   */\n    tag_118:\n        /* \"#utility.yul\":4588:4612   */\n      tag_177\n        /* \"#utility.yul\":4606:4611   */\n      dup2\n        /* \"#utility.yul\":4588:4612   */\n      tag_101\n      jump\t// in\n    tag_177:\n        /* \"#utility.yul\":4581:4586   */\n      dup2\n        /* \"#utility.yul\":4578:4613   */\n      eq\n        /* \"#utility.yul\":4568:4631   */\n      tag_178\n      jumpi\n        /* \"#utility.yul\":4627:4628   */\n      0x00\n        /* \"#utility.yul\":4624:4625   */\n      0x00\n        /* \"#utility.yul\":4617:4629   */\n      revert\n        /* \"#utility.yul\":4568:4631   */\n    tag_178:\n        /* \"#utility.yul\":4515:4637   */\n      pop\n      jump\t// out\n        /* \"#utility.yul\":4643:4782   */\n    tag_119:\n        /* \"#utility.yul\":4689:4694   */\n      0x00\n        /* \"#utility.yul\":4727:4733   */\n      dup2\n        /* \"#utility.yul\":4714:4734   */\n      calldataload\n        /* \"#utility.yul\":4705:4734   */\n      swap1\n      pop\n        /* \"#utility.yul\":4743:4776   */\n      tag_180\n        /* \"#utility.yul\":4770:4775   */\n      dup2\n        /* \"#utility.yul\":4743:4776   */\n      tag_118\n      jump\t// in\n    tag_180:\n        /* \"#utility.yul\":4643:4782   */\n      swap3\n      swap2\n      pop\n      pop\n      jump\t// out\n        /* \"#utility.yul\":4788:5117   */\n    tag_44:\n        /* \"#utility.yul\":4847:4853   */\n      0x00\n        /* \"#utility.yul\":4896:4898   */\n      0x20\n        /* \"#utility.yul\":4884:4893   */\n      dup3\n        /* \"#utility.yul\":4875:4882   */\n      dup5\n        /* \"#utility.yul\":4871:4894   */\n      sub\n        /* \"#utility.yul\":4867:4899   */\n      slt\n        /* \"#utility.yul\":4864:4983   */\n      iszero\n      tag_182\n      jumpi\n        /* \"#utility.yul\":4902:4981   */\n      tag_183\n      tag_114\n      jump\t// in\n    tag_183:\n        /* \"#utility.yul\":4864:4983   */\n    tag_182:\n        /* \"#utility.yul\":5022:5023   */\n      0x00\n        /* \"#utility.yul\":5047:5100   */\n      tag_184\n        /* \"#utility.yul\":5092:5099   */\n      dup5\n        /* \"#utility.yul\":5083:5089   */\n      dup3\n        /* \"#utility.yul\":5072:5081   */\n      dup6\n        /* \"#utility.yul\":5068:5090   */\n      add\n        /* \"#utility.yul\":5047:5100   */\n      tag_119\n      jump\t// in\n    tag_184:\n        /* \"#utility.yul\":5037:5100   */\n      swap2\n      pop\n        /* \"#utility.yul\":4993:5110   */\n      pop\n        /* \"#utility.yul\":4788:5117   */\n      swap3\n      swap2\n      pop\n      pop\n      jump\t// out\n        /* \"#utility.yul\":5123:5317   */\n    tag_60:\n        /* \"#utility.yul\":5163:5167   */\n      0x00\n        /* \"#utility.yul\":5183:5203   */\n      tag_186\n        /* \"#utility.yul\":5201:5202   */\n      dup3\n        /* \"#utility.yul\":5183:5203   */\n      tag_103\n      jump\t// in\n    tag_186:\n        /* \"#utility.yul\":5178:5203   */\n      swap2\n      pop\n        /* \"#utility.yul\":5217:5237   */\n      tag_187\n        /* \"#utility.yul\":5235:5236   */\n      dup4\n        /* \"#utility.yul\":5217:5237   */\n      tag_103\n      jump\t// in\n    tag_187:\n        /* \"#utility.yul\":5212:5237   */\n      swap3\n      pop\n        /* \"#utility.yul\":5261:5262   */\n      dup3\n        /* \"#utility.yul\":5258:5259   */\n      dup3\n        /* \"#utility.yul\":5254:5263   */\n      sub\n        /* \"#utility.yul\":5246:5263   */\n      swap1\n      pop\n        /* \"#utility.yul\":5285:5286   */\n      dup2\n        /* \"#utility.yul\":5279:5283   */\n      dup2\n        /* \"#utility.yul\":5276:5287   */\n      gt\n        /* \"#utility.yul\":5273:5310   */\n      iszero\n      tag_188\n      jumpi\n        /* \"#utility.yul\":5290:5308   */\n      tag_189\n      tag_105\n      jump\t// in\n    tag_189:\n        /* \"#utility.yul\":5273:5310   */\n    tag_188:\n        /* \"#utility.yul\":5123:5317   */\n      swap3\n      swap2\n      pop\n      pop\n      jump\t// out\n        /* \"#utility.yul\":5323:5503   */\n    tag_65:\n        /* \"#utility.yul\":5371:5448   */\n      0x4e487b7100000000000000000000000000000000000000000000000000000000\n        /* \"#utility.yul\":5368:5369   */\n      0x00\n        /* \"#utility.yul\":5361:5449   */\n      mstore\n        /* \"#utility.yul\":5468:5472   */\n      0x32\n        /* \"#utility.yul\":5465:5466   */\n      0x04\n        /* \"#utility.yul\":5458:5473   */\n      mstore\n        /* \"#utility.yul\":5492:5496   */\n      0x24\n        /* \"#utility.yul\":5489:5490   */\n      0x00\n        /* \"#utility.yul\":5482:5497   */\n      revert\n        /* \"#utility.yul\":5509:5742   */\n    tag_89:\n        /* \"#utility.yul\":5548:5551   */\n      0x00\n        /* \"#utility.yul\":5571:5595   */\n      tag_192\n        /* \"#utility.yul\":5589:5594   */\n      dup3\n        /* \"#utility.yul\":5571:5595   */\n      tag_103\n      jump\t// in\n    tag_192:\n        /* \"#utility.yul\":5562:5595   */\n      swap2\n      pop\n        /* \"#utility.yul\":5617:5683   */\n      0xffffffffffffffffffffffffffffffffffffffffffffffffffffffffffffffff\n        /* \"#utility.yul\":5610:5615   */\n      dup3\n        /* \"#utility.yul\":5607:5684   */\n      sub\n        /* \"#utility.yul\":5604:5707   */\n      tag_193\n      jumpi\n        /* \"#utility.yul\":5687:5705   */\n      tag_194\n      tag_105\n      jump\t// in\n    tag_194:\n        /* \"#utility.yul\":5604:5707   */\n    tag_193:\n        /* \"#utility.yul\":5734:5735   */\n      0x01\n        /* \"#utility.yul\":5727:5732   */\n      dup3\n        /* \"#utility.yul\":5723:5736   */\n      add\n        /* \"#utility.yul\":5716:5736   */\n      swap1\n      pop\n        /* \"#utility.yul\":5509:5742   */\n      swap2\n      swap1\n      pop\n      jump\t// out\n        /* \"#utility.yul\":5748:5917   */\n    tag_120:\n        /* \"#utility.yul\":5832:5843   */\n      0x00\n        /* \"#utility.yul\":5866:5872   */\n      dup3\n        /* \"#utility.yul\":5861:5864   */\n      dup3\n        /* \"#utility.yul\":5854:5873   */\n      mstore\n        /* \"#utility.yul\":5906:5910   */\n      0x20\n        /* \"#utility.yul\":5901:5904   */\n      dup3\n        /* \"#utility.yul\":5897:5911   */\n      add\n        /* \"#utility.yul\":5882:5911   */\n      swap1\n      pop\n        /* \"#utility.yul\":5748:5917   */\n      swap3\n      swap2\n      pop\n      pop\n      jump\t// out\n        /* \"#utility.yul\":5923:6082   */\n    tag_121:\n        /* \"#utility.yul\":6063:6074   */\n      0x6e6f74206f776e65720000000000000000000000000000000000000000000000\n        /* \"#utility.yul\":6059:6060   */\n      0x00\n        /* \"#utility.yul\":6051:6057   */\n      dup3\n        /* \"#utility.yul\":6047:6061   */\n      add\n        /* \"#utility.yul\":6040:6075   */\n      mstore\n        /* \"#utility.yul\":5923:6082   */\n      pop\n      jump\t// out\n        /* \"#utility.yul\":6088:6453   */\n    tag_122:\n        /* \"#utility.yul\":6230:6233   */\n      0x00\n        /* \"#utility.yul\":6251:6317   */\n      tag_198\n        /* \"#utility.yul\":6315:6316   */\n      0x09\n        /* \"#utility.yul\":6310:6313   */\n      dup4\n        /* \"#utility.yul\":6251:6317   */\n      tag_120\n      jump\t// in\n    tag_198:\n        /* \"#utility.yul\":6244:6317   */\n      swap2\n      pop\n        /* \"#utility.yul\":6326:6419   */\n      tag_199\n        /* \"#utility.yul\":6415:6418   */\n      dup3\n        /* \"#utility.yul\":6326:6419   */\n      tag_121\n      jump\t// in\n    tag_199:\n        /* \"#utility.yul\":6444:6446   */\n      0x20\n        /* \"#utility.yul\":6439:6442   */\n      dup3\n        /* \"#utility.yul\":6435:6447   */\n      add\n        /* \"#utility.yul\":6428:6447   */\n      swap1\n      pop\n        /* \"#utility.yul\":6088:6453   */\n      swap2\n      swap1\n      pop\n      jump\t// out\n        /* \"#utility.yul\":6459:6878   */\n    tag_93:\n        /* \"#utility.yul\":6625:6629   */\n      0x00\n        /* \"#utility.yul\":6663:6665   */\n      0x20\n        /* \"#utility.yul\":6652:6661   */\n      dup3\n        /* \"#utility.yul\":6648:6666   */\n      add\n        /* \"#utility.yul\":6640:6666   */\n      swap1\n      pop\n        /* \"#utility.yul\":6712:6721   */\n      dup2\n        /* \"#utility.yul\":6706:6710   */\n      dup2\n        /* \"#utility.yul\":6702:6722   */\n      sub\n        /* \"#utility.yul\":6698:6699   */\n      0x00\n        /* \"#utility.yul\":6687:6696   */\n      dup4\n        /* \"#utility.yul\":6683:6700   */\n      add\n        /* \"#utility.yul\":6676:6723   */\n      mstore\n        /* \"#utility.yul\":6740:6871   */\n      tag_201\n        /* \"#utility.yul\":6866:6870   */\n      dup2\n        /* \"#utility.yul\":6740:6871   */\n      tag_122\n      jump\t// in\n    tag_201:\n        /* \"#utility.yul\":6732:6871   */\n      swap1\n      pop\n        /* \"#utility.yul\":6459:6878   */\n      swap2\n      swap1\n      pop\n      jump\t// out\n\n    auxdata: 0xa264697066735822122053444c6496ad49cac0240963e760812377b739c461c30c0704aacfc1bb07e87764736f6c634300081d0033\n}\n",
				"bytecode": {
					"linkReferences": {},
					"object": "6080604052348015600e575f5ffd5b50335f5f6101000a81548173ffffffffffffffffffffffffffffffffffffffff021916908373ffffffffffffffffffffffffffffffffffffffff160217905550610b668061005b5f395ff3fe608060405260043610610058575f3560e01c806328657aa5146101935780632d1e2518146101bd5780633ccfd60b146101e75780634abfa163146101fd5780638da5cb5b14610239578063c89f8245146102635761018f565b3661018f577f88a5966d370b9919b20f3e2c13ff65706f196a4e32cc2c12bf57088f88525874333460405161008e9291906107ec565b60405180910390a15f60025f3373ffffffffffffffffffffffffffffffffffffffff1673ffffffffffffffffffffffffffffffffffffffff1681526020019081526020015f20540361013b57600133908060018154018082558091505060019003905f5260205f20015f9091909190916101000a81548173ffffffffffffffffffffffffffffffffffffffff021916908373ffffffffffffffffffffffffffffffffffffffff1602179055505b3460025f3373ffffffffffffffffffffffffffffffffffffffff1673ffffffffffffffffffffffffffffffffffffffff1681526020019081526020015f205f8282546101879190610840565b925050819055005b5f5ffd5b34801561019e575f5ffd5b506101a761029f565b6040516101b49190610873565b60405180910390f35b3480156101c8575f5ffd5b506101d16102a6565b6040516101de9190610931565b60405180910390f35b3480156101f2575f5ffd5b506101fb6105d2565b005b348015610208575f5ffd5b50610223600480360381019061021e9190610978565b6106ff565b60405161023091906109a3565b60405180910390f35b348015610244575f5ffd5b5061024d61073a565b60405161025a91906109a3565b60405180910390f35b34801561026e575f5ffd5b50610289600480360381019061028491906109e6565b61075e565b6040516102969190610873565b60405180910390f35b5f47905090565b6102ae610773565b5f600180548060200260200160405190810160405280929190818152602001828054801561032e57602002820191905f5260205f20905b815f9054906101000a900473ffffffffffffffffffffffffffffffffffffffff1673ffffffffffffffffffffffffffffffffffffffff16815260200190600101908083116102e5575b505050505090505f815190505f5f90505b8181101561052d575f5f90505b8160018461035a9190610a11565b6103649190610a11565b81101561051f5760025f8560018461037c9190610840565b8151811061038d5761038c610a44565b5b602002602001015173ffffffffffffffffffffffffffffffffffffffff1673ffffffffffffffffffffffffffffffffffffffff1681526020019081526020015f205460025f8684815181106103e5576103e4610a44565b5b602002602001015173ffffffffffffffffffffffffffffffffffffffff1673ffffffffffffffffffffffffffffffffffffffff1681526020019081526020015f20541015610512578360018261043b9190610840565b8151811061044c5761044b610a44565b5b602002602001015184828151811061046757610466610a44565b5b602002602001015185838151811061048257610481610a44565b5b60200260200101866001856104979190610840565b815181106104a8576104a7610a44565b5b602002602001018273ffffffffffffffffffffffffffffffffffffffff1673ffffffffffffffffffffffffffffffffffffffff168152508273ffffffffffffffffffffffffffffffffffffffff1673ffffffffffffffffffffffffffffffffffffffff1681525050505b808060010191505061034c565b50808060010191505061033f565b50610536610773565b5f5f90505b60038110801561054b5750835181105b156105c85783818151811061056357610562610a44565b5b602002602001015182826003811061057e5761057d610a44565b5b602002019073ffffffffffffffffffffffffffffffffffffffff16908173ffffffffffffffffffffffffffffffffffffffff168152505080806105c090610a71565b91505061053b565b5080935050505090565b5f5f9054906101000a900473ffffffffffffffffffffffffffffffffffffffff1673ffffffffffffffffffffffffffffffffffffffff163373ffffffffffffffffffffffffffffffffffffffff1614610660576040517f08c379a000000000000000000000000000000000000000000000000000000000815260040161065790610b12565b60405180910390fd5b7f6cca423c6ffc06e62a0acc433965e074b11c28479b0449250ce3ff65ac9e39fe33476040516106919291906107ec565b60405180910390a15f5f9054906101000a900473ffffffffffffffffffffffffffffffffffffffff1673ffffffffffffffffffffffffffffffffffffffff166108fc4790811502906040515f60405180830381858888f193505050501580156106fc573d5f5f3e3d5ffd5b50565b6001818154811061070e575f80fd5b905f5260205f20015f915054906101000a900473ffffffffffffffffffffffffffffffffffffffff1681565b5f5f9054906101000a900473ffffffffffffffffffffffffffffffffffffffff1681565b6002602052805f5260405f205f915090505481565b6040518060600160405280600390602082028036833780820191505090505090565b5f73ffffffffffffffffffffffffffffffffffffffff82169050919050565b5f6107be82610795565b9050919050565b6107ce816107b4565b82525050565b5f819050919050565b6107e6816107d4565b82525050565b5f6040820190506107ff5f8301856107c5565b61080c60208301846107dd565b9392505050565b7f4e487b71000000000000000000000000000000000000000000000000000000005f52601160045260245ffd5b5f61084a826107d4565b9150610855836107d4565b925082820190508082111561086d5761086c610813565b5b92915050565b5f6020820190506108865f8301846107dd565b92915050565b5f60039050919050565b5f81905092915050565b5f819050919050565b6108b2816107b4565b82525050565b5f6108c383836108a9565b60208301905092915050565b5f602082019050919050565b6108e48161088c565b6108ee8184610896565b92506108f9826108a0565b805f5b8381101561092957815161091087826108b8565b965061091b836108cf565b9250506001810190506108fc565b505050505050565b5f6060820190506109445f8301846108db565b92915050565b5f5ffd5b610957816107d4565b8114610961575f5ffd5b50565b5f813590506109728161094e565b92915050565b5f6020828403121561098d5761098c61094a565b5b5f61099a84828501610964565b91505092915050565b5f6020820190506109b65f8301846107c5565b92915050565b6109c5816107b4565b81146109cf575f5ffd5b50565b5f813590506109e0816109bc565b92915050565b5f602082840312156109fb576109fa61094a565b5b5f610a08848285016109d2565b91505092915050565b5f610a1b826107d4565b9150610a26836107d4565b9250828203905081811115610a3e57610a3d610813565b5b92915050565b7f4e487b71000000000000000000000000000000000000000000000000000000005f52603260045260245ffd5b5f610a7b826107d4565b91507fffffffffffffffffffffffffffffffffffffffffffffffffffffffffffffffff8203610aad57610aac610813565b5b600182019050919050565b5f82825260208201905092915050565b7f6e6f74206f776e657200000000000000000000000000000000000000000000005f82015250565b5f610afc600983610ab8565b9150610b0782610ac8565b602082019050919050565b5f6020820190508181035f830152610b2981610af0565b905091905056fea264697066735822122053444c6496ad49cac0240963e760812377b739c461c30c0704aacfc1bb07e87764736f6c634300081d0033",
					"opcodes": "PUSH1 0x80 PUSH1 0x40 MSTORE CALLVALUE DUP1 ISZERO PUSH1 0xE JUMPI PUSH0 PUSH0 REVERT JUMPDEST POP CALLER PUSH0 PUSH0 PUSH2 0x100 EXP DUP2 SLOAD DUP2 PUSH20 0xFFFFFFFFFFFFFFFFFFFFFFFFFFFFFFFFFFFFFFFF MUL NOT AND SWAP1 DUP4 PUSH20 0xFFFFFFFFFFFFFFFFFFFFFFFFFFFFFFFFFFFFFFFF AND MUL OR SWAP1 SSTORE POP PUSH2 0xB66 DUP1 PUSH2 0x5B PUSH0 CODECOPY PUSH0 RETURN INVALID PUSH1 0x80 PUSH1 0x40 MSTORE PUSH1 0x4 CALLDATASIZE LT PUSH2 0x58 JUMPI PUSH0 CALLDATALOAD PUSH1 0xE0 SHR DUP1 PUSH4 0x28657AA5 EQ PUSH2 0x193 JUMPI DUP1 PUSH4 0x2D1E2518 EQ PUSH2 0x1BD JUMPI DUP1 PUSH4 0x3CCFD60B EQ PUSH2 0x1E7 JUMPI DUP1 PUSH4 0x4ABFA163 EQ PUSH2 0x1FD JUMPI DUP1 PUSH4 0x8DA5CB5B EQ PUSH2 0x239 JUMPI DUP1 PUSH4 0xC89F8245 EQ PUSH2 0x263 JUMPI PUSH2 0x18F JUMP JUMPDEST CALLDATASIZE PUSH2 0x18F JUMPI PUSH32 0x88A5966D370B9919B20F3E2C13FF65706F196A4E32CC2C12BF57088F88525874 CALLER CALLVALUE PUSH1 0x40 MLOAD PUSH2 0x8E SWAP3 SWAP2 SWAP1 PUSH2 0x7EC JUMP JUMPDEST PUSH1 0x40 MLOAD DUP1 SWAP2 SUB SWAP1 LOG1 PUSH0 PUSH1 0x2 PUSH0 CALLER PUSH20 0xFFFFFFFFFFFFFFFFFFFFFFFFFFFFFFFFFFFFFFFF AND PUSH20 0xFFFFFFFFFFFFFFFFFFFFFFFFFFFFFFFFFFFFFFFF AND DUP2 MSTORE PUSH1 0x20 ADD SWAP1 DUP2 MSTORE PUSH1 0x20 ADD PUSH0 KECCAK256 SLOAD SUB PUSH2 0x13B JUMPI PUSH1 0x1 CALLER SWAP1 DUP1 PUSH1 0x1 DUP2 SLOAD ADD DUP1 DUP3 SSTORE DUP1 SWAP2 POP POP PUSH1 0x1 SWAP1 SUB SWAP1 PUSH0 MSTORE PUSH1 0x20 PUSH0 KECCAK256 ADD PUSH0 SWAP1 SWAP2 SWAP1 SWAP2 SWAP1 SWAP2 PUSH2 0x100 EXP DUP2 SLOAD DUP2 PUSH20 0xFFFFFFFFFFFFFFFFFFFFFFFFFFFFFFFFFFFFFFFF MUL NOT AND SWAP1 DUP4 PUSH20 0xFFFFFFFFFFFFFFFFFFFFFFFFFFFFFFFFFFFFFFFF AND MUL OR SWAP1 SSTORE POP JUMPDEST CALLVALUE PUSH1 0x2 PUSH0 CALLER PUSH20 0xFFFFFFFFFFFFFFFFFFFFFFFFFFFFFFFFFFFFFFFF AND PUSH20 0xFFFFFFFFFFFFFFFFFFFFFFFFFFFFFFFFFFFFFFFF AND DUP2 MSTORE PUSH1 0x20 ADD SWAP1 DUP2 MSTORE PUSH1 0x20 ADD PUSH0 KECCAK256 PUSH0 DUP3 DUP3 SLOAD PUSH2 0x187 SWAP2 SWAP1 PUSH2 0x840 JUMP JUMPDEST SWAP3 POP POP DUP2 SWAP1 SSTORE STOP JUMPDEST PUSH0 PUSH0 REVERT JUMPDEST CALLVALUE DUP1 ISZERO PUSH2 0x19E JUMPI PUSH0 PUSH0 REVERT JUMPDEST POP PUSH2 0x1A7 PUSH2 0x29F JUMP JUMPDEST PUSH1 0x40 MLOAD PUSH2 0x1B4 SWAP2 SWAP1 PUSH2 0x873 JUMP JUMPDEST PUSH1 0x40 MLOAD DUP1 SWAP2 SUB SWAP1 RETURN JUMPDEST CALLVALUE DUP1 ISZERO PUSH2 0x1C8 JUMPI PUSH0 PUSH0 REVERT JUMPDEST POP PUSH2 0x1D1 PUSH2 0x2A6 JUMP JUMPDEST PUSH1 0x40 MLOAD PUSH2 0x1DE SWAP2 SWAP1 PUSH2 0x931 JUMP JUMPDEST PUSH1 0x40 MLOAD DUP1 SWAP2 SUB SWAP1 RETURN JUMPDEST CALLVALUE DUP1 ISZERO PUSH2 0x1F2 JUMPI PUSH0 PUSH0 REVERT JUMPDEST POP PUSH2 0x1FB PUSH2 0x5D2 JUMP JUMPDEST STOP JUMPDEST CALLVALUE DUP1 ISZERO PUSH2 0x208 JUMPI PUSH0 PUSH0 REVERT JUMPDEST POP PUSH2 0x223 PUSH1 0x4 DUP1 CALLDATASIZE SUB DUP2 ADD SWAP1 PUSH2 0x21E SWAP2 SWAP1 PUSH2 0x978 JUMP JUMPDEST PUSH2 0x6FF JUMP JUMPDEST PUSH1 0x40 MLOAD PUSH2 0x230 SWAP2 SWAP1 PUSH2 0x9A3 JUMP JUMPDEST PUSH1 0x40 MLOAD DUP1 SWAP2 SUB SWAP1 RETURN JUMPDEST CALLVALUE DUP1 ISZERO PUSH2 0x244 JUMPI PUSH0 PUSH0 REVERT JUMPDEST POP PUSH2 0x24D PUSH2 0x73A JUMP JUMPDEST PUSH1 0x40 MLOAD PUSH2 0x25A SWAP2 SWAP1 PUSH2 0x9A3 JUMP JUMPDEST PUSH1 0x40 MLOAD DUP1 SWAP2 SUB SWAP1 RETURN JUMPDEST CALLVALUE DUP1 ISZERO PUSH2 0x26E JUMPI PUSH0 PUSH0 REVERT JUMPDEST POP PUSH2 0x289 PUSH1 0x4 DUP1 CALLDATASIZE SUB DUP2 ADD SWAP1 PUSH2 0x284 SWAP2 SWAP1 PUSH2 0x9E6 JUMP JUMPDEST PUSH2 0x75E JUMP JUMPDEST PUSH1 0x40 MLOAD PUSH2 0x296 SWAP2 SWAP1 PUSH2 0x873 JUMP JUMPDEST PUSH1 0x40 MLOAD DUP1 SWAP2 SUB SWAP1 RETURN JUMPDEST PUSH0 SELFBALANCE SWAP1 POP SWAP1 JUMP JUMPDEST PUSH2 0x2AE PUSH2 0x773 JUMP JUMPDEST PUSH0 PUSH1 0x1 DUP1 SLOAD DUP1 PUSH1 0x20 MUL PUSH1 0x20 ADD PUSH1 0x40 MLOAD SWAP1 DUP2 ADD PUSH1 0x40 MSTORE DUP1 SWAP3 SWAP2 SWAP1 DUP2 DUP2 MSTORE PUSH1 0x20 ADD DUP3 DUP1 SLOAD DUP1 ISZERO PUSH2 0x32E JUMPI PUSH1 0x20 MUL DUP3 ADD SWAP2 SWAP1 PUSH0 MSTORE PUSH1 0x20 PUSH0 KECCAK256 SWAP1 JUMPDEST DUP2 PUSH0 SWAP1 SLOAD SWAP1 PUSH2 0x100 EXP SWAP1 DIV PUSH20 0xFFFFFFFFFFFFFFFFFFFFFFFFFFFFFFFFFFFFFFFF AND PUSH20 0xFFFFFFFFFFFFFFFFFFFFFFFFFFFFFFFFFFFFFFFF AND DUP2 MSTORE PUSH1 0x20 ADD SWAP1 PUSH1 0x1 ADD SWAP1 DUP1 DUP4 GT PUSH2 0x2E5 JUMPI JUMPDEST POP POP POP POP POP SWAP1 POP PUSH0 DUP2 MLOAD SWAP1 POP PUSH0 PUSH0 SWAP1 POP JUMPDEST DUP2 DUP2 LT ISZERO PUSH2 0x52D JUMPI PUSH0 PUSH0 SWAP1 POP JUMPDEST DUP2 PUSH1 0x1 DUP5 PUSH2 0x35A SWAP2 SWAP1 PUSH2 0xA11 JUMP JUMPDEST PUSH2 0x364 SWAP2 SWAP1 PUSH2 0xA11 JUMP JUMPDEST DUP2 LT ISZERO PUSH2 0x51F JUMPI PUSH1 0x2 PUSH0 DUP6 PUSH1 0x1 DUP5 PUSH2 0x37C SWAP2 SWAP1 PUSH2 0x840 JUMP JUMPDEST DUP2 MLOAD DUP2 LT PUSH2 0x38D JUMPI PUSH2 0x38C PUSH2 0xA44 JUMP JUMPDEST JUMPDEST PUSH1 0x20 MUL PUSH1 0x20 ADD ADD MLOAD PUSH20 0xFFFFFFFFFFFFFFFFFFFFFFFFFFFFFFFFFFFFFFFF AND PUSH20 0xFFFFFFFFFFFFFFFFFFFFFFFFFFFFFFFFFFFFFFFF AND DUP2 MSTORE PUSH1 0x20 ADD SWAP1 DUP2 MSTORE PUSH1 0x20 ADD PUSH0 KECCAK256 SLOAD PUSH1 0x2 PUSH0 DUP7 DUP5 DUP2 MLOAD DUP2 LT PUSH2 0x3E5 JUMPI PUSH2 0x3E4 PUSH2 0xA44 JUMP JUMPDEST JUMPDEST PUSH1 0x20 MUL PUSH1 0x20 ADD ADD MLOAD PUSH20 0xFFFFFFFFFFFFFFFFFFFFFFFFFFFFFFFFFFFFFFFF AND PUSH20 0xFFFFFFFFFFFFFFFFFFFFFFFFFFFFFFFFFFFFFFFF AND DUP2 MSTORE PUSH1 0x20 ADD SWAP1 DUP2 MSTORE PUSH1 0x20 ADD PUSH0 KECCAK256 SLOAD LT ISZERO PUSH2 0x512 JUMPI DUP4 PUSH1 0x1 DUP3 PUSH2 0x43B SWAP2 SWAP1 PUSH2 0x840 JUMP JUMPDEST DUP2 MLOAD DUP2 LT PUSH2 0x44C JUMPI PUSH2 0x44B PUSH2 0xA44 JUMP JUMPDEST JUMPDEST PUSH1 0x20 MUL PUSH1 0x20 ADD ADD MLOAD DUP5 DUP3 DUP2 MLOAD DUP2 LT PUSH2 0x467 JUMPI PUSH2 0x466 PUSH2 0xA44 JUMP JUMPDEST JUMPDEST PUSH1 0x20 MUL PUSH1 0x20 ADD ADD MLOAD DUP6 DUP4 DUP2 MLOAD DUP2 LT PUSH2 0x482 JUMPI PUSH2 0x481 PUSH2 0xA44 JUMP JUMPDEST JUMPDEST PUSH1 0x20 MUL PUSH1 0x20 ADD ADD DUP7 PUSH1 0x1 DUP6 PUSH2 0x497 SWAP2 SWAP1 PUSH2 0x840 JUMP JUMPDEST DUP2 MLOAD DUP2 LT PUSH2 0x4A8 JUMPI PUSH2 0x4A7 PUSH2 0xA44 JUMP JUMPDEST JUMPDEST PUSH1 0x20 MUL PUSH1 0x20 ADD ADD DUP3 PUSH20 0xFFFFFFFFFFFFFFFFFFFFFFFFFFFFFFFFFFFFFFFF AND PUSH20 0xFFFFFFFFFFFFFFFFFFFFFFFFFFFFFFFFFFFFFFFF AND DUP2 MSTORE POP DUP3 PUSH20 0xFFFFFFFFFFFFFFFFFFFFFFFFFFFFFFFFFFFFFFFF AND PUSH20 0xFFFFFFFFFFFFFFFFFFFFFFFFFFFFFFFFFFFFFFFF AND DUP2 MSTORE POP POP POP JUMPDEST DUP1 DUP1 PUSH1 0x1 ADD SWAP2 POP POP PUSH2 0x34C JUMP JUMPDEST POP DUP1 DUP1 PUSH1 0x1 ADD SWAP2 POP POP PUSH2 0x33F JUMP JUMPDEST POP PUSH2 0x536 PUSH2 0x773 JUMP JUMPDEST PUSH0 PUSH0 SWAP1 POP JUMPDEST PUSH1 0x3 DUP2 LT DUP1 ISZERO PUSH2 0x54B JUMPI POP DUP4 MLOAD DUP2 LT JUMPDEST ISZERO PUSH2 0x5C8 JUMPI DUP4 DUP2 DUP2 MLOAD DUP2 LT PUSH2 0x563 JUMPI PUSH2 0x562 PUSH2 0xA44 JUMP JUMPDEST JUMPDEST PUSH1 0x20 MUL PUSH1 0x20 ADD ADD MLOAD DUP3 DUP3 PUSH1 0x3 DUP2 LT PUSH2 0x57E JUMPI PUSH2 0x57D PUSH2 0xA44 JUMP JUMPDEST JUMPDEST PUSH1 0x20 MUL ADD SWAP1 PUSH20 0xFFFFFFFFFFFFFFFFFFFFFFFFFFFFFFFFFFFFFFFF AND SWAP1 DUP2 PUSH20 0xFFFFFFFFFFFFFFFFFFFFFFFFFFFFFFFFFFFFFFFF AND DUP2 MSTORE POP POP DUP1 DUP1 PUSH2 0x5C0 SWAP1 PUSH2 0xA71 JUMP JUMPDEST SWAP2 POP POP PUSH2 0x53B JUMP JUMPDEST POP DUP1 SWAP4 POP POP POP POP SWAP1 JUMP JUMPDEST PUSH0 PUSH0 SWAP1 SLOAD SWAP1 PUSH2 0x100 EXP SWAP1 DIV PUSH20 0xFFFFFFFFFFFFFFFFFFFFFFFFFFFFFFFFFFFFFFFF AND PUSH20 0xFFFFFFFFFFFFFFFFFFFFFFFFFFFFFFFFFFFFFFFF AND CALLER PUSH20 0xFFFFFFFFFFFFFFFFFFFFFFFFFFFFFFFFFFFFFFFF AND EQ PUSH2 0x660 JUMPI PUSH1 0x40 MLOAD PUSH32 0x8C379A000000000000000000000000000000000000000000000000000000000 DUP2 MSTORE PUSH1 0x4 ADD PUSH2 0x657 SWAP1 PUSH2 0xB12 JUMP JUMPDEST PUSH1 0x40 MLOAD DUP1 SWAP2 SUB SWAP1 REVERT JUMPDEST PUSH32 0x6CCA423C6FFC06E62A0ACC433965E074B11C28479B0449250CE3FF65AC9E39FE CALLER SELFBALANCE PUSH1 0x40 MLOAD PUSH2 0x691 SWAP3 SWAP2 SWAP1 PUSH2 0x7EC JUMP JUMPDEST PUSH1 0x40 MLOAD DUP1 SWAP2 SUB SWAP1 LOG1 PUSH0 PUSH0 SWAP1 SLOAD SWAP1 PUSH2 0x100 EXP SWAP1 DIV PUSH20 0xFFFFFFFFFFFFFFFFFFFFFFFFFFFFFFFFFFFFFFFF AND PUSH20 0xFFFFFFFFFFFFFFFFFFFFFFFFFFFFFFFFFFFFFFFF AND PUSH2 0x8FC SELFBALANCE SWAP1 DUP2 ISZERO MUL SWAP1 PUSH1 0x40 MLOAD PUSH0 PUSH1 0x40 MLOAD DUP1 DUP4 SUB DUP2 DUP6 DUP9 DUP9 CALL SWAP4 POP POP POP POP ISZERO DUP1 ISZERO PUSH2 0x6FC JUMPI RETURNDATASIZE PUSH0 PUSH0 RETURNDATACOPY RETURNDATASIZE PUSH0 REVERT JUMPDEST POP JUMP JUMPDEST PUSH1 0x1 DUP2 DUP2 SLOAD DUP2 LT PUSH2 0x70E JUMPI PUSH0 DUP1 REVERT JUMPDEST SWAP1 PUSH0 MSTORE PUSH1 0x20 PUSH0 KECCAK256 ADD PUSH0 SWAP2 POP SLOAD SWAP1 PUSH2 0x100 EXP SWAP1 DIV PUSH20 0xFFFFFFFFFFFFFFFFFFFFFFFFFFFFFFFFFFFFFFFF AND DUP2 JUMP JUMPDEST PUSH0 PUSH0 SWAP1 SLOAD SWAP1 PUSH2 0x100 EXP SWAP1 DIV PUSH20 0xFFFFFFFFFFFFFFFFFFFFFFFFFFFFFFFFFFFFFFFF AND DUP2 JUMP JUMPDEST PUSH1 0x2 PUSH1 0x20 MSTORE DUP1 PUSH0 MSTORE PUSH1 0x40 PUSH0 KECCAK256 PUSH0 SWAP2 POP SWAP1 POP SLOAD DUP2 JUMP JUMPDEST PUSH1 0x40 MLOAD DUP1 PUSH1 0x60 ADD PUSH1 0x40 MSTORE DUP1 PUSH1 0x3 SWAP1 PUSH1 0x20 DUP3 MUL DUP1 CALLDATASIZE DUP4 CALLDATACOPY DUP1 DUP3 ADD SWAP2 POP POP SWAP1 POP POP SWAP1 JUMP JUMPDEST PUSH0 PUSH20 0xFFFFFFFFFFFFFFFFFFFFFFFFFFFFFFFFFFFFFFFF DUP3 AND SWAP1 POP SWAP2 SWAP1 POP JUMP JUMPDEST PUSH0 PUSH2 0x7BE DUP3 PUSH2 0x795 JUMP JUMPDEST SWAP1 POP SWAP2 SWAP1 POP JUMP JUMPDEST PUSH2 0x7CE DUP2 PUSH2 0x7B4 JUMP JUMPDEST DUP3 MSTORE POP POP JUMP JUMPDEST PUSH0 DUP2 SWAP1 POP SWAP2 SWAP1 POP JUMP JUMPDEST PUSH2 0x7E6 DUP2 PUSH2 0x7D4 JUMP JUMPDEST DUP3 MSTORE POP POP JUMP JUMPDEST PUSH0 PUSH1 0x40 DUP3 ADD SWAP1 POP PUSH2 0x7FF PUSH0 DUP4 ADD DUP6 PUSH2 0x7C5 JUMP JUMPDEST PUSH2 0x80C PUSH1 0x20 DUP4 ADD DUP5 PUSH2 0x7DD JUMP JUMPDEST SWAP4 SWAP3 POP POP POP JUMP JUMPDEST PUSH32 0x4E487B7100000000000000000000000000000000000000000000000000000000 PUSH0 MSTORE PUSH1 0x11 PUSH1 0x4 MSTORE PUSH1 0x24 PUSH0 REVERT JUMPDEST PUSH0 PUSH2 0x84A DUP3 PUSH2 0x7D4 JUMP JUMPDEST SWAP2 POP PUSH2 0x855 DUP4 PUSH2 0x7D4 JUMP JUMPDEST SWAP3 POP DUP3 DUP3 ADD SWAP1 POP DUP1 DUP3 GT ISZERO PUSH2 0x86D JUMPI PUSH2 0x86C PUSH2 0x813 JUMP JUMPDEST JUMPDEST SWAP3 SWAP2 POP POP JUMP JUMPDEST PUSH0 PUSH1 0x20 DUP3 ADD SWAP1 POP PUSH2 0x886 PUSH0 DUP4 ADD DUP5 PUSH2 0x7DD JUMP JUMPDEST SWAP3 SWAP2 POP POP JUMP JUMPDEST PUSH0 PUSH1 0x3 SWAP1 POP SWAP2 SWAP1 POP JUMP JUMPDEST PUSH0 DUP2 SWAP1 POP SWAP3 SWAP2 POP POP JUMP JUMPDEST PUSH0 DUP2 SWAP1 POP SWAP2 SWAP1 POP JUMP JUMPDEST PUSH2 0x8B2 DUP2 PUSH2 0x7B4 JUMP JUMPDEST DUP3 MSTORE POP POP JUMP JUMPDEST PUSH0 PUSH2 0x8C3 DUP4 DUP4 PUSH2 0x8A9 JUMP JUMPDEST PUSH1 0x20 DUP4 ADD SWAP1 POP SWAP3 SWAP2 POP POP JUMP JUMPDEST PUSH0 PUSH1 0x20 DUP3 ADD SWAP1 POP SWAP2 SWAP1 POP JUMP JUMPDEST PUSH2 0x8E4 DUP2 PUSH2 0x88C JUMP JUMPDEST PUSH2 0x8EE DUP2 DUP5 PUSH2 0x896 JUMP JUMPDEST SWAP3 POP PUSH2 0x8F9 DUP3 PUSH2 0x8A0 JUMP JUMPDEST DUP1 PUSH0 JUMPDEST DUP4 DUP2 LT ISZERO PUSH2 0x929 JUMPI DUP2 MLOAD PUSH2 0x910 DUP8 DUP3 PUSH2 0x8B8 JUMP JUMPDEST SWAP7 POP PUSH2 0x91B DUP4 PUSH2 0x8CF JUMP JUMPDEST SWAP3 POP POP PUSH1 0x1 DUP2 ADD SWAP1 POP PUSH2 0x8FC JUMP JUMPDEST POP POP POP POP POP POP JUMP JUMPDEST PUSH0 PUSH1 0x60 DUP3 ADD SWAP1 POP PUSH2 0x944 PUSH0 DUP4 ADD DUP5 PUSH2 0x8DB JUMP JUMPDEST SWAP3 SWAP2 POP POP JUMP JUMPDEST PUSH0 PUSH0 REVERT JUMPDEST PUSH2 0x957 DUP2 PUSH2 0x7D4 JUMP JUMPDEST DUP2 EQ PUSH2 0x961 JUMPI PUSH0 PUSH0 REVERT JUMPDEST POP JUMP JUMPDEST PUSH0 DUP2 CALLDATALOAD SWAP1 POP PUSH2 0x972 DUP2 PUSH2 0x94E JUMP JUMPDEST SWAP3 SWAP2 POP POP JUMP JUMPDEST PUSH0 PUSH1 0x20 DUP3 DUP5 SUB SLT ISZERO PUSH2 0x98D JUMPI PUSH2 0x98C PUSH2 0x94A JUMP JUMPDEST JUMPDEST PUSH0 PUSH2 0x99A DUP5 DUP3 DUP6 ADD PUSH2 0x964 JUMP JUMPDEST SWAP2 POP POP SWAP3 SWAP2 POP POP JUMP JUMPDEST PUSH0 PUSH1 0x20 DUP3 ADD SWAP1 POP PUSH2 0x9B6 PUSH0 DUP4 ADD DUP5 PUSH2 0x7C5 JUMP JUMPDEST SWAP3 SWAP2 POP POP JUMP JUMPDEST PUSH2 0x9C5 DUP2 PUSH2 0x7B4 JUMP JUMPDEST DUP2 EQ PUSH2 0x9CF JUMPI PUSH0 PUSH0 REVERT JUMPDEST POP JUMP JUMPDEST PUSH0 DUP2 CALLDATALOAD SWAP1 POP PUSH2 0x9E0 DUP2 PUSH2 0x9BC JUMP JUMPDEST SWAP3 SWAP2 POP POP JUMP JUMPDEST PUSH0 PUSH1 0x20 DUP3 DUP5 SUB SLT ISZERO PUSH2 0x9FB JUMPI PUSH2 0x9FA PUSH2 0x94A JUMP JUMPDEST JUMPDEST PUSH0 PUSH2 0xA08 DUP5 DUP3 DUP6 ADD PUSH2 0x9D2 JUMP JUMPDEST SWAP2 POP POP SWAP3 SWAP2 POP POP JUMP JUMPDEST PUSH0 PUSH2 0xA1B DUP3 PUSH2 0x7D4 JUMP JUMPDEST SWAP2 POP PUSH2 0xA26 DUP4 PUSH2 0x7D4 JUMP JUMPDEST SWAP3 POP DUP3 DUP3 SUB SWAP1 POP DUP2 DUP2 GT ISZERO PUSH2 0xA3E JUMPI PUSH2 0xA3D PUSH2 0x813 JUMP JUMPDEST JUMPDEST SWAP3 SWAP2 POP POP JUMP JUMPDEST PUSH32 0x4E487B7100000000000000000000000000000000000000000000000000000000 PUSH0 MSTORE PUSH1 0x32 PUSH1 0x4 MSTORE PUSH1 0x24 PUSH0 REVERT JUMPDEST PUSH0 PUSH2 0xA7B DUP3 PUSH2 0x7D4 JUMP JUMPDEST SWAP2 POP PUSH32 0xFFFFFFFFFFFFFFFFFFFFFFFFFFFFFFFFFFFFFFFFFFFFFFFFFFFFFFFFFFFFFFFF DUP3 SUB PUSH2 0xAAD JUMPI PUSH2 0xAAC PUSH2 0x813 JUMP JUMPDEST JUMPDEST PUSH1 0x1 DUP3 ADD SWAP1 POP SWAP2 SWAP1 POP JUMP JUMPDEST PUSH0 DUP3 DUP3 MSTORE PUSH1 0x20 DUP3 ADD SWAP1 POP SWAP3 SWAP2 POP POP JUMP JUMPDEST PUSH32 0x6E6F74206F776E65720000000000000000000000000000000000000000000000 PUSH0 DUP3 ADD MSTORE POP JUMP JUMPDEST PUSH0 PUSH2 0xAFC PUSH1 0x9 DUP4 PUSH2 0xAB8 JUMP JUMPDEST SWAP2 POP PUSH2 0xB07 DUP3 PUSH2 0xAC8 JUMP JUMPDEST PUSH1 0x20 DUP3 ADD SWAP1 POP SWAP2 SWAP1 POP JUMP JUMPDEST PUSH0 PUSH1 0x20 DUP3 ADD SWAP1 POP DUP2 DUP2 SUB PUSH0 DUP4 ADD MSTORE PUSH2 0xB29 DUP2 PUSH2 0xAF0 JUMP JUMPDEST SWAP1 POP SWAP2 SWAP1 POP JUMP INVALID LOG2 PUSH5 0x6970667358 0x22 SLT KECCAK256 MSTORE8 PREVRANDAO 0x4C PUSH5 0x96AD49CAC0 0x24 MULMOD PUSH4 0xE7608123 PUSH24 0xB739C461C30C0704AACFC1BB07E87764736F6C634300081D STOP CALLER "
				},
				"gasEstimates": {
					"creation": {
						"codeDepositCost": "583600",
						"executionCost": "24881",
						"totalCost": "608481"
					},
					"external": {
						"addr2money(address)": "2890",
						"bankBalance()": "312",
						"donors(uint256)": "4988",
						"getTop3Donors()": "infinite",
						"owner()": "2573",
						"withdraw()": "infinite"
					}
				},
				"methodIdentifiers": {
					"addr2money(address)": "c89f8245",
					"bankBalance()": "28657aa5",
					"donors(uint256)": "4abfa163",
					"getTop3Donors()": "2d1e2518",
					"owner()": "8da5cb5b",
					"withdraw()": "3ccfd60b"
				}
			},
			"storageLayout": {
				"storage": [
					{
						"astId": 3,
						"contract": "Bank.sol:Bank",
						"label": "owner",
						"offset": 0,
						"slot": "0",
						"type": "t_address"
					},
					{
						"astId": 6,
						"contract": "Bank.sol:Bank",
						"label": "donors",
						"offset": 0,
						"slot": "1",
						"type": "t_array(t_address)dyn_storage"
					},
					{
						"astId": 10,
						"contract": "Bank.sol:Bank",
						"label": "addr2money",
						"offset": 0,
						"slot": "2",
						"type": "t_mapping(t_address,t_uint256)"
					}
				],
				"types": {
					"t_address": {
						"encoding": "inplace",
						"label": "address",
						"numberOfBytes": "20"
					},
					"t_array(t_address)dyn_storage": {
						"base": "t_address",
						"encoding": "dynamic_array",
						"label": "address[]",
						"numberOfBytes": "32"
					},
					"t_mapping(t_address,t_uint256)": {
						"encoding": "mapping",
						"key": "t_address",
						"label": "mapping(address => uint256)",
						"numberOfBytes": "32",
						"value": "t_uint256"
					},
					"t_uint256": {
						"encoding": "inplace",
						"label": "uint256",
						"numberOfBytes": "32"
					}
				}
			},
			"userdoc": {
				"kind": "user",
				"methods": {},
				"version": 1
			}
		}
	}
}